{
	"AdvancedBookStore.sol": {
		"AdvancedBookStore": {
			"abi": [
				{
					"inputs": [
						{
							"internalType": "address",
							"name": "_owner",
							"type": "address"
						}
					],
					"stateMutability": "nonpayable",
					"type": "constructor"
				},
				{
					"anonymous": false,
					"inputs": [
						{
							"indexed": true,
							"internalType": "uint256",
							"name": "bookId",
							"type": "uint256"
						},
						{
							"indexed": false,
							"internalType": "string",
							"name": "title",
							"type": "string"
						},
						{
							"indexed": false,
							"internalType": "string",
							"name": "author",
							"type": "string"
						},
						{
							"indexed": false,
							"internalType": "uint256",
							"name": "price",
							"type": "uint256"
						},
						{
							"indexed": false,
							"internalType": "uint256",
							"name": "stock",
							"type": "uint256"
						}
					],
					"name": "BookAdded",
					"type": "event"
				},
				{
					"anonymous": false,
					"inputs": [
						{
							"indexed": true,
							"internalType": "uint256",
							"name": "bookId",
							"type": "uint256"
						}
					],
					"name": "BookMarkedAsBestseller",
					"type": "event"
				},
				{
					"anonymous": false,
					"inputs": [
						{
							"indexed": true,
							"internalType": "uint256",
							"name": "bookId",
							"type": "uint256"
						},
						{
							"indexed": true,
							"internalType": "address",
							"name": "buyer",
							"type": "address"
						},
						{
							"indexed": false,
							"internalType": "uint256",
							"name": "quantity",
							"type": "uint256"
						}
					],
					"name": "BookPurchased",
					"type": "event"
				},
				{
					"anonymous": false,
					"inputs": [
						{
							"indexed": true,
							"internalType": "uint256",
							"name": "bookId",
							"type": "uint256"
						}
					],
					"name": "BookRemoved",
					"type": "event"
				},
				{
					"inputs": [
						{
							"internalType": "uint256",
							"name": "_bookId",
							"type": "uint256"
						},
						{
							"internalType": "string",
							"name": "_title",
							"type": "string"
						},
						{
							"internalType": "string",
							"name": "_author",
							"type": "string"
						},
						{
							"internalType": "uint256",
							"name": "_price",
							"type": "uint256"
						},
						{
							"internalType": "uint256",
							"name": "_stock",
							"type": "uint256"
						}
					],
					"name": "addBook",
					"outputs": [],
					"stateMutability": "nonpayable",
					"type": "function"
				},
				{
					"inputs": [
						{
							"internalType": "uint256",
							"name": "",
							"type": "uint256"
						}
					],
					"name": "bestsellers",
					"outputs": [
						{
							"internalType": "bool",
							"name": "",
							"type": "bool"
						}
					],
					"stateMutability": "view",
					"type": "function"
				},
				{
					"inputs": [
						{
							"internalType": "uint256",
							"name": "",
							"type": "uint256"
						}
					],
					"name": "bookIds",
					"outputs": [
						{
							"internalType": "uint256",
							"name": "",
							"type": "uint256"
						}
					],
					"stateMutability": "view",
					"type": "function"
				},
				{
					"inputs": [
						{
							"internalType": "uint256",
							"name": "",
							"type": "uint256"
						}
					],
					"name": "books",
					"outputs": [
						{
							"internalType": "string",
							"name": "title",
							"type": "string"
						},
						{
							"internalType": "string",
							"name": "author",
							"type": "string"
						},
						{
							"internalType": "uint256",
							"name": "price",
							"type": "uint256"
						},
						{
							"internalType": "uint256",
							"name": "stock",
							"type": "uint256"
						},
						{
							"internalType": "bool",
							"name": "isAvailable",
							"type": "bool"
						}
					],
					"stateMutability": "view",
					"type": "function"
				},
				{
					"inputs": [
						{
							"internalType": "uint256",
							"name": "_bookId",
							"type": "uint256"
						},
						{
							"internalType": "uint256",
							"name": "_quantity",
							"type": "uint256"
						},
						{
							"internalType": "uint256",
							"name": "_amount",
							"type": "uint256"
						}
					],
					"name": "buyBook",
					"outputs": [],
					"stateMutability": "payable",
					"type": "function"
				},
				{
					"inputs": [
						{
							"internalType": "uint256",
							"name": "_bookId",
							"type": "uint256"
						}
					],
					"name": "getBooks",
					"outputs": [
						{
							"internalType": "string",
							"name": "",
							"type": "string"
						},
						{
							"internalType": "string",
							"name": "",
							"type": "string"
						},
						{
							"internalType": "uint256",
							"name": "",
							"type": "uint256"
						},
						{
							"internalType": "uint256",
							"name": "",
							"type": "uint256"
						},
						{
							"internalType": "bool",
							"name": "",
							"type": "bool"
						}
					],
					"stateMutability": "view",
					"type": "function"
				},
				{
					"inputs": [
						{
							"internalType": "uint256",
							"name": "_bookId",
							"type": "uint256"
						}
					],
					"name": "isBestseller",
					"outputs": [
						{
							"internalType": "bool",
							"name": "",
							"type": "bool"
						}
					],
					"stateMutability": "view",
					"type": "function"
				},
				{
					"inputs": [
						{
							"internalType": "uint256",
							"name": "_bookId",
							"type": "uint256"
						}
					],
					"name": "markAsBestseller",
					"outputs": [],
					"stateMutability": "nonpayable",
					"type": "function"
				},
				{
					"inputs": [],
					"name": "owner",
					"outputs": [
						{
							"internalType": "address",
							"name": "",
							"type": "address"
						}
					],
					"stateMutability": "view",
					"type": "function"
				},
				{
					"inputs": [
						{
							"internalType": "uint256",
							"name": "_bookId",
							"type": "uint256"
						}
					],
					"name": "removeBook",
					"outputs": [],
					"stateMutability": "nonpayable",
					"type": "function"
				}
			],
			"devdoc": {
				"kind": "dev",
				"methods": {},
				"version": 1
			},
			"evm": {
				"assembly": "    /* \"AdvancedBookStore.sol\":142:1284  contract AdvancedBookStore is BookStore{... */\n  mstore(0x40, 0x80)\n    /* \"AdvancedBookStore.sol\":343:390  constructor(address _owner) BookStore(_owner){} */\n  callvalue\n  dup1\n  iszero\n  tag_1\n  jumpi\n  0x00\n  dup1\n  revert\ntag_1:\n  pop\n  mload(0x40)\n  sub(codesize, bytecodeSize)\n  dup1\n  bytecodeSize\n  dup4\n  codecopy\n  dup2\n  dup2\n  add\n  0x40\n  mstore\n  dup2\n  add\n  swap1\n  tag_2\n  swap2\n  swap1\n  tag_3\n  jump\t// in\ntag_2:\n    /* \"AdvancedBookStore.sol\":381:387  _owner */\n  dup1\n    /* \"BookStore.sol\":2341:2347  _owner */\n  dup1\n    /* \"BookStore.sol\":2333:2338  owner */\n  0x00\n  dup1\n    /* \"BookStore.sol\":2333:2347  owner = _owner */\n  0x0100\n  exp\n  dup2\n  sload\n  dup2\n  0xffffffffffffffffffffffffffffffffffffffff\n  mul\n  not\n  and\n  swap1\n  dup4\n  0xffffffffffffffffffffffffffffffffffffffff\n  and\n  mul\n  or\n  swap1\n  sstore\n  pop\n    /* \"BookStore.sol\":2295:2355  constructor(address _owner) {... */\n  pop\n    /* \"AdvancedBookStore.sol\":343:390  constructor(address _owner) BookStore(_owner){} */\n  pop\n    /* \"AdvancedBookStore.sol\":142:1284  contract AdvancedBookStore is BookStore{... */\n  jump(tag_8)\n    /* \"#utility.yul\":88:205   */\ntag_10:\n    /* \"#utility.yul\":197:198   */\n  0x00\n    /* \"#utility.yul\":194:195   */\n  dup1\n    /* \"#utility.yul\":187:199   */\n  revert\n    /* \"#utility.yul\":334:460   */\ntag_12:\n    /* \"#utility.yul\":371:378   */\n  0x00\n    /* \"#utility.yul\":411:453   */\n  0xffffffffffffffffffffffffffffffffffffffff\n    /* \"#utility.yul\":404:409   */\n  dup3\n    /* \"#utility.yul\":400:454   */\n  and\n    /* \"#utility.yul\":389:454   */\n  swap1\n  pop\n    /* \"#utility.yul\":334:460   */\n  swap2\n  swap1\n  pop\n  jump\t// out\n    /* \"#utility.yul\":466:562   */\ntag_13:\n    /* \"#utility.yul\":503:510   */\n  0x00\n    /* \"#utility.yul\":532:556   */\n  tag_22\n    /* \"#utility.yul\":550:555   */\n  dup3\n    /* \"#utility.yul\":532:556   */\n  tag_12\n  jump\t// in\ntag_22:\n    /* \"#utility.yul\":521:556   */\n  swap1\n  pop\n    /* \"#utility.yul\":466:562   */\n  swap2\n  swap1\n  pop\n  jump\t// out\n    /* \"#utility.yul\":568:690   */\ntag_14:\n    /* \"#utility.yul\":641:665   */\n  tag_24\n    /* \"#utility.yul\":659:664   */\n  dup2\n    /* \"#utility.yul\":641:665   */\n  tag_13\n  jump\t// in\ntag_24:\n    /* \"#utility.yul\":634:639   */\n  dup2\n    /* \"#utility.yul\":631:666   */\n  eq\n    /* \"#utility.yul\":621:684   */\n  tag_25\n  jumpi\n    /* \"#utility.yul\":680:681   */\n  0x00\n    /* \"#utility.yul\":677:678   */\n  dup1\n    /* \"#utility.yul\":670:682   */\n  revert\n    /* \"#utility.yul\":621:684   */\ntag_25:\n    /* \"#utility.yul\":568:690   */\n  pop\n  jump\t// out\n    /* \"#utility.yul\":696:839   */\ntag_15:\n    /* \"#utility.yul\":753:758   */\n  0x00\n    /* \"#utility.yul\":784:790   */\n  dup2\n    /* \"#utility.yul\":778:791   */\n  mload\n    /* \"#utility.yul\":769:791   */\n  swap1\n  pop\n    /* \"#utility.yul\":800:833   */\n  tag_27\n    /* \"#utility.yul\":827:832   */\n  dup2\n    /* \"#utility.yul\":800:833   */\n  tag_14\n  jump\t// in\ntag_27:\n    /* \"#utility.yul\":696:839   */\n  swap3\n  swap2\n  pop\n  pop\n  jump\t// out\n    /* \"#utility.yul\":845:1196   */\ntag_3:\n    /* \"#utility.yul\":915:921   */\n  0x00\n    /* \"#utility.yul\":964:966   */\n  0x20\n    /* \"#utility.yul\":952:961   */\n  dup3\n    /* \"#utility.yul\":943:950   */\n  dup5\n    /* \"#utility.yul\":939:962   */\n  sub\n    /* \"#utility.yul\":935:967   */\n  slt\n    /* \"#utility.yul\":932:1051   */\n  iszero\n  tag_29\n  jumpi\n    /* \"#utility.yul\":970:1049   */\n  tag_30\n  tag_10\n  jump\t// in\ntag_30:\n    /* \"#utility.yul\":932:1051   */\ntag_29:\n    /* \"#utility.yul\":1090:1091   */\n  0x00\n    /* \"#utility.yul\":1115:1179   */\n  tag_31\n    /* \"#utility.yul\":1171:1178   */\n  dup5\n    /* \"#utility.yul\":1162:1168   */\n  dup3\n    /* \"#utility.yul\":1151:1160   */\n  dup6\n    /* \"#utility.yul\":1147:1169   */\n  add\n    /* \"#utility.yul\":1115:1179   */\n  tag_15\n  jump\t// in\ntag_31:\n    /* \"#utility.yul\":1105:1179   */\n  swap2\n  pop\n    /* \"#utility.yul\":1061:1189   */\n  pop\n    /* \"#utility.yul\":845:1196   */\n  swap3\n  swap2\n  pop\n  pop\n  jump\t// out\n    /* \"AdvancedBookStore.sol\":142:1284  contract AdvancedBookStore is BookStore{... */\ntag_8:\n  dataSize(sub_0)\n  dup1\n  dataOffset(sub_0)\n  0x00\n  codecopy\n  0x00\n  return\nstop\n\nsub_0: assembly {\n        /* \"AdvancedBookStore.sol\":142:1284  contract AdvancedBookStore is BookStore{... */\n      mstore(0x40, 0x80)\n      jumpi(tag_1, lt(calldatasize, 0x04))\n      shr(0xe0, calldataload(0x00))\n      dup1\n      0x89f2fa9c\n      gt\n      tag_12\n      jumpi\n      dup1\n      0x89f2fa9c\n      eq\n      tag_7\n      jumpi\n      dup1\n      0x8da5cb5b\n      eq\n      tag_8\n      jumpi\n      dup1\n      0xbec0d799\n      eq\n      tag_9\n      jumpi\n      dup1\n      0xf346e2b7\n      eq\n      tag_10\n      jumpi\n      dup1\n      0xf733719c\n      eq\n      tag_11\n      jumpi\n      jump(tag_1)\n    tag_12:\n      dup1\n      0x44420ebd\n      eq\n      tag_2\n      jumpi\n      dup1\n      0x513073b8\n      eq\n      tag_3\n      jumpi\n      dup1\n      0x5ac3e19e\n      eq\n      tag_4\n      jumpi\n      dup1\n      0x6579404d\n      eq\n      tag_5\n      jumpi\n      dup1\n      0x68744046\n      eq\n      tag_6\n      jumpi\n    tag_1:\n      0x00\n      dup1\n      revert\n        /* \"AdvancedBookStore.sol\":187:230  mapping (uint256 => bool)public bestsellers */\n    tag_2:\n      callvalue\n      dup1\n      iszero\n      tag_13\n      jumpi\n      0x00\n      dup1\n      revert\n    tag_13:\n      pop\n      tag_14\n      0x04\n      dup1\n      calldatasize\n      sub\n      dup2\n      add\n      swap1\n      tag_15\n      swap2\n      swap1\n      tag_16\n      jump\t// in\n    tag_15:\n      tag_17\n      jump\t// in\n    tag_14:\n      mload(0x40)\n      tag_18\n      swap2\n      swap1\n      tag_19\n      jump\t// in\n    tag_18:\n      mload(0x40)\n      dup1\n      swap2\n      sub\n      swap1\n      return\n        /* \"BookStore.sol\":1872:1896  uint256[] public bookIds */\n    tag_3:\n      callvalue\n      dup1\n      iszero\n      tag_20\n      jumpi\n      0x00\n      dup1\n      revert\n    tag_20:\n      pop\n      tag_21\n      0x04\n      dup1\n      calldatasize\n      sub\n      dup2\n      add\n      swap1\n      tag_22\n      swap2\n      swap1\n      tag_16\n      jump\t// in\n    tag_22:\n      tag_23\n      jump\t// in\n    tag_21:\n      mload(0x40)\n      tag_24\n      swap2\n      swap1\n      tag_25\n      jump\t// in\n    tag_24:\n      mload(0x40)\n      dup1\n      swap2\n      sub\n      swap1\n      return\n        /* \"BookStore.sol\":2895:3139  function getBooks(uint256 _bookId) public view returns (string memory, string memory, uint256, uint256, bool) {... */\n    tag_4:\n      callvalue\n      dup1\n      iszero\n      tag_26\n      jumpi\n      0x00\n      dup1\n      revert\n    tag_26:\n      pop\n      tag_27\n      0x04\n      dup1\n      calldatasize\n      sub\n      dup2\n      add\n      swap1\n      tag_28\n      swap2\n      swap1\n      tag_16\n      jump\t// in\n    tag_28:\n      tag_29\n      jump\t// in\n    tag_27:\n      mload(0x40)\n      tag_30\n      swap6\n      swap5\n      swap4\n      swap3\n      swap2\n      swap1\n      tag_31\n      jump\t// in\n    tag_30:\n      mload(0x40)\n      dup1\n      swap2\n      sub\n      swap1\n      return\n        /* \"AdvancedBookStore.sol\":428:643  function markAsBestseller(uint256 _bookId)public onlyOwner{... */\n    tag_5:\n      callvalue\n      dup1\n      iszero\n      tag_32\n      jumpi\n      0x00\n      dup1\n      revert\n    tag_32:\n      pop\n      tag_33\n      0x04\n      dup1\n      calldatasize\n      sub\n      dup2\n      add\n      swap1\n      tag_34\n      swap2\n      swap1\n      tag_16\n      jump\t// in\n    tag_34:\n      tag_35\n      jump\t// in\n    tag_33:\n      stop\n        /* \"BookStore.sol\":1828:1865  mapping(uint256 => Book) public books */\n    tag_6:\n      callvalue\n      dup1\n      iszero\n      tag_36\n      jumpi\n      0x00\n      dup1\n      revert\n    tag_36:\n      pop\n      tag_37\n      0x04\n      dup1\n      calldatasize\n      sub\n      dup2\n      add\n      swap1\n      tag_38\n      swap2\n      swap1\n      tag_16\n      jump\t// in\n    tag_38:\n      tag_39\n      jump\t// in\n    tag_37:\n      mload(0x40)\n      tag_40\n      swap6\n      swap5\n      swap4\n      swap3\n      swap2\n      swap1\n      tag_31\n      jump\t// in\n    tag_40:\n      mload(0x40)\n      dup1\n      swap2\n      sub\n      swap1\n      return\n        /* \"AdvancedBookStore.sol\":648:757  function isBestseller(uint256 _bookId) public view returns (bool){... */\n    tag_7:\n      callvalue\n      dup1\n      iszero\n      tag_41\n      jumpi\n      0x00\n      dup1\n      revert\n    tag_41:\n      pop\n      tag_42\n      0x04\n      dup1\n      calldatasize\n      sub\n      dup2\n      add\n      swap1\n      tag_43\n      swap2\n      swap1\n      tag_16\n      jump\t// in\n    tag_43:\n      tag_44\n      jump\t// in\n    tag_42:\n      mload(0x40)\n      tag_45\n      swap2\n      swap1\n      tag_19\n      jump\t// in\n    tag_45:\n      mload(0x40)\n      dup1\n      swap2\n      sub\n      swap1\n      return\n        /* \"BookStore.sol\":1662:1682  address public owner */\n    tag_8:\n      callvalue\n      dup1\n      iszero\n      tag_46\n      jumpi\n      0x00\n      dup1\n      revert\n    tag_46:\n      pop\n      tag_47\n      tag_48\n      jump\t// in\n    tag_47:\n      mload(0x40)\n      tag_49\n      swap2\n      swap1\n      tag_50\n      jump\t// in\n    tag_49:\n      mload(0x40)\n      dup1\n      swap2\n      sub\n      swap1\n      return\n        /* \"AdvancedBookStore.sol\":763:1281  function removeBook(uint256 _bookId) public onlyOwner{... */\n    tag_9:\n      callvalue\n      dup1\n      iszero\n      tag_51\n      jumpi\n      0x00\n      dup1\n      revert\n    tag_51:\n      pop\n      tag_52\n      0x04\n      dup1\n      calldatasize\n      sub\n      dup2\n      add\n      swap1\n      tag_53\n      swap2\n      swap1\n      tag_16\n      jump\t// in\n    tag_53:\n      tag_54\n      jump\t// in\n    tag_52:\n      stop\n        /* \"BookStore.sol\":3145:3850  function buyBook(uint256 _bookId, uint256 _quantity, uint256 _amount) public payable {... */\n    tag_10:\n      tag_55\n      0x04\n      dup1\n      calldatasize\n      sub\n      dup2\n      add\n      swap1\n      tag_56\n      swap2\n      swap1\n      tag_57\n      jump\t// in\n    tag_56:\n      tag_58\n      jump\t// in\n    tag_55:\n      stop\n        /* \"BookStore.sol\":2362:2886  function addBook(uint256 _bookId, string memory _title, string memory _author, uint256 _price, uint256 _stock) public onlyOwner {... */\n    tag_11:\n      callvalue\n      dup1\n      iszero\n      tag_59\n      jumpi\n      0x00\n      dup1\n      revert\n    tag_59:\n      pop\n      tag_60\n      0x04\n      dup1\n      calldatasize\n      sub\n      dup2\n      add\n      swap1\n      tag_61\n      swap2\n      swap1\n      tag_62\n      jump\t// in\n    tag_61:\n      tag_63\n      jump\t// in\n    tag_60:\n      stop\n        /* \"AdvancedBookStore.sol\":187:230  mapping (uint256 => bool)public bestsellers */\n    tag_17:\n      mstore(0x20, 0x03)\n      dup1\n      0x00\n      mstore\n      keccak256(0x00, 0x40)\n      0x00\n      swap2\n      pop\n      sload\n      swap1\n      0x0100\n      exp\n      swap1\n      div\n      0xff\n      and\n      dup2\n      jump\t// out\n        /* \"BookStore.sol\":1872:1896  uint256[] public bookIds */\n    tag_23:\n      0x02\n      dup2\n      dup2\n      sload\n      dup2\n      lt\n      tag_64\n      jumpi\n      0x00\n      dup1\n      revert\n    tag_64:\n      swap1\n      0x00\n      mstore\n      keccak256(0x00, 0x20)\n      add\n      0x00\n      swap2\n      pop\n      swap1\n      pop\n      sload\n      dup2\n      jump\t// out\n        /* \"BookStore.sol\":2895:3139  function getBooks(uint256 _bookId) public view returns (string memory, string memory, uint256, uint256, bool) {... */\n    tag_29:\n        /* \"BookStore.sol\":2951:2964  string memory */\n      0x60\n        /* \"BookStore.sol\":2966:2979  string memory */\n      dup1\n        /* \"BookStore.sol\":2981:2988  uint256 */\n      0x00\n        /* \"BookStore.sol\":2990:2997  uint256 */\n      dup1\n        /* \"BookStore.sol\":2999:3003  bool */\n      0x00\n        /* \"BookStore.sol\":3015:3031  Book memory book */\n      dup1\n        /* \"BookStore.sol\":3034:3039  books */\n      0x01\n        /* \"BookStore.sol\":3034:3048  books[_bookId] */\n      0x00\n        /* \"BookStore.sol\":3040:3047  _bookId */\n      dup9\n        /* \"BookStore.sol\":3034:3048  books[_bookId] */\n      dup2\n      mstore\n      0x20\n      add\n      swap1\n      dup2\n      mstore\n      0x20\n      add\n      0x00\n      keccak256\n        /* \"BookStore.sol\":3015:3048  Book memory book = books[_bookId] */\n      mload(0x40)\n      dup1\n      0xa0\n      add\n      0x40\n      mstore\n      swap1\n      dup2\n      0x00\n      dup3\n      add\n      dup1\n      sload\n      tag_67\n      swap1\n      tag_68\n      jump\t// in\n    tag_67:\n      dup1\n      0x1f\n      add\n      0x20\n      dup1\n      swap2\n      div\n      mul\n      0x20\n      add\n      mload(0x40)\n      swap1\n      dup2\n      add\n      0x40\n      mstore\n      dup1\n      swap3\n      swap2\n      swap1\n      dup2\n      dup2\n      mstore\n      0x20\n      add\n      dup3\n      dup1\n      sload\n      tag_69\n      swap1\n      tag_68\n      jump\t// in\n    tag_69:\n      dup1\n      iszero\n      tag_70\n      jumpi\n      dup1\n      0x1f\n      lt\n      tag_71\n      jumpi\n      0x0100\n      dup1\n      dup4\n      sload\n      div\n      mul\n      dup4\n      mstore\n      swap2\n      0x20\n      add\n      swap2\n      jump(tag_70)\n    tag_71:\n      dup3\n      add\n      swap2\n      swap1\n      0x00\n      mstore\n      keccak256(0x00, 0x20)\n      swap1\n    tag_72:\n      dup2\n      sload\n      dup2\n      mstore\n      swap1\n      0x01\n      add\n      swap1\n      0x20\n      add\n      dup1\n      dup4\n      gt\n      tag_72\n      jumpi\n      dup3\n      swap1\n      sub\n      0x1f\n      and\n      dup3\n      add\n      swap2\n    tag_70:\n      pop\n      pop\n      pop\n      pop\n      pop\n      dup2\n      mstore\n      0x20\n      add\n      0x01\n      dup3\n      add\n      dup1\n      sload\n      tag_73\n      swap1\n      tag_68\n      jump\t// in\n    tag_73:\n      dup1\n      0x1f\n      add\n      0x20\n      dup1\n      swap2\n      div\n      mul\n      0x20\n      add\n      mload(0x40)\n      swap1\n      dup2\n      add\n      0x40\n      mstore\n      dup1\n      swap3\n      swap2\n      swap1\n      dup2\n      dup2\n      mstore\n      0x20\n      add\n      dup3\n      dup1\n      sload\n      tag_74\n      swap1\n      tag_68\n      jump\t// in\n    tag_74:\n      dup1\n      iszero\n      tag_75\n      jumpi\n      dup1\n      0x1f\n      lt\n      tag_76\n      jumpi\n      0x0100\n      dup1\n      dup4\n      sload\n      div\n      mul\n      dup4\n      mstore\n      swap2\n      0x20\n      add\n      swap2\n      jump(tag_75)\n    tag_76:\n      dup3\n      add\n      swap2\n      swap1\n      0x00\n      mstore\n      keccak256(0x00, 0x20)\n      swap1\n    tag_77:\n      dup2\n      sload\n      dup2\n      mstore\n      swap1\n      0x01\n      add\n      swap1\n      0x20\n      add\n      dup1\n      dup4\n      gt\n      tag_77\n      jumpi\n      dup3\n      swap1\n      sub\n      0x1f\n      and\n      dup3\n      add\n      swap2\n    tag_75:\n      pop\n      pop\n      pop\n      pop\n      pop\n      dup2\n      mstore\n      0x20\n      add\n      0x02\n      dup3\n      add\n      sload\n      dup2\n      mstore\n      0x20\n      add\n      0x03\n      dup3\n      add\n      sload\n      dup2\n      mstore\n      0x20\n      add\n      0x04\n      dup3\n      add\n      0x00\n      swap1\n      sload\n      swap1\n      0x0100\n      exp\n      swap1\n      div\n      0xff\n      and\n      iszero\n      iszero\n      iszero\n      iszero\n      dup2\n      mstore\n      pop\n      pop\n      swap1\n      pop\n        /* \"BookStore.sol\":3066:3070  book */\n      dup1\n        /* \"BookStore.sol\":3066:3076  book.title */\n      0x00\n      add\n      mload\n        /* \"BookStore.sol\":3078:3082  book */\n      dup2\n        /* \"BookStore.sol\":3078:3089  book.author */\n      0x20\n      add\n      mload\n        /* \"BookStore.sol\":3091:3095  book */\n      dup3\n        /* \"BookStore.sol\":3091:3101  book.price */\n      0x40\n      add\n      mload\n        /* \"BookStore.sol\":3103:3107  book */\n      dup4\n        /* \"BookStore.sol\":3103:3113  book.stock */\n      0x60\n      add\n      mload\n        /* \"BookStore.sol\":3115:3119  book */\n      dup5\n        /* \"BookStore.sol\":3115:3131  book.isAvailable */\n      0x80\n      add\n      mload\n        /* \"BookStore.sol\":3058:3132  return (book.title, book.author, book.price, book.stock, book.isAvailable) */\n      swap6\n      pop\n      swap6\n      pop\n      swap6\n      pop\n      swap6\n      pop\n      swap6\n      pop\n      pop\n        /* \"BookStore.sol\":2895:3139  function getBooks(uint256 _bookId) public view returns (string memory, string memory, uint256, uint256, bool) {... */\n      swap2\n      swap4\n      swap6\n      swap1\n      swap3\n      swap5\n      pop\n      jump\t// out\n        /* \"AdvancedBookStore.sol\":428:643  function markAsBestseller(uint256 _bookId)public onlyOwner{... */\n    tag_35:\n        /* \"BookStore.sol\":2221:2226  owner */\n      0x00\n      dup1\n      sload\n      swap1\n      0x0100\n      exp\n      swap1\n      div\n      0xffffffffffffffffffffffffffffffffffffffff\n      and\n        /* \"BookStore.sol\":2207:2226  msg.sender == owner */\n      0xffffffffffffffffffffffffffffffffffffffff\n      and\n        /* \"BookStore.sol\":2207:2217  msg.sender */\n      caller\n        /* \"BookStore.sol\":2207:2226  msg.sender == owner */\n      0xffffffffffffffffffffffffffffffffffffffff\n      and\n      eq\n        /* \"BookStore.sol\":2199:2270  require(msg.sender == owner, \"Only the owner can perform this action.\") */\n      tag_79\n      jumpi\n      mload(0x40)\n      0x08c379a000000000000000000000000000000000000000000000000000000000\n      dup2\n      mstore\n      0x04\n      add\n      tag_80\n      swap1\n      tag_81\n      jump\t// in\n    tag_80:\n      mload(0x40)\n      dup1\n      swap2\n      sub\n      swap1\n      revert\n    tag_79:\n        /* \"AdvancedBookStore.sol\":528:529  0 */\n      0x00\n        /* \"AdvancedBookStore.sol\":504:509  books */\n      0x01\n        /* \"AdvancedBookStore.sol\":504:518  books[_bookId] */\n      0x00\n        /* \"AdvancedBookStore.sol\":510:517  _bookId */\n      dup4\n        /* \"AdvancedBookStore.sol\":504:518  books[_bookId] */\n      dup2\n      mstore\n      0x20\n      add\n      swap1\n      dup2\n      mstore\n      0x20\n      add\n      0x00\n      keccak256\n        /* \"AdvancedBookStore.sol\":504:524  books[_bookId].price */\n      0x02\n      add\n      sload\n        /* \"AdvancedBookStore.sol\":504:529  books[_bookId].price != 0 */\n      sub\n        /* \"AdvancedBookStore.sol\":496:553  require(books[_bookId].price != 0, \"Book does not exist\") */\n      tag_83\n      jumpi\n      mload(0x40)\n      0x08c379a000000000000000000000000000000000000000000000000000000000\n      dup2\n      mstore\n      0x04\n      add\n      tag_84\n      swap1\n      tag_85\n      jump\t// in\n    tag_84:\n      mload(0x40)\n      dup1\n      swap2\n      sub\n      swap1\n      revert\n    tag_83:\n        /* \"AdvancedBookStore.sol\":586:590  true */\n      0x01\n        /* \"AdvancedBookStore.sol\":563:574  bestsellers */\n      0x03\n        /* \"AdvancedBookStore.sol\":563:583  bestsellers[_bookId] */\n      0x00\n        /* \"AdvancedBookStore.sol\":575:582  _bookId */\n      dup4\n        /* \"AdvancedBookStore.sol\":563:583  bestsellers[_bookId] */\n      dup2\n      mstore\n      0x20\n      add\n      swap1\n      dup2\n      mstore\n      0x20\n      add\n      0x00\n      keccak256\n      0x00\n        /* \"AdvancedBookStore.sol\":563:590  bestsellers[_bookId] = true */\n      0x0100\n      exp\n      dup2\n      sload\n      dup2\n      0xff\n      mul\n      not\n      and\n      swap1\n      dup4\n      iszero\n      iszero\n      mul\n      or\n      swap1\n      sstore\n      pop\n        /* \"AdvancedBookStore.sol\":628:635  _bookId */\n      dup1\n        /* \"AdvancedBookStore.sol\":605:636  BookMarkedAsBestseller(_bookId) */\n      0x638aef8adef10dde4a6d3a8b25d13de8672dfd9ce5a47c8b67dc3d48569d3647\n      mload(0x40)\n      mload(0x40)\n      dup1\n      swap2\n      sub\n      swap1\n      log2\n        /* \"AdvancedBookStore.sol\":428:643  function markAsBestseller(uint256 _bookId)public onlyOwner{... */\n      pop\n      jump\t// out\n        /* \"BookStore.sol\":1828:1865  mapping(uint256 => Book) public books */\n    tag_39:\n      mstore(0x20, 0x01)\n      dup1\n      0x00\n      mstore\n      keccak256(0x00, 0x40)\n      0x00\n      swap2\n      pop\n      swap1\n      pop\n      dup1\n      0x00\n      add\n      dup1\n      sload\n      tag_86\n      swap1\n      tag_68\n      jump\t// in\n    tag_86:\n      dup1\n      0x1f\n      add\n      0x20\n      dup1\n      swap2\n      div\n      mul\n      0x20\n      add\n      mload(0x40)\n      swap1\n      dup2\n      add\n      0x40\n      mstore\n      dup1\n      swap3\n      swap2\n      swap1\n      dup2\n      dup2\n      mstore\n      0x20\n      add\n      dup3\n      dup1\n      sload\n      tag_87\n      swap1\n      tag_68\n      jump\t// in\n    tag_87:\n      dup1\n      iszero\n      tag_88\n      jumpi\n      dup1\n      0x1f\n      lt\n      tag_89\n      jumpi\n      0x0100\n      dup1\n      dup4\n      sload\n      div\n      mul\n      dup4\n      mstore\n      swap2\n      0x20\n      add\n      swap2\n      jump(tag_88)\n    tag_89:\n      dup3\n      add\n      swap2\n      swap1\n      0x00\n      mstore\n      keccak256(0x00, 0x20)\n      swap1\n    tag_90:\n      dup2\n      sload\n      dup2\n      mstore\n      swap1\n      0x01\n      add\n      swap1\n      0x20\n      add\n      dup1\n      dup4\n      gt\n      tag_90\n      jumpi\n      dup3\n      swap1\n      sub\n      0x1f\n      and\n      dup3\n      add\n      swap2\n    tag_88:\n      pop\n      pop\n      pop\n      pop\n      pop\n      swap1\n      dup1\n      0x01\n      add\n      dup1\n      sload\n      tag_91\n      swap1\n      tag_68\n      jump\t// in\n    tag_91:\n      dup1\n      0x1f\n      add\n      0x20\n      dup1\n      swap2\n      div\n      mul\n      0x20\n      add\n      mload(0x40)\n      swap1\n      dup2\n      add\n      0x40\n      mstore\n      dup1\n      swap3\n      swap2\n      swap1\n      dup2\n      dup2\n      mstore\n      0x20\n      add\n      dup3\n      dup1\n      sload\n      tag_92\n      swap1\n      tag_68\n      jump\t// in\n    tag_92:\n      dup1\n      iszero\n      tag_93\n      jumpi\n      dup1\n      0x1f\n      lt\n      tag_94\n      jumpi\n      0x0100\n      dup1\n      dup4\n      sload\n      div\n      mul\n      dup4\n      mstore\n      swap2\n      0x20\n      add\n      swap2\n      jump(tag_93)\n    tag_94:\n      dup3\n      add\n      swap2\n      swap1\n      0x00\n      mstore\n      keccak256(0x00, 0x20)\n      swap1\n    tag_95:\n      dup2\n      sload\n      dup2\n      mstore\n      swap1\n      0x01\n      add\n      swap1\n      0x20\n      add\n      dup1\n      dup4\n      gt\n      tag_95\n      jumpi\n      dup3\n      swap1\n      sub\n      0x1f\n      and\n      dup3\n      add\n      swap2\n    tag_93:\n      pop\n      pop\n      pop\n      pop\n      pop\n      swap1\n      dup1\n      0x02\n      add\n      sload\n      swap1\n      dup1\n      0x03\n      add\n      sload\n      swap1\n      dup1\n      0x04\n      add\n      0x00\n      swap1\n      sload\n      swap1\n      0x0100\n      exp\n      swap1\n      div\n      0xff\n      and\n      swap1\n      pop\n      dup6\n      jump\t// out\n        /* \"AdvancedBookStore.sol\":648:757  function isBestseller(uint256 _bookId) public view returns (bool){... */\n    tag_44:\n        /* \"AdvancedBookStore.sol\":708:712  bool */\n      0x00\n        /* \"AdvancedBookStore.sol\":730:741  bestsellers */\n      0x03\n        /* \"AdvancedBookStore.sol\":730:750  bestsellers[_bookId] */\n      0x00\n        /* \"AdvancedBookStore.sol\":742:749  _bookId */\n      dup4\n        /* \"AdvancedBookStore.sol\":730:750  bestsellers[_bookId] */\n      dup2\n      mstore\n      0x20\n      add\n      swap1\n      dup2\n      mstore\n      0x20\n      add\n      0x00\n      keccak256\n      0x00\n      swap1\n      sload\n      swap1\n      0x0100\n      exp\n      swap1\n      div\n      0xff\n      and\n        /* \"AdvancedBookStore.sol\":723:750  return bestsellers[_bookId] */\n      swap1\n      pop\n        /* \"AdvancedBookStore.sol\":648:757  function isBestseller(uint256 _bookId) public view returns (bool){... */\n      swap2\n      swap1\n      pop\n      jump\t// out\n        /* \"BookStore.sol\":1662:1682  address public owner */\n    tag_48:\n      0x00\n      dup1\n      sload\n      swap1\n      0x0100\n      exp\n      swap1\n      div\n      0xffffffffffffffffffffffffffffffffffffffff\n      and\n      dup2\n      jump\t// out\n        /* \"AdvancedBookStore.sol\":763:1281  function removeBook(uint256 _bookId) public onlyOwner{... */\n    tag_54:\n        /* \"BookStore.sol\":2221:2226  owner */\n      0x00\n      dup1\n      sload\n      swap1\n      0x0100\n      exp\n      swap1\n      div\n      0xffffffffffffffffffffffffffffffffffffffff\n      and\n        /* \"BookStore.sol\":2207:2226  msg.sender == owner */\n      0xffffffffffffffffffffffffffffffffffffffff\n      and\n        /* \"BookStore.sol\":2207:2217  msg.sender */\n      caller\n        /* \"BookStore.sol\":2207:2226  msg.sender == owner */\n      0xffffffffffffffffffffffffffffffffffffffff\n      and\n      eq\n        /* \"BookStore.sol\":2199:2270  require(msg.sender == owner, \"Only the owner can perform this action.\") */\n      tag_98\n      jumpi\n      mload(0x40)\n      0x08c379a000000000000000000000000000000000000000000000000000000000\n      dup2\n      mstore\n      0x04\n      add\n      tag_99\n      swap1\n      tag_81\n      jump\t// in\n    tag_99:\n      mload(0x40)\n      dup1\n      swap2\n      sub\n      swap1\n      revert\n    tag_98:\n        /* \"AdvancedBookStore.sol\":858:859  0 */\n      0x00\n        /* \"AdvancedBookStore.sol\":834:839  books */\n      0x01\n        /* \"AdvancedBookStore.sol\":834:848  books[_bookId] */\n      0x00\n        /* \"AdvancedBookStore.sol\":840:847  _bookId */\n      dup4\n        /* \"AdvancedBookStore.sol\":834:848  books[_bookId] */\n      dup2\n      mstore\n      0x20\n      add\n      swap1\n      dup2\n      mstore\n      0x20\n      add\n      0x00\n      keccak256\n        /* \"AdvancedBookStore.sol\":834:854  books[_bookId].price */\n      0x02\n      add\n      sload\n        /* \"AdvancedBookStore.sol\":834:859  books[_bookId].price != 0 */\n      sub\n        /* \"AdvancedBookStore.sol\":826:884  require(books[_bookId].price != 0 , \"Book does not exist\") */\n      tag_101\n      jumpi\n      mload(0x40)\n      0x08c379a000000000000000000000000000000000000000000000000000000000\n      dup2\n      mstore\n      0x04\n      add\n      tag_102\n      swap1\n      tag_85\n      jump\t// in\n    tag_102:\n      mload(0x40)\n      dup1\n      swap2\n      sub\n      swap1\n      revert\n    tag_101:\n        /* \"AdvancedBookStore.sol\":901:906  books */\n      0x01\n        /* \"AdvancedBookStore.sol\":901:916  books [_bookId] */\n      0x00\n        /* \"AdvancedBookStore.sol\":908:915  _bookId */\n      dup3\n        /* \"AdvancedBookStore.sol\":901:916  books [_bookId] */\n      dup2\n      mstore\n      0x20\n      add\n      swap1\n      dup2\n      mstore\n      0x20\n      add\n      0x00\n      keccak256\n      0x00\n        /* \"AdvancedBookStore.sol\":894:916  delete books [_bookId] */\n      dup1\n      dup3\n      add\n      0x00\n      tag_103\n      swap2\n      swap1\n      tag_104\n      jump\t// in\n    tag_103:\n      0x01\n      dup3\n      add\n      0x00\n      tag_105\n      swap2\n      swap1\n      tag_104\n      jump\t// in\n    tag_105:\n      0x02\n      dup3\n      add\n      0x00\n      swap1\n      sstore\n      0x03\n      dup3\n      add\n      0x00\n      swap1\n      sstore\n      0x04\n      dup3\n      add\n      exp(0x0100, 0x00)\n      dup2\n      sload\n      swap1\n      0xff\n      mul\n      not\n      and\n      swap1\n      sstore\n      pop\n      pop\n        /* \"AdvancedBookStore.sol\":940:949  uint256 i */\n      0x00\n        /* \"AdvancedBookStore.sol\":935:1154  for (uint256 i = 0; i < bookIds.length ;i++){... */\n    tag_106:\n        /* \"AdvancedBookStore.sol\":959:966  bookIds */\n      0x02\n        /* \"AdvancedBookStore.sol\":959:973  bookIds.length */\n      dup1\n      sload\n      swap1\n      pop\n        /* \"AdvancedBookStore.sol\":955:956  i */\n      dup2\n        /* \"AdvancedBookStore.sol\":955:973  i < bookIds.length */\n      lt\n        /* \"AdvancedBookStore.sol\":935:1154  for (uint256 i = 0; i < bookIds.length ;i++){... */\n      iszero\n      tag_107\n      jumpi\n        /* \"AdvancedBookStore.sol\":1011:1018  _bookId */\n      dup2\n        /* \"AdvancedBookStore.sol\":997:1004  bookIds */\n      0x02\n        /* \"AdvancedBookStore.sol\":1005:1006  i */\n      dup3\n        /* \"AdvancedBookStore.sol\":997:1007  bookIds[i] */\n      dup2\n      sload\n      dup2\n      lt\n      tag_109\n      jumpi\n      tag_110\n      tag_111\n      jump\t// in\n    tag_110:\n    tag_109:\n      swap1\n      0x00\n      mstore\n      keccak256(0x00, 0x20)\n      add\n      sload\n        /* \"AdvancedBookStore.sol\":997:1018  bookIds[i] == _bookId */\n      sub\n        /* \"AdvancedBookStore.sol\":993:1144  if (bookIds[i] == _bookId){... */\n      tag_113\n      jumpi\n        /* \"AdvancedBookStore.sol\":1050:1057  bookIds */\n      0x02\n        /* \"AdvancedBookStore.sol\":1073:1074  1 */\n      0x01\n        /* \"AdvancedBookStore.sol\":1058:1065  bookIds */\n      0x02\n        /* \"AdvancedBookStore.sol\":1058:1072  bookIds.length */\n      dup1\n      sload\n      swap1\n      pop\n        /* \"AdvancedBookStore.sol\":1058:1074  bookIds.length-1 */\n      tag_114\n      swap2\n      swap1\n      tag_115\n      jump\t// in\n    tag_114:\n        /* \"AdvancedBookStore.sol\":1050:1075  bookIds[bookIds.length-1] */\n      dup2\n      sload\n      dup2\n      lt\n      tag_116\n      jumpi\n      tag_117\n      tag_111\n      jump\t// in\n    tag_117:\n    tag_116:\n      swap1\n      0x00\n      mstore\n      keccak256(0x00, 0x20)\n      add\n      sload\n        /* \"AdvancedBookStore.sol\":1037:1044  bookIds */\n      0x02\n        /* \"AdvancedBookStore.sol\":1045:1046  i */\n      dup3\n        /* \"AdvancedBookStore.sol\":1037:1047  bookIds[i] */\n      dup2\n      sload\n      dup2\n      lt\n      tag_119\n      jumpi\n      tag_120\n      tag_111\n      jump\t// in\n    tag_120:\n    tag_119:\n      swap1\n      0x00\n      mstore\n      keccak256(0x00, 0x20)\n      add\n        /* \"AdvancedBookStore.sol\":1037:1075  bookIds[i] = bookIds[bookIds.length-1] */\n      dup2\n      swap1\n      sstore\n      pop\n        /* \"AdvancedBookStore.sol\":1093:1100  bookIds */\n      0x02\n        /* \"AdvancedBookStore.sol\":1093:1106  bookIds.pop() */\n      dup1\n      sload\n      dup1\n      tag_122\n      jumpi\n      tag_123\n      tag_124\n      jump\t// in\n    tag_123:\n    tag_122:\n      0x01\n      swap1\n      sub\n      dup2\n      dup2\n      swap1\n      0x00\n      mstore\n      keccak256(0x00, 0x20)\n      add\n      0x00\n      swap1\n      sstore\n      swap1\n      sstore\n        /* \"AdvancedBookStore.sol\":1124:1129  break */\n      jump(tag_107)\n        /* \"AdvancedBookStore.sol\":993:1144  if (bookIds[i] == _bookId){... */\n    tag_113:\n        /* \"AdvancedBookStore.sol\":975:978  i++ */\n      dup1\n      dup1\n      0x01\n      add\n      swap2\n      pop\n      pop\n        /* \"AdvancedBookStore.sol\":935:1154  for (uint256 i = 0; i < bookIds.length ;i++){... */\n      jump(tag_106)\n    tag_107:\n      pop\n        /* \"AdvancedBookStore.sol\":1167:1178  bestsellers */\n      0x03\n        /* \"AdvancedBookStore.sol\":1167:1187  bestsellers[_bookId] */\n      0x00\n        /* \"AdvancedBookStore.sol\":1179:1186  _bookId */\n      dup3\n        /* \"AdvancedBookStore.sol\":1167:1187  bestsellers[_bookId] */\n      dup2\n      mstore\n      0x20\n      add\n      swap1\n      dup2\n      mstore\n      0x20\n      add\n      0x00\n      keccak256\n      0x00\n      swap1\n      sload\n      swap1\n      0x0100\n      exp\n      swap1\n      div\n      0xff\n      and\n        /* \"AdvancedBookStore.sol\":1163:1240  if (bestsellers[_bookId]){... */\n      iszero\n      tag_126\n      jumpi\n        /* \"AdvancedBookStore.sol\":1209:1220  bestsellers */\n      0x03\n        /* \"AdvancedBookStore.sol\":1209:1229  bestsellers[_bookId] */\n      0x00\n        /* \"AdvancedBookStore.sol\":1221:1228  _bookId */\n      dup3\n        /* \"AdvancedBookStore.sol\":1209:1229  bestsellers[_bookId] */\n      dup2\n      mstore\n      0x20\n      add\n      swap1\n      dup2\n      mstore\n      0x20\n      add\n      0x00\n      keccak256\n      0x00\n        /* \"AdvancedBookStore.sol\":1202:1229  delete bestsellers[_bookId] */\n      0x0100\n      exp\n      dup2\n      sload\n      swap1\n      0xff\n      mul\n      not\n      and\n      swap1\n      sstore\n        /* \"AdvancedBookStore.sol\":1163:1240  if (bestsellers[_bookId]){... */\n    tag_126:\n        /* \"AdvancedBookStore.sol\":1266:1273  _bookId */\n      dup1\n        /* \"AdvancedBookStore.sol\":1254:1274  BookRemoved(_bookId) */\n      0x3c5ce13264433bcf97e5d53c97af4fc33800e8c9dd927f965b116d0018d7cddf\n      mload(0x40)\n      mload(0x40)\n      dup1\n      swap2\n      sub\n      swap1\n      log2\n        /* \"AdvancedBookStore.sol\":763:1281  function removeBook(uint256 _bookId) public onlyOwner{... */\n      pop\n      jump\t// out\n        /* \"BookStore.sol\":3145:3850  function buyBook(uint256 _bookId, uint256 _quantity, uint256 _amount) public payable {... */\n    tag_58:\n        /* \"BookStore.sol\":3240:3257  Book storage book */\n      0x00\n        /* \"BookStore.sol\":3260:3265  books */\n      0x01\n        /* \"BookStore.sol\":3260:3274  books[_bookId] */\n      0x00\n        /* \"BookStore.sol\":3266:3273  _bookId */\n      dup6\n        /* \"BookStore.sol\":3260:3274  books[_bookId] */\n      dup2\n      mstore\n      0x20\n      add\n      swap1\n      dup2\n      mstore\n      0x20\n      add\n      0x00\n      keccak256\n        /* \"BookStore.sol\":3240:3274  Book storage book = books[_bookId] */\n      swap1\n      pop\n        /* \"BookStore.sol\":3292:3296  book */\n      dup1\n        /* \"BookStore.sol\":3292:3308  book.isAvailable */\n      0x04\n      add\n      0x00\n      swap1\n      sload\n      swap1\n      0x0100\n      exp\n      swap1\n      div\n      0xff\n      and\n        /* \"BookStore.sol\":3284:3340  require(book.isAvailable, \"This book is not available.\") */\n      tag_128\n      jumpi\n      mload(0x40)\n      0x08c379a000000000000000000000000000000000000000000000000000000000\n      dup2\n      mstore\n      0x04\n      add\n      tag_129\n      swap1\n      tag_130\n      jump\t// in\n    tag_129:\n      mload(0x40)\n      dup1\n      swap2\n      sub\n      swap1\n      revert\n    tag_128:\n        /* \"BookStore.sol\":3372:3381  _quantity */\n      dup3\n        /* \"BookStore.sol\":3358:3362  book */\n      dup2\n        /* \"BookStore.sol\":3358:3368  book.stock */\n      0x03\n      add\n      sload\n        /* \"BookStore.sol\":3358:3381  book.stock >= _quantity */\n      lt\n      iszero\n        /* \"BookStore.sol\":3350:3413  require(book.stock >= _quantity, \"Not enough stock available.\") */\n      tag_131\n      jumpi\n      mload(0x40)\n      0x08c379a000000000000000000000000000000000000000000000000000000000\n      dup2\n      mstore\n      0x04\n      add\n      tag_132\n      swap1\n      tag_133\n      jump\t// in\n    tag_132:\n      mload(0x40)\n      dup1\n      swap2\n      sub\n      swap1\n      revert\n    tag_131:\n        /* \"BookStore.sol\":3455:3464  _quantity */\n      dup3\n        /* \"BookStore.sol\":3442:3446  book */\n      dup2\n        /* \"BookStore.sol\":3442:3452  book.price */\n      0x02\n      add\n      sload\n        /* \"BookStore.sol\":3442:3464  book.price * _quantity */\n      tag_134\n      swap2\n      swap1\n      tag_135\n      jump\t// in\n    tag_134:\n        /* \"BookStore.sol\":3431:3438  _amount */\n      dup3\n        /* \"BookStore.sol\":3431:3464  _amount == book.price * _quantity */\n      eq\n        /* \"BookStore.sol\":3423:3494  require(_amount == book.price * _quantity, \"Incorrect payment amount.\") */\n      tag_136\n      jumpi\n      mload(0x40)\n      0x08c379a000000000000000000000000000000000000000000000000000000000\n      dup2\n      mstore\n      0x04\n      add\n      tag_137\n      swap1\n      tag_138\n      jump\t// in\n    tag_137:\n      mload(0x40)\n      dup1\n      swap2\n      sub\n      swap1\n      revert\n    tag_136:\n        /* \"BookStore.sol\":3569:3578  _quantity */\n      dup3\n        /* \"BookStore.sol\":3555:3559  book */\n      dup2\n        /* \"BookStore.sol\":3555:3565  book.stock */\n      0x03\n      add\n      0x00\n        /* \"BookStore.sol\":3555:3578  book.stock -= _quantity */\n      dup3\n      dup3\n      sload\n      tag_139\n      swap2\n      swap1\n      tag_115\n      jump\t// in\n    tag_139:\n      swap3\n      pop\n      pop\n      dup2\n      swap1\n      sstore\n      pop\n        /* \"BookStore.sol\":3606:3607  0 */\n      0x00\n        /* \"BookStore.sol\":3592:3596  book */\n      dup2\n        /* \"BookStore.sol\":3592:3602  book.stock */\n      0x03\n      add\n      sload\n        /* \"BookStore.sol\":3592:3607  book.stock == 0 */\n      sub\n        /* \"BookStore.sol\":3588:3658  if (book.stock == 0) {... */\n      tag_140\n      jumpi\n        /* \"BookStore.sol\":3642:3647  false */\n      0x00\n        /* \"BookStore.sol\":3623:3627  book */\n      dup2\n        /* \"BookStore.sol\":3623:3639  book.isAvailable */\n      0x04\n      add\n      0x00\n        /* \"BookStore.sol\":3623:3647  book.isAvailable = false */\n      0x0100\n      exp\n      dup2\n      sload\n      dup2\n      0xff\n      mul\n      not\n      and\n      swap1\n      dup4\n      iszero\n      iszero\n      mul\n      or\n      swap1\n      sstore\n      pop\n        /* \"BookStore.sol\":3588:3658  if (book.stock == 0) {... */\n    tag_140:\n        /* \"BookStore.sol\":3757:3762  owner */\n      0x00\n      dup1\n      sload\n      swap1\n      0x0100\n      exp\n      swap1\n      div\n      0xffffffffffffffffffffffffffffffffffffffff\n      and\n        /* \"BookStore.sol\":3749:3772  payable(owner).transfer */\n      0xffffffffffffffffffffffffffffffffffffffff\n      and\n        /* \"BookStore.sol\":3749:3783  payable(owner).transfer(msg.value) */\n      0x08fc\n        /* \"BookStore.sol\":3773:3782  msg.value */\n      callvalue\n        /* \"BookStore.sol\":3749:3783  payable(owner).transfer(msg.value) */\n      swap1\n      dup2\n      iszero\n      mul\n      swap1\n      mload(0x40)\n      0x00\n      mload(0x40)\n      dup1\n      dup4\n      sub\n      dup2\n      dup6\n      dup9\n      dup9\n      call\n      swap4\n      pop\n      pop\n      pop\n      pop\n      iszero\n      dup1\n      iszero\n      tag_142\n      jumpi\n      returndatasize\n      0x00\n      dup1\n      returndatacopy\n      revert(0x00, returndatasize)\n    tag_142:\n      pop\n        /* \"BookStore.sol\":3821:3831  msg.sender */\n      caller\n        /* \"BookStore.sol\":3798:3843  BookPurchased(_bookId, msg.sender, _quantity) */\n      0xffffffffffffffffffffffffffffffffffffffff\n      and\n        /* \"BookStore.sol\":3812:3819  _bookId */\n      dup5\n        /* \"BookStore.sol\":3798:3843  BookPurchased(_bookId, msg.sender, _quantity) */\n      0x439c08b00222293c6073f3ee383214541a4a21aca7dbb0a45963f86fa8e589f7\n        /* \"BookStore.sol\":3833:3842  _quantity */\n      dup6\n        /* \"BookStore.sol\":3798:3843  BookPurchased(_bookId, msg.sender, _quantity) */\n      mload(0x40)\n      tag_143\n      swap2\n      swap1\n      tag_25\n      jump\t// in\n    tag_143:\n      mload(0x40)\n      dup1\n      swap2\n      sub\n      swap1\n      log3\n        /* \"BookStore.sol\":3230:3850  {... */\n      pop\n        /* \"BookStore.sol\":3145:3850  function buyBook(uint256 _bookId, uint256 _quantity, uint256 _amount) public payable {... */\n      pop\n      pop\n      pop\n      jump\t// out\n        /* \"BookStore.sol\":2362:2886  function addBook(uint256 _bookId, string memory _title, string memory _author, uint256 _price, uint256 _stock) public onlyOwner {... */\n    tag_63:\n        /* \"BookStore.sol\":2221:2226  owner */\n      0x00\n      dup1\n      sload\n      swap1\n      0x0100\n      exp\n      swap1\n      div\n      0xffffffffffffffffffffffffffffffffffffffff\n      and\n        /* \"BookStore.sol\":2207:2226  msg.sender == owner */\n      0xffffffffffffffffffffffffffffffffffffffff\n      and\n        /* \"BookStore.sol\":2207:2217  msg.sender */\n      caller\n        /* \"BookStore.sol\":2207:2226  msg.sender == owner */\n      0xffffffffffffffffffffffffffffffffffffffff\n      and\n      eq\n        /* \"BookStore.sol\":2199:2270  require(msg.sender == owner, \"Only the owner can perform this action.\") */\n      tag_145\n      jumpi\n      mload(0x40)\n      0x08c379a000000000000000000000000000000000000000000000000000000000\n      dup2\n      mstore\n      0x04\n      add\n      tag_146\n      swap1\n      tag_81\n      jump\t// in\n    tag_146:\n      mload(0x40)\n      dup1\n      swap2\n      sub\n      swap1\n      revert\n    tag_145:\n        /* \"BookStore.sol\":2532:2533  0 */\n      0x00\n        /* \"BookStore.sol\":2508:2513  books */\n      0x01\n        /* \"BookStore.sol\":2508:2522  books[_bookId] */\n      0x00\n        /* \"BookStore.sol\":2514:2521  _bookId */\n      dup8\n        /* \"BookStore.sol\":2508:2522  books[_bookId] */\n      dup2\n      mstore\n      0x20\n      add\n      swap1\n      dup2\n      mstore\n      0x20\n      add\n      0x00\n      keccak256\n        /* \"BookStore.sol\":2508:2528  books[_bookId].price */\n      0x02\n      add\n      sload\n        /* \"BookStore.sol\":2508:2533  books[_bookId].price == 0 */\n      eq\n        /* \"BookStore.sol\":2500:2571  require(books[_bookId].price == 0, \"Book already exists with this ID.\") */\n      tag_148\n      jumpi\n      mload(0x40)\n      0x08c379a000000000000000000000000000000000000000000000000000000000\n      dup2\n      mstore\n      0x04\n      add\n      tag_149\n      swap1\n      tag_150\n      jump\t// in\n    tag_149:\n      mload(0x40)\n      dup1\n      swap2\n      sub\n      swap1\n      revert\n    tag_148:\n        /* \"BookStore.sol\":2598:2761  Book({... */\n      mload(0x40)\n      dup1\n      0xa0\n      add\n      0x40\n      mstore\n      dup1\n        /* \"BookStore.sol\":2624:2630  _title */\n      dup6\n        /* \"BookStore.sol\":2598:2761  Book({... */\n      dup2\n      mstore\n      0x20\n      add\n        /* \"BookStore.sol\":2652:2659  _author */\n      dup5\n        /* \"BookStore.sol\":2598:2761  Book({... */\n      dup2\n      mstore\n      0x20\n      add\n        /* \"BookStore.sol\":2680:2686  _price */\n      dup4\n        /* \"BookStore.sol\":2598:2761  Book({... */\n      dup2\n      mstore\n      0x20\n      add\n        /* \"BookStore.sol\":2707:2713  _stock */\n      dup3\n        /* \"BookStore.sol\":2598:2761  Book({... */\n      dup2\n      mstore\n      0x20\n      add\n        /* \"BookStore.sol\":2749:2750  0 */\n      0x00\n        /* \"BookStore.sol\":2740:2746  _stock */\n      dup4\n        /* \"BookStore.sol\":2740:2750  _stock > 0 */\n      gt\n        /* \"BookStore.sol\":2598:2761  Book({... */\n      iszero\n      iszero\n      dup2\n      mstore\n      pop\n        /* \"BookStore.sol\":2581:2586  books */\n      0x01\n        /* \"BookStore.sol\":2581:2595  books[_bookId] */\n      0x00\n        /* \"BookStore.sol\":2587:2594  _bookId */\n      dup8\n        /* \"BookStore.sol\":2581:2595  books[_bookId] */\n      dup2\n      mstore\n      0x20\n      add\n      swap1\n      dup2\n      mstore\n      0x20\n      add\n      0x00\n      keccak256\n        /* \"BookStore.sol\":2581:2761  books[_bookId] = Book({... */\n      0x00\n      dup3\n      add\n      mload\n      dup2\n      0x00\n      add\n      swap1\n      dup2\n      tag_151\n      swap2\n      swap1\n      tag_152\n      jump\t// in\n    tag_151:\n      pop\n      0x20\n      dup3\n      add\n      mload\n      dup2\n      0x01\n      add\n      swap1\n      dup2\n      tag_153\n      swap2\n      swap1\n      tag_152\n      jump\t// in\n    tag_153:\n      pop\n      0x40\n      dup3\n      add\n      mload\n      dup2\n      0x02\n      add\n      sstore\n      0x60\n      dup3\n      add\n      mload\n      dup2\n      0x03\n      add\n      sstore\n      0x80\n      dup3\n      add\n      mload\n      dup2\n      0x04\n      add\n      exp(0x0100, 0x00)\n      dup2\n      sload\n      dup2\n      0xff\n      mul\n      not\n      and\n      swap1\n      dup4\n      iszero\n      iszero\n      mul\n      or\n      swap1\n      sstore\n      pop\n      swap1\n      pop\n      pop\n        /* \"BookStore.sol\":2771:2778  bookIds */\n      0x02\n        /* \"BookStore.sol\":2784:2791  _bookId */\n      dup6\n        /* \"BookStore.sol\":2771:2792  bookIds.push(_bookId) */\n      swap1\n      dup1\n      0x01\n      dup2\n      sload\n      add\n      dup1\n      dup3\n      sstore\n      dup1\n      swap2\n      pop\n      pop\n      0x01\n      swap1\n      sub\n      swap1\n      0x00\n      mstore\n      keccak256(0x00, 0x20)\n      add\n      0x00\n      swap1\n      swap2\n      swap1\n      swap2\n      swap1\n      swap2\n      pop\n      sstore\n        /* \"BookStore.sol\":2838:2845  _bookId */\n      dup5\n        /* \"BookStore.sol\":2828:2879  BookAdded(_bookId, _title, _author, _price, _stock) */\n      0x722c04650224f771c04ec5712c74689980b3ddb4eaa233cd8f9c72d7da7fbe29\n        /* \"BookStore.sol\":2847:2853  _title */\n      dup6\n        /* \"BookStore.sol\":2855:2862  _author */\n      dup6\n        /* \"BookStore.sol\":2864:2870  _price */\n      dup6\n        /* \"BookStore.sol\":2872:2878  _stock */\n      dup6\n        /* \"BookStore.sol\":2828:2879  BookAdded(_bookId, _title, _author, _price, _stock) */\n      mload(0x40)\n      tag_155\n      swap5\n      swap4\n      swap3\n      swap2\n      swap1\n      tag_156\n      jump\t// in\n    tag_155:\n      mload(0x40)\n      dup1\n      swap2\n      sub\n      swap1\n      log2\n        /* \"BookStore.sol\":2362:2886  function addBook(uint256 _bookId, string memory _title, string memory _author, uint256 _price, uint256 _stock) public onlyOwner {... */\n      pop\n      pop\n      pop\n      pop\n      pop\n      jump\t// out\n    tag_104:\n      pop\n      dup1\n      sload\n      tag_157\n      swap1\n      tag_68\n      jump\t// in\n    tag_157:\n      0x00\n      dup3\n      sstore\n      dup1\n      0x1f\n      lt\n      tag_159\n      jumpi\n      pop\n      jump(tag_158)\n    tag_159:\n      0x1f\n      add\n      0x20\n      swap1\n      div\n      swap1\n      0x00\n      mstore\n      keccak256(0x00, 0x20)\n      swap1\n      dup2\n      add\n      swap1\n      tag_160\n      swap2\n      swap1\n      tag_161\n      jump\t// in\n    tag_160:\n    tag_158:\n      pop\n      jump\t// out\n    tag_161:\n    tag_162:\n      dup1\n      dup3\n      gt\n      iszero\n      tag_163\n      jumpi\n      0x00\n      dup2\n      0x00\n      swap1\n      sstore\n      pop\n      0x01\n      add\n      jump(tag_162)\n    tag_163:\n      pop\n      swap1\n      jump\t// out\n        /* \"#utility.yul\":7:82   */\n    tag_164:\n        /* \"#utility.yul\":40:46   */\n      0x00\n        /* \"#utility.yul\":73:75   */\n      0x40\n        /* \"#utility.yul\":67:76   */\n      mload\n        /* \"#utility.yul\":57:76   */\n      swap1\n      pop\n        /* \"#utility.yul\":7:82   */\n      swap1\n      jump\t// out\n        /* \"#utility.yul\":88:205   */\n    tag_165:\n        /* \"#utility.yul\":197:198   */\n      0x00\n        /* \"#utility.yul\":194:195   */\n      dup1\n        /* \"#utility.yul\":187:199   */\n      revert\n        /* \"#utility.yul\":211:328   */\n    tag_166:\n        /* \"#utility.yul\":320:321   */\n      0x00\n        /* \"#utility.yul\":317:318   */\n      dup1\n        /* \"#utility.yul\":310:322   */\n      revert\n        /* \"#utility.yul\":334:411   */\n    tag_167:\n        /* \"#utility.yul\":371:378   */\n      0x00\n        /* \"#utility.yul\":400:405   */\n      dup2\n        /* \"#utility.yul\":389:405   */\n      swap1\n      pop\n        /* \"#utility.yul\":334:411   */\n      swap2\n      swap1\n      pop\n      jump\t// out\n        /* \"#utility.yul\":417:539   */\n    tag_168:\n        /* \"#utility.yul\":490:514   */\n      tag_225\n        /* \"#utility.yul\":508:513   */\n      dup2\n        /* \"#utility.yul\":490:514   */\n      tag_167\n      jump\t// in\n    tag_225:\n        /* \"#utility.yul\":483:488   */\n      dup2\n        /* \"#utility.yul\":480:515   */\n      eq\n        /* \"#utility.yul\":470:533   */\n      tag_226\n      jumpi\n        /* \"#utility.yul\":529:530   */\n      0x00\n        /* \"#utility.yul\":526:527   */\n      dup1\n        /* \"#utility.yul\":519:531   */\n      revert\n        /* \"#utility.yul\":470:533   */\n    tag_226:\n        /* \"#utility.yul\":417:539   */\n      pop\n      jump\t// out\n        /* \"#utility.yul\":545:684   */\n    tag_169:\n        /* \"#utility.yul\":591:596   */\n      0x00\n        /* \"#utility.yul\":629:635   */\n      dup2\n        /* \"#utility.yul\":616:636   */\n      calldataload\n        /* \"#utility.yul\":607:636   */\n      swap1\n      pop\n        /* \"#utility.yul\":645:678   */\n      tag_228\n        /* \"#utility.yul\":672:677   */\n      dup2\n        /* \"#utility.yul\":645:678   */\n      tag_168\n      jump\t// in\n    tag_228:\n        /* \"#utility.yul\":545:684   */\n      swap3\n      swap2\n      pop\n      pop\n      jump\t// out\n        /* \"#utility.yul\":690:1019   */\n    tag_16:\n        /* \"#utility.yul\":749:755   */\n      0x00\n        /* \"#utility.yul\":798:800   */\n      0x20\n        /* \"#utility.yul\":786:795   */\n      dup3\n        /* \"#utility.yul\":777:784   */\n      dup5\n        /* \"#utility.yul\":773:796   */\n      sub\n        /* \"#utility.yul\":769:801   */\n      slt\n        /* \"#utility.yul\":766:885   */\n      iszero\n      tag_230\n      jumpi\n        /* \"#utility.yul\":804:883   */\n      tag_231\n      tag_165\n      jump\t// in\n    tag_231:\n        /* \"#utility.yul\":766:885   */\n    tag_230:\n        /* \"#utility.yul\":924:925   */\n      0x00\n        /* \"#utility.yul\":949:1002   */\n      tag_232\n        /* \"#utility.yul\":994:1001   */\n      dup5\n        /* \"#utility.yul\":985:991   */\n      dup3\n        /* \"#utility.yul\":974:983   */\n      dup6\n        /* \"#utility.yul\":970:992   */\n      add\n        /* \"#utility.yul\":949:1002   */\n      tag_169\n      jump\t// in\n    tag_232:\n        /* \"#utility.yul\":939:1002   */\n      swap2\n      pop\n        /* \"#utility.yul\":895:1012   */\n      pop\n        /* \"#utility.yul\":690:1019   */\n      swap3\n      swap2\n      pop\n      pop\n      jump\t// out\n        /* \"#utility.yul\":1025:1115   */\n    tag_170:\n        /* \"#utility.yul\":1059:1066   */\n      0x00\n        /* \"#utility.yul\":1102:1107   */\n      dup2\n        /* \"#utility.yul\":1095:1108   */\n      iszero\n        /* \"#utility.yul\":1088:1109   */\n      iszero\n        /* \"#utility.yul\":1077:1109   */\n      swap1\n      pop\n        /* \"#utility.yul\":1025:1115   */\n      swap2\n      swap1\n      pop\n      jump\t// out\n        /* \"#utility.yul\":1121:1230   */\n    tag_171:\n        /* \"#utility.yul\":1202:1223   */\n      tag_235\n        /* \"#utility.yul\":1217:1222   */\n      dup2\n        /* \"#utility.yul\":1202:1223   */\n      tag_170\n      jump\t// in\n    tag_235:\n        /* \"#utility.yul\":1197:1200   */\n      dup3\n        /* \"#utility.yul\":1190:1224   */\n      mstore\n        /* \"#utility.yul\":1121:1230   */\n      pop\n      pop\n      jump\t// out\n        /* \"#utility.yul\":1236:1446   */\n    tag_19:\n        /* \"#utility.yul\":1323:1327   */\n      0x00\n        /* \"#utility.yul\":1361:1363   */\n      0x20\n        /* \"#utility.yul\":1350:1359   */\n      dup3\n        /* \"#utility.yul\":1346:1364   */\n      add\n        /* \"#utility.yul\":1338:1364   */\n      swap1\n      pop\n        /* \"#utility.yul\":1374:1439   */\n      tag_237\n        /* \"#utility.yul\":1436:1437   */\n      0x00\n        /* \"#utility.yul\":1425:1434   */\n      dup4\n        /* \"#utility.yul\":1421:1438   */\n      add\n        /* \"#utility.yul\":1412:1418   */\n      dup5\n        /* \"#utility.yul\":1374:1439   */\n      tag_171\n      jump\t// in\n    tag_237:\n        /* \"#utility.yul\":1236:1446   */\n      swap3\n      swap2\n      pop\n      pop\n      jump\t// out\n        /* \"#utility.yul\":1452:1570   */\n    tag_172:\n        /* \"#utility.yul\":1539:1563   */\n      tag_239\n        /* \"#utility.yul\":1557:1562   */\n      dup2\n        /* \"#utility.yul\":1539:1563   */\n      tag_167\n      jump\t// in\n    tag_239:\n        /* \"#utility.yul\":1534:1537   */\n      dup3\n        /* \"#utility.yul\":1527:1564   */\n      mstore\n        /* \"#utility.yul\":1452:1570   */\n      pop\n      pop\n      jump\t// out\n        /* \"#utility.yul\":1576:1798   */\n    tag_25:\n        /* \"#utility.yul\":1669:1673   */\n      0x00\n        /* \"#utility.yul\":1707:1709   */\n      0x20\n        /* \"#utility.yul\":1696:1705   */\n      dup3\n        /* \"#utility.yul\":1692:1710   */\n      add\n        /* \"#utility.yul\":1684:1710   */\n      swap1\n      pop\n        /* \"#utility.yul\":1720:1791   */\n      tag_241\n        /* \"#utility.yul\":1788:1789   */\n      0x00\n        /* \"#utility.yul\":1777:1786   */\n      dup4\n        /* \"#utility.yul\":1773:1790   */\n      add\n        /* \"#utility.yul\":1764:1770   */\n      dup5\n        /* \"#utility.yul\":1720:1791   */\n      tag_172\n      jump\t// in\n    tag_241:\n        /* \"#utility.yul\":1576:1798   */\n      swap3\n      swap2\n      pop\n      pop\n      jump\t// out\n        /* \"#utility.yul\":1804:1903   */\n    tag_173:\n        /* \"#utility.yul\":1856:1862   */\n      0x00\n        /* \"#utility.yul\":1890:1895   */\n      dup2\n        /* \"#utility.yul\":1884:1896   */\n      mload\n        /* \"#utility.yul\":1874:1896   */\n      swap1\n      pop\n        /* \"#utility.yul\":1804:1903   */\n      swap2\n      swap1\n      pop\n      jump\t// out\n        /* \"#utility.yul\":1909:2078   */\n    tag_174:\n        /* \"#utility.yul\":1993:2004   */\n      0x00\n        /* \"#utility.yul\":2027:2033   */\n      dup3\n        /* \"#utility.yul\":2022:2025   */\n      dup3\n        /* \"#utility.yul\":2015:2034   */\n      mstore\n        /* \"#utility.yul\":2067:2071   */\n      0x20\n        /* \"#utility.yul\":2062:2065   */\n      dup3\n        /* \"#utility.yul\":2058:2072   */\n      add\n        /* \"#utility.yul\":2043:2072   */\n      swap1\n      pop\n        /* \"#utility.yul\":1909:2078   */\n      swap3\n      swap2\n      pop\n      pop\n      jump\t// out\n        /* \"#utility.yul\":2084:2223   */\n    tag_175:\n        /* \"#utility.yul\":2173:2179   */\n      dup3\n        /* \"#utility.yul\":2168:2171   */\n      dup2\n        /* \"#utility.yul\":2163:2166   */\n      dup4\n        /* \"#utility.yul\":2157:2180   */\n      mcopy\n        /* \"#utility.yul\":2214:2215   */\n      0x00\n        /* \"#utility.yul\":2205:2211   */\n      dup4\n        /* \"#utility.yul\":2200:2203   */\n      dup4\n        /* \"#utility.yul\":2196:2212   */\n      add\n        /* \"#utility.yul\":2189:2216   */\n      mstore\n        /* \"#utility.yul\":2084:2223   */\n      pop\n      pop\n      pop\n      jump\t// out\n        /* \"#utility.yul\":2229:2331   */\n    tag_176:\n        /* \"#utility.yul\":2270:2276   */\n      0x00\n        /* \"#utility.yul\":2321:2323   */\n      0x1f\n        /* \"#utility.yul\":2317:2324   */\n      not\n        /* \"#utility.yul\":2312:2314   */\n      0x1f\n        /* \"#utility.yul\":2305:2310   */\n      dup4\n        /* \"#utility.yul\":2301:2315   */\n      add\n        /* \"#utility.yul\":2297:2325   */\n      and\n        /* \"#utility.yul\":2287:2325   */\n      swap1\n      pop\n        /* \"#utility.yul\":2229:2331   */\n      swap2\n      swap1\n      pop\n      jump\t// out\n        /* \"#utility.yul\":2337:2714   */\n    tag_177:\n        /* \"#utility.yul\":2425:2428   */\n      0x00\n        /* \"#utility.yul\":2453:2492   */\n      tag_247\n        /* \"#utility.yul\":2486:2491   */\n      dup3\n        /* \"#utility.yul\":2453:2492   */\n      tag_173\n      jump\t// in\n    tag_247:\n        /* \"#utility.yul\":2508:2579   */\n      tag_248\n        /* \"#utility.yul\":2572:2578   */\n      dup2\n        /* \"#utility.yul\":2567:2570   */\n      dup6\n        /* \"#utility.yul\":2508:2579   */\n      tag_174\n      jump\t// in\n    tag_248:\n        /* \"#utility.yul\":2501:2579   */\n      swap4\n      pop\n        /* \"#utility.yul\":2588:2653   */\n      tag_249\n        /* \"#utility.yul\":2646:2652   */\n      dup2\n        /* \"#utility.yul\":2641:2644   */\n      dup6\n        /* \"#utility.yul\":2634:2638   */\n      0x20\n        /* \"#utility.yul\":2627:2632   */\n      dup7\n        /* \"#utility.yul\":2623:2639   */\n      add\n        /* \"#utility.yul\":2588:2653   */\n      tag_175\n      jump\t// in\n    tag_249:\n        /* \"#utility.yul\":2678:2707   */\n      tag_250\n        /* \"#utility.yul\":2700:2706   */\n      dup2\n        /* \"#utility.yul\":2678:2707   */\n      tag_176\n      jump\t// in\n    tag_250:\n        /* \"#utility.yul\":2673:2676   */\n      dup5\n        /* \"#utility.yul\":2669:2708   */\n      add\n        /* \"#utility.yul\":2662:2708   */\n      swap2\n      pop\n        /* \"#utility.yul\":2429:2714   */\n      pop\n        /* \"#utility.yul\":2337:2714   */\n      swap3\n      swap2\n      pop\n      pop\n      jump\t// out\n        /* \"#utility.yul\":2720:3554   */\n    tag_31:\n        /* \"#utility.yul\":2959:2963   */\n      0x00\n        /* \"#utility.yul\":2997:3000   */\n      0xa0\n        /* \"#utility.yul\":2986:2995   */\n      dup3\n        /* \"#utility.yul\":2982:3001   */\n      add\n        /* \"#utility.yul\":2974:3001   */\n      swap1\n      pop\n        /* \"#utility.yul\":3047:3056   */\n      dup2\n        /* \"#utility.yul\":3041:3045   */\n      dup2\n        /* \"#utility.yul\":3037:3057   */\n      sub\n        /* \"#utility.yul\":3033:3034   */\n      0x00\n        /* \"#utility.yul\":3022:3031   */\n      dup4\n        /* \"#utility.yul\":3018:3035   */\n      add\n        /* \"#utility.yul\":3011:3058   */\n      mstore\n        /* \"#utility.yul\":3075:3153   */\n      tag_252\n        /* \"#utility.yul\":3148:3152   */\n      dup2\n        /* \"#utility.yul\":3139:3145   */\n      dup9\n        /* \"#utility.yul\":3075:3153   */\n      tag_177\n      jump\t// in\n    tag_252:\n        /* \"#utility.yul\":3067:3153   */\n      swap1\n      pop\n        /* \"#utility.yul\":3200:3209   */\n      dup2\n        /* \"#utility.yul\":3194:3198   */\n      dup2\n        /* \"#utility.yul\":3190:3210   */\n      sub\n        /* \"#utility.yul\":3185:3187   */\n      0x20\n        /* \"#utility.yul\":3174:3183   */\n      dup4\n        /* \"#utility.yul\":3170:3188   */\n      add\n        /* \"#utility.yul\":3163:3211   */\n      mstore\n        /* \"#utility.yul\":3228:3306   */\n      tag_253\n        /* \"#utility.yul\":3301:3305   */\n      dup2\n        /* \"#utility.yul\":3292:3298   */\n      dup8\n        /* \"#utility.yul\":3228:3306   */\n      tag_177\n      jump\t// in\n    tag_253:\n        /* \"#utility.yul\":3220:3306   */\n      swap1\n      pop\n        /* \"#utility.yul\":3316:3388   */\n      tag_254\n        /* \"#utility.yul\":3384:3386   */\n      0x40\n        /* \"#utility.yul\":3373:3382   */\n      dup4\n        /* \"#utility.yul\":3369:3387   */\n      add\n        /* \"#utility.yul\":3360:3366   */\n      dup7\n        /* \"#utility.yul\":3316:3388   */\n      tag_172\n      jump\t// in\n    tag_254:\n        /* \"#utility.yul\":3398:3470   */\n      tag_255\n        /* \"#utility.yul\":3466:3468   */\n      0x60\n        /* \"#utility.yul\":3455:3464   */\n      dup4\n        /* \"#utility.yul\":3451:3469   */\n      add\n        /* \"#utility.yul\":3442:3448   */\n      dup6\n        /* \"#utility.yul\":3398:3470   */\n      tag_172\n      jump\t// in\n    tag_255:\n        /* \"#utility.yul\":3480:3547   */\n      tag_256\n        /* \"#utility.yul\":3542:3545   */\n      0x80\n        /* \"#utility.yul\":3531:3540   */\n      dup4\n        /* \"#utility.yul\":3527:3546   */\n      add\n        /* \"#utility.yul\":3518:3524   */\n      dup5\n        /* \"#utility.yul\":3480:3547   */\n      tag_171\n      jump\t// in\n    tag_256:\n        /* \"#utility.yul\":2720:3554   */\n      swap7\n      swap6\n      pop\n      pop\n      pop\n      pop\n      pop\n      pop\n      jump\t// out\n        /* \"#utility.yul\":3560:3686   */\n    tag_178:\n        /* \"#utility.yul\":3597:3604   */\n      0x00\n        /* \"#utility.yul\":3637:3679   */\n      0xffffffffffffffffffffffffffffffffffffffff\n        /* \"#utility.yul\":3630:3635   */\n      dup3\n        /* \"#utility.yul\":3626:3680   */\n      and\n        /* \"#utility.yul\":3615:3680   */\n      swap1\n      pop\n        /* \"#utility.yul\":3560:3686   */\n      swap2\n      swap1\n      pop\n      jump\t// out\n        /* \"#utility.yul\":3692:3788   */\n    tag_179:\n        /* \"#utility.yul\":3729:3736   */\n      0x00\n        /* \"#utility.yul\":3758:3782   */\n      tag_259\n        /* \"#utility.yul\":3776:3781   */\n      dup3\n        /* \"#utility.yul\":3758:3782   */\n      tag_178\n      jump\t// in\n    tag_259:\n        /* \"#utility.yul\":3747:3782   */\n      swap1\n      pop\n        /* \"#utility.yul\":3692:3788   */\n      swap2\n      swap1\n      pop\n      jump\t// out\n        /* \"#utility.yul\":3794:3912   */\n    tag_180:\n        /* \"#utility.yul\":3881:3905   */\n      tag_261\n        /* \"#utility.yul\":3899:3904   */\n      dup2\n        /* \"#utility.yul\":3881:3905   */\n      tag_179\n      jump\t// in\n    tag_261:\n        /* \"#utility.yul\":3876:3879   */\n      dup3\n        /* \"#utility.yul\":3869:3906   */\n      mstore\n        /* \"#utility.yul\":3794:3912   */\n      pop\n      pop\n      jump\t// out\n        /* \"#utility.yul\":3918:4140   */\n    tag_50:\n        /* \"#utility.yul\":4011:4015   */\n      0x00\n        /* \"#utility.yul\":4049:4051   */\n      0x20\n        /* \"#utility.yul\":4038:4047   */\n      dup3\n        /* \"#utility.yul\":4034:4052   */\n      add\n        /* \"#utility.yul\":4026:4052   */\n      swap1\n      pop\n        /* \"#utility.yul\":4062:4133   */\n      tag_263\n        /* \"#utility.yul\":4130:4131   */\n      0x00\n        /* \"#utility.yul\":4119:4128   */\n      dup4\n        /* \"#utility.yul\":4115:4132   */\n      add\n        /* \"#utility.yul\":4106:4112   */\n      dup5\n        /* \"#utility.yul\":4062:4133   */\n      tag_180\n      jump\t// in\n    tag_263:\n        /* \"#utility.yul\":3918:4140   */\n      swap3\n      swap2\n      pop\n      pop\n      jump\t// out\n        /* \"#utility.yul\":4146:4765   */\n    tag_57:\n        /* \"#utility.yul\":4223:4229   */\n      0x00\n        /* \"#utility.yul\":4231:4237   */\n      dup1\n        /* \"#utility.yul\":4239:4245   */\n      0x00\n        /* \"#utility.yul\":4288:4290   */\n      0x60\n        /* \"#utility.yul\":4276:4285   */\n      dup5\n        /* \"#utility.yul\":4267:4274   */\n      dup7\n        /* \"#utility.yul\":4263:4286   */\n      sub\n        /* \"#utility.yul\":4259:4291   */\n      slt\n        /* \"#utility.yul\":4256:4375   */\n      iszero\n      tag_265\n      jumpi\n        /* \"#utility.yul\":4294:4373   */\n      tag_266\n      tag_165\n      jump\t// in\n    tag_266:\n        /* \"#utility.yul\":4256:4375   */\n    tag_265:\n        /* \"#utility.yul\":4414:4415   */\n      0x00\n        /* \"#utility.yul\":4439:4492   */\n      tag_267\n        /* \"#utility.yul\":4484:4491   */\n      dup7\n        /* \"#utility.yul\":4475:4481   */\n      dup3\n        /* \"#utility.yul\":4464:4473   */\n      dup8\n        /* \"#utility.yul\":4460:4482   */\n      add\n        /* \"#utility.yul\":4439:4492   */\n      tag_169\n      jump\t// in\n    tag_267:\n        /* \"#utility.yul\":4429:4492   */\n      swap4\n      pop\n        /* \"#utility.yul\":4385:4502   */\n      pop\n        /* \"#utility.yul\":4541:4543   */\n      0x20\n        /* \"#utility.yul\":4567:4620   */\n      tag_268\n        /* \"#utility.yul\":4612:4619   */\n      dup7\n        /* \"#utility.yul\":4603:4609   */\n      dup3\n        /* \"#utility.yul\":4592:4601   */\n      dup8\n        /* \"#utility.yul\":4588:4610   */\n      add\n        /* \"#utility.yul\":4567:4620   */\n      tag_169\n      jump\t// in\n    tag_268:\n        /* \"#utility.yul\":4557:4620   */\n      swap3\n      pop\n        /* \"#utility.yul\":4512:4630   */\n      pop\n        /* \"#utility.yul\":4669:4671   */\n      0x40\n        /* \"#utility.yul\":4695:4748   */\n      tag_269\n        /* \"#utility.yul\":4740:4747   */\n      dup7\n        /* \"#utility.yul\":4731:4737   */\n      dup3\n        /* \"#utility.yul\":4720:4729   */\n      dup8\n        /* \"#utility.yul\":4716:4738   */\n      add\n        /* \"#utility.yul\":4695:4748   */\n      tag_169\n      jump\t// in\n    tag_269:\n        /* \"#utility.yul\":4685:4748   */\n      swap2\n      pop\n        /* \"#utility.yul\":4640:4758   */\n      pop\n        /* \"#utility.yul\":4146:4765   */\n      swap3\n      pop\n      swap3\n      pop\n      swap3\n      jump\t// out\n        /* \"#utility.yul\":4771:4888   */\n    tag_181:\n        /* \"#utility.yul\":4880:4881   */\n      0x00\n        /* \"#utility.yul\":4877:4878   */\n      dup1\n        /* \"#utility.yul\":4870:4882   */\n      revert\n        /* \"#utility.yul\":4894:5011   */\n    tag_182:\n        /* \"#utility.yul\":5003:5004   */\n      0x00\n        /* \"#utility.yul\":5000:5001   */\n      dup1\n        /* \"#utility.yul\":4993:5005   */\n      revert\n        /* \"#utility.yul\":5017:5197   */\n    tag_183:\n        /* \"#utility.yul\":5065:5142   */\n      0x4e487b7100000000000000000000000000000000000000000000000000000000\n        /* \"#utility.yul\":5062:5063   */\n      0x00\n        /* \"#utility.yul\":5055:5143   */\n      mstore\n        /* \"#utility.yul\":5162:5166   */\n      0x41\n        /* \"#utility.yul\":5159:5160   */\n      0x04\n        /* \"#utility.yul\":5152:5167   */\n      mstore\n        /* \"#utility.yul\":5186:5190   */\n      0x24\n        /* \"#utility.yul\":5183:5184   */\n      0x00\n        /* \"#utility.yul\":5176:5191   */\n      revert\n        /* \"#utility.yul\":5203:5484   */\n    tag_184:\n        /* \"#utility.yul\":5286:5313   */\n      tag_274\n        /* \"#utility.yul\":5308:5312   */\n      dup3\n        /* \"#utility.yul\":5286:5313   */\n      tag_176\n      jump\t// in\n    tag_274:\n        /* \"#utility.yul\":5278:5284   */\n      dup2\n        /* \"#utility.yul\":5274:5314   */\n      add\n        /* \"#utility.yul\":5416:5422   */\n      dup2\n        /* \"#utility.yul\":5404:5414   */\n      dup2\n        /* \"#utility.yul\":5401:5423   */\n      lt\n        /* \"#utility.yul\":5380:5398   */\n      0xffffffffffffffff\n        /* \"#utility.yul\":5368:5378   */\n      dup3\n        /* \"#utility.yul\":5365:5399   */\n      gt\n        /* \"#utility.yul\":5362:5424   */\n      or\n        /* \"#utility.yul\":5359:5447   */\n      iszero\n      tag_275\n      jumpi\n        /* \"#utility.yul\":5427:5445   */\n      tag_276\n      tag_183\n      jump\t// in\n    tag_276:\n        /* \"#utility.yul\":5359:5447   */\n    tag_275:\n        /* \"#utility.yul\":5467:5477   */\n      dup1\n        /* \"#utility.yul\":5463:5465   */\n      0x40\n        /* \"#utility.yul\":5456:5478   */\n      mstore\n        /* \"#utility.yul\":5246:5484   */\n      pop\n        /* \"#utility.yul\":5203:5484   */\n      pop\n      pop\n      jump\t// out\n        /* \"#utility.yul\":5490:5619   */\n    tag_185:\n        /* \"#utility.yul\":5524:5530   */\n      0x00\n        /* \"#utility.yul\":5551:5571   */\n      tag_278\n      tag_164\n      jump\t// in\n    tag_278:\n        /* \"#utility.yul\":5541:5571   */\n      swap1\n      pop\n        /* \"#utility.yul\":5580:5613   */\n      tag_279\n        /* \"#utility.yul\":5608:5612   */\n      dup3\n        /* \"#utility.yul\":5600:5606   */\n      dup3\n        /* \"#utility.yul\":5580:5613   */\n      tag_184\n      jump\t// in\n    tag_279:\n        /* \"#utility.yul\":5490:5619   */\n      swap2\n      swap1\n      pop\n      jump\t// out\n        /* \"#utility.yul\":5625:5933   */\n    tag_186:\n        /* \"#utility.yul\":5687:5691   */\n      0x00\n        /* \"#utility.yul\":5777:5795   */\n      0xffffffffffffffff\n        /* \"#utility.yul\":5769:5775   */\n      dup3\n        /* \"#utility.yul\":5766:5796   */\n      gt\n        /* \"#utility.yul\":5763:5819   */\n      iszero\n      tag_281\n      jumpi\n        /* \"#utility.yul\":5799:5817   */\n      tag_282\n      tag_183\n      jump\t// in\n    tag_282:\n        /* \"#utility.yul\":5763:5819   */\n    tag_281:\n        /* \"#utility.yul\":5837:5866   */\n      tag_283\n        /* \"#utility.yul\":5859:5865   */\n      dup3\n        /* \"#utility.yul\":5837:5866   */\n      tag_176\n      jump\t// in\n    tag_283:\n        /* \"#utility.yul\":5829:5866   */\n      swap1\n      pop\n        /* \"#utility.yul\":5921:5925   */\n      0x20\n        /* \"#utility.yul\":5915:5919   */\n      dup2\n        /* \"#utility.yul\":5911:5926   */\n      add\n        /* \"#utility.yul\":5903:5926   */\n      swap1\n      pop\n        /* \"#utility.yul\":5625:5933   */\n      swap2\n      swap1\n      pop\n      jump\t// out\n        /* \"#utility.yul\":5939:6087   */\n    tag_187:\n        /* \"#utility.yul\":6037:6043   */\n      dup3\n        /* \"#utility.yul\":6032:6035   */\n      dup2\n        /* \"#utility.yul\":6027:6030   */\n      dup4\n        /* \"#utility.yul\":6014:6044   */\n      calldatacopy\n        /* \"#utility.yul\":6078:6079   */\n      0x00\n        /* \"#utility.yul\":6069:6075   */\n      dup4\n        /* \"#utility.yul\":6064:6067   */\n      dup4\n        /* \"#utility.yul\":6060:6076   */\n      add\n        /* \"#utility.yul\":6053:6080   */\n      mstore\n        /* \"#utility.yul\":5939:6087   */\n      pop\n      pop\n      pop\n      jump\t// out\n        /* \"#utility.yul\":6093:6518   */\n    tag_188:\n        /* \"#utility.yul\":6171:6176   */\n      0x00\n        /* \"#utility.yul\":6196:6262   */\n      tag_286\n        /* \"#utility.yul\":6212:6261   */\n      tag_287\n        /* \"#utility.yul\":6254:6260   */\n      dup5\n        /* \"#utility.yul\":6212:6261   */\n      tag_186\n      jump\t// in\n    tag_287:\n        /* \"#utility.yul\":6196:6262   */\n      tag_185\n      jump\t// in\n    tag_286:\n        /* \"#utility.yul\":6187:6262   */\n      swap1\n      pop\n        /* \"#utility.yul\":6285:6291   */\n      dup3\n        /* \"#utility.yul\":6278:6283   */\n      dup2\n        /* \"#utility.yul\":6271:6292   */\n      mstore\n        /* \"#utility.yul\":6323:6327   */\n      0x20\n        /* \"#utility.yul\":6316:6321   */\n      dup2\n        /* \"#utility.yul\":6312:6328   */\n      add\n        /* \"#utility.yul\":6361:6364   */\n      dup5\n        /* \"#utility.yul\":6352:6358   */\n      dup5\n        /* \"#utility.yul\":6347:6350   */\n      dup5\n        /* \"#utility.yul\":6343:6359   */\n      add\n        /* \"#utility.yul\":6340:6365   */\n      gt\n        /* \"#utility.yul\":6337:6449   */\n      iszero\n      tag_288\n      jumpi\n        /* \"#utility.yul\":6368:6447   */\n      tag_289\n      tag_182\n      jump\t// in\n    tag_289:\n        /* \"#utility.yul\":6337:6449   */\n    tag_288:\n        /* \"#utility.yul\":6458:6512   */\n      tag_290\n        /* \"#utility.yul\":6505:6511   */\n      dup5\n        /* \"#utility.yul\":6500:6503   */\n      dup3\n        /* \"#utility.yul\":6495:6498   */\n      dup6\n        /* \"#utility.yul\":6458:6512   */\n      tag_187\n      jump\t// in\n    tag_290:\n        /* \"#utility.yul\":6177:6518   */\n      pop\n        /* \"#utility.yul\":6093:6518   */\n      swap4\n      swap3\n      pop\n      pop\n      pop\n      jump\t// out\n        /* \"#utility.yul\":6538:6878   */\n    tag_189:\n        /* \"#utility.yul\":6594:6599   */\n      0x00\n        /* \"#utility.yul\":6643:6646   */\n      dup3\n        /* \"#utility.yul\":6636:6640   */\n      0x1f\n        /* \"#utility.yul\":6628:6634   */\n      dup4\n        /* \"#utility.yul\":6624:6641   */\n      add\n        /* \"#utility.yul\":6620:6647   */\n      slt\n        /* \"#utility.yul\":6610:6732   */\n      tag_292\n      jumpi\n        /* \"#utility.yul\":6651:6730   */\n      tag_293\n      tag_181\n      jump\t// in\n    tag_293:\n        /* \"#utility.yul\":6610:6732   */\n    tag_292:\n        /* \"#utility.yul\":6768:6774   */\n      dup2\n        /* \"#utility.yul\":6755:6775   */\n      calldataload\n        /* \"#utility.yul\":6793:6872   */\n      tag_294\n        /* \"#utility.yul\":6868:6871   */\n      dup5\n        /* \"#utility.yul\":6860:6866   */\n      dup3\n        /* \"#utility.yul\":6853:6857   */\n      0x20\n        /* \"#utility.yul\":6845:6851   */\n      dup7\n        /* \"#utility.yul\":6841:6858   */\n      add\n        /* \"#utility.yul\":6793:6872   */\n      tag_188\n      jump\t// in\n    tag_294:\n        /* \"#utility.yul\":6784:6872   */\n      swap2\n      pop\n        /* \"#utility.yul\":6600:6878   */\n      pop\n        /* \"#utility.yul\":6538:6878   */\n      swap3\n      swap2\n      pop\n      pop\n      jump\t// out\n        /* \"#utility.yul\":6884:8155   */\n    tag_62:\n        /* \"#utility.yul\":6999:7005   */\n      0x00\n        /* \"#utility.yul\":7007:7013   */\n      dup1\n        /* \"#utility.yul\":7015:7021   */\n      0x00\n        /* \"#utility.yul\":7023:7029   */\n      dup1\n        /* \"#utility.yul\":7031:7037   */\n      0x00\n        /* \"#utility.yul\":7080:7083   */\n      0xa0\n        /* \"#utility.yul\":7068:7077   */\n      dup7\n        /* \"#utility.yul\":7059:7066   */\n      dup9\n        /* \"#utility.yul\":7055:7078   */\n      sub\n        /* \"#utility.yul\":7051:7084   */\n      slt\n        /* \"#utility.yul\":7048:7168   */\n      iszero\n      tag_296\n      jumpi\n        /* \"#utility.yul\":7087:7166   */\n      tag_297\n      tag_165\n      jump\t// in\n    tag_297:\n        /* \"#utility.yul\":7048:7168   */\n    tag_296:\n        /* \"#utility.yul\":7207:7208   */\n      0x00\n        /* \"#utility.yul\":7232:7285   */\n      tag_298\n        /* \"#utility.yul\":7277:7284   */\n      dup9\n        /* \"#utility.yul\":7268:7274   */\n      dup3\n        /* \"#utility.yul\":7257:7266   */\n      dup10\n        /* \"#utility.yul\":7253:7275   */\n      add\n        /* \"#utility.yul\":7232:7285   */\n      tag_169\n      jump\t// in\n    tag_298:\n        /* \"#utility.yul\":7222:7285   */\n      swap6\n      pop\n        /* \"#utility.yul\":7178:7295   */\n      pop\n        /* \"#utility.yul\":7362:7364   */\n      0x20\n        /* \"#utility.yul\":7351:7360   */\n      dup7\n        /* \"#utility.yul\":7347:7365   */\n      add\n        /* \"#utility.yul\":7334:7366   */\n      calldataload\n        /* \"#utility.yul\":7393:7411   */\n      0xffffffffffffffff\n        /* \"#utility.yul\":7385:7391   */\n      dup2\n        /* \"#utility.yul\":7382:7412   */\n      gt\n        /* \"#utility.yul\":7379:7496   */\n      iszero\n      tag_299\n      jumpi\n        /* \"#utility.yul\":7415:7494   */\n      tag_300\n      tag_166\n      jump\t// in\n    tag_300:\n        /* \"#utility.yul\":7379:7496   */\n    tag_299:\n        /* \"#utility.yul\":7520:7583   */\n      tag_301\n        /* \"#utility.yul\":7575:7582   */\n      dup9\n        /* \"#utility.yul\":7566:7572   */\n      dup3\n        /* \"#utility.yul\":7555:7564   */\n      dup10\n        /* \"#utility.yul\":7551:7573   */\n      add\n        /* \"#utility.yul\":7520:7583   */\n      tag_189\n      jump\t// in\n    tag_301:\n        /* \"#utility.yul\":7510:7583   */\n      swap5\n      pop\n        /* \"#utility.yul\":7305:7593   */\n      pop\n        /* \"#utility.yul\":7660:7662   */\n      0x40\n        /* \"#utility.yul\":7649:7658   */\n      dup7\n        /* \"#utility.yul\":7645:7663   */\n      add\n        /* \"#utility.yul\":7632:7664   */\n      calldataload\n        /* \"#utility.yul\":7691:7709   */\n      0xffffffffffffffff\n        /* \"#utility.yul\":7683:7689   */\n      dup2\n        /* \"#utility.yul\":7680:7710   */\n      gt\n        /* \"#utility.yul\":7677:7794   */\n      iszero\n      tag_302\n      jumpi\n        /* \"#utility.yul\":7713:7792   */\n      tag_303\n      tag_166\n      jump\t// in\n    tag_303:\n        /* \"#utility.yul\":7677:7794   */\n    tag_302:\n        /* \"#utility.yul\":7818:7881   */\n      tag_304\n        /* \"#utility.yul\":7873:7880   */\n      dup9\n        /* \"#utility.yul\":7864:7870   */\n      dup3\n        /* \"#utility.yul\":7853:7862   */\n      dup10\n        /* \"#utility.yul\":7849:7871   */\n      add\n        /* \"#utility.yul\":7818:7881   */\n      tag_189\n      jump\t// in\n    tag_304:\n        /* \"#utility.yul\":7808:7881   */\n      swap4\n      pop\n        /* \"#utility.yul\":7603:7891   */\n      pop\n        /* \"#utility.yul\":7930:7932   */\n      0x60\n        /* \"#utility.yul\":7956:8009   */\n      tag_305\n        /* \"#utility.yul\":8001:8008   */\n      dup9\n        /* \"#utility.yul\":7992:7998   */\n      dup3\n        /* \"#utility.yul\":7981:7990   */\n      dup10\n        /* \"#utility.yul\":7977:7999   */\n      add\n        /* \"#utility.yul\":7956:8009   */\n      tag_169\n      jump\t// in\n    tag_305:\n        /* \"#utility.yul\":7946:8009   */\n      swap3\n      pop\n        /* \"#utility.yul\":7901:8019   */\n      pop\n        /* \"#utility.yul\":8058:8061   */\n      0x80\n        /* \"#utility.yul\":8085:8138   */\n      tag_306\n        /* \"#utility.yul\":8130:8137   */\n      dup9\n        /* \"#utility.yul\":8121:8127   */\n      dup3\n        /* \"#utility.yul\":8110:8119   */\n      dup10\n        /* \"#utility.yul\":8106:8128   */\n      add\n        /* \"#utility.yul\":8085:8138   */\n      tag_169\n      jump\t// in\n    tag_306:\n        /* \"#utility.yul\":8075:8138   */\n      swap2\n      pop\n        /* \"#utility.yul\":8029:8148   */\n      pop\n        /* \"#utility.yul\":6884:8155   */\n      swap3\n      swap6\n      pop\n      swap3\n      swap6\n      swap1\n      swap4\n      pop\n      jump\t// out\n        /* \"#utility.yul\":8161:8341   */\n    tag_190:\n        /* \"#utility.yul\":8209:8286   */\n      0x4e487b7100000000000000000000000000000000000000000000000000000000\n        /* \"#utility.yul\":8206:8207   */\n      0x00\n        /* \"#utility.yul\":8199:8287   */\n      mstore\n        /* \"#utility.yul\":8306:8310   */\n      0x22\n        /* \"#utility.yul\":8303:8304   */\n      0x04\n        /* \"#utility.yul\":8296:8311   */\n      mstore\n        /* \"#utility.yul\":8330:8334   */\n      0x24\n        /* \"#utility.yul\":8327:8328   */\n      0x00\n        /* \"#utility.yul\":8320:8335   */\n      revert\n        /* \"#utility.yul\":8347:8667   */\n    tag_68:\n        /* \"#utility.yul\":8391:8397   */\n      0x00\n        /* \"#utility.yul\":8428:8429   */\n      0x02\n        /* \"#utility.yul\":8422:8426   */\n      dup3\n        /* \"#utility.yul\":8418:8430   */\n      div\n        /* \"#utility.yul\":8408:8430   */\n      swap1\n      pop\n        /* \"#utility.yul\":8475:8476   */\n      0x01\n        /* \"#utility.yul\":8469:8473   */\n      dup3\n        /* \"#utility.yul\":8465:8477   */\n      and\n        /* \"#utility.yul\":8496:8514   */\n      dup1\n        /* \"#utility.yul\":8486:8567   */\n      tag_309\n      jumpi\n        /* \"#utility.yul\":8552:8556   */\n      0x7f\n        /* \"#utility.yul\":8544:8550   */\n      dup3\n        /* \"#utility.yul\":8540:8557   */\n      and\n        /* \"#utility.yul\":8530:8557   */\n      swap2\n      pop\n        /* \"#utility.yul\":8486:8567   */\n    tag_309:\n        /* \"#utility.yul\":8614:8616   */\n      0x20\n        /* \"#utility.yul\":8606:8612   */\n      dup3\n        /* \"#utility.yul\":8603:8617   */\n      lt\n        /* \"#utility.yul\":8583:8601   */\n      dup2\n        /* \"#utility.yul\":8580:8618   */\n      sub\n        /* \"#utility.yul\":8577:8661   */\n      tag_310\n      jumpi\n        /* \"#utility.yul\":8633:8651   */\n      tag_311\n      tag_190\n      jump\t// in\n    tag_311:\n        /* \"#utility.yul\":8577:8661   */\n    tag_310:\n        /* \"#utility.yul\":8398:8667   */\n      pop\n        /* \"#utility.yul\":8347:8667   */\n      swap2\n      swap1\n      pop\n      jump\t// out\n        /* \"#utility.yul\":8673:8899   */\n    tag_191:\n        /* \"#utility.yul\":8813:8847   */\n      0x4f6e6c7920746865206f776e65722063616e20706572666f726d207468697320\n        /* \"#utility.yul\":8809:8810   */\n      0x00\n        /* \"#utility.yul\":8801:8807   */\n      dup3\n        /* \"#utility.yul\":8797:8811   */\n      add\n        /* \"#utility.yul\":8790:8848   */\n      mstore\n        /* \"#utility.yul\":8882:8891   */\n      0x616374696f6e2e00000000000000000000000000000000000000000000000000\n        /* \"#utility.yul\":8877:8879   */\n      0x20\n        /* \"#utility.yul\":8869:8875   */\n      dup3\n        /* \"#utility.yul\":8865:8880   */\n      add\n        /* \"#utility.yul\":8858:8892   */\n      mstore\n        /* \"#utility.yul\":8673:8899   */\n      pop\n      jump\t// out\n        /* \"#utility.yul\":8905:9271   */\n    tag_192:\n        /* \"#utility.yul\":9047:9050   */\n      0x00\n        /* \"#utility.yul\":9068:9135   */\n      tag_314\n        /* \"#utility.yul\":9132:9134   */\n      0x27\n        /* \"#utility.yul\":9127:9130   */\n      dup4\n        /* \"#utility.yul\":9068:9135   */\n      tag_174\n      jump\t// in\n    tag_314:\n        /* \"#utility.yul\":9061:9135   */\n      swap2\n      pop\n        /* \"#utility.yul\":9144:9237   */\n      tag_315\n        /* \"#utility.yul\":9233:9236   */\n      dup3\n        /* \"#utility.yul\":9144:9237   */\n      tag_191\n      jump\t// in\n    tag_315:\n        /* \"#utility.yul\":9262:9264   */\n      0x40\n        /* \"#utility.yul\":9257:9260   */\n      dup3\n        /* \"#utility.yul\":9253:9265   */\n      add\n        /* \"#utility.yul\":9246:9265   */\n      swap1\n      pop\n        /* \"#utility.yul\":8905:9271   */\n      swap2\n      swap1\n      pop\n      jump\t// out\n        /* \"#utility.yul\":9277:9696   */\n    tag_81:\n        /* \"#utility.yul\":9443:9447   */\n      0x00\n        /* \"#utility.yul\":9481:9483   */\n      0x20\n        /* \"#utility.yul\":9470:9479   */\n      dup3\n        /* \"#utility.yul\":9466:9484   */\n      add\n        /* \"#utility.yul\":9458:9484   */\n      swap1\n      pop\n        /* \"#utility.yul\":9530:9539   */\n      dup2\n        /* \"#utility.yul\":9524:9528   */\n      dup2\n        /* \"#utility.yul\":9520:9540   */\n      sub\n        /* \"#utility.yul\":9516:9517   */\n      0x00\n        /* \"#utility.yul\":9505:9514   */\n      dup4\n        /* \"#utility.yul\":9501:9518   */\n      add\n        /* \"#utility.yul\":9494:9541   */\n      mstore\n        /* \"#utility.yul\":9558:9689   */\n      tag_317\n        /* \"#utility.yul\":9684:9688   */\n      dup2\n        /* \"#utility.yul\":9558:9689   */\n      tag_192\n      jump\t// in\n    tag_317:\n        /* \"#utility.yul\":9550:9689   */\n      swap1\n      pop\n        /* \"#utility.yul\":9277:9696   */\n      swap2\n      swap1\n      pop\n      jump\t// out\n        /* \"#utility.yul\":9702:9871   */\n    tag_193:\n        /* \"#utility.yul\":9842:9863   */\n      0x426f6f6b20646f6573206e6f7420657869737400000000000000000000000000\n        /* \"#utility.yul\":9838:9839   */\n      0x00\n        /* \"#utility.yul\":9830:9836   */\n      dup3\n        /* \"#utility.yul\":9826:9840   */\n      add\n        /* \"#utility.yul\":9819:9864   */\n      mstore\n        /* \"#utility.yul\":9702:9871   */\n      pop\n      jump\t// out\n        /* \"#utility.yul\":9877:10243   */\n    tag_194:\n        /* \"#utility.yul\":10019:10022   */\n      0x00\n        /* \"#utility.yul\":10040:10107   */\n      tag_320\n        /* \"#utility.yul\":10104:10106   */\n      0x13\n        /* \"#utility.yul\":10099:10102   */\n      dup4\n        /* \"#utility.yul\":10040:10107   */\n      tag_174\n      jump\t// in\n    tag_320:\n        /* \"#utility.yul\":10033:10107   */\n      swap2\n      pop\n        /* \"#utility.yul\":10116:10209   */\n      tag_321\n        /* \"#utility.yul\":10205:10208   */\n      dup3\n        /* \"#utility.yul\":10116:10209   */\n      tag_193\n      jump\t// in\n    tag_321:\n        /* \"#utility.yul\":10234:10236   */\n      0x20\n        /* \"#utility.yul\":10229:10232   */\n      dup3\n        /* \"#utility.yul\":10225:10237   */\n      add\n        /* \"#utility.yul\":10218:10237   */\n      swap1\n      pop\n        /* \"#utility.yul\":9877:10243   */\n      swap2\n      swap1\n      pop\n      jump\t// out\n        /* \"#utility.yul\":10249:10668   */\n    tag_85:\n        /* \"#utility.yul\":10415:10419   */\n      0x00\n        /* \"#utility.yul\":10453:10455   */\n      0x20\n        /* \"#utility.yul\":10442:10451   */\n      dup3\n        /* \"#utility.yul\":10438:10456   */\n      add\n        /* \"#utility.yul\":10430:10456   */\n      swap1\n      pop\n        /* \"#utility.yul\":10502:10511   */\n      dup2\n        /* \"#utility.yul\":10496:10500   */\n      dup2\n        /* \"#utility.yul\":10492:10512   */\n      sub\n        /* \"#utility.yul\":10488:10489   */\n      0x00\n        /* \"#utility.yul\":10477:10486   */\n      dup4\n        /* \"#utility.yul\":10473:10490   */\n      add\n        /* \"#utility.yul\":10466:10513   */\n      mstore\n        /* \"#utility.yul\":10530:10661   */\n      tag_323\n        /* \"#utility.yul\":10656:10660   */\n      dup2\n        /* \"#utility.yul\":10530:10661   */\n      tag_194\n      jump\t// in\n    tag_323:\n        /* \"#utility.yul\":10522:10661   */\n      swap1\n      pop\n        /* \"#utility.yul\":10249:10668   */\n      swap2\n      swap1\n      pop\n      jump\t// out\n        /* \"#utility.yul\":10674:10854   */\n    tag_111:\n        /* \"#utility.yul\":10722:10799   */\n      0x4e487b7100000000000000000000000000000000000000000000000000000000\n        /* \"#utility.yul\":10719:10720   */\n      0x00\n        /* \"#utility.yul\":10712:10800   */\n      mstore\n        /* \"#utility.yul\":10819:10823   */\n      0x32\n        /* \"#utility.yul\":10816:10817   */\n      0x04\n        /* \"#utility.yul\":10809:10824   */\n      mstore\n        /* \"#utility.yul\":10843:10847   */\n      0x24\n        /* \"#utility.yul\":10840:10841   */\n      0x00\n        /* \"#utility.yul\":10833:10848   */\n      revert\n        /* \"#utility.yul\":10860:11040   */\n    tag_195:\n        /* \"#utility.yul\":10908:10985   */\n      0x4e487b7100000000000000000000000000000000000000000000000000000000\n        /* \"#utility.yul\":10905:10906   */\n      0x00\n        /* \"#utility.yul\":10898:10986   */\n      mstore\n        /* \"#utility.yul\":11005:11009   */\n      0x11\n        /* \"#utility.yul\":11002:11003   */\n      0x04\n        /* \"#utility.yul\":10995:11010   */\n      mstore\n        /* \"#utility.yul\":11029:11033   */\n      0x24\n        /* \"#utility.yul\":11026:11027   */\n      0x00\n        /* \"#utility.yul\":11019:11034   */\n      revert\n        /* \"#utility.yul\":11046:11240   */\n    tag_115:\n        /* \"#utility.yul\":11086:11090   */\n      0x00\n        /* \"#utility.yul\":11106:11126   */\n      tag_327\n        /* \"#utility.yul\":11124:11125   */\n      dup3\n        /* \"#utility.yul\":11106:11126   */\n      tag_167\n      jump\t// in\n    tag_327:\n        /* \"#utility.yul\":11101:11126   */\n      swap2\n      pop\n        /* \"#utility.yul\":11140:11160   */\n      tag_328\n        /* \"#utility.yul\":11158:11159   */\n      dup4\n        /* \"#utility.yul\":11140:11160   */\n      tag_167\n      jump\t// in\n    tag_328:\n        /* \"#utility.yul\":11135:11160   */\n      swap3\n      pop\n        /* \"#utility.yul\":11184:11185   */\n      dup3\n        /* \"#utility.yul\":11181:11182   */\n      dup3\n        /* \"#utility.yul\":11177:11186   */\n      sub\n        /* \"#utility.yul\":11169:11186   */\n      swap1\n      pop\n        /* \"#utility.yul\":11208:11209   */\n      dup2\n        /* \"#utility.yul\":11202:11206   */\n      dup2\n        /* \"#utility.yul\":11199:11210   */\n      gt\n        /* \"#utility.yul\":11196:11233   */\n      iszero\n      tag_329\n      jumpi\n        /* \"#utility.yul\":11213:11231   */\n      tag_330\n      tag_195\n      jump\t// in\n    tag_330:\n        /* \"#utility.yul\":11196:11233   */\n    tag_329:\n        /* \"#utility.yul\":11046:11240   */\n      swap3\n      swap2\n      pop\n      pop\n      jump\t// out\n        /* \"#utility.yul\":11246:11426   */\n    tag_124:\n        /* \"#utility.yul\":11294:11371   */\n      0x4e487b7100000000000000000000000000000000000000000000000000000000\n        /* \"#utility.yul\":11291:11292   */\n      0x00\n        /* \"#utility.yul\":11284:11372   */\n      mstore\n        /* \"#utility.yul\":11391:11395   */\n      0x31\n        /* \"#utility.yul\":11388:11389   */\n      0x04\n        /* \"#utility.yul\":11381:11396   */\n      mstore\n        /* \"#utility.yul\":11415:11419   */\n      0x24\n        /* \"#utility.yul\":11412:11413   */\n      0x00\n        /* \"#utility.yul\":11405:11420   */\n      revert\n        /* \"#utility.yul\":11432:11609   */\n    tag_196:\n        /* \"#utility.yul\":11572:11601   */\n      0x5468697320626f6f6b206973206e6f7420617661696c61626c652e0000000000\n        /* \"#utility.yul\":11568:11569   */\n      0x00\n        /* \"#utility.yul\":11560:11566   */\n      dup3\n        /* \"#utility.yul\":11556:11570   */\n      add\n        /* \"#utility.yul\":11549:11602   */\n      mstore\n        /* \"#utility.yul\":11432:11609   */\n      pop\n      jump\t// out\n        /* \"#utility.yul\":11615:11981   */\n    tag_197:\n        /* \"#utility.yul\":11757:11760   */\n      0x00\n        /* \"#utility.yul\":11778:11845   */\n      tag_334\n        /* \"#utility.yul\":11842:11844   */\n      0x1b\n        /* \"#utility.yul\":11837:11840   */\n      dup4\n        /* \"#utility.yul\":11778:11845   */\n      tag_174\n      jump\t// in\n    tag_334:\n        /* \"#utility.yul\":11771:11845   */\n      swap2\n      pop\n        /* \"#utility.yul\":11854:11947   */\n      tag_335\n        /* \"#utility.yul\":11943:11946   */\n      dup3\n        /* \"#utility.yul\":11854:11947   */\n      tag_196\n      jump\t// in\n    tag_335:\n        /* \"#utility.yul\":11972:11974   */\n      0x20\n        /* \"#utility.yul\":11967:11970   */\n      dup3\n        /* \"#utility.yul\":11963:11975   */\n      add\n        /* \"#utility.yul\":11956:11975   */\n      swap1\n      pop\n        /* \"#utility.yul\":11615:11981   */\n      swap2\n      swap1\n      pop\n      jump\t// out\n        /* \"#utility.yul\":11987:12406   */\n    tag_130:\n        /* \"#utility.yul\":12153:12157   */\n      0x00\n        /* \"#utility.yul\":12191:12193   */\n      0x20\n        /* \"#utility.yul\":12180:12189   */\n      dup3\n        /* \"#utility.yul\":12176:12194   */\n      add\n        /* \"#utility.yul\":12168:12194   */\n      swap1\n      pop\n        /* \"#utility.yul\":12240:12249   */\n      dup2\n        /* \"#utility.yul\":12234:12238   */\n      dup2\n        /* \"#utility.yul\":12230:12250   */\n      sub\n        /* \"#utility.yul\":12226:12227   */\n      0x00\n        /* \"#utility.yul\":12215:12224   */\n      dup4\n        /* \"#utility.yul\":12211:12228   */\n      add\n        /* \"#utility.yul\":12204:12251   */\n      mstore\n        /* \"#utility.yul\":12268:12399   */\n      tag_337\n        /* \"#utility.yul\":12394:12398   */\n      dup2\n        /* \"#utility.yul\":12268:12399   */\n      tag_197\n      jump\t// in\n    tag_337:\n        /* \"#utility.yul\":12260:12399   */\n      swap1\n      pop\n        /* \"#utility.yul\":11987:12406   */\n      swap2\n      swap1\n      pop\n      jump\t// out\n        /* \"#utility.yul\":12412:12589   */\n    tag_198:\n        /* \"#utility.yul\":12552:12581   */\n      0x4e6f7420656e6f7567682073746f636b20617661696c61626c652e0000000000\n        /* \"#utility.yul\":12548:12549   */\n      0x00\n        /* \"#utility.yul\":12540:12546   */\n      dup3\n        /* \"#utility.yul\":12536:12550   */\n      add\n        /* \"#utility.yul\":12529:12582   */\n      mstore\n        /* \"#utility.yul\":12412:12589   */\n      pop\n      jump\t// out\n        /* \"#utility.yul\":12595:12961   */\n    tag_199:\n        /* \"#utility.yul\":12737:12740   */\n      0x00\n        /* \"#utility.yul\":12758:12825   */\n      tag_340\n        /* \"#utility.yul\":12822:12824   */\n      0x1b\n        /* \"#utility.yul\":12817:12820   */\n      dup4\n        /* \"#utility.yul\":12758:12825   */\n      tag_174\n      jump\t// in\n    tag_340:\n        /* \"#utility.yul\":12751:12825   */\n      swap2\n      pop\n        /* \"#utility.yul\":12834:12927   */\n      tag_341\n        /* \"#utility.yul\":12923:12926   */\n      dup3\n        /* \"#utility.yul\":12834:12927   */\n      tag_198\n      jump\t// in\n    tag_341:\n        /* \"#utility.yul\":12952:12954   */\n      0x20\n        /* \"#utility.yul\":12947:12950   */\n      dup3\n        /* \"#utility.yul\":12943:12955   */\n      add\n        /* \"#utility.yul\":12936:12955   */\n      swap1\n      pop\n        /* \"#utility.yul\":12595:12961   */\n      swap2\n      swap1\n      pop\n      jump\t// out\n        /* \"#utility.yul\":12967:13386   */\n    tag_133:\n        /* \"#utility.yul\":13133:13137   */\n      0x00\n        /* \"#utility.yul\":13171:13173   */\n      0x20\n        /* \"#utility.yul\":13160:13169   */\n      dup3\n        /* \"#utility.yul\":13156:13174   */\n      add\n        /* \"#utility.yul\":13148:13174   */\n      swap1\n      pop\n        /* \"#utility.yul\":13220:13229   */\n      dup2\n        /* \"#utility.yul\":13214:13218   */\n      dup2\n        /* \"#utility.yul\":13210:13230   */\n      sub\n        /* \"#utility.yul\":13206:13207   */\n      0x00\n        /* \"#utility.yul\":13195:13204   */\n      dup4\n        /* \"#utility.yul\":13191:13208   */\n      add\n        /* \"#utility.yul\":13184:13231   */\n      mstore\n        /* \"#utility.yul\":13248:13379   */\n      tag_343\n        /* \"#utility.yul\":13374:13378   */\n      dup2\n        /* \"#utility.yul\":13248:13379   */\n      tag_199\n      jump\t// in\n    tag_343:\n        /* \"#utility.yul\":13240:13379   */\n      swap1\n      pop\n        /* \"#utility.yul\":12967:13386   */\n      swap2\n      swap1\n      pop\n      jump\t// out\n        /* \"#utility.yul\":13392:13802   */\n    tag_135:\n        /* \"#utility.yul\":13432:13439   */\n      0x00\n        /* \"#utility.yul\":13455:13475   */\n      tag_345\n        /* \"#utility.yul\":13473:13474   */\n      dup3\n        /* \"#utility.yul\":13455:13475   */\n      tag_167\n      jump\t// in\n    tag_345:\n        /* \"#utility.yul\":13450:13475   */\n      swap2\n      pop\n        /* \"#utility.yul\":13489:13509   */\n      tag_346\n        /* \"#utility.yul\":13507:13508   */\n      dup4\n        /* \"#utility.yul\":13489:13509   */\n      tag_167\n      jump\t// in\n    tag_346:\n        /* \"#utility.yul\":13484:13509   */\n      swap3\n      pop\n        /* \"#utility.yul\":13544:13545   */\n      dup3\n        /* \"#utility.yul\":13541:13542   */\n      dup3\n        /* \"#utility.yul\":13537:13546   */\n      mul\n        /* \"#utility.yul\":13566:13596   */\n      tag_347\n        /* \"#utility.yul\":13584:13595   */\n      dup2\n        /* \"#utility.yul\":13566:13596   */\n      tag_167\n      jump\t// in\n    tag_347:\n        /* \"#utility.yul\":13555:13596   */\n      swap2\n      pop\n        /* \"#utility.yul\":13745:13746   */\n      dup3\n        /* \"#utility.yul\":13736:13743   */\n      dup3\n        /* \"#utility.yul\":13732:13747   */\n      div\n        /* \"#utility.yul\":13729:13730   */\n      dup5\n        /* \"#utility.yul\":13726:13748   */\n      eq\n        /* \"#utility.yul\":13706:13707   */\n      dup4\n        /* \"#utility.yul\":13699:13708   */\n      iszero\n        /* \"#utility.yul\":13679:13762   */\n      or\n        /* \"#utility.yul\":13656:13795   */\n      tag_348\n      jumpi\n        /* \"#utility.yul\":13775:13793   */\n      tag_349\n      tag_195\n      jump\t// in\n    tag_349:\n        /* \"#utility.yul\":13656:13795   */\n    tag_348:\n        /* \"#utility.yul\":13440:13802   */\n      pop\n        /* \"#utility.yul\":13392:13802   */\n      swap3\n      swap2\n      pop\n      pop\n      jump\t// out\n        /* \"#utility.yul\":13808:13983   */\n    tag_200:\n        /* \"#utility.yul\":13948:13975   */\n      0x496e636f7272656374207061796d656e7420616d6f756e742e00000000000000\n        /* \"#utility.yul\":13944:13945   */\n      0x00\n        /* \"#utility.yul\":13936:13942   */\n      dup3\n        /* \"#utility.yul\":13932:13946   */\n      add\n        /* \"#utility.yul\":13925:13976   */\n      mstore\n        /* \"#utility.yul\":13808:13983   */\n      pop\n      jump\t// out\n        /* \"#utility.yul\":13989:14355   */\n    tag_201:\n        /* \"#utility.yul\":14131:14134   */\n      0x00\n        /* \"#utility.yul\":14152:14219   */\n      tag_352\n        /* \"#utility.yul\":14216:14218   */\n      0x19\n        /* \"#utility.yul\":14211:14214   */\n      dup4\n        /* \"#utility.yul\":14152:14219   */\n      tag_174\n      jump\t// in\n    tag_352:\n        /* \"#utility.yul\":14145:14219   */\n      swap2\n      pop\n        /* \"#utility.yul\":14228:14321   */\n      tag_353\n        /* \"#utility.yul\":14317:14320   */\n      dup3\n        /* \"#utility.yul\":14228:14321   */\n      tag_200\n      jump\t// in\n    tag_353:\n        /* \"#utility.yul\":14346:14348   */\n      0x20\n        /* \"#utility.yul\":14341:14344   */\n      dup3\n        /* \"#utility.yul\":14337:14349   */\n      add\n        /* \"#utility.yul\":14330:14349   */\n      swap1\n      pop\n        /* \"#utility.yul\":13989:14355   */\n      swap2\n      swap1\n      pop\n      jump\t// out\n        /* \"#utility.yul\":14361:14780   */\n    tag_138:\n        /* \"#utility.yul\":14527:14531   */\n      0x00\n        /* \"#utility.yul\":14565:14567   */\n      0x20\n        /* \"#utility.yul\":14554:14563   */\n      dup3\n        /* \"#utility.yul\":14550:14568   */\n      add\n        /* \"#utility.yul\":14542:14568   */\n      swap1\n      pop\n        /* \"#utility.yul\":14614:14623   */\n      dup2\n        /* \"#utility.yul\":14608:14612   */\n      dup2\n        /* \"#utility.yul\":14604:14624   */\n      sub\n        /* \"#utility.yul\":14600:14601   */\n      0x00\n        /* \"#utility.yul\":14589:14598   */\n      dup4\n        /* \"#utility.yul\":14585:14602   */\n      add\n        /* \"#utility.yul\":14578:14625   */\n      mstore\n        /* \"#utility.yul\":14642:14773   */\n      tag_355\n        /* \"#utility.yul\":14768:14772   */\n      dup2\n        /* \"#utility.yul\":14642:14773   */\n      tag_201\n      jump\t// in\n    tag_355:\n        /* \"#utility.yul\":14634:14773   */\n      swap1\n      pop\n        /* \"#utility.yul\":14361:14780   */\n      swap2\n      swap1\n      pop\n      jump\t// out\n        /* \"#utility.yul\":14786:15006   */\n    tag_202:\n        /* \"#utility.yul\":14926:14960   */\n      0x426f6f6b20616c72656164792065786973747320776974682074686973204944\n        /* \"#utility.yul\":14922:14923   */\n      0x00\n        /* \"#utility.yul\":14914:14920   */\n      dup3\n        /* \"#utility.yul\":14910:14924   */\n      add\n        /* \"#utility.yul\":14903:14961   */\n      mstore\n        /* \"#utility.yul\":14995:14998   */\n      0x2e00000000000000000000000000000000000000000000000000000000000000\n        /* \"#utility.yul\":14990:14992   */\n      0x20\n        /* \"#utility.yul\":14982:14988   */\n      dup3\n        /* \"#utility.yul\":14978:14993   */\n      add\n        /* \"#utility.yul\":14971:14999   */\n      mstore\n        /* \"#utility.yul\":14786:15006   */\n      pop\n      jump\t// out\n        /* \"#utility.yul\":15012:15378   */\n    tag_203:\n        /* \"#utility.yul\":15154:15157   */\n      0x00\n        /* \"#utility.yul\":15175:15242   */\n      tag_358\n        /* \"#utility.yul\":15239:15241   */\n      0x21\n        /* \"#utility.yul\":15234:15237   */\n      dup4\n        /* \"#utility.yul\":15175:15242   */\n      tag_174\n      jump\t// in\n    tag_358:\n        /* \"#utility.yul\":15168:15242   */\n      swap2\n      pop\n        /* \"#utility.yul\":15251:15344   */\n      tag_359\n        /* \"#utility.yul\":15340:15343   */\n      dup3\n        /* \"#utility.yul\":15251:15344   */\n      tag_202\n      jump\t// in\n    tag_359:\n        /* \"#utility.yul\":15369:15371   */\n      0x40\n        /* \"#utility.yul\":15364:15367   */\n      dup3\n        /* \"#utility.yul\":15360:15372   */\n      add\n        /* \"#utility.yul\":15353:15372   */\n      swap1\n      pop\n        /* \"#utility.yul\":15012:15378   */\n      swap2\n      swap1\n      pop\n      jump\t// out\n        /* \"#utility.yul\":15384:15803   */\n    tag_150:\n        /* \"#utility.yul\":15550:15554   */\n      0x00\n        /* \"#utility.yul\":15588:15590   */\n      0x20\n        /* \"#utility.yul\":15577:15586   */\n      dup3\n        /* \"#utility.yul\":15573:15591   */\n      add\n        /* \"#utility.yul\":15565:15591   */\n      swap1\n      pop\n        /* \"#utility.yul\":15637:15646   */\n      dup2\n        /* \"#utility.yul\":15631:15635   */\n      dup2\n        /* \"#utility.yul\":15627:15647   */\n      sub\n        /* \"#utility.yul\":15623:15624   */\n      0x00\n        /* \"#utility.yul\":15612:15621   */\n      dup4\n        /* \"#utility.yul\":15608:15625   */\n      add\n        /* \"#utility.yul\":15601:15648   */\n      mstore\n        /* \"#utility.yul\":15665:15796   */\n      tag_361\n        /* \"#utility.yul\":15791:15795   */\n      dup2\n        /* \"#utility.yul\":15665:15796   */\n      tag_203\n      jump\t// in\n    tag_361:\n        /* \"#utility.yul\":15657:15796   */\n      swap1\n      pop\n        /* \"#utility.yul\":15384:15803   */\n      swap2\n      swap1\n      pop\n      jump\t// out\n        /* \"#utility.yul\":15809:15950   */\n    tag_204:\n        /* \"#utility.yul\":15858:15862   */\n      0x00\n        /* \"#utility.yul\":15881:15884   */\n      dup2\n        /* \"#utility.yul\":15873:15884   */\n      swap1\n      pop\n        /* \"#utility.yul\":15904:15907   */\n      dup2\n        /* \"#utility.yul\":15901:15902   */\n      0x00\n        /* \"#utility.yul\":15894:15908   */\n      mstore\n        /* \"#utility.yul\":15938:15942   */\n      0x20\n        /* \"#utility.yul\":15935:15936   */\n      0x00\n        /* \"#utility.yul\":15925:15943   */\n      keccak256\n        /* \"#utility.yul\":15917:15943   */\n      swap1\n      pop\n        /* \"#utility.yul\":15809:15950   */\n      swap2\n      swap1\n      pop\n      jump\t// out\n        /* \"#utility.yul\":15956:16049   */\n    tag_205:\n        /* \"#utility.yul\":15993:15999   */\n      0x00\n        /* \"#utility.yul\":16040:16042   */\n      0x20\n        /* \"#utility.yul\":16035:16037   */\n      0x1f\n        /* \"#utility.yul\":16028:16033   */\n      dup4\n        /* \"#utility.yul\":16024:16038   */\n      add\n        /* \"#utility.yul\":16020:16043   */\n      div\n        /* \"#utility.yul\":16010:16043   */\n      swap1\n      pop\n        /* \"#utility.yul\":15956:16049   */\n      swap2\n      swap1\n      pop\n      jump\t// out\n        /* \"#utility.yul\":16055:16162   */\n    tag_206:\n        /* \"#utility.yul\":16099:16107   */\n      0x00\n        /* \"#utility.yul\":16149:16154   */\n      dup3\n        /* \"#utility.yul\":16143:16147   */\n      dup3\n        /* \"#utility.yul\":16139:16155   */\n      shl\n        /* \"#utility.yul\":16118:16155   */\n      swap1\n      pop\n        /* \"#utility.yul\":16055:16162   */\n      swap3\n      swap2\n      pop\n      pop\n      jump\t// out\n        /* \"#utility.yul\":16168:16561   */\n    tag_207:\n        /* \"#utility.yul\":16237:16243   */\n      0x00\n        /* \"#utility.yul\":16287:16288   */\n      0x08\n        /* \"#utility.yul\":16275:16285   */\n      dup4\n        /* \"#utility.yul\":16271:16289   */\n      mul\n        /* \"#utility.yul\":16310:16407   */\n      tag_366\n        /* \"#utility.yul\":16340:16406   */\n      0xffffffffffffffffffffffffffffffffffffffffffffffffffffffffffffffff\n        /* \"#utility.yul\":16329:16338   */\n      dup3\n        /* \"#utility.yul\":16310:16407   */\n      tag_206\n      jump\t// in\n    tag_366:\n        /* \"#utility.yul\":16428:16467   */\n      tag_367\n        /* \"#utility.yul\":16458:16466   */\n      dup7\n        /* \"#utility.yul\":16447:16456   */\n      dup4\n        /* \"#utility.yul\":16428:16467   */\n      tag_206\n      jump\t// in\n    tag_367:\n        /* \"#utility.yul\":16416:16467   */\n      swap6\n      pop\n        /* \"#utility.yul\":16500:16504   */\n      dup1\n        /* \"#utility.yul\":16496:16505   */\n      not\n        /* \"#utility.yul\":16489:16494   */\n      dup5\n        /* \"#utility.yul\":16485:16506   */\n      and\n        /* \"#utility.yul\":16476:16506   */\n      swap4\n      pop\n        /* \"#utility.yul\":16549:16553   */\n      dup1\n        /* \"#utility.yul\":16539:16547   */\n      dup7\n        /* \"#utility.yul\":16535:16554   */\n      and\n        /* \"#utility.yul\":16528:16533   */\n      dup5\n        /* \"#utility.yul\":16525:16555   */\n      or\n        /* \"#utility.yul\":16515:16555   */\n      swap3\n      pop\n        /* \"#utility.yul\":16244:16561   */\n      pop\n      pop\n        /* \"#utility.yul\":16168:16561   */\n      swap4\n      swap3\n      pop\n      pop\n      pop\n      jump\t// out\n        /* \"#utility.yul\":16567:16627   */\n    tag_208:\n        /* \"#utility.yul\":16595:16598   */\n      0x00\n        /* \"#utility.yul\":16616:16621   */\n      dup2\n        /* \"#utility.yul\":16609:16621   */\n      swap1\n      pop\n        /* \"#utility.yul\":16567:16627   */\n      swap2\n      swap1\n      pop\n      jump\t// out\n        /* \"#utility.yul\":16633:16775   */\n    tag_209:\n        /* \"#utility.yul\":16683:16692   */\n      0x00\n        /* \"#utility.yul\":16716:16769   */\n      tag_370\n        /* \"#utility.yul\":16734:16768   */\n      tag_371\n        /* \"#utility.yul\":16743:16767   */\n      tag_372\n        /* \"#utility.yul\":16761:16766   */\n      dup5\n        /* \"#utility.yul\":16743:16767   */\n      tag_167\n      jump\t// in\n    tag_372:\n        /* \"#utility.yul\":16734:16768   */\n      tag_208\n      jump\t// in\n    tag_371:\n        /* \"#utility.yul\":16716:16769   */\n      tag_167\n      jump\t// in\n    tag_370:\n        /* \"#utility.yul\":16703:16769   */\n      swap1\n      pop\n        /* \"#utility.yul\":16633:16775   */\n      swap2\n      swap1\n      pop\n      jump\t// out\n        /* \"#utility.yul\":16781:16856   */\n    tag_210:\n        /* \"#utility.yul\":16824:16827   */\n      0x00\n        /* \"#utility.yul\":16845:16850   */\n      dup2\n        /* \"#utility.yul\":16838:16850   */\n      swap1\n      pop\n        /* \"#utility.yul\":16781:16856   */\n      swap2\n      swap1\n      pop\n      jump\t// out\n        /* \"#utility.yul\":16862:17131   */\n    tag_211:\n        /* \"#utility.yul\":16972:17011   */\n      tag_375\n        /* \"#utility.yul\":17003:17010   */\n      dup4\n        /* \"#utility.yul\":16972:17011   */\n      tag_209\n      jump\t// in\n    tag_375:\n        /* \"#utility.yul\":17033:17124   */\n      tag_376\n        /* \"#utility.yul\":17082:17123   */\n      tag_377\n        /* \"#utility.yul\":17106:17122   */\n      dup3\n        /* \"#utility.yul\":17082:17123   */\n      tag_210\n      jump\t// in\n    tag_377:\n        /* \"#utility.yul\":17074:17080   */\n      dup5\n        /* \"#utility.yul\":17067:17071   */\n      dup5\n        /* \"#utility.yul\":17061:17072   */\n      sload\n        /* \"#utility.yul\":17033:17124   */\n      tag_207\n      jump\t// in\n    tag_376:\n        /* \"#utility.yul\":17027:17031   */\n      dup3\n        /* \"#utility.yul\":17020:17125   */\n      sstore\n        /* \"#utility.yul\":16938:17131   */\n      pop\n        /* \"#utility.yul\":16862:17131   */\n      pop\n      pop\n      pop\n      jump\t// out\n        /* \"#utility.yul\":17137:17210   */\n    tag_212:\n        /* \"#utility.yul\":17182:17185   */\n      0x00\n        /* \"#utility.yul\":17137:17210   */\n      swap1\n      jump\t// out\n        /* \"#utility.yul\":17216:17405   */\n    tag_213:\n        /* \"#utility.yul\":17293:17325   */\n      tag_380\n      tag_212\n      jump\t// in\n    tag_380:\n        /* \"#utility.yul\":17334:17399   */\n      tag_381\n        /* \"#utility.yul\":17392:17398   */\n      dup2\n        /* \"#utility.yul\":17384:17390   */\n      dup5\n        /* \"#utility.yul\":17378:17382   */\n      dup5\n        /* \"#utility.yul\":17334:17399   */\n      tag_211\n      jump\t// in\n    tag_381:\n        /* \"#utility.yul\":17269:17405   */\n      pop\n        /* \"#utility.yul\":17216:17405   */\n      pop\n      pop\n      jump\t// out\n        /* \"#utility.yul\":17411:17597   */\n    tag_214:\n        /* \"#utility.yul\":17471:17591   */\n    tag_383:\n        /* \"#utility.yul\":17488:17491   */\n      dup2\n        /* \"#utility.yul\":17481:17486   */\n      dup2\n        /* \"#utility.yul\":17478:17492   */\n      lt\n        /* \"#utility.yul\":17471:17591   */\n      iszero\n      tag_385\n      jumpi\n        /* \"#utility.yul\":17542:17581   */\n      tag_386\n        /* \"#utility.yul\":17579:17580   */\n      0x00\n        /* \"#utility.yul\":17572:17577   */\n      dup3\n        /* \"#utility.yul\":17542:17581   */\n      tag_213\n      jump\t// in\n    tag_386:\n        /* \"#utility.yul\":17515:17516   */\n      0x01\n        /* \"#utility.yul\":17508:17513   */\n      dup2\n        /* \"#utility.yul\":17504:17517   */\n      add\n        /* \"#utility.yul\":17495:17517   */\n      swap1\n      pop\n        /* \"#utility.yul\":17471:17591   */\n      jump(tag_383)\n    tag_385:\n        /* \"#utility.yul\":17411:17597   */\n      pop\n      pop\n      jump\t// out\n        /* \"#utility.yul\":17603:18146   */\n    tag_215:\n        /* \"#utility.yul\":17704:17706   */\n      0x1f\n        /* \"#utility.yul\":17699:17702   */\n      dup3\n        /* \"#utility.yul\":17696:17707   */\n      gt\n        /* \"#utility.yul\":17693:18139   */\n      iszero\n      tag_388\n      jumpi\n        /* \"#utility.yul\":17738:17776   */\n      tag_389\n        /* \"#utility.yul\":17770:17775   */\n      dup2\n        /* \"#utility.yul\":17738:17776   */\n      tag_204\n      jump\t// in\n    tag_389:\n        /* \"#utility.yul\":17822:17851   */\n      tag_390\n        /* \"#utility.yul\":17840:17850   */\n      dup5\n        /* \"#utility.yul\":17822:17851   */\n      tag_205\n      jump\t// in\n    tag_390:\n        /* \"#utility.yul\":17812:17820   */\n      dup2\n        /* \"#utility.yul\":17808:17852   */\n      add\n        /* \"#utility.yul\":18005:18007   */\n      0x20\n        /* \"#utility.yul\":17993:18003   */\n      dup6\n        /* \"#utility.yul\":17990:18008   */\n      lt\n        /* \"#utility.yul\":17987:18036   */\n      iszero\n      tag_391\n      jumpi\n        /* \"#utility.yul\":18026:18034   */\n      dup2\n        /* \"#utility.yul\":18011:18034   */\n      swap1\n      pop\n        /* \"#utility.yul\":17987:18036   */\n    tag_391:\n        /* \"#utility.yul\":18049:18129   */\n      tag_392\n        /* \"#utility.yul\":18105:18127   */\n      tag_393\n        /* \"#utility.yul\":18123:18126   */\n      dup6\n        /* \"#utility.yul\":18105:18127   */\n      tag_205\n      jump\t// in\n    tag_393:\n        /* \"#utility.yul\":18095:18103   */\n      dup4\n        /* \"#utility.yul\":18091:18128   */\n      add\n        /* \"#utility.yul\":18078:18089   */\n      dup3\n        /* \"#utility.yul\":18049:18129   */\n      tag_214\n      jump\t// in\n    tag_392:\n        /* \"#utility.yul\":17708:18139   */\n      pop\n      pop\n        /* \"#utility.yul\":17693:18139   */\n    tag_388:\n        /* \"#utility.yul\":17603:18146   */\n      pop\n      pop\n      pop\n      jump\t// out\n        /* \"#utility.yul\":18152:18269   */\n    tag_216:\n        /* \"#utility.yul\":18206:18214   */\n      0x00\n        /* \"#utility.yul\":18256:18261   */\n      dup3\n        /* \"#utility.yul\":18250:18254   */\n      dup3\n        /* \"#utility.yul\":18246:18262   */\n      shr\n        /* \"#utility.yul\":18225:18262   */\n      swap1\n      pop\n        /* \"#utility.yul\":18152:18269   */\n      swap3\n      swap2\n      pop\n      pop\n      jump\t// out\n        /* \"#utility.yul\":18275:18444   */\n    tag_217:\n        /* \"#utility.yul\":18319:18325   */\n      0x00\n        /* \"#utility.yul\":18352:18403   */\n      tag_396\n        /* \"#utility.yul\":18400:18401   */\n      0x00\n        /* \"#utility.yul\":18396:18402   */\n      not\n        /* \"#utility.yul\":18388:18393   */\n      dup5\n        /* \"#utility.yul\":18385:18386   */\n      0x08\n        /* \"#utility.yul\":18381:18394   */\n      mul\n        /* \"#utility.yul\":18352:18403   */\n      tag_216\n      jump\t// in\n    tag_396:\n        /* \"#utility.yul\":18348:18404   */\n      not\n        /* \"#utility.yul\":18433:18437   */\n      dup1\n        /* \"#utility.yul\":18427:18431   */\n      dup4\n        /* \"#utility.yul\":18423:18438   */\n      and\n        /* \"#utility.yul\":18413:18438   */\n      swap2\n      pop\n        /* \"#utility.yul\":18326:18444   */\n      pop\n        /* \"#utility.yul\":18275:18444   */\n      swap3\n      swap2\n      pop\n      pop\n      jump\t// out\n        /* \"#utility.yul\":18449:18744   */\n    tag_218:\n        /* \"#utility.yul\":18525:18529   */\n      0x00\n        /* \"#utility.yul\":18671:18700   */\n      tag_398\n        /* \"#utility.yul\":18696:18699   */\n      dup4\n        /* \"#utility.yul\":18690:18694   */\n      dup4\n        /* \"#utility.yul\":18671:18700   */\n      tag_217\n      jump\t// in\n    tag_398:\n        /* \"#utility.yul\":18663:18700   */\n      swap2\n      pop\n        /* \"#utility.yul\":18733:18736   */\n      dup3\n        /* \"#utility.yul\":18730:18731   */\n      0x02\n        /* \"#utility.yul\":18726:18737   */\n      mul\n        /* \"#utility.yul\":18720:18724   */\n      dup3\n        /* \"#utility.yul\":18717:18738   */\n      or\n        /* \"#utility.yul\":18709:18738   */\n      swap1\n      pop\n        /* \"#utility.yul\":18449:18744   */\n      swap3\n      swap2\n      pop\n      pop\n      jump\t// out\n        /* \"#utility.yul\":18749:20144   */\n    tag_152:\n        /* \"#utility.yul\":18866:18903   */\n      tag_400\n        /* \"#utility.yul\":18899:18902   */\n      dup3\n        /* \"#utility.yul\":18866:18903   */\n      tag_173\n      jump\t// in\n    tag_400:\n        /* \"#utility.yul\":18968:18986   */\n      0xffffffffffffffff\n        /* \"#utility.yul\":18960:18966   */\n      dup2\n        /* \"#utility.yul\":18957:18987   */\n      gt\n        /* \"#utility.yul\":18954:19010   */\n      iszero\n      tag_401\n      jumpi\n        /* \"#utility.yul\":18990:19008   */\n      tag_402\n      tag_183\n      jump\t// in\n    tag_402:\n        /* \"#utility.yul\":18954:19010   */\n    tag_401:\n        /* \"#utility.yul\":19034:19072   */\n      tag_403\n        /* \"#utility.yul\":19066:19070   */\n      dup3\n        /* \"#utility.yul\":19060:19071   */\n      sload\n        /* \"#utility.yul\":19034:19072   */\n      tag_68\n      jump\t// in\n    tag_403:\n        /* \"#utility.yul\":19119:19186   */\n      tag_404\n        /* \"#utility.yul\":19179:19185   */\n      dup3\n        /* \"#utility.yul\":19171:19177   */\n      dup3\n        /* \"#utility.yul\":19165:19169   */\n      dup6\n        /* \"#utility.yul\":19119:19186   */\n      tag_215\n      jump\t// in\n    tag_404:\n        /* \"#utility.yul\":19213:19214   */\n      0x00\n        /* \"#utility.yul\":19237:19241   */\n      0x20\n        /* \"#utility.yul\":19224:19241   */\n      swap1\n      pop\n        /* \"#utility.yul\":19269:19271   */\n      0x1f\n        /* \"#utility.yul\":19261:19267   */\n      dup4\n        /* \"#utility.yul\":19258:19272   */\n      gt\n        /* \"#utility.yul\":19286:19287   */\n      0x01\n        /* \"#utility.yul\":19281:19899   */\n      dup2\n      eq\n      tag_406\n      jumpi\n        /* \"#utility.yul\":19943:19944   */\n      0x00\n        /* \"#utility.yul\":19960:19966   */\n      dup5\n        /* \"#utility.yul\":19957:20034   */\n      iszero\n      tag_407\n      jumpi\n        /* \"#utility.yul\":20009:20018   */\n      dup3\n        /* \"#utility.yul\":20004:20007   */\n      dup8\n        /* \"#utility.yul\":20000:20019   */\n      add\n        /* \"#utility.yul\":19994:20020   */\n      mload\n        /* \"#utility.yul\":19985:20020   */\n      swap1\n      pop\n        /* \"#utility.yul\":19957:20034   */\n    tag_407:\n        /* \"#utility.yul\":20060:20127   */\n      tag_408\n        /* \"#utility.yul\":20120:20126   */\n      dup6\n        /* \"#utility.yul\":20113:20118   */\n      dup3\n        /* \"#utility.yul\":20060:20127   */\n      tag_218\n      jump\t// in\n    tag_408:\n        /* \"#utility.yul\":20054:20058   */\n      dup7\n        /* \"#utility.yul\":20047:20128   */\n      sstore\n        /* \"#utility.yul\":19916:20138   */\n      pop\n        /* \"#utility.yul\":19251:20138   */\n      jump(tag_405)\n        /* \"#utility.yul\":19281:19899   */\n    tag_406:\n        /* \"#utility.yul\":19333:19337   */\n      0x1f\n        /* \"#utility.yul\":19329:19338   */\n      not\n        /* \"#utility.yul\":19321:19327   */\n      dup5\n        /* \"#utility.yul\":19317:19339   */\n      and\n        /* \"#utility.yul\":19367:19404   */\n      tag_409\n        /* \"#utility.yul\":19399:19403   */\n      dup7\n        /* \"#utility.yul\":19367:19404   */\n      tag_204\n      jump\t// in\n    tag_409:\n        /* \"#utility.yul\":19426:19427   */\n      0x00\n        /* \"#utility.yul\":19440:19648   */\n    tag_410:\n        /* \"#utility.yul\":19454:19461   */\n      dup3\n        /* \"#utility.yul\":19451:19452   */\n      dup2\n        /* \"#utility.yul\":19448:19462   */\n      lt\n        /* \"#utility.yul\":19440:19648   */\n      iszero\n      tag_412\n      jumpi\n        /* \"#utility.yul\":19533:19542   */\n      dup5\n        /* \"#utility.yul\":19528:19531   */\n      dup10\n        /* \"#utility.yul\":19524:19543   */\n      add\n        /* \"#utility.yul\":19518:19544   */\n      mload\n        /* \"#utility.yul\":19510:19516   */\n      dup3\n        /* \"#utility.yul\":19503:19545   */\n      sstore\n        /* \"#utility.yul\":19584:19585   */\n      0x01\n        /* \"#utility.yul\":19576:19582   */\n      dup3\n        /* \"#utility.yul\":19572:19586   */\n      add\n        /* \"#utility.yul\":19562:19586   */\n      swap2\n      pop\n        /* \"#utility.yul\":19631:19633   */\n      0x20\n        /* \"#utility.yul\":19620:19629   */\n      dup6\n        /* \"#utility.yul\":19616:19634   */\n      add\n        /* \"#utility.yul\":19603:19634   */\n      swap5\n      pop\n        /* \"#utility.yul\":19477:19481   */\n      0x20\n        /* \"#utility.yul\":19474:19475   */\n      dup2\n        /* \"#utility.yul\":19470:19482   */\n      add\n        /* \"#utility.yul\":19465:19482   */\n      swap1\n      pop\n        /* \"#utility.yul\":19440:19648   */\n      jump(tag_410)\n    tag_412:\n        /* \"#utility.yul\":19676:19682   */\n      dup7\n        /* \"#utility.yul\":19667:19674   */\n      dup4\n        /* \"#utility.yul\":19664:19683   */\n      lt\n        /* \"#utility.yul\":19661:19840   */\n      iszero\n      tag_413\n      jumpi\n        /* \"#utility.yul\":19734:19743   */\n      dup5\n        /* \"#utility.yul\":19729:19732   */\n      dup10\n        /* \"#utility.yul\":19725:19744   */\n      add\n        /* \"#utility.yul\":19719:19745   */\n      mload\n        /* \"#utility.yul\":19777:19825   */\n      tag_414\n        /* \"#utility.yul\":19819:19823   */\n      0x1f\n        /* \"#utility.yul\":19811:19817   */\n      dup10\n        /* \"#utility.yul\":19807:19824   */\n      and\n        /* \"#utility.yul\":19796:19805   */\n      dup3\n        /* \"#utility.yul\":19777:19825   */\n      tag_217\n      jump\t// in\n    tag_414:\n        /* \"#utility.yul\":19769:19775   */\n      dup4\n        /* \"#utility.yul\":19762:19826   */\n      sstore\n        /* \"#utility.yul\":19684:19840   */\n      pop\n        /* \"#utility.yul\":19661:19840   */\n    tag_413:\n        /* \"#utility.yul\":19886:19887   */\n      0x01\n        /* \"#utility.yul\":19882:19883   */\n      0x02\n        /* \"#utility.yul\":19874:19880   */\n      dup9\n        /* \"#utility.yul\":19870:19884   */\n      mul\n        /* \"#utility.yul\":19866:19888   */\n      add\n        /* \"#utility.yul\":19860:19864   */\n      dup9\n        /* \"#utility.yul\":19853:19889   */\n      sstore\n        /* \"#utility.yul\":19288:19899   */\n      pop\n      pop\n      pop\n        /* \"#utility.yul\":19251:20138   */\n    tag_405:\n      pop\n        /* \"#utility.yul\":18841:20144   */\n      pop\n      pop\n      pop\n        /* \"#utility.yul\":18749:20144   */\n      pop\n      pop\n      jump\t// out\n        /* \"#utility.yul\":20150:20885   */\n    tag_156:\n        /* \"#utility.yul\":20367:20371   */\n      0x00\n        /* \"#utility.yul\":20405:20408   */\n      0x80\n        /* \"#utility.yul\":20394:20403   */\n      dup3\n        /* \"#utility.yul\":20390:20409   */\n      add\n        /* \"#utility.yul\":20382:20409   */\n      swap1\n      pop\n        /* \"#utility.yul\":20455:20464   */\n      dup2\n        /* \"#utility.yul\":20449:20453   */\n      dup2\n        /* \"#utility.yul\":20445:20465   */\n      sub\n        /* \"#utility.yul\":20441:20442   */\n      0x00\n        /* \"#utility.yul\":20430:20439   */\n      dup4\n        /* \"#utility.yul\":20426:20443   */\n      add\n        /* \"#utility.yul\":20419:20466   */\n      mstore\n        /* \"#utility.yul\":20483:20561   */\n      tag_416\n        /* \"#utility.yul\":20556:20560   */\n      dup2\n        /* \"#utility.yul\":20547:20553   */\n      dup8\n        /* \"#utility.yul\":20483:20561   */\n      tag_177\n      jump\t// in\n    tag_416:\n        /* \"#utility.yul\":20475:20561   */\n      swap1\n      pop\n        /* \"#utility.yul\":20608:20617   */\n      dup2\n        /* \"#utility.yul\":20602:20606   */\n      dup2\n        /* \"#utility.yul\":20598:20618   */\n      sub\n        /* \"#utility.yul\":20593:20595   */\n      0x20\n        /* \"#utility.yul\":20582:20591   */\n      dup4\n        /* \"#utility.yul\":20578:20596   */\n      add\n        /* \"#utility.yul\":20571:20619   */\n      mstore\n        /* \"#utility.yul\":20636:20714   */\n      tag_417\n        /* \"#utility.yul\":20709:20713   */\n      dup2\n        /* \"#utility.yul\":20700:20706   */\n      dup7\n        /* \"#utility.yul\":20636:20714   */\n      tag_177\n      jump\t// in\n    tag_417:\n        /* \"#utility.yul\":20628:20714   */\n      swap1\n      pop\n        /* \"#utility.yul\":20724:20796   */\n      tag_418\n        /* \"#utility.yul\":20792:20794   */\n      0x40\n        /* \"#utility.yul\":20781:20790   */\n      dup4\n        /* \"#utility.yul\":20777:20795   */\n      add\n        /* \"#utility.yul\":20768:20774   */\n      dup6\n        /* \"#utility.yul\":20724:20796   */\n      tag_172\n      jump\t// in\n    tag_418:\n        /* \"#utility.yul\":20806:20878   */\n      tag_419\n        /* \"#utility.yul\":20874:20876   */\n      0x60\n        /* \"#utility.yul\":20863:20872   */\n      dup4\n        /* \"#utility.yul\":20859:20877   */\n      add\n        /* \"#utility.yul\":20850:20856   */\n      dup5\n        /* \"#utility.yul\":20806:20878   */\n      tag_172\n      jump\t// in\n    tag_419:\n        /* \"#utility.yul\":20150:20885   */\n      swap6\n      swap5\n      pop\n      pop\n      pop\n      pop\n      pop\n      jump\t// out\n\n    auxdata: 0xa2646970667358221220a96b3437e55d12bbe01e89bbf2f1237783fe443c0a50963bf5aaebffbd61c57664736f6c634300081a0033\n}\n",
				"bytecode": {
					"linkReferences": {},
					"object": "608060405234801561000f575f80fd5b506040516119f93803806119f9833981810160405281019061003191906100d6565b80805f806101000a81548173ffffffffffffffffffffffffffffffffffffffff021916908373ffffffffffffffffffffffffffffffffffffffff1602179055505050610101565b5f80fd5b5f73ffffffffffffffffffffffffffffffffffffffff82169050919050565b5f6100a58261007c565b9050919050565b6100b58161009b565b81146100bf575f80fd5b50565b5f815190506100d0816100ac565b92915050565b5f602082840312156100eb576100ea610078565b5b5f6100f8848285016100c2565b91505092915050565b6118eb8061010e5f395ff3fe608060405260043610610090575f3560e01c806389f2fa9c1161005857806389f2fa9c146101b45780638da5cb5b146101f0578063bec0d7991461021a578063f346e2b714610242578063f733719c1461025e57610090565b806344420ebd14610094578063513073b8146100d05780635ac3e19e1461010c5780636579404d1461014c5780636874404614610174575b5f80fd5b34801561009f575f80fd5b506100ba60048036038101906100b59190610e0c565b610286565b6040516100c79190610e51565b60405180910390f35b3480156100db575f80fd5b506100f660048036038101906100f19190610e0c565b6102a3565b6040516101039190610e79565b60405180910390f35b348015610117575f80fd5b50610132600480360381019061012d9190610e0c565b6102c3565b604051610143959493929190610f02565b60405180910390f35b348015610157575f80fd5b50610172600480360381019061016d9190610e0c565b610461565b005b34801561017f575f80fd5b5061019a60048036038101906101959190610e0c565b61059d565b6040516101ab959493929190610f02565b60405180910390f35b3480156101bf575f80fd5b506101da60048036038101906101d59190610e0c565b6106e7565b6040516101e79190610e51565b60405180910390f35b3480156101fb575f80fd5b5061020461070d565b6040516102119190610fa0565b60405180910390f35b348015610225575f80fd5b50610240600480360381019061023b9190610e0c565b610730565b005b61025c60048036038101906102579190610fb9565b610991565b005b348015610269575f80fd5b50610284600480360381019061027f9190611135565b610b86565b005b6003602052805f5260405f205f915054906101000a900460ff1681565b600281815481106102b2575f80fd5b905f5260205f20015f915090505481565b6060805f805f8060015f8881526020019081526020015f206040518060a00160405290815f820180546102f590611211565b80601f016020809104026020016040519081016040528092919081815260200182805461032190611211565b801561036c5780601f106103435761010080835404028352916020019161036c565b820191905f5260205f20905b81548152906001019060200180831161034f57829003601f168201915b5050505050815260200160018201805461038590611211565b80601f01602080910402602001604051908101604052809291908181526020018280546103b190611211565b80156103fc5780601f106103d3576101008083540402835291602001916103fc565b820191905f5260205f20905b8154815290600101906020018083116103df57829003601f168201915b505050505081526020016002820154815260200160038201548152602001600482015f9054906101000a900460ff1615151515815250509050805f01518160200151826040015183606001518460800151955095509550955095505091939590929450565b5f8054906101000a900473ffffffffffffffffffffffffffffffffffffffff1673ffffffffffffffffffffffffffffffffffffffff163373ffffffffffffffffffffffffffffffffffffffff16146104ee576040517f08c379a00000000000000000000000000000000000000000000000000000000081526004016104e5906112b1565b60405180910390fd5b5f60015f8381526020019081526020015f206002015403610544576040517f08c379a000000000000000000000000000000000000000000000000000000000815260040161053b90611319565b60405180910390fd5b600160035f8381526020019081526020015f205f6101000a81548160ff021916908315150217905550807f638aef8adef10dde4a6d3a8b25d13de8672dfd9ce5a47c8b67dc3d48569d364760405160405180910390a250565b6001602052805f5260405f205f91509050805f0180546105bc90611211565b80601f01602080910402602001604051908101604052809291908181526020018280546105e890611211565b80156106335780601f1061060a57610100808354040283529160200191610633565b820191905f5260205f20905b81548152906001019060200180831161061657829003601f168201915b50505050509080600101805461064890611211565b80601f016020809104026020016040519081016040528092919081815260200182805461067490611211565b80156106bf5780601f10610696576101008083540402835291602001916106bf565b820191905f5260205f20905b8154815290600101906020018083116106a257829003601f168201915b505050505090806002015490806003015490806004015f9054906101000a900460ff16905085565b5f60035f8381526020019081526020015f205f9054906101000a900460ff169050919050565b5f8054906101000a900473ffffffffffffffffffffffffffffffffffffffff1681565b5f8054906101000a900473ffffffffffffffffffffffffffffffffffffffff1673ffffffffffffffffffffffffffffffffffffffff163373ffffffffffffffffffffffffffffffffffffffff16146107bd576040517f08c379a00000000000000000000000000000000000000000000000000000000081526004016107b4906112b1565b60405180910390fd5b5f60015f8381526020019081526020015f206002015403610813576040517f08c379a000000000000000000000000000000000000000000000000000000000815260040161080a90611319565b60405180910390fd5b60015f8281526020019081526020015f205f8082015f6108339190610d70565b600182015f6108429190610d70565b600282015f9055600382015f9055600482015f6101000a81549060ff021916905550505f5b60028054905081101561091c57816002828154811061088957610888611337565b5b905f5260205f2001540361090f57600260016002805490506108ab9190611391565b815481106108bc576108bb611337565b5b905f5260205f200154600282815481106108d9576108d8611337565b5b905f5260205f20018190555060028054806108f7576108f66113c4565b5b600190038181905f5260205f20015f9055905561091c565b8080600101915050610867565b5060035f8281526020019081526020015f205f9054906101000a900460ff16156109615760035f8281526020019081526020015f205f6101000a81549060ff02191690555b807f3c5ce13264433bcf97e5d53c97af4fc33800e8c9dd927f965b116d0018d7cddf60405160405180910390a250565b5f60015f8581526020019081526020015f209050806004015f9054906101000a900460ff166109f5576040517f08c379a00000000000000000000000000000000000000000000000000000000081526004016109ec9061143b565b60405180910390fd5b8281600301541015610a3c576040517f08c379a0000000000000000000000000000000000000000000000000000000008152600401610a33906114a3565b60405180910390fd5b828160020154610a4c91906114c1565b8214610a8d576040517f08c379a0000000000000000000000000000000000000000000000000000000008152600401610a849061154c565b60405180910390fd5b82816003015f828254610aa09190611391565b925050819055505f816003015403610ace575f816004015f6101000a81548160ff0219169083151502179055505b5f8054906101000a900473ffffffffffffffffffffffffffffffffffffffff1673ffffffffffffffffffffffffffffffffffffffff166108fc3490811502906040515f60405180830381858888f19350505050158015610b30573d5f803e3d5ffd5b503373ffffffffffffffffffffffffffffffffffffffff16847f439c08b00222293c6073f3ee383214541a4a21aca7dbb0a45963f86fa8e589f785604051610b789190610e79565b60405180910390a350505050565b5f8054906101000a900473ffffffffffffffffffffffffffffffffffffffff1673ffffffffffffffffffffffffffffffffffffffff163373ffffffffffffffffffffffffffffffffffffffff1614610c13576040517f08c379a0000000000000000000000000000000000000000000000000000000008152600401610c0a906112b1565b60405180910390fd5b5f60015f8781526020019081526020015f206002015414610c69576040517f08c379a0000000000000000000000000000000000000000000000000000000008152600401610c60906115da565b60405180910390fd5b6040518060a001604052808581526020018481526020018381526020018281526020015f8311151581525060015f8781526020019081526020015f205f820151815f019081610cb89190611795565b506020820151816001019081610cce9190611795565b5060408201518160020155606082015181600301556080820151816004015f6101000a81548160ff021916908315150217905550905050600285908060018154018082558091505060019003905f5260205f20015f9091909190915055847f722c04650224f771c04ec5712c74689980b3ddb4eaa233cd8f9c72d7da7fbe2985858585604051610d619493929190611864565b60405180910390a25050505050565b508054610d7c90611211565b5f825580601f10610d8d5750610daa565b601f0160209004905f5260205f2090810190610da99190610dad565b5b50565b5b80821115610dc4575f815f905550600101610dae565b5090565b5f604051905090565b5f80fd5b5f80fd5b5f819050919050565b610deb81610dd9565b8114610df5575f80fd5b50565b5f81359050610e0681610de2565b92915050565b5f60208284031215610e2157610e20610dd1565b5b5f610e2e84828501610df8565b91505092915050565b5f8115159050919050565b610e4b81610e37565b82525050565b5f602082019050610e645f830184610e42565b92915050565b610e7381610dd9565b82525050565b5f602082019050610e8c5f830184610e6a565b92915050565b5f81519050919050565b5f82825260208201905092915050565b8281835e5f83830152505050565b5f601f19601f8301169050919050565b5f610ed482610e92565b610ede8185610e9c565b9350610eee818560208601610eac565b610ef781610eba565b840191505092915050565b5f60a0820190508181035f830152610f1a8188610eca565b90508181036020830152610f2e8187610eca565b9050610f3d6040830186610e6a565b610f4a6060830185610e6a565b610f576080830184610e42565b9695505050505050565b5f73ffffffffffffffffffffffffffffffffffffffff82169050919050565b5f610f8a82610f61565b9050919050565b610f9a81610f80565b82525050565b5f602082019050610fb35f830184610f91565b92915050565b5f805f60608486031215610fd057610fcf610dd1565b5b5f610fdd86828701610df8565b9350506020610fee86828701610df8565b9250506040610fff86828701610df8565b9150509250925092565b5f80fd5b5f80fd5b7f4e487b71000000000000000000000000000000000000000000000000000000005f52604160045260245ffd5b61104782610eba565b810181811067ffffffffffffffff8211171561106657611065611011565b5b80604052505050565b5f611078610dc8565b9050611084828261103e565b919050565b5f67ffffffffffffffff8211156110a3576110a2611011565b5b6110ac82610eba565b9050602081019050919050565b828183375f83830152505050565b5f6110d96110d484611089565b61106f565b9050828152602081018484840111156110f5576110f461100d565b5b6111008482856110b9565b509392505050565b5f82601f83011261111c5761111b611009565b5b813561112c8482602086016110c7565b91505092915050565b5f805f805f60a0868803121561114e5761114d610dd1565b5b5f61115b88828901610df8565b955050602086013567ffffffffffffffff81111561117c5761117b610dd5565b5b61118888828901611108565b945050604086013567ffffffffffffffff8111156111a9576111a8610dd5565b5b6111b588828901611108565b93505060606111c688828901610df8565b92505060806111d788828901610df8565b9150509295509295909350565b7f4e487b71000000000000000000000000000000000000000000000000000000005f52602260045260245ffd5b5f600282049050600182168061122857607f821691505b60208210810361123b5761123a6111e4565b5b50919050565b7f4f6e6c7920746865206f776e65722063616e20706572666f726d2074686973205f8201527f616374696f6e2e00000000000000000000000000000000000000000000000000602082015250565b5f61129b602783610e9c565b91506112a682611241565b604082019050919050565b5f6020820190508181035f8301526112c88161128f565b9050919050565b7f426f6f6b20646f6573206e6f74206578697374000000000000000000000000005f82015250565b5f611303601383610e9c565b915061130e826112cf565b602082019050919050565b5f6020820190508181035f830152611330816112f7565b9050919050565b7f4e487b71000000000000000000000000000000000000000000000000000000005f52603260045260245ffd5b7f4e487b71000000000000000000000000000000000000000000000000000000005f52601160045260245ffd5b5f61139b82610dd9565b91506113a683610dd9565b92508282039050818111156113be576113bd611364565b5b92915050565b7f4e487b71000000000000000000000000000000000000000000000000000000005f52603160045260245ffd5b7f5468697320626f6f6b206973206e6f7420617661696c61626c652e00000000005f82015250565b5f611425601b83610e9c565b9150611430826113f1565b602082019050919050565b5f6020820190508181035f83015261145281611419565b9050919050565b7f4e6f7420656e6f7567682073746f636b20617661696c61626c652e00000000005f82015250565b5f61148d601b83610e9c565b915061149882611459565b602082019050919050565b5f6020820190508181035f8301526114ba81611481565b9050919050565b5f6114cb82610dd9565b91506114d683610dd9565b92508282026114e481610dd9565b915082820484148315176114fb576114fa611364565b5b5092915050565b7f496e636f7272656374207061796d656e7420616d6f756e742e000000000000005f82015250565b5f611536601983610e9c565b915061154182611502565b602082019050919050565b5f6020820190508181035f8301526115638161152a565b9050919050565b7f426f6f6b20616c726561647920657869737473207769746820746869732049445f8201527f2e00000000000000000000000000000000000000000000000000000000000000602082015250565b5f6115c4602183610e9c565b91506115cf8261156a565b604082019050919050565b5f6020820190508181035f8301526115f1816115b8565b9050919050565b5f819050815f5260205f209050919050565b5f6020601f8301049050919050565b5f82821b905092915050565b5f600883026116547fffffffffffffffffffffffffffffffffffffffffffffffffffffffffffffffff82611619565b61165e8683611619565b95508019841693508086168417925050509392505050565b5f819050919050565b5f61169961169461168f84610dd9565b611676565b610dd9565b9050919050565b5f819050919050565b6116b28361167f565b6116c66116be826116a0565b848454611625565b825550505050565b5f90565b6116da6116ce565b6116e58184846116a9565b505050565b5b81811015611708576116fd5f826116d2565b6001810190506116eb565b5050565b601f82111561174d5761171e816115f8565b6117278461160a565b81016020851015611736578190505b61174a6117428561160a565b8301826116ea565b50505b505050565b5f82821c905092915050565b5f61176d5f1984600802611752565b1980831691505092915050565b5f611785838361175e565b9150826002028217905092915050565b61179e82610e92565b67ffffffffffffffff8111156117b7576117b6611011565b5b6117c18254611211565b6117cc82828561170c565b5f60209050601f8311600181146117fd575f84156117eb578287015190505b6117f5858261177a565b86555061185c565b601f19841661180b866115f8565b5f5b828110156118325784890151825560018201915060208501945060208101905061180d565b8683101561184f578489015161184b601f89168261175e565b8355505b6001600288020188555050505b505050505050565b5f6080820190508181035f83015261187c8187610eca565b905081810360208301526118908186610eca565b905061189f6040830185610e6a565b6118ac6060830184610e6a565b9594505050505056fea2646970667358221220a96b3437e55d12bbe01e89bbf2f1237783fe443c0a50963bf5aaebffbd61c57664736f6c634300081a0033",
					"opcodes": "PUSH1 0x80 PUSH1 0x40 MSTORE CALLVALUE DUP1 ISZERO PUSH2 0xF JUMPI PUSH0 DUP1 REVERT JUMPDEST POP PUSH1 0x40 MLOAD PUSH2 0x19F9 CODESIZE SUB DUP1 PUSH2 0x19F9 DUP4 CODECOPY DUP2 DUP2 ADD PUSH1 0x40 MSTORE DUP2 ADD SWAP1 PUSH2 0x31 SWAP2 SWAP1 PUSH2 0xD6 JUMP JUMPDEST DUP1 DUP1 PUSH0 DUP1 PUSH2 0x100 EXP DUP2 SLOAD DUP2 PUSH20 0xFFFFFFFFFFFFFFFFFFFFFFFFFFFFFFFFFFFFFFFF MUL NOT AND SWAP1 DUP4 PUSH20 0xFFFFFFFFFFFFFFFFFFFFFFFFFFFFFFFFFFFFFFFF AND MUL OR SWAP1 SSTORE POP POP POP PUSH2 0x101 JUMP JUMPDEST PUSH0 DUP1 REVERT JUMPDEST PUSH0 PUSH20 0xFFFFFFFFFFFFFFFFFFFFFFFFFFFFFFFFFFFFFFFF DUP3 AND SWAP1 POP SWAP2 SWAP1 POP JUMP JUMPDEST PUSH0 PUSH2 0xA5 DUP3 PUSH2 0x7C JUMP JUMPDEST SWAP1 POP SWAP2 SWAP1 POP JUMP JUMPDEST PUSH2 0xB5 DUP2 PUSH2 0x9B JUMP JUMPDEST DUP2 EQ PUSH2 0xBF JUMPI PUSH0 DUP1 REVERT JUMPDEST POP JUMP JUMPDEST PUSH0 DUP2 MLOAD SWAP1 POP PUSH2 0xD0 DUP2 PUSH2 0xAC JUMP JUMPDEST SWAP3 SWAP2 POP POP JUMP JUMPDEST PUSH0 PUSH1 0x20 DUP3 DUP5 SUB SLT ISZERO PUSH2 0xEB JUMPI PUSH2 0xEA PUSH2 0x78 JUMP JUMPDEST JUMPDEST PUSH0 PUSH2 0xF8 DUP5 DUP3 DUP6 ADD PUSH2 0xC2 JUMP JUMPDEST SWAP2 POP POP SWAP3 SWAP2 POP POP JUMP JUMPDEST PUSH2 0x18EB DUP1 PUSH2 0x10E PUSH0 CODECOPY PUSH0 RETURN INVALID PUSH1 0x80 PUSH1 0x40 MSTORE PUSH1 0x4 CALLDATASIZE LT PUSH2 0x90 JUMPI PUSH0 CALLDATALOAD PUSH1 0xE0 SHR DUP1 PUSH4 0x89F2FA9C GT PUSH2 0x58 JUMPI DUP1 PUSH4 0x89F2FA9C EQ PUSH2 0x1B4 JUMPI DUP1 PUSH4 0x8DA5CB5B EQ PUSH2 0x1F0 JUMPI DUP1 PUSH4 0xBEC0D799 EQ PUSH2 0x21A JUMPI DUP1 PUSH4 0xF346E2B7 EQ PUSH2 0x242 JUMPI DUP1 PUSH4 0xF733719C EQ PUSH2 0x25E JUMPI PUSH2 0x90 JUMP JUMPDEST DUP1 PUSH4 0x44420EBD EQ PUSH2 0x94 JUMPI DUP1 PUSH4 0x513073B8 EQ PUSH2 0xD0 JUMPI DUP1 PUSH4 0x5AC3E19E EQ PUSH2 0x10C JUMPI DUP1 PUSH4 0x6579404D EQ PUSH2 0x14C JUMPI DUP1 PUSH4 0x68744046 EQ PUSH2 0x174 JUMPI JUMPDEST PUSH0 DUP1 REVERT JUMPDEST CALLVALUE DUP1 ISZERO PUSH2 0x9F JUMPI PUSH0 DUP1 REVERT JUMPDEST POP PUSH2 0xBA PUSH1 0x4 DUP1 CALLDATASIZE SUB DUP2 ADD SWAP1 PUSH2 0xB5 SWAP2 SWAP1 PUSH2 0xE0C JUMP JUMPDEST PUSH2 0x286 JUMP JUMPDEST PUSH1 0x40 MLOAD PUSH2 0xC7 SWAP2 SWAP1 PUSH2 0xE51 JUMP JUMPDEST PUSH1 0x40 MLOAD DUP1 SWAP2 SUB SWAP1 RETURN JUMPDEST CALLVALUE DUP1 ISZERO PUSH2 0xDB JUMPI PUSH0 DUP1 REVERT JUMPDEST POP PUSH2 0xF6 PUSH1 0x4 DUP1 CALLDATASIZE SUB DUP2 ADD SWAP1 PUSH2 0xF1 SWAP2 SWAP1 PUSH2 0xE0C JUMP JUMPDEST PUSH2 0x2A3 JUMP JUMPDEST PUSH1 0x40 MLOAD PUSH2 0x103 SWAP2 SWAP1 PUSH2 0xE79 JUMP JUMPDEST PUSH1 0x40 MLOAD DUP1 SWAP2 SUB SWAP1 RETURN JUMPDEST CALLVALUE DUP1 ISZERO PUSH2 0x117 JUMPI PUSH0 DUP1 REVERT JUMPDEST POP PUSH2 0x132 PUSH1 0x4 DUP1 CALLDATASIZE SUB DUP2 ADD SWAP1 PUSH2 0x12D SWAP2 SWAP1 PUSH2 0xE0C JUMP JUMPDEST PUSH2 0x2C3 JUMP JUMPDEST PUSH1 0x40 MLOAD PUSH2 0x143 SWAP6 SWAP5 SWAP4 SWAP3 SWAP2 SWAP1 PUSH2 0xF02 JUMP JUMPDEST PUSH1 0x40 MLOAD DUP1 SWAP2 SUB SWAP1 RETURN JUMPDEST CALLVALUE DUP1 ISZERO PUSH2 0x157 JUMPI PUSH0 DUP1 REVERT JUMPDEST POP PUSH2 0x172 PUSH1 0x4 DUP1 CALLDATASIZE SUB DUP2 ADD SWAP1 PUSH2 0x16D SWAP2 SWAP1 PUSH2 0xE0C JUMP JUMPDEST PUSH2 0x461 JUMP JUMPDEST STOP JUMPDEST CALLVALUE DUP1 ISZERO PUSH2 0x17F JUMPI PUSH0 DUP1 REVERT JUMPDEST POP PUSH2 0x19A PUSH1 0x4 DUP1 CALLDATASIZE SUB DUP2 ADD SWAP1 PUSH2 0x195 SWAP2 SWAP1 PUSH2 0xE0C JUMP JUMPDEST PUSH2 0x59D JUMP JUMPDEST PUSH1 0x40 MLOAD PUSH2 0x1AB SWAP6 SWAP5 SWAP4 SWAP3 SWAP2 SWAP1 PUSH2 0xF02 JUMP JUMPDEST PUSH1 0x40 MLOAD DUP1 SWAP2 SUB SWAP1 RETURN JUMPDEST CALLVALUE DUP1 ISZERO PUSH2 0x1BF JUMPI PUSH0 DUP1 REVERT JUMPDEST POP PUSH2 0x1DA PUSH1 0x4 DUP1 CALLDATASIZE SUB DUP2 ADD SWAP1 PUSH2 0x1D5 SWAP2 SWAP1 PUSH2 0xE0C JUMP JUMPDEST PUSH2 0x6E7 JUMP JUMPDEST PUSH1 0x40 MLOAD PUSH2 0x1E7 SWAP2 SWAP1 PUSH2 0xE51 JUMP JUMPDEST PUSH1 0x40 MLOAD DUP1 SWAP2 SUB SWAP1 RETURN JUMPDEST CALLVALUE DUP1 ISZERO PUSH2 0x1FB JUMPI PUSH0 DUP1 REVERT JUMPDEST POP PUSH2 0x204 PUSH2 0x70D JUMP JUMPDEST PUSH1 0x40 MLOAD PUSH2 0x211 SWAP2 SWAP1 PUSH2 0xFA0 JUMP JUMPDEST PUSH1 0x40 MLOAD DUP1 SWAP2 SUB SWAP1 RETURN JUMPDEST CALLVALUE DUP1 ISZERO PUSH2 0x225 JUMPI PUSH0 DUP1 REVERT JUMPDEST POP PUSH2 0x240 PUSH1 0x4 DUP1 CALLDATASIZE SUB DUP2 ADD SWAP1 PUSH2 0x23B SWAP2 SWAP1 PUSH2 0xE0C JUMP JUMPDEST PUSH2 0x730 JUMP JUMPDEST STOP JUMPDEST PUSH2 0x25C PUSH1 0x4 DUP1 CALLDATASIZE SUB DUP2 ADD SWAP1 PUSH2 0x257 SWAP2 SWAP1 PUSH2 0xFB9 JUMP JUMPDEST PUSH2 0x991 JUMP JUMPDEST STOP JUMPDEST CALLVALUE DUP1 ISZERO PUSH2 0x269 JUMPI PUSH0 DUP1 REVERT JUMPDEST POP PUSH2 0x284 PUSH1 0x4 DUP1 CALLDATASIZE SUB DUP2 ADD SWAP1 PUSH2 0x27F SWAP2 SWAP1 PUSH2 0x1135 JUMP JUMPDEST PUSH2 0xB86 JUMP JUMPDEST STOP JUMPDEST PUSH1 0x3 PUSH1 0x20 MSTORE DUP1 PUSH0 MSTORE PUSH1 0x40 PUSH0 KECCAK256 PUSH0 SWAP2 POP SLOAD SWAP1 PUSH2 0x100 EXP SWAP1 DIV PUSH1 0xFF AND DUP2 JUMP JUMPDEST PUSH1 0x2 DUP2 DUP2 SLOAD DUP2 LT PUSH2 0x2B2 JUMPI PUSH0 DUP1 REVERT JUMPDEST SWAP1 PUSH0 MSTORE PUSH1 0x20 PUSH0 KECCAK256 ADD PUSH0 SWAP2 POP SWAP1 POP SLOAD DUP2 JUMP JUMPDEST PUSH1 0x60 DUP1 PUSH0 DUP1 PUSH0 DUP1 PUSH1 0x1 PUSH0 DUP9 DUP2 MSTORE PUSH1 0x20 ADD SWAP1 DUP2 MSTORE PUSH1 0x20 ADD PUSH0 KECCAK256 PUSH1 0x40 MLOAD DUP1 PUSH1 0xA0 ADD PUSH1 0x40 MSTORE SWAP1 DUP2 PUSH0 DUP3 ADD DUP1 SLOAD PUSH2 0x2F5 SWAP1 PUSH2 0x1211 JUMP JUMPDEST DUP1 PUSH1 0x1F ADD PUSH1 0x20 DUP1 SWAP2 DIV MUL PUSH1 0x20 ADD PUSH1 0x40 MLOAD SWAP1 DUP2 ADD PUSH1 0x40 MSTORE DUP1 SWAP3 SWAP2 SWAP1 DUP2 DUP2 MSTORE PUSH1 0x20 ADD DUP3 DUP1 SLOAD PUSH2 0x321 SWAP1 PUSH2 0x1211 JUMP JUMPDEST DUP1 ISZERO PUSH2 0x36C JUMPI DUP1 PUSH1 0x1F LT PUSH2 0x343 JUMPI PUSH2 0x100 DUP1 DUP4 SLOAD DIV MUL DUP4 MSTORE SWAP2 PUSH1 0x20 ADD SWAP2 PUSH2 0x36C JUMP JUMPDEST DUP3 ADD SWAP2 SWAP1 PUSH0 MSTORE PUSH1 0x20 PUSH0 KECCAK256 SWAP1 JUMPDEST DUP2 SLOAD DUP2 MSTORE SWAP1 PUSH1 0x1 ADD SWAP1 PUSH1 0x20 ADD DUP1 DUP4 GT PUSH2 0x34F JUMPI DUP3 SWAP1 SUB PUSH1 0x1F AND DUP3 ADD SWAP2 JUMPDEST POP POP POP POP POP DUP2 MSTORE PUSH1 0x20 ADD PUSH1 0x1 DUP3 ADD DUP1 SLOAD PUSH2 0x385 SWAP1 PUSH2 0x1211 JUMP JUMPDEST DUP1 PUSH1 0x1F ADD PUSH1 0x20 DUP1 SWAP2 DIV MUL PUSH1 0x20 ADD PUSH1 0x40 MLOAD SWAP1 DUP2 ADD PUSH1 0x40 MSTORE DUP1 SWAP3 SWAP2 SWAP1 DUP2 DUP2 MSTORE PUSH1 0x20 ADD DUP3 DUP1 SLOAD PUSH2 0x3B1 SWAP1 PUSH2 0x1211 JUMP JUMPDEST DUP1 ISZERO PUSH2 0x3FC JUMPI DUP1 PUSH1 0x1F LT PUSH2 0x3D3 JUMPI PUSH2 0x100 DUP1 DUP4 SLOAD DIV MUL DUP4 MSTORE SWAP2 PUSH1 0x20 ADD SWAP2 PUSH2 0x3FC JUMP JUMPDEST DUP3 ADD SWAP2 SWAP1 PUSH0 MSTORE PUSH1 0x20 PUSH0 KECCAK256 SWAP1 JUMPDEST DUP2 SLOAD DUP2 MSTORE SWAP1 PUSH1 0x1 ADD SWAP1 PUSH1 0x20 ADD DUP1 DUP4 GT PUSH2 0x3DF JUMPI DUP3 SWAP1 SUB PUSH1 0x1F AND DUP3 ADD SWAP2 JUMPDEST POP POP POP POP POP DUP2 MSTORE PUSH1 0x20 ADD PUSH1 0x2 DUP3 ADD SLOAD DUP2 MSTORE PUSH1 0x20 ADD PUSH1 0x3 DUP3 ADD SLOAD DUP2 MSTORE PUSH1 0x20 ADD PUSH1 0x4 DUP3 ADD PUSH0 SWAP1 SLOAD SWAP1 PUSH2 0x100 EXP SWAP1 DIV PUSH1 0xFF AND ISZERO ISZERO ISZERO ISZERO DUP2 MSTORE POP POP SWAP1 POP DUP1 PUSH0 ADD MLOAD DUP2 PUSH1 0x20 ADD MLOAD DUP3 PUSH1 0x40 ADD MLOAD DUP4 PUSH1 0x60 ADD MLOAD DUP5 PUSH1 0x80 ADD MLOAD SWAP6 POP SWAP6 POP SWAP6 POP SWAP6 POP SWAP6 POP POP SWAP2 SWAP4 SWAP6 SWAP1 SWAP3 SWAP5 POP JUMP JUMPDEST PUSH0 DUP1 SLOAD SWAP1 PUSH2 0x100 EXP SWAP1 DIV PUSH20 0xFFFFFFFFFFFFFFFFFFFFFFFFFFFFFFFFFFFFFFFF AND PUSH20 0xFFFFFFFFFFFFFFFFFFFFFFFFFFFFFFFFFFFFFFFF AND CALLER PUSH20 0xFFFFFFFFFFFFFFFFFFFFFFFFFFFFFFFFFFFFFFFF AND EQ PUSH2 0x4EE JUMPI PUSH1 0x40 MLOAD PUSH32 0x8C379A000000000000000000000000000000000000000000000000000000000 DUP2 MSTORE PUSH1 0x4 ADD PUSH2 0x4E5 SWAP1 PUSH2 0x12B1 JUMP JUMPDEST PUSH1 0x40 MLOAD DUP1 SWAP2 SUB SWAP1 REVERT JUMPDEST PUSH0 PUSH1 0x1 PUSH0 DUP4 DUP2 MSTORE PUSH1 0x20 ADD SWAP1 DUP2 MSTORE PUSH1 0x20 ADD PUSH0 KECCAK256 PUSH1 0x2 ADD SLOAD SUB PUSH2 0x544 JUMPI PUSH1 0x40 MLOAD PUSH32 0x8C379A000000000000000000000000000000000000000000000000000000000 DUP2 MSTORE PUSH1 0x4 ADD PUSH2 0x53B SWAP1 PUSH2 0x1319 JUMP JUMPDEST PUSH1 0x40 MLOAD DUP1 SWAP2 SUB SWAP1 REVERT JUMPDEST PUSH1 0x1 PUSH1 0x3 PUSH0 DUP4 DUP2 MSTORE PUSH1 0x20 ADD SWAP1 DUP2 MSTORE PUSH1 0x20 ADD PUSH0 KECCAK256 PUSH0 PUSH2 0x100 EXP DUP2 SLOAD DUP2 PUSH1 0xFF MUL NOT AND SWAP1 DUP4 ISZERO ISZERO MUL OR SWAP1 SSTORE POP DUP1 PUSH32 0x638AEF8ADEF10DDE4A6D3A8B25D13DE8672DFD9CE5A47C8B67DC3D48569D3647 PUSH1 0x40 MLOAD PUSH1 0x40 MLOAD DUP1 SWAP2 SUB SWAP1 LOG2 POP JUMP JUMPDEST PUSH1 0x1 PUSH1 0x20 MSTORE DUP1 PUSH0 MSTORE PUSH1 0x40 PUSH0 KECCAK256 PUSH0 SWAP2 POP SWAP1 POP DUP1 PUSH0 ADD DUP1 SLOAD PUSH2 0x5BC SWAP1 PUSH2 0x1211 JUMP JUMPDEST DUP1 PUSH1 0x1F ADD PUSH1 0x20 DUP1 SWAP2 DIV MUL PUSH1 0x20 ADD PUSH1 0x40 MLOAD SWAP1 DUP2 ADD PUSH1 0x40 MSTORE DUP1 SWAP3 SWAP2 SWAP1 DUP2 DUP2 MSTORE PUSH1 0x20 ADD DUP3 DUP1 SLOAD PUSH2 0x5E8 SWAP1 PUSH2 0x1211 JUMP JUMPDEST DUP1 ISZERO PUSH2 0x633 JUMPI DUP1 PUSH1 0x1F LT PUSH2 0x60A JUMPI PUSH2 0x100 DUP1 DUP4 SLOAD DIV MUL DUP4 MSTORE SWAP2 PUSH1 0x20 ADD SWAP2 PUSH2 0x633 JUMP JUMPDEST DUP3 ADD SWAP2 SWAP1 PUSH0 MSTORE PUSH1 0x20 PUSH0 KECCAK256 SWAP1 JUMPDEST DUP2 SLOAD DUP2 MSTORE SWAP1 PUSH1 0x1 ADD SWAP1 PUSH1 0x20 ADD DUP1 DUP4 GT PUSH2 0x616 JUMPI DUP3 SWAP1 SUB PUSH1 0x1F AND DUP3 ADD SWAP2 JUMPDEST POP POP POP POP POP SWAP1 DUP1 PUSH1 0x1 ADD DUP1 SLOAD PUSH2 0x648 SWAP1 PUSH2 0x1211 JUMP JUMPDEST DUP1 PUSH1 0x1F ADD PUSH1 0x20 DUP1 SWAP2 DIV MUL PUSH1 0x20 ADD PUSH1 0x40 MLOAD SWAP1 DUP2 ADD PUSH1 0x40 MSTORE DUP1 SWAP3 SWAP2 SWAP1 DUP2 DUP2 MSTORE PUSH1 0x20 ADD DUP3 DUP1 SLOAD PUSH2 0x674 SWAP1 PUSH2 0x1211 JUMP JUMPDEST DUP1 ISZERO PUSH2 0x6BF JUMPI DUP1 PUSH1 0x1F LT PUSH2 0x696 JUMPI PUSH2 0x100 DUP1 DUP4 SLOAD DIV MUL DUP4 MSTORE SWAP2 PUSH1 0x20 ADD SWAP2 PUSH2 0x6BF JUMP JUMPDEST DUP3 ADD SWAP2 SWAP1 PUSH0 MSTORE PUSH1 0x20 PUSH0 KECCAK256 SWAP1 JUMPDEST DUP2 SLOAD DUP2 MSTORE SWAP1 PUSH1 0x1 ADD SWAP1 PUSH1 0x20 ADD DUP1 DUP4 GT PUSH2 0x6A2 JUMPI DUP3 SWAP1 SUB PUSH1 0x1F AND DUP3 ADD SWAP2 JUMPDEST POP POP POP POP POP SWAP1 DUP1 PUSH1 0x2 ADD SLOAD SWAP1 DUP1 PUSH1 0x3 ADD SLOAD SWAP1 DUP1 PUSH1 0x4 ADD PUSH0 SWAP1 SLOAD SWAP1 PUSH2 0x100 EXP SWAP1 DIV PUSH1 0xFF AND SWAP1 POP DUP6 JUMP JUMPDEST PUSH0 PUSH1 0x3 PUSH0 DUP4 DUP2 MSTORE PUSH1 0x20 ADD SWAP1 DUP2 MSTORE PUSH1 0x20 ADD PUSH0 KECCAK256 PUSH0 SWAP1 SLOAD SWAP1 PUSH2 0x100 EXP SWAP1 DIV PUSH1 0xFF AND SWAP1 POP SWAP2 SWAP1 POP JUMP JUMPDEST PUSH0 DUP1 SLOAD SWAP1 PUSH2 0x100 EXP SWAP1 DIV PUSH20 0xFFFFFFFFFFFFFFFFFFFFFFFFFFFFFFFFFFFFFFFF AND DUP2 JUMP JUMPDEST PUSH0 DUP1 SLOAD SWAP1 PUSH2 0x100 EXP SWAP1 DIV PUSH20 0xFFFFFFFFFFFFFFFFFFFFFFFFFFFFFFFFFFFFFFFF AND PUSH20 0xFFFFFFFFFFFFFFFFFFFFFFFFFFFFFFFFFFFFFFFF AND CALLER PUSH20 0xFFFFFFFFFFFFFFFFFFFFFFFFFFFFFFFFFFFFFFFF AND EQ PUSH2 0x7BD JUMPI PUSH1 0x40 MLOAD PUSH32 0x8C379A000000000000000000000000000000000000000000000000000000000 DUP2 MSTORE PUSH1 0x4 ADD PUSH2 0x7B4 SWAP1 PUSH2 0x12B1 JUMP JUMPDEST PUSH1 0x40 MLOAD DUP1 SWAP2 SUB SWAP1 REVERT JUMPDEST PUSH0 PUSH1 0x1 PUSH0 DUP4 DUP2 MSTORE PUSH1 0x20 ADD SWAP1 DUP2 MSTORE PUSH1 0x20 ADD PUSH0 KECCAK256 PUSH1 0x2 ADD SLOAD SUB PUSH2 0x813 JUMPI PUSH1 0x40 MLOAD PUSH32 0x8C379A000000000000000000000000000000000000000000000000000000000 DUP2 MSTORE PUSH1 0x4 ADD PUSH2 0x80A SWAP1 PUSH2 0x1319 JUMP JUMPDEST PUSH1 0x40 MLOAD DUP1 SWAP2 SUB SWAP1 REVERT JUMPDEST PUSH1 0x1 PUSH0 DUP3 DUP2 MSTORE PUSH1 0x20 ADD SWAP1 DUP2 MSTORE PUSH1 0x20 ADD PUSH0 KECCAK256 PUSH0 DUP1 DUP3 ADD PUSH0 PUSH2 0x833 SWAP2 SWAP1 PUSH2 0xD70 JUMP JUMPDEST PUSH1 0x1 DUP3 ADD PUSH0 PUSH2 0x842 SWAP2 SWAP1 PUSH2 0xD70 JUMP JUMPDEST PUSH1 0x2 DUP3 ADD PUSH0 SWAP1 SSTORE PUSH1 0x3 DUP3 ADD PUSH0 SWAP1 SSTORE PUSH1 0x4 DUP3 ADD PUSH0 PUSH2 0x100 EXP DUP2 SLOAD SWAP1 PUSH1 0xFF MUL NOT AND SWAP1 SSTORE POP POP PUSH0 JUMPDEST PUSH1 0x2 DUP1 SLOAD SWAP1 POP DUP2 LT ISZERO PUSH2 0x91C JUMPI DUP2 PUSH1 0x2 DUP3 DUP2 SLOAD DUP2 LT PUSH2 0x889 JUMPI PUSH2 0x888 PUSH2 0x1337 JUMP JUMPDEST JUMPDEST SWAP1 PUSH0 MSTORE PUSH1 0x20 PUSH0 KECCAK256 ADD SLOAD SUB PUSH2 0x90F JUMPI PUSH1 0x2 PUSH1 0x1 PUSH1 0x2 DUP1 SLOAD SWAP1 POP PUSH2 0x8AB SWAP2 SWAP1 PUSH2 0x1391 JUMP JUMPDEST DUP2 SLOAD DUP2 LT PUSH2 0x8BC JUMPI PUSH2 0x8BB PUSH2 0x1337 JUMP JUMPDEST JUMPDEST SWAP1 PUSH0 MSTORE PUSH1 0x20 PUSH0 KECCAK256 ADD SLOAD PUSH1 0x2 DUP3 DUP2 SLOAD DUP2 LT PUSH2 0x8D9 JUMPI PUSH2 0x8D8 PUSH2 0x1337 JUMP JUMPDEST JUMPDEST SWAP1 PUSH0 MSTORE PUSH1 0x20 PUSH0 KECCAK256 ADD DUP2 SWAP1 SSTORE POP PUSH1 0x2 DUP1 SLOAD DUP1 PUSH2 0x8F7 JUMPI PUSH2 0x8F6 PUSH2 0x13C4 JUMP JUMPDEST JUMPDEST PUSH1 0x1 SWAP1 SUB DUP2 DUP2 SWAP1 PUSH0 MSTORE PUSH1 0x20 PUSH0 KECCAK256 ADD PUSH0 SWAP1 SSTORE SWAP1 SSTORE PUSH2 0x91C JUMP JUMPDEST DUP1 DUP1 PUSH1 0x1 ADD SWAP2 POP POP PUSH2 0x867 JUMP JUMPDEST POP PUSH1 0x3 PUSH0 DUP3 DUP2 MSTORE PUSH1 0x20 ADD SWAP1 DUP2 MSTORE PUSH1 0x20 ADD PUSH0 KECCAK256 PUSH0 SWAP1 SLOAD SWAP1 PUSH2 0x100 EXP SWAP1 DIV PUSH1 0xFF AND ISZERO PUSH2 0x961 JUMPI PUSH1 0x3 PUSH0 DUP3 DUP2 MSTORE PUSH1 0x20 ADD SWAP1 DUP2 MSTORE PUSH1 0x20 ADD PUSH0 KECCAK256 PUSH0 PUSH2 0x100 EXP DUP2 SLOAD SWAP1 PUSH1 0xFF MUL NOT AND SWAP1 SSTORE JUMPDEST DUP1 PUSH32 0x3C5CE13264433BCF97E5D53C97AF4FC33800E8C9DD927F965B116D0018D7CDDF PUSH1 0x40 MLOAD PUSH1 0x40 MLOAD DUP1 SWAP2 SUB SWAP1 LOG2 POP JUMP JUMPDEST PUSH0 PUSH1 0x1 PUSH0 DUP6 DUP2 MSTORE PUSH1 0x20 ADD SWAP1 DUP2 MSTORE PUSH1 0x20 ADD PUSH0 KECCAK256 SWAP1 POP DUP1 PUSH1 0x4 ADD PUSH0 SWAP1 SLOAD SWAP1 PUSH2 0x100 EXP SWAP1 DIV PUSH1 0xFF AND PUSH2 0x9F5 JUMPI PUSH1 0x40 MLOAD PUSH32 0x8C379A000000000000000000000000000000000000000000000000000000000 DUP2 MSTORE PUSH1 0x4 ADD PUSH2 0x9EC SWAP1 PUSH2 0x143B JUMP JUMPDEST PUSH1 0x40 MLOAD DUP1 SWAP2 SUB SWAP1 REVERT JUMPDEST DUP3 DUP2 PUSH1 0x3 ADD SLOAD LT ISZERO PUSH2 0xA3C JUMPI PUSH1 0x40 MLOAD PUSH32 0x8C379A000000000000000000000000000000000000000000000000000000000 DUP2 MSTORE PUSH1 0x4 ADD PUSH2 0xA33 SWAP1 PUSH2 0x14A3 JUMP JUMPDEST PUSH1 0x40 MLOAD DUP1 SWAP2 SUB SWAP1 REVERT JUMPDEST DUP3 DUP2 PUSH1 0x2 ADD SLOAD PUSH2 0xA4C SWAP2 SWAP1 PUSH2 0x14C1 JUMP JUMPDEST DUP3 EQ PUSH2 0xA8D JUMPI PUSH1 0x40 MLOAD PUSH32 0x8C379A000000000000000000000000000000000000000000000000000000000 DUP2 MSTORE PUSH1 0x4 ADD PUSH2 0xA84 SWAP1 PUSH2 0x154C JUMP JUMPDEST PUSH1 0x40 MLOAD DUP1 SWAP2 SUB SWAP1 REVERT JUMPDEST DUP3 DUP2 PUSH1 0x3 ADD PUSH0 DUP3 DUP3 SLOAD PUSH2 0xAA0 SWAP2 SWAP1 PUSH2 0x1391 JUMP JUMPDEST SWAP3 POP POP DUP2 SWAP1 SSTORE POP PUSH0 DUP2 PUSH1 0x3 ADD SLOAD SUB PUSH2 0xACE JUMPI PUSH0 DUP2 PUSH1 0x4 ADD PUSH0 PUSH2 0x100 EXP DUP2 SLOAD DUP2 PUSH1 0xFF MUL NOT AND SWAP1 DUP4 ISZERO ISZERO MUL OR SWAP1 SSTORE POP JUMPDEST PUSH0 DUP1 SLOAD SWAP1 PUSH2 0x100 EXP SWAP1 DIV PUSH20 0xFFFFFFFFFFFFFFFFFFFFFFFFFFFFFFFFFFFFFFFF AND PUSH20 0xFFFFFFFFFFFFFFFFFFFFFFFFFFFFFFFFFFFFFFFF AND PUSH2 0x8FC CALLVALUE SWAP1 DUP2 ISZERO MUL SWAP1 PUSH1 0x40 MLOAD PUSH0 PUSH1 0x40 MLOAD DUP1 DUP4 SUB DUP2 DUP6 DUP9 DUP9 CALL SWAP4 POP POP POP POP ISZERO DUP1 ISZERO PUSH2 0xB30 JUMPI RETURNDATASIZE PUSH0 DUP1 RETURNDATACOPY RETURNDATASIZE PUSH0 REVERT JUMPDEST POP CALLER PUSH20 0xFFFFFFFFFFFFFFFFFFFFFFFFFFFFFFFFFFFFFFFF AND DUP5 PUSH32 0x439C08B00222293C6073F3EE383214541A4A21ACA7DBB0A45963F86FA8E589F7 DUP6 PUSH1 0x40 MLOAD PUSH2 0xB78 SWAP2 SWAP1 PUSH2 0xE79 JUMP JUMPDEST PUSH1 0x40 MLOAD DUP1 SWAP2 SUB SWAP1 LOG3 POP POP POP POP JUMP JUMPDEST PUSH0 DUP1 SLOAD SWAP1 PUSH2 0x100 EXP SWAP1 DIV PUSH20 0xFFFFFFFFFFFFFFFFFFFFFFFFFFFFFFFFFFFFFFFF AND PUSH20 0xFFFFFFFFFFFFFFFFFFFFFFFFFFFFFFFFFFFFFFFF AND CALLER PUSH20 0xFFFFFFFFFFFFFFFFFFFFFFFFFFFFFFFFFFFFFFFF AND EQ PUSH2 0xC13 JUMPI PUSH1 0x40 MLOAD PUSH32 0x8C379A000000000000000000000000000000000000000000000000000000000 DUP2 MSTORE PUSH1 0x4 ADD PUSH2 0xC0A SWAP1 PUSH2 0x12B1 JUMP JUMPDEST PUSH1 0x40 MLOAD DUP1 SWAP2 SUB SWAP1 REVERT JUMPDEST PUSH0 PUSH1 0x1 PUSH0 DUP8 DUP2 MSTORE PUSH1 0x20 ADD SWAP1 DUP2 MSTORE PUSH1 0x20 ADD PUSH0 KECCAK256 PUSH1 0x2 ADD SLOAD EQ PUSH2 0xC69 JUMPI PUSH1 0x40 MLOAD PUSH32 0x8C379A000000000000000000000000000000000000000000000000000000000 DUP2 MSTORE PUSH1 0x4 ADD PUSH2 0xC60 SWAP1 PUSH2 0x15DA JUMP JUMPDEST PUSH1 0x40 MLOAD DUP1 SWAP2 SUB SWAP1 REVERT JUMPDEST PUSH1 0x40 MLOAD DUP1 PUSH1 0xA0 ADD PUSH1 0x40 MSTORE DUP1 DUP6 DUP2 MSTORE PUSH1 0x20 ADD DUP5 DUP2 MSTORE PUSH1 0x20 ADD DUP4 DUP2 MSTORE PUSH1 0x20 ADD DUP3 DUP2 MSTORE PUSH1 0x20 ADD PUSH0 DUP4 GT ISZERO ISZERO DUP2 MSTORE POP PUSH1 0x1 PUSH0 DUP8 DUP2 MSTORE PUSH1 0x20 ADD SWAP1 DUP2 MSTORE PUSH1 0x20 ADD PUSH0 KECCAK256 PUSH0 DUP3 ADD MLOAD DUP2 PUSH0 ADD SWAP1 DUP2 PUSH2 0xCB8 SWAP2 SWAP1 PUSH2 0x1795 JUMP JUMPDEST POP PUSH1 0x20 DUP3 ADD MLOAD DUP2 PUSH1 0x1 ADD SWAP1 DUP2 PUSH2 0xCCE SWAP2 SWAP1 PUSH2 0x1795 JUMP JUMPDEST POP PUSH1 0x40 DUP3 ADD MLOAD DUP2 PUSH1 0x2 ADD SSTORE PUSH1 0x60 DUP3 ADD MLOAD DUP2 PUSH1 0x3 ADD SSTORE PUSH1 0x80 DUP3 ADD MLOAD DUP2 PUSH1 0x4 ADD PUSH0 PUSH2 0x100 EXP DUP2 SLOAD DUP2 PUSH1 0xFF MUL NOT AND SWAP1 DUP4 ISZERO ISZERO MUL OR SWAP1 SSTORE POP SWAP1 POP POP PUSH1 0x2 DUP6 SWAP1 DUP1 PUSH1 0x1 DUP2 SLOAD ADD DUP1 DUP3 SSTORE DUP1 SWAP2 POP POP PUSH1 0x1 SWAP1 SUB SWAP1 PUSH0 MSTORE PUSH1 0x20 PUSH0 KECCAK256 ADD PUSH0 SWAP1 SWAP2 SWAP1 SWAP2 SWAP1 SWAP2 POP SSTORE DUP5 PUSH32 0x722C04650224F771C04EC5712C74689980B3DDB4EAA233CD8F9C72D7DA7FBE29 DUP6 DUP6 DUP6 DUP6 PUSH1 0x40 MLOAD PUSH2 0xD61 SWAP5 SWAP4 SWAP3 SWAP2 SWAP1 PUSH2 0x1864 JUMP JUMPDEST PUSH1 0x40 MLOAD DUP1 SWAP2 SUB SWAP1 LOG2 POP POP POP POP POP JUMP JUMPDEST POP DUP1 SLOAD PUSH2 0xD7C SWAP1 PUSH2 0x1211 JUMP JUMPDEST PUSH0 DUP3 SSTORE DUP1 PUSH1 0x1F LT PUSH2 0xD8D JUMPI POP PUSH2 0xDAA JUMP JUMPDEST PUSH1 0x1F ADD PUSH1 0x20 SWAP1 DIV SWAP1 PUSH0 MSTORE PUSH1 0x20 PUSH0 KECCAK256 SWAP1 DUP2 ADD SWAP1 PUSH2 0xDA9 SWAP2 SWAP1 PUSH2 0xDAD JUMP JUMPDEST JUMPDEST POP JUMP JUMPDEST JUMPDEST DUP1 DUP3 GT ISZERO PUSH2 0xDC4 JUMPI PUSH0 DUP2 PUSH0 SWAP1 SSTORE POP PUSH1 0x1 ADD PUSH2 0xDAE JUMP JUMPDEST POP SWAP1 JUMP JUMPDEST PUSH0 PUSH1 0x40 MLOAD SWAP1 POP SWAP1 JUMP JUMPDEST PUSH0 DUP1 REVERT JUMPDEST PUSH0 DUP1 REVERT JUMPDEST PUSH0 DUP2 SWAP1 POP SWAP2 SWAP1 POP JUMP JUMPDEST PUSH2 0xDEB DUP2 PUSH2 0xDD9 JUMP JUMPDEST DUP2 EQ PUSH2 0xDF5 JUMPI PUSH0 DUP1 REVERT JUMPDEST POP JUMP JUMPDEST PUSH0 DUP2 CALLDATALOAD SWAP1 POP PUSH2 0xE06 DUP2 PUSH2 0xDE2 JUMP JUMPDEST SWAP3 SWAP2 POP POP JUMP JUMPDEST PUSH0 PUSH1 0x20 DUP3 DUP5 SUB SLT ISZERO PUSH2 0xE21 JUMPI PUSH2 0xE20 PUSH2 0xDD1 JUMP JUMPDEST JUMPDEST PUSH0 PUSH2 0xE2E DUP5 DUP3 DUP6 ADD PUSH2 0xDF8 JUMP JUMPDEST SWAP2 POP POP SWAP3 SWAP2 POP POP JUMP JUMPDEST PUSH0 DUP2 ISZERO ISZERO SWAP1 POP SWAP2 SWAP1 POP JUMP JUMPDEST PUSH2 0xE4B DUP2 PUSH2 0xE37 JUMP JUMPDEST DUP3 MSTORE POP POP JUMP JUMPDEST PUSH0 PUSH1 0x20 DUP3 ADD SWAP1 POP PUSH2 0xE64 PUSH0 DUP4 ADD DUP5 PUSH2 0xE42 JUMP JUMPDEST SWAP3 SWAP2 POP POP JUMP JUMPDEST PUSH2 0xE73 DUP2 PUSH2 0xDD9 JUMP JUMPDEST DUP3 MSTORE POP POP JUMP JUMPDEST PUSH0 PUSH1 0x20 DUP3 ADD SWAP1 POP PUSH2 0xE8C PUSH0 DUP4 ADD DUP5 PUSH2 0xE6A JUMP JUMPDEST SWAP3 SWAP2 POP POP JUMP JUMPDEST PUSH0 DUP2 MLOAD SWAP1 POP SWAP2 SWAP1 POP JUMP JUMPDEST PUSH0 DUP3 DUP3 MSTORE PUSH1 0x20 DUP3 ADD SWAP1 POP SWAP3 SWAP2 POP POP JUMP JUMPDEST DUP3 DUP2 DUP4 MCOPY PUSH0 DUP4 DUP4 ADD MSTORE POP POP POP JUMP JUMPDEST PUSH0 PUSH1 0x1F NOT PUSH1 0x1F DUP4 ADD AND SWAP1 POP SWAP2 SWAP1 POP JUMP JUMPDEST PUSH0 PUSH2 0xED4 DUP3 PUSH2 0xE92 JUMP JUMPDEST PUSH2 0xEDE DUP2 DUP6 PUSH2 0xE9C JUMP JUMPDEST SWAP4 POP PUSH2 0xEEE DUP2 DUP6 PUSH1 0x20 DUP7 ADD PUSH2 0xEAC JUMP JUMPDEST PUSH2 0xEF7 DUP2 PUSH2 0xEBA JUMP JUMPDEST DUP5 ADD SWAP2 POP POP SWAP3 SWAP2 POP POP JUMP JUMPDEST PUSH0 PUSH1 0xA0 DUP3 ADD SWAP1 POP DUP2 DUP2 SUB PUSH0 DUP4 ADD MSTORE PUSH2 0xF1A DUP2 DUP9 PUSH2 0xECA JUMP JUMPDEST SWAP1 POP DUP2 DUP2 SUB PUSH1 0x20 DUP4 ADD MSTORE PUSH2 0xF2E DUP2 DUP8 PUSH2 0xECA JUMP JUMPDEST SWAP1 POP PUSH2 0xF3D PUSH1 0x40 DUP4 ADD DUP7 PUSH2 0xE6A JUMP JUMPDEST PUSH2 0xF4A PUSH1 0x60 DUP4 ADD DUP6 PUSH2 0xE6A JUMP JUMPDEST PUSH2 0xF57 PUSH1 0x80 DUP4 ADD DUP5 PUSH2 0xE42 JUMP JUMPDEST SWAP7 SWAP6 POP POP POP POP POP POP JUMP JUMPDEST PUSH0 PUSH20 0xFFFFFFFFFFFFFFFFFFFFFFFFFFFFFFFFFFFFFFFF DUP3 AND SWAP1 POP SWAP2 SWAP1 POP JUMP JUMPDEST PUSH0 PUSH2 0xF8A DUP3 PUSH2 0xF61 JUMP JUMPDEST SWAP1 POP SWAP2 SWAP1 POP JUMP JUMPDEST PUSH2 0xF9A DUP2 PUSH2 0xF80 JUMP JUMPDEST DUP3 MSTORE POP POP JUMP JUMPDEST PUSH0 PUSH1 0x20 DUP3 ADD SWAP1 POP PUSH2 0xFB3 PUSH0 DUP4 ADD DUP5 PUSH2 0xF91 JUMP JUMPDEST SWAP3 SWAP2 POP POP JUMP JUMPDEST PUSH0 DUP1 PUSH0 PUSH1 0x60 DUP5 DUP7 SUB SLT ISZERO PUSH2 0xFD0 JUMPI PUSH2 0xFCF PUSH2 0xDD1 JUMP JUMPDEST JUMPDEST PUSH0 PUSH2 0xFDD DUP7 DUP3 DUP8 ADD PUSH2 0xDF8 JUMP JUMPDEST SWAP4 POP POP PUSH1 0x20 PUSH2 0xFEE DUP7 DUP3 DUP8 ADD PUSH2 0xDF8 JUMP JUMPDEST SWAP3 POP POP PUSH1 0x40 PUSH2 0xFFF DUP7 DUP3 DUP8 ADD PUSH2 0xDF8 JUMP JUMPDEST SWAP2 POP POP SWAP3 POP SWAP3 POP SWAP3 JUMP JUMPDEST PUSH0 DUP1 REVERT JUMPDEST PUSH0 DUP1 REVERT JUMPDEST PUSH32 0x4E487B7100000000000000000000000000000000000000000000000000000000 PUSH0 MSTORE PUSH1 0x41 PUSH1 0x4 MSTORE PUSH1 0x24 PUSH0 REVERT JUMPDEST PUSH2 0x1047 DUP3 PUSH2 0xEBA JUMP JUMPDEST DUP2 ADD DUP2 DUP2 LT PUSH8 0xFFFFFFFFFFFFFFFF DUP3 GT OR ISZERO PUSH2 0x1066 JUMPI PUSH2 0x1065 PUSH2 0x1011 JUMP JUMPDEST JUMPDEST DUP1 PUSH1 0x40 MSTORE POP POP POP JUMP JUMPDEST PUSH0 PUSH2 0x1078 PUSH2 0xDC8 JUMP JUMPDEST SWAP1 POP PUSH2 0x1084 DUP3 DUP3 PUSH2 0x103E JUMP JUMPDEST SWAP2 SWAP1 POP JUMP JUMPDEST PUSH0 PUSH8 0xFFFFFFFFFFFFFFFF DUP3 GT ISZERO PUSH2 0x10A3 JUMPI PUSH2 0x10A2 PUSH2 0x1011 JUMP JUMPDEST JUMPDEST PUSH2 0x10AC DUP3 PUSH2 0xEBA JUMP JUMPDEST SWAP1 POP PUSH1 0x20 DUP2 ADD SWAP1 POP SWAP2 SWAP1 POP JUMP JUMPDEST DUP3 DUP2 DUP4 CALLDATACOPY PUSH0 DUP4 DUP4 ADD MSTORE POP POP POP JUMP JUMPDEST PUSH0 PUSH2 0x10D9 PUSH2 0x10D4 DUP5 PUSH2 0x1089 JUMP JUMPDEST PUSH2 0x106F JUMP JUMPDEST SWAP1 POP DUP3 DUP2 MSTORE PUSH1 0x20 DUP2 ADD DUP5 DUP5 DUP5 ADD GT ISZERO PUSH2 0x10F5 JUMPI PUSH2 0x10F4 PUSH2 0x100D JUMP JUMPDEST JUMPDEST PUSH2 0x1100 DUP5 DUP3 DUP6 PUSH2 0x10B9 JUMP JUMPDEST POP SWAP4 SWAP3 POP POP POP JUMP JUMPDEST PUSH0 DUP3 PUSH1 0x1F DUP4 ADD SLT PUSH2 0x111C JUMPI PUSH2 0x111B PUSH2 0x1009 JUMP JUMPDEST JUMPDEST DUP2 CALLDATALOAD PUSH2 0x112C DUP5 DUP3 PUSH1 0x20 DUP7 ADD PUSH2 0x10C7 JUMP JUMPDEST SWAP2 POP POP SWAP3 SWAP2 POP POP JUMP JUMPDEST PUSH0 DUP1 PUSH0 DUP1 PUSH0 PUSH1 0xA0 DUP7 DUP9 SUB SLT ISZERO PUSH2 0x114E JUMPI PUSH2 0x114D PUSH2 0xDD1 JUMP JUMPDEST JUMPDEST PUSH0 PUSH2 0x115B DUP9 DUP3 DUP10 ADD PUSH2 0xDF8 JUMP JUMPDEST SWAP6 POP POP PUSH1 0x20 DUP7 ADD CALLDATALOAD PUSH8 0xFFFFFFFFFFFFFFFF DUP2 GT ISZERO PUSH2 0x117C JUMPI PUSH2 0x117B PUSH2 0xDD5 JUMP JUMPDEST JUMPDEST PUSH2 0x1188 DUP9 DUP3 DUP10 ADD PUSH2 0x1108 JUMP JUMPDEST SWAP5 POP POP PUSH1 0x40 DUP7 ADD CALLDATALOAD PUSH8 0xFFFFFFFFFFFFFFFF DUP2 GT ISZERO PUSH2 0x11A9 JUMPI PUSH2 0x11A8 PUSH2 0xDD5 JUMP JUMPDEST JUMPDEST PUSH2 0x11B5 DUP9 DUP3 DUP10 ADD PUSH2 0x1108 JUMP JUMPDEST SWAP4 POP POP PUSH1 0x60 PUSH2 0x11C6 DUP9 DUP3 DUP10 ADD PUSH2 0xDF8 JUMP JUMPDEST SWAP3 POP POP PUSH1 0x80 PUSH2 0x11D7 DUP9 DUP3 DUP10 ADD PUSH2 0xDF8 JUMP JUMPDEST SWAP2 POP POP SWAP3 SWAP6 POP SWAP3 SWAP6 SWAP1 SWAP4 POP JUMP JUMPDEST PUSH32 0x4E487B7100000000000000000000000000000000000000000000000000000000 PUSH0 MSTORE PUSH1 0x22 PUSH1 0x4 MSTORE PUSH1 0x24 PUSH0 REVERT JUMPDEST PUSH0 PUSH1 0x2 DUP3 DIV SWAP1 POP PUSH1 0x1 DUP3 AND DUP1 PUSH2 0x1228 JUMPI PUSH1 0x7F DUP3 AND SWAP2 POP JUMPDEST PUSH1 0x20 DUP3 LT DUP2 SUB PUSH2 0x123B JUMPI PUSH2 0x123A PUSH2 0x11E4 JUMP JUMPDEST JUMPDEST POP SWAP2 SWAP1 POP JUMP JUMPDEST PUSH32 0x4F6E6C7920746865206F776E65722063616E20706572666F726D207468697320 PUSH0 DUP3 ADD MSTORE PUSH32 0x616374696F6E2E00000000000000000000000000000000000000000000000000 PUSH1 0x20 DUP3 ADD MSTORE POP JUMP JUMPDEST PUSH0 PUSH2 0x129B PUSH1 0x27 DUP4 PUSH2 0xE9C JUMP JUMPDEST SWAP2 POP PUSH2 0x12A6 DUP3 PUSH2 0x1241 JUMP JUMPDEST PUSH1 0x40 DUP3 ADD SWAP1 POP SWAP2 SWAP1 POP JUMP JUMPDEST PUSH0 PUSH1 0x20 DUP3 ADD SWAP1 POP DUP2 DUP2 SUB PUSH0 DUP4 ADD MSTORE PUSH2 0x12C8 DUP2 PUSH2 0x128F JUMP JUMPDEST SWAP1 POP SWAP2 SWAP1 POP JUMP JUMPDEST PUSH32 0x426F6F6B20646F6573206E6F7420657869737400000000000000000000000000 PUSH0 DUP3 ADD MSTORE POP JUMP JUMPDEST PUSH0 PUSH2 0x1303 PUSH1 0x13 DUP4 PUSH2 0xE9C JUMP JUMPDEST SWAP2 POP PUSH2 0x130E DUP3 PUSH2 0x12CF JUMP JUMPDEST PUSH1 0x20 DUP3 ADD SWAP1 POP SWAP2 SWAP1 POP JUMP JUMPDEST PUSH0 PUSH1 0x20 DUP3 ADD SWAP1 POP DUP2 DUP2 SUB PUSH0 DUP4 ADD MSTORE PUSH2 0x1330 DUP2 PUSH2 0x12F7 JUMP JUMPDEST SWAP1 POP SWAP2 SWAP1 POP JUMP JUMPDEST PUSH32 0x4E487B7100000000000000000000000000000000000000000000000000000000 PUSH0 MSTORE PUSH1 0x32 PUSH1 0x4 MSTORE PUSH1 0x24 PUSH0 REVERT JUMPDEST PUSH32 0x4E487B7100000000000000000000000000000000000000000000000000000000 PUSH0 MSTORE PUSH1 0x11 PUSH1 0x4 MSTORE PUSH1 0x24 PUSH0 REVERT JUMPDEST PUSH0 PUSH2 0x139B DUP3 PUSH2 0xDD9 JUMP JUMPDEST SWAP2 POP PUSH2 0x13A6 DUP4 PUSH2 0xDD9 JUMP JUMPDEST SWAP3 POP DUP3 DUP3 SUB SWAP1 POP DUP2 DUP2 GT ISZERO PUSH2 0x13BE JUMPI PUSH2 0x13BD PUSH2 0x1364 JUMP JUMPDEST JUMPDEST SWAP3 SWAP2 POP POP JUMP JUMPDEST PUSH32 0x4E487B7100000000000000000000000000000000000000000000000000000000 PUSH0 MSTORE PUSH1 0x31 PUSH1 0x4 MSTORE PUSH1 0x24 PUSH0 REVERT JUMPDEST PUSH32 0x5468697320626F6F6B206973206E6F7420617661696C61626C652E0000000000 PUSH0 DUP3 ADD MSTORE POP JUMP JUMPDEST PUSH0 PUSH2 0x1425 PUSH1 0x1B DUP4 PUSH2 0xE9C JUMP JUMPDEST SWAP2 POP PUSH2 0x1430 DUP3 PUSH2 0x13F1 JUMP JUMPDEST PUSH1 0x20 DUP3 ADD SWAP1 POP SWAP2 SWAP1 POP JUMP JUMPDEST PUSH0 PUSH1 0x20 DUP3 ADD SWAP1 POP DUP2 DUP2 SUB PUSH0 DUP4 ADD MSTORE PUSH2 0x1452 DUP2 PUSH2 0x1419 JUMP JUMPDEST SWAP1 POP SWAP2 SWAP1 POP JUMP JUMPDEST PUSH32 0x4E6F7420656E6F7567682073746F636B20617661696C61626C652E0000000000 PUSH0 DUP3 ADD MSTORE POP JUMP JUMPDEST PUSH0 PUSH2 0x148D PUSH1 0x1B DUP4 PUSH2 0xE9C JUMP JUMPDEST SWAP2 POP PUSH2 0x1498 DUP3 PUSH2 0x1459 JUMP JUMPDEST PUSH1 0x20 DUP3 ADD SWAP1 POP SWAP2 SWAP1 POP JUMP JUMPDEST PUSH0 PUSH1 0x20 DUP3 ADD SWAP1 POP DUP2 DUP2 SUB PUSH0 DUP4 ADD MSTORE PUSH2 0x14BA DUP2 PUSH2 0x1481 JUMP JUMPDEST SWAP1 POP SWAP2 SWAP1 POP JUMP JUMPDEST PUSH0 PUSH2 0x14CB DUP3 PUSH2 0xDD9 JUMP JUMPDEST SWAP2 POP PUSH2 0x14D6 DUP4 PUSH2 0xDD9 JUMP JUMPDEST SWAP3 POP DUP3 DUP3 MUL PUSH2 0x14E4 DUP2 PUSH2 0xDD9 JUMP JUMPDEST SWAP2 POP DUP3 DUP3 DIV DUP5 EQ DUP4 ISZERO OR PUSH2 0x14FB JUMPI PUSH2 0x14FA PUSH2 0x1364 JUMP JUMPDEST JUMPDEST POP SWAP3 SWAP2 POP POP JUMP JUMPDEST PUSH32 0x496E636F7272656374207061796D656E7420616D6F756E742E00000000000000 PUSH0 DUP3 ADD MSTORE POP JUMP JUMPDEST PUSH0 PUSH2 0x1536 PUSH1 0x19 DUP4 PUSH2 0xE9C JUMP JUMPDEST SWAP2 POP PUSH2 0x1541 DUP3 PUSH2 0x1502 JUMP JUMPDEST PUSH1 0x20 DUP3 ADD SWAP1 POP SWAP2 SWAP1 POP JUMP JUMPDEST PUSH0 PUSH1 0x20 DUP3 ADD SWAP1 POP DUP2 DUP2 SUB PUSH0 DUP4 ADD MSTORE PUSH2 0x1563 DUP2 PUSH2 0x152A JUMP JUMPDEST SWAP1 POP SWAP2 SWAP1 POP JUMP JUMPDEST PUSH32 0x426F6F6B20616C72656164792065786973747320776974682074686973204944 PUSH0 DUP3 ADD MSTORE PUSH32 0x2E00000000000000000000000000000000000000000000000000000000000000 PUSH1 0x20 DUP3 ADD MSTORE POP JUMP JUMPDEST PUSH0 PUSH2 0x15C4 PUSH1 0x21 DUP4 PUSH2 0xE9C JUMP JUMPDEST SWAP2 POP PUSH2 0x15CF DUP3 PUSH2 0x156A JUMP JUMPDEST PUSH1 0x40 DUP3 ADD SWAP1 POP SWAP2 SWAP1 POP JUMP JUMPDEST PUSH0 PUSH1 0x20 DUP3 ADD SWAP1 POP DUP2 DUP2 SUB PUSH0 DUP4 ADD MSTORE PUSH2 0x15F1 DUP2 PUSH2 0x15B8 JUMP JUMPDEST SWAP1 POP SWAP2 SWAP1 POP JUMP JUMPDEST PUSH0 DUP2 SWAP1 POP DUP2 PUSH0 MSTORE PUSH1 0x20 PUSH0 KECCAK256 SWAP1 POP SWAP2 SWAP1 POP JUMP JUMPDEST PUSH0 PUSH1 0x20 PUSH1 0x1F DUP4 ADD DIV SWAP1 POP SWAP2 SWAP1 POP JUMP JUMPDEST PUSH0 DUP3 DUP3 SHL SWAP1 POP SWAP3 SWAP2 POP POP JUMP JUMPDEST PUSH0 PUSH1 0x8 DUP4 MUL PUSH2 0x1654 PUSH32 0xFFFFFFFFFFFFFFFFFFFFFFFFFFFFFFFFFFFFFFFFFFFFFFFFFFFFFFFFFFFFFFFF DUP3 PUSH2 0x1619 JUMP JUMPDEST PUSH2 0x165E DUP7 DUP4 PUSH2 0x1619 JUMP JUMPDEST SWAP6 POP DUP1 NOT DUP5 AND SWAP4 POP DUP1 DUP7 AND DUP5 OR SWAP3 POP POP POP SWAP4 SWAP3 POP POP POP JUMP JUMPDEST PUSH0 DUP2 SWAP1 POP SWAP2 SWAP1 POP JUMP JUMPDEST PUSH0 PUSH2 0x1699 PUSH2 0x1694 PUSH2 0x168F DUP5 PUSH2 0xDD9 JUMP JUMPDEST PUSH2 0x1676 JUMP JUMPDEST PUSH2 0xDD9 JUMP JUMPDEST SWAP1 POP SWAP2 SWAP1 POP JUMP JUMPDEST PUSH0 DUP2 SWAP1 POP SWAP2 SWAP1 POP JUMP JUMPDEST PUSH2 0x16B2 DUP4 PUSH2 0x167F JUMP JUMPDEST PUSH2 0x16C6 PUSH2 0x16BE DUP3 PUSH2 0x16A0 JUMP JUMPDEST DUP5 DUP5 SLOAD PUSH2 0x1625 JUMP JUMPDEST DUP3 SSTORE POP POP POP POP JUMP JUMPDEST PUSH0 SWAP1 JUMP JUMPDEST PUSH2 0x16DA PUSH2 0x16CE JUMP JUMPDEST PUSH2 0x16E5 DUP2 DUP5 DUP5 PUSH2 0x16A9 JUMP JUMPDEST POP POP POP JUMP JUMPDEST JUMPDEST DUP2 DUP2 LT ISZERO PUSH2 0x1708 JUMPI PUSH2 0x16FD PUSH0 DUP3 PUSH2 0x16D2 JUMP JUMPDEST PUSH1 0x1 DUP2 ADD SWAP1 POP PUSH2 0x16EB JUMP JUMPDEST POP POP JUMP JUMPDEST PUSH1 0x1F DUP3 GT ISZERO PUSH2 0x174D JUMPI PUSH2 0x171E DUP2 PUSH2 0x15F8 JUMP JUMPDEST PUSH2 0x1727 DUP5 PUSH2 0x160A JUMP JUMPDEST DUP2 ADD PUSH1 0x20 DUP6 LT ISZERO PUSH2 0x1736 JUMPI DUP2 SWAP1 POP JUMPDEST PUSH2 0x174A PUSH2 0x1742 DUP6 PUSH2 0x160A JUMP JUMPDEST DUP4 ADD DUP3 PUSH2 0x16EA JUMP JUMPDEST POP POP JUMPDEST POP POP POP JUMP JUMPDEST PUSH0 DUP3 DUP3 SHR SWAP1 POP SWAP3 SWAP2 POP POP JUMP JUMPDEST PUSH0 PUSH2 0x176D PUSH0 NOT DUP5 PUSH1 0x8 MUL PUSH2 0x1752 JUMP JUMPDEST NOT DUP1 DUP4 AND SWAP2 POP POP SWAP3 SWAP2 POP POP JUMP JUMPDEST PUSH0 PUSH2 0x1785 DUP4 DUP4 PUSH2 0x175E JUMP JUMPDEST SWAP2 POP DUP3 PUSH1 0x2 MUL DUP3 OR SWAP1 POP SWAP3 SWAP2 POP POP JUMP JUMPDEST PUSH2 0x179E DUP3 PUSH2 0xE92 JUMP JUMPDEST PUSH8 0xFFFFFFFFFFFFFFFF DUP2 GT ISZERO PUSH2 0x17B7 JUMPI PUSH2 0x17B6 PUSH2 0x1011 JUMP JUMPDEST JUMPDEST PUSH2 0x17C1 DUP3 SLOAD PUSH2 0x1211 JUMP JUMPDEST PUSH2 0x17CC DUP3 DUP3 DUP6 PUSH2 0x170C JUMP JUMPDEST PUSH0 PUSH1 0x20 SWAP1 POP PUSH1 0x1F DUP4 GT PUSH1 0x1 DUP2 EQ PUSH2 0x17FD JUMPI PUSH0 DUP5 ISZERO PUSH2 0x17EB JUMPI DUP3 DUP8 ADD MLOAD SWAP1 POP JUMPDEST PUSH2 0x17F5 DUP6 DUP3 PUSH2 0x177A JUMP JUMPDEST DUP7 SSTORE POP PUSH2 0x185C JUMP JUMPDEST PUSH1 0x1F NOT DUP5 AND PUSH2 0x180B DUP7 PUSH2 0x15F8 JUMP JUMPDEST PUSH0 JUMPDEST DUP3 DUP2 LT ISZERO PUSH2 0x1832 JUMPI DUP5 DUP10 ADD MLOAD DUP3 SSTORE PUSH1 0x1 DUP3 ADD SWAP2 POP PUSH1 0x20 DUP6 ADD SWAP5 POP PUSH1 0x20 DUP2 ADD SWAP1 POP PUSH2 0x180D JUMP JUMPDEST DUP7 DUP4 LT ISZERO PUSH2 0x184F JUMPI DUP5 DUP10 ADD MLOAD PUSH2 0x184B PUSH1 0x1F DUP10 AND DUP3 PUSH2 0x175E JUMP JUMPDEST DUP4 SSTORE POP JUMPDEST PUSH1 0x1 PUSH1 0x2 DUP9 MUL ADD DUP9 SSTORE POP POP POP JUMPDEST POP POP POP POP POP POP JUMP JUMPDEST PUSH0 PUSH1 0x80 DUP3 ADD SWAP1 POP DUP2 DUP2 SUB PUSH0 DUP4 ADD MSTORE PUSH2 0x187C DUP2 DUP8 PUSH2 0xECA JUMP JUMPDEST SWAP1 POP DUP2 DUP2 SUB PUSH1 0x20 DUP4 ADD MSTORE PUSH2 0x1890 DUP2 DUP7 PUSH2 0xECA JUMP JUMPDEST SWAP1 POP PUSH2 0x189F PUSH1 0x40 DUP4 ADD DUP6 PUSH2 0xE6A JUMP JUMPDEST PUSH2 0x18AC PUSH1 0x60 DUP4 ADD DUP5 PUSH2 0xE6A JUMP JUMPDEST SWAP6 SWAP5 POP POP POP POP POP JUMP INVALID LOG2 PUSH5 0x6970667358 0x22 SLT KECCAK256 0xA9 PUSH12 0x3437E55D12BBE01E89BBF2F1 0x23 PUSH24 0x83FE443C0A50963BF5AAEBFFBD61C57664736F6C63430008 BYTE STOP CALLER "
				},
				"gasEstimates": {
					"creation": {
						"codeDepositCost": "1275800",
						"executionCost": "infinite",
						"totalCost": "infinite"
					},
					"external": {
						"addBook(uint256,string,string,uint256,uint256)": "infinite",
						"bestsellers(uint256)": "2786",
						"bookIds(uint256)": "infinite",
						"books(uint256)": "infinite",
						"buyBook(uint256,uint256,uint256)": "infinite",
						"getBooks(uint256)": "infinite",
						"isBestseller(uint256)": "2810",
						"markAsBestseller(uint256)": "30335",
						"owner()": "2527",
						"removeBook(uint256)": "infinite"
					}
				},
				"methodIdentifiers": {
					"addBook(uint256,string,string,uint256,uint256)": "f733719c",
					"bestsellers(uint256)": "44420ebd",
					"bookIds(uint256)": "513073b8",
					"books(uint256)": "68744046",
					"buyBook(uint256,uint256,uint256)": "f346e2b7",
					"getBooks(uint256)": "5ac3e19e",
					"isBestseller(uint256)": "89f2fa9c",
					"markAsBestseller(uint256)": "6579404d",
					"owner()": "8da5cb5b",
					"removeBook(uint256)": "bec0d799"
				}
			},
			"storageLayout": {
				"storage": [
					{
						"astId": 344,
						"contract": "AdvancedBookStore.sol:AdvancedBookStore",
						"label": "owner",
						"offset": 0,
						"slot": "0",
						"type": "t_address"
					},
					{
						"astId": 360,
						"contract": "AdvancedBookStore.sol:AdvancedBookStore",
						"label": "books",
						"offset": 0,
						"slot": "1",
						"type": "t_mapping(t_uint256,t_struct(Book)355_storage)"
					},
					{
						"astId": 363,
						"contract": "AdvancedBookStore.sol:AdvancedBookStore",
						"label": "bookIds",
						"offset": 0,
						"slot": "2",
						"type": "t_array(t_uint256)dyn_storage"
					},
					{
						"astId": 187,
						"contract": "AdvancedBookStore.sol:AdvancedBookStore",
						"label": "bestsellers",
						"offset": 0,
						"slot": "3",
						"type": "t_mapping(t_uint256,t_bool)"
					}
				],
				"types": {
					"t_address": {
						"encoding": "inplace",
						"label": "address",
						"numberOfBytes": "20"
					},
					"t_array(t_uint256)dyn_storage": {
						"base": "t_uint256",
						"encoding": "dynamic_array",
						"label": "uint256[]",
						"numberOfBytes": "32"
					},
					"t_bool": {
						"encoding": "inplace",
						"label": "bool",
						"numberOfBytes": "1"
					},
					"t_mapping(t_uint256,t_bool)": {
						"encoding": "mapping",
						"key": "t_uint256",
						"label": "mapping(uint256 => bool)",
						"numberOfBytes": "32",
						"value": "t_bool"
					},
					"t_mapping(t_uint256,t_struct(Book)355_storage)": {
						"encoding": "mapping",
						"key": "t_uint256",
						"label": "mapping(uint256 => struct BookStore.Book)",
						"numberOfBytes": "32",
						"value": "t_struct(Book)355_storage"
					},
					"t_string_storage": {
						"encoding": "bytes",
						"label": "string",
						"numberOfBytes": "32"
					},
					"t_struct(Book)355_storage": {
						"encoding": "inplace",
						"label": "struct BookStore.Book",
						"members": [
							{
								"astId": 346,
								"contract": "AdvancedBookStore.sol:AdvancedBookStore",
								"label": "title",
								"offset": 0,
								"slot": "0",
								"type": "t_string_storage"
							},
							{
								"astId": 348,
								"contract": "AdvancedBookStore.sol:AdvancedBookStore",
								"label": "author",
								"offset": 0,
								"slot": "1",
								"type": "t_string_storage"
							},
							{
								"astId": 350,
								"contract": "AdvancedBookStore.sol:AdvancedBookStore",
								"label": "price",
								"offset": 0,
								"slot": "2",
								"type": "t_uint256"
							},
							{
								"astId": 352,
								"contract": "AdvancedBookStore.sol:AdvancedBookStore",
								"label": "stock",
								"offset": 0,
								"slot": "3",
								"type": "t_uint256"
							},
							{
								"astId": 354,
								"contract": "AdvancedBookStore.sol:AdvancedBookStore",
								"label": "isAvailable",
								"offset": 0,
								"slot": "4",
								"type": "t_bool"
							}
						],
						"numberOfBytes": "160"
					},
					"t_uint256": {
						"encoding": "inplace",
						"label": "uint256",
						"numberOfBytes": "32"
					}
				}
			},
			"userdoc": {
				"kind": "user",
				"methods": {},
				"version": 1
			}
		}
	}
}