{
	"BookStore.sol": {
		"BookStore": {
			"abi": [
				{
					"inputs": [
						{
							"internalType": "address",
							"name": "initialOwner",
							"type": "address"
						}
					],
					"stateMutability": "nonpayable",
					"type": "constructor"
				},
				{
					"inputs": [
						{
							"internalType": "address",
							"name": "owner",
							"type": "address"
						}
					],
					"name": "OwnableInvalidOwner",
					"type": "error"
				},
				{
					"inputs": [
						{
							"internalType": "address",
							"name": "account",
							"type": "address"
						}
					],
					"name": "OwnableUnauthorizedAccount",
					"type": "error"
				},
				{
					"anonymous": false,
					"inputs": [
						{
							"indexed": true,
							"internalType": "uint256",
							"name": "bookId",
							"type": "uint256"
						},
						{
							"indexed": false,
							"internalType": "string",
							"name": "title",
							"type": "string"
						},
						{
							"indexed": false,
							"internalType": "string",
							"name": "author",
							"type": "string"
						},
						{
							"indexed": false,
							"internalType": "uint256",
							"name": "price",
							"type": "uint256"
						},
						{
							"indexed": false,
							"internalType": "uint256",
							"name": "stock",
							"type": "uint256"
						}
					],
					"name": "BookAdded",
					"type": "event"
				},
				{
					"anonymous": false,
					"inputs": [
						{
							"indexed": true,
							"internalType": "address",
							"name": "previousOwner",
							"type": "address"
						},
						{
							"indexed": true,
							"internalType": "address",
							"name": "newOwner",
							"type": "address"
						}
					],
					"name": "OwnershipTransferred",
					"type": "event"
				},
				{
					"anonymous": false,
					"inputs": [
						{
							"indexed": true,
							"internalType": "uint256",
							"name": "bookId",
							"type": "uint256"
						},
						{
							"indexed": true,
							"internalType": "address",
							"name": "buyer",
							"type": "address"
						},
						{
							"indexed": false,
							"internalType": "uint256",
							"name": "quantity",
							"type": "uint256"
						}
					],
					"name": "PurchaseConfirmed",
					"type": "event"
				},
				{
					"anonymous": false,
					"inputs": [
						{
							"indexed": true,
							"internalType": "uint256",
							"name": "bookId",
							"type": "uint256"
						},
						{
							"indexed": true,
							"internalType": "address",
							"name": "buyer",
							"type": "address"
						},
						{
							"indexed": false,
							"internalType": "uint256",
							"name": "quantity",
							"type": "uint256"
						}
					],
					"name": "PurchaseInitiated",
					"type": "event"
				},
				{
					"anonymous": false,
					"inputs": [
						{
							"indexed": true,
							"internalType": "address",
							"name": "subscriber",
							"type": "address"
						}
					],
					"name": "SubscriptionAdded",
					"type": "event"
				},
				{
					"anonymous": false,
					"inputs": [
						{
							"indexed": true,
							"internalType": "address",
							"name": "subscriber",
							"type": "address"
						}
					],
					"name": "SubscriptionRemoved",
					"type": "event"
				},
				{
					"inputs": [
						{
							"internalType": "uint256",
							"name": "_bookId",
							"type": "uint256"
						},
						{
							"internalType": "string",
							"name": "_title",
							"type": "string"
						},
						{
							"internalType": "string",
							"name": "_author",
							"type": "string"
						},
						{
							"internalType": "uint256",
							"name": "_price",
							"type": "uint256"
						},
						{
							"internalType": "uint256",
							"name": "_stock",
							"type": "uint256"
						}
					],
					"name": "addBook",
					"outputs": [],
					"stateMutability": "nonpayable",
					"type": "function"
				},
				{
					"inputs": [
						{
							"internalType": "uint256",
							"name": "",
							"type": "uint256"
						}
					],
					"name": "bookIds",
					"outputs": [
						{
							"internalType": "uint256",
							"name": "",
							"type": "uint256"
						}
					],
					"stateMutability": "view",
					"type": "function"
				},
				{
					"inputs": [
						{
							"internalType": "uint256",
							"name": "",
							"type": "uint256"
						}
					],
					"name": "books",
					"outputs": [
						{
							"internalType": "string",
							"name": "title",
							"type": "string"
						},
						{
							"internalType": "string",
							"name": "author",
							"type": "string"
						},
						{
							"internalType": "uint256",
							"name": "price",
							"type": "uint256"
						},
						{
							"internalType": "uint256",
							"name": "stock",
							"type": "uint256"
						},
						{
							"internalType": "bool",
							"name": "isAvailable",
							"type": "bool"
						}
					],
					"stateMutability": "view",
					"type": "function"
				},
				{
					"inputs": [
						{
							"internalType": "uint256",
							"name": "_bookId",
							"type": "uint256"
						},
						{
							"internalType": "uint256",
							"name": "_quantity",
							"type": "uint256"
						},
						{
							"internalType": "uint256",
							"name": "_amount",
							"type": "uint256"
						}
					],
					"name": "buyBook",
					"outputs": [],
					"stateMutability": "payable",
					"type": "function"
				},
				{
					"inputs": [
						{
							"internalType": "uint256",
							"name": "_bookId",
							"type": "uint256"
						},
						{
							"internalType": "uint256",
							"name": "_quantity",
							"type": "uint256"
						}
					],
					"name": "confirmPurchase",
					"outputs": [],
					"stateMutability": "nonpayable",
					"type": "function"
				},
				{
					"inputs": [
						{
							"internalType": "uint256",
							"name": "_bookId",
							"type": "uint256"
						}
					],
					"name": "getBooks",
					"outputs": [
						{
							"internalType": "string",
							"name": "",
							"type": "string"
						},
						{
							"internalType": "string",
							"name": "",
							"type": "string"
						},
						{
							"internalType": "uint256",
							"name": "",
							"type": "uint256"
						},
						{
							"internalType": "uint256",
							"name": "",
							"type": "uint256"
						},
						{
							"internalType": "bool",
							"name": "",
							"type": "bool"
						}
					],
					"stateMutability": "view",
					"type": "function"
				},
				{
					"inputs": [],
					"name": "owner",
					"outputs": [
						{
							"internalType": "address",
							"name": "",
							"type": "address"
						}
					],
					"stateMutability": "view",
					"type": "function"
				},
				{
					"inputs": [],
					"name": "renounceOwnership",
					"outputs": [],
					"stateMutability": "nonpayable",
					"type": "function"
				},
				{
					"inputs": [
						{
							"internalType": "uint256",
							"name": "",
							"type": "uint256"
						}
					],
					"name": "subscriberList",
					"outputs": [
						{
							"internalType": "address",
							"name": "",
							"type": "address"
						}
					],
					"stateMutability": "view",
					"type": "function"
				},
				{
					"inputs": [
						{
							"internalType": "address",
							"name": "",
							"type": "address"
						}
					],
					"name": "subscribers",
					"outputs": [
						{
							"internalType": "bool",
							"name": "",
							"type": "bool"
						}
					],
					"stateMutability": "view",
					"type": "function"
				},
				{
					"inputs": [
						{
							"internalType": "address",
							"name": "newOwner",
							"type": "address"
						}
					],
					"name": "transferOwnership",
					"outputs": [],
					"stateMutability": "nonpayable",
					"type": "function"
				}
			],
			"devdoc": {
				"errors": {
					"OwnableInvalidOwner(address)": [
						{
							"details": "The owner is not a valid owner account. (eg. `address(0)`)"
						}
					],
					"OwnableUnauthorizedAccount(address)": [
						{
							"details": "The caller account is not authorized to perform an operation."
						}
					]
				},
				"kind": "dev",
				"methods": {
					"owner()": {
						"details": "Returns the address of the current owner."
					},
					"renounceOwnership()": {
						"details": "Leaves the contract without owner. It will not be possible to call `onlyOwner` functions. Can only be called by the current owner. NOTE: Renouncing ownership will leave the contract without an owner, thereby disabling any functionality that is only available to the owner."
					},
					"transferOwnership(address)": {
						"details": "Transfers ownership of the contract to a new account (`newOwner`). Can only be called by the current owner."
					}
				},
				"version": 1
			},
			"evm": {
				"assembly": "    /* \"BookStore.sol\":1689:4240  contract BookStore  is Ownable{... */\n  mstore(0x40, 0x80)\n    /* \"BookStore.sol\":2442:2509  constructor(address initialOwner) Ownable(initialOwner) {... */\n  callvalue\n  dup1\n  iszero\n  tag_1\n  jumpi\n  0x00\n  dup1\n  revert\ntag_1:\n  pop\n  mload(0x40)\n  sub(codesize, bytecodeSize)\n  dup1\n  bytecodeSize\n  dup4\n  codecopy\n  dup2\n  dup2\n  add\n  0x40\n  mstore\n  dup2\n  add\n  swap1\n  tag_2\n  swap2\n  swap1\n  tag_3\n  jump\t// in\ntag_2:\n    /* \"BookStore.sol\":2484:2496  initialOwner */\n  dup1\n    /* \"@openzeppelin/contracts/access/Ownable.sol\":1297:1298  0 */\n  0x00\n    /* \"@openzeppelin/contracts/access/Ownable.sol\":1273:1299  initialOwner == address(0) */\n  0xffffffffffffffffffffffffffffffffffffffff\n  and\n    /* \"@openzeppelin/contracts/access/Ownable.sol\":1273:1285  initialOwner */\n  dup2\n    /* \"@openzeppelin/contracts/access/Ownable.sol\":1273:1299  initialOwner == address(0) */\n  0xffffffffffffffffffffffffffffffffffffffff\n  and\n  sub\n    /* \"@openzeppelin/contracts/access/Ownable.sol\":1269:1364  if (initialOwner == address(0)) {... */\n  tag_7\n  jumpi\n    /* \"@openzeppelin/contracts/access/Ownable.sol\":1350:1351  0 */\n  0x00\n    /* \"@openzeppelin/contracts/access/Ownable.sol\":1322:1353  OwnableInvalidOwner(address(0)) */\n  mload(0x40)\n  0x1e4fbdf700000000000000000000000000000000000000000000000000000000\n  dup2\n  mstore\n  0x04\n  add\n  tag_8\n  swap2\n  swap1\n  tag_9\n  jump\t// in\ntag_8:\n  mload(0x40)\n  dup1\n  swap2\n  sub\n  swap1\n  revert\n    /* \"@openzeppelin/contracts/access/Ownable.sol\":1269:1364  if (initialOwner == address(0)) {... */\ntag_7:\n    /* \"@openzeppelin/contracts/access/Ownable.sol\":1373:1405  _transferOwnership(initialOwner) */\n  tag_10\n    /* \"@openzeppelin/contracts/access/Ownable.sol\":1392:1404  initialOwner */\n  dup2\n    /* \"@openzeppelin/contracts/access/Ownable.sol\":1373:1391  _transferOwnership */\n  shl(0x20, tag_11)\n    /* \"@openzeppelin/contracts/access/Ownable.sol\":1373:1405  _transferOwnership(initialOwner) */\n  0x20\n  shr\n  jump\t// in\ntag_10:\n    /* \"@openzeppelin/contracts/access/Ownable.sol\":1225:1412  constructor(address initialOwner) {... */\n  pop\n    /* \"BookStore.sol\":2442:2509  constructor(address initialOwner) Ownable(initialOwner) {... */\n  pop\n    /* \"BookStore.sol\":1689:4240  contract BookStore  is Ownable{... */\n  jump(tag_13)\n    /* \"@openzeppelin/contracts/access/Ownable.sol\":2912:3099  function _transferOwnership(address newOwner) internal virtual {... */\ntag_11:\n    /* \"@openzeppelin/contracts/access/Ownable.sol\":2985:3001  address oldOwner */\n  0x00\n    /* \"@openzeppelin/contracts/access/Ownable.sol\":3004:3010  _owner */\n  dup1\n  0x00\n  swap1\n  sload\n  swap1\n  0x0100\n  exp\n  swap1\n  div\n  0xffffffffffffffffffffffffffffffffffffffff\n  and\n    /* \"@openzeppelin/contracts/access/Ownable.sol\":2985:3010  address oldOwner = _owner */\n  swap1\n  pop\n    /* \"@openzeppelin/contracts/access/Ownable.sol\":3029:3037  newOwner */\n  dup2\n    /* \"@openzeppelin/contracts/access/Ownable.sol\":3020:3026  _owner */\n  0x00\n  dup1\n    /* \"@openzeppelin/contracts/access/Ownable.sol\":3020:3037  _owner = newOwner */\n  0x0100\n  exp\n  dup2\n  sload\n  dup2\n  0xffffffffffffffffffffffffffffffffffffffff\n  mul\n  not\n  and\n  swap1\n  dup4\n  0xffffffffffffffffffffffffffffffffffffffff\n  and\n  mul\n  or\n  swap1\n  sstore\n  pop\n    /* \"@openzeppelin/contracts/access/Ownable.sol\":3083:3091  newOwner */\n  dup2\n    /* \"@openzeppelin/contracts/access/Ownable.sol\":3052:3092  OwnershipTransferred(oldOwner, newOwner) */\n  0xffffffffffffffffffffffffffffffffffffffff\n  and\n    /* \"@openzeppelin/contracts/access/Ownable.sol\":3073:3081  oldOwner */\n  dup2\n    /* \"@openzeppelin/contracts/access/Ownable.sol\":3052:3092  OwnershipTransferred(oldOwner, newOwner) */\n  0xffffffffffffffffffffffffffffffffffffffff\n  and\n  0x8be0079c531659141344cd1fd0a4f28419497f9722a3daafe3b4186f6b6457e0\n  mload(0x40)\n  mload(0x40)\n  dup1\n  swap2\n  sub\n  swap1\n  log3\n    /* \"@openzeppelin/contracts/access/Ownable.sol\":2975:3099  {... */\n  pop\n    /* \"@openzeppelin/contracts/access/Ownable.sol\":2912:3099  function _transferOwnership(address newOwner) internal virtual {... */\n  pop\n  jump\t// out\n    /* \"#utility.yul\":88:205   */\ntag_16:\n    /* \"#utility.yul\":197:198   */\n  0x00\n    /* \"#utility.yul\":194:195   */\n  dup1\n    /* \"#utility.yul\":187:199   */\n  revert\n    /* \"#utility.yul\":334:460   */\ntag_18:\n    /* \"#utility.yul\":371:378   */\n  0x00\n    /* \"#utility.yul\":411:453   */\n  0xffffffffffffffffffffffffffffffffffffffff\n    /* \"#utility.yul\":404:409   */\n  dup3\n    /* \"#utility.yul\":400:454   */\n  and\n    /* \"#utility.yul\":389:454   */\n  swap1\n  pop\n    /* \"#utility.yul\":334:460   */\n  swap2\n  swap1\n  pop\n  jump\t// out\n    /* \"#utility.yul\":466:562   */\ntag_19:\n    /* \"#utility.yul\":503:510   */\n  0x00\n    /* \"#utility.yul\":532:556   */\n  tag_29\n    /* \"#utility.yul\":550:555   */\n  dup3\n    /* \"#utility.yul\":532:556   */\n  tag_18\n  jump\t// in\ntag_29:\n    /* \"#utility.yul\":521:556   */\n  swap1\n  pop\n    /* \"#utility.yul\":466:562   */\n  swap2\n  swap1\n  pop\n  jump\t// out\n    /* \"#utility.yul\":568:690   */\ntag_20:\n    /* \"#utility.yul\":641:665   */\n  tag_31\n    /* \"#utility.yul\":659:664   */\n  dup2\n    /* \"#utility.yul\":641:665   */\n  tag_19\n  jump\t// in\ntag_31:\n    /* \"#utility.yul\":634:639   */\n  dup2\n    /* \"#utility.yul\":631:666   */\n  eq\n    /* \"#utility.yul\":621:684   */\n  tag_32\n  jumpi\n    /* \"#utility.yul\":680:681   */\n  0x00\n    /* \"#utility.yul\":677:678   */\n  dup1\n    /* \"#utility.yul\":670:682   */\n  revert\n    /* \"#utility.yul\":621:684   */\ntag_32:\n    /* \"#utility.yul\":568:690   */\n  pop\n  jump\t// out\n    /* \"#utility.yul\":696:839   */\ntag_21:\n    /* \"#utility.yul\":753:758   */\n  0x00\n    /* \"#utility.yul\":784:790   */\n  dup2\n    /* \"#utility.yul\":778:791   */\n  mload\n    /* \"#utility.yul\":769:791   */\n  swap1\n  pop\n    /* \"#utility.yul\":800:833   */\n  tag_34\n    /* \"#utility.yul\":827:832   */\n  dup2\n    /* \"#utility.yul\":800:833   */\n  tag_20\n  jump\t// in\ntag_34:\n    /* \"#utility.yul\":696:839   */\n  swap3\n  swap2\n  pop\n  pop\n  jump\t// out\n    /* \"#utility.yul\":845:1196   */\ntag_3:\n    /* \"#utility.yul\":915:921   */\n  0x00\n    /* \"#utility.yul\":964:966   */\n  0x20\n    /* \"#utility.yul\":952:961   */\n  dup3\n    /* \"#utility.yul\":943:950   */\n  dup5\n    /* \"#utility.yul\":939:962   */\n  sub\n    /* \"#utility.yul\":935:967   */\n  slt\n    /* \"#utility.yul\":932:1051   */\n  iszero\n  tag_36\n  jumpi\n    /* \"#utility.yul\":970:1049   */\n  tag_37\n  tag_16\n  jump\t// in\ntag_37:\n    /* \"#utility.yul\":932:1051   */\ntag_36:\n    /* \"#utility.yul\":1090:1091   */\n  0x00\n    /* \"#utility.yul\":1115:1179   */\n  tag_38\n    /* \"#utility.yul\":1171:1178   */\n  dup5\n    /* \"#utility.yul\":1162:1168   */\n  dup3\n    /* \"#utility.yul\":1151:1160   */\n  dup6\n    /* \"#utility.yul\":1147:1169   */\n  add\n    /* \"#utility.yul\":1115:1179   */\n  tag_21\n  jump\t// in\ntag_38:\n    /* \"#utility.yul\":1105:1179   */\n  swap2\n  pop\n    /* \"#utility.yul\":1061:1189   */\n  pop\n    /* \"#utility.yul\":845:1196   */\n  swap3\n  swap2\n  pop\n  pop\n  jump\t// out\n    /* \"#utility.yul\":1202:1320   */\ntag_22:\n    /* \"#utility.yul\":1289:1313   */\n  tag_40\n    /* \"#utility.yul\":1307:1312   */\n  dup2\n    /* \"#utility.yul\":1289:1313   */\n  tag_19\n  jump\t// in\ntag_40:\n    /* \"#utility.yul\":1284:1287   */\n  dup3\n    /* \"#utility.yul\":1277:1314   */\n  mstore\n    /* \"#utility.yul\":1202:1320   */\n  pop\n  pop\n  jump\t// out\n    /* \"#utility.yul\":1326:1548   */\ntag_9:\n    /* \"#utility.yul\":1419:1423   */\n  0x00\n    /* \"#utility.yul\":1457:1459   */\n  0x20\n    /* \"#utility.yul\":1446:1455   */\n  dup3\n    /* \"#utility.yul\":1442:1460   */\n  add\n    /* \"#utility.yul\":1434:1460   */\n  swap1\n  pop\n    /* \"#utility.yul\":1470:1541   */\n  tag_42\n    /* \"#utility.yul\":1538:1539   */\n  0x00\n    /* \"#utility.yul\":1527:1536   */\n  dup4\n    /* \"#utility.yul\":1523:1540   */\n  add\n    /* \"#utility.yul\":1514:1520   */\n  dup5\n    /* \"#utility.yul\":1470:1541   */\n  tag_22\n  jump\t// in\ntag_42:\n    /* \"#utility.yul\":1326:1548   */\n  swap3\n  swap2\n  pop\n  pop\n  jump\t// out\n    /* \"BookStore.sol\":1689:4240  contract BookStore  is Ownable{... */\ntag_13:\n  dataSize(sub_0)\n  dup1\n  dataOffset(sub_0)\n  0x00\n  codecopy\n  0x00\n  return\nstop\n\nsub_0: assembly {\n        /* \"BookStore.sol\":1689:4240  contract BookStore  is Ownable{... */\n      mstore(0x40, 0x80)\n      jumpi(tag_1, lt(calldatasize, 0x04))\n      shr(0xe0, calldataload(0x00))\n      dup1\n      0x83c2eaba\n      gt\n      tag_13\n      jumpi\n      dup1\n      0x83c2eaba\n      eq\n      tag_7\n      jumpi\n      dup1\n      0x8c1af2e0\n      eq\n      tag_8\n      jumpi\n      dup1\n      0x8da5cb5b\n      eq\n      tag_9\n      jumpi\n      dup1\n      0xf2fde38b\n      eq\n      tag_10\n      jumpi\n      dup1\n      0xf346e2b7\n      eq\n      tag_11\n      jumpi\n      dup1\n      0xf733719c\n      eq\n      tag_12\n      jumpi\n      jump(tag_1)\n    tag_13:\n      dup1\n      0x513073b8\n      eq\n      tag_2\n      jumpi\n      dup1\n      0x5745ae28\n      eq\n      tag_3\n      jumpi\n      dup1\n      0x5ac3e19e\n      eq\n      tag_4\n      jumpi\n      dup1\n      0x68744046\n      eq\n      tag_5\n      jumpi\n      dup1\n      0x715018a6\n      eq\n      tag_6\n      jumpi\n    tag_1:\n      0x00\n      dup1\n      revert\n        /* \"BookStore.sol\":1961:1985  uint256[] public bookIds */\n    tag_2:\n      callvalue\n      dup1\n      iszero\n      tag_14\n      jumpi\n      0x00\n      dup1\n      revert\n    tag_14:\n      pop\n      tag_15\n      0x04\n      dup1\n      calldatasize\n      sub\n      dup2\n      add\n      swap1\n      tag_16\n      swap2\n      swap1\n      tag_17\n      jump\t// in\n    tag_16:\n      tag_18\n      jump\t// in\n    tag_15:\n      mload(0x40)\n      tag_19\n      swap2\n      swap1\n      tag_20\n      jump\t// in\n    tag_19:\n      mload(0x40)\n      dup1\n      swap2\n      sub\n      swap1\n      return\n        /* \"BookStore.sol\":1908:1953  mapping (address => bool ) public subscribers */\n    tag_3:\n      callvalue\n      dup1\n      iszero\n      tag_21\n      jumpi\n      0x00\n      dup1\n      revert\n    tag_21:\n      pop\n      tag_22\n      0x04\n      dup1\n      calldatasize\n      sub\n      dup2\n      add\n      swap1\n      tag_23\n      swap2\n      swap1\n      tag_24\n      jump\t// in\n    tag_23:\n      tag_25\n      jump\t// in\n    tag_22:\n      mload(0x40)\n      tag_26\n      swap2\n      swap1\n      tag_27\n      jump\t// in\n    tag_26:\n      mload(0x40)\n      dup1\n      swap2\n      sub\n      swap1\n      return\n        /* \"BookStore.sol\":3048:3292  function getBooks(uint256 _bookId) public view returns (string memory, string memory, uint256, uint256, bool) {... */\n    tag_4:\n      callvalue\n      dup1\n      iszero\n      tag_28\n      jumpi\n      0x00\n      dup1\n      revert\n    tag_28:\n      pop\n      tag_29\n      0x04\n      dup1\n      calldatasize\n      sub\n      dup2\n      add\n      swap1\n      tag_30\n      swap2\n      swap1\n      tag_17\n      jump\t// in\n    tag_30:\n      tag_31\n      jump\t// in\n    tag_29:\n      mload(0x40)\n      tag_32\n      swap6\n      swap5\n      swap4\n      swap3\n      swap2\n      swap1\n      tag_33\n      jump\t// in\n    tag_32:\n      mload(0x40)\n      dup1\n      swap2\n      sub\n      swap1\n      return\n        /* \"BookStore.sol\":1865:1902  mapping(uint256 => Book) public books */\n    tag_5:\n      callvalue\n      dup1\n      iszero\n      tag_34\n      jumpi\n      0x00\n      dup1\n      revert\n    tag_34:\n      pop\n      tag_35\n      0x04\n      dup1\n      calldatasize\n      sub\n      dup2\n      add\n      swap1\n      tag_36\n      swap2\n      swap1\n      tag_17\n      jump\t// in\n    tag_36:\n      tag_37\n      jump\t// in\n    tag_35:\n      mload(0x40)\n      tag_38\n      swap6\n      swap5\n      swap4\n      swap3\n      swap2\n      swap1\n      tag_33\n      jump\t// in\n    tag_38:\n      mload(0x40)\n      dup1\n      swap2\n      sub\n      swap1\n      return\n        /* \"@openzeppelin/contracts/access/Ownable.sol\":2293:2394  function renounceOwnership() public virtual onlyOwner {... */\n    tag_6:\n      callvalue\n      dup1\n      iszero\n      tag_39\n      jumpi\n      0x00\n      dup1\n      revert\n    tag_39:\n      pop\n      tag_40\n      tag_41\n      jump\t// in\n    tag_40:\n      stop\n        /* \"BookStore.sol\":1991:2023  address[] public  subscriberList */\n    tag_7:\n      callvalue\n      dup1\n      iszero\n      tag_42\n      jumpi\n      0x00\n      dup1\n      revert\n    tag_42:\n      pop\n      tag_43\n      0x04\n      dup1\n      calldatasize\n      sub\n      dup2\n      add\n      swap1\n      tag_44\n      swap2\n      swap1\n      tag_17\n      jump\t// in\n    tag_44:\n      tag_45\n      jump\t// in\n    tag_43:\n      mload(0x40)\n      tag_46\n      swap2\n      swap1\n      tag_47\n      jump\t// in\n    tag_46:\n      mload(0x40)\n      dup1\n      swap2\n      sub\n      swap1\n      return\n        /* \"BookStore.sol\":3846:4237  function confirmPurchase(uint256 _bookId, uint256 _quantity)public onlyOwner{... */\n    tag_8:\n      callvalue\n      dup1\n      iszero\n      tag_48\n      jumpi\n      0x00\n      dup1\n      revert\n    tag_48:\n      pop\n      tag_49\n      0x04\n      dup1\n      calldatasize\n      sub\n      dup2\n      add\n      swap1\n      tag_50\n      swap2\n      swap1\n      tag_51\n      jump\t// in\n    tag_50:\n      tag_52\n      jump\t// in\n    tag_49:\n      stop\n        /* \"@openzeppelin/contracts/access/Ownable.sol\":1638:1723  function owner() public view virtual returns (address) {... */\n    tag_9:\n      callvalue\n      dup1\n      iszero\n      tag_53\n      jumpi\n      0x00\n      dup1\n      revert\n    tag_53:\n      pop\n      tag_54\n      tag_55\n      jump\t// in\n    tag_54:\n      mload(0x40)\n      tag_56\n      swap2\n      swap1\n      tag_47\n      jump\t// in\n    tag_56:\n      mload(0x40)\n      dup1\n      swap2\n      sub\n      swap1\n      return\n        /* \"@openzeppelin/contracts/access/Ownable.sol\":2543:2758  function transferOwnership(address newOwner) public virtual onlyOwner {... */\n    tag_10:\n      callvalue\n      dup1\n      iszero\n      tag_57\n      jumpi\n      0x00\n      dup1\n      revert\n    tag_57:\n      pop\n      tag_58\n      0x04\n      dup1\n      calldatasize\n      sub\n      dup2\n      add\n      swap1\n      tag_59\n      swap2\n      swap1\n      tag_24\n      jump\t// in\n    tag_59:\n      tag_60\n      jump\t// in\n    tag_58:\n      stop\n        /* \"BookStore.sol\":3298:3841  function buyBook(uint256 _bookId, uint256 _quantity, uint256 _amount) public payable {... */\n    tag_11:\n      tag_61\n      0x04\n      dup1\n      calldatasize\n      sub\n      dup2\n      add\n      swap1\n      tag_62\n      swap2\n      swap1\n      tag_63\n      jump\t// in\n    tag_62:\n      tag_64\n      jump\t// in\n    tag_61:\n      stop\n        /* \"BookStore.sol\":2515:3039  function addBook(uint256 _bookId, string memory _title, string memory _author, uint256 _price, uint256 _stock) public  onlyOwner{... */\n    tag_12:\n      callvalue\n      dup1\n      iszero\n      tag_65\n      jumpi\n      0x00\n      dup1\n      revert\n    tag_65:\n      pop\n      tag_66\n      0x04\n      dup1\n      calldatasize\n      sub\n      dup2\n      add\n      swap1\n      tag_67\n      swap2\n      swap1\n      tag_68\n      jump\t// in\n    tag_67:\n      tag_69\n      jump\t// in\n    tag_66:\n      stop\n        /* \"BookStore.sol\":1961:1985  uint256[] public bookIds */\n    tag_18:\n      0x03\n      dup2\n      dup2\n      sload\n      dup2\n      lt\n      tag_70\n      jumpi\n      0x00\n      dup1\n      revert\n    tag_70:\n      swap1\n      0x00\n      mstore\n      keccak256(0x00, 0x20)\n      add\n      0x00\n      swap2\n      pop\n      swap1\n      pop\n      sload\n      dup2\n      jump\t// out\n        /* \"BookStore.sol\":1908:1953  mapping (address => bool ) public subscribers */\n    tag_25:\n      mstore(0x20, 0x02)\n      dup1\n      0x00\n      mstore\n      keccak256(0x00, 0x40)\n      0x00\n      swap2\n      pop\n      sload\n      swap1\n      0x0100\n      exp\n      swap1\n      div\n      0xff\n      and\n      dup2\n      jump\t// out\n        /* \"BookStore.sol\":3048:3292  function getBooks(uint256 _bookId) public view returns (string memory, string memory, uint256, uint256, bool) {... */\n    tag_31:\n        /* \"BookStore.sol\":3104:3117  string memory */\n      0x60\n        /* \"BookStore.sol\":3119:3132  string memory */\n      dup1\n        /* \"BookStore.sol\":3134:3141  uint256 */\n      0x00\n        /* \"BookStore.sol\":3143:3150  uint256 */\n      dup1\n        /* \"BookStore.sol\":3152:3156  bool */\n      0x00\n        /* \"BookStore.sol\":3168:3184  Book memory book */\n      dup1\n        /* \"BookStore.sol\":3187:3192  books */\n      0x01\n        /* \"BookStore.sol\":3187:3201  books[_bookId] */\n      0x00\n        /* \"BookStore.sol\":3193:3200  _bookId */\n      dup9\n        /* \"BookStore.sol\":3187:3201  books[_bookId] */\n      dup2\n      mstore\n      0x20\n      add\n      swap1\n      dup2\n      mstore\n      0x20\n      add\n      0x00\n      keccak256\n        /* \"BookStore.sol\":3168:3201  Book memory book = books[_bookId] */\n      mload(0x40)\n      dup1\n      0xa0\n      add\n      0x40\n      mstore\n      swap1\n      dup2\n      0x00\n      dup3\n      add\n      dup1\n      sload\n      tag_73\n      swap1\n      tag_74\n      jump\t// in\n    tag_73:\n      dup1\n      0x1f\n      add\n      0x20\n      dup1\n      swap2\n      div\n      mul\n      0x20\n      add\n      mload(0x40)\n      swap1\n      dup2\n      add\n      0x40\n      mstore\n      dup1\n      swap3\n      swap2\n      swap1\n      dup2\n      dup2\n      mstore\n      0x20\n      add\n      dup3\n      dup1\n      sload\n      tag_75\n      swap1\n      tag_74\n      jump\t// in\n    tag_75:\n      dup1\n      iszero\n      tag_76\n      jumpi\n      dup1\n      0x1f\n      lt\n      tag_77\n      jumpi\n      0x0100\n      dup1\n      dup4\n      sload\n      div\n      mul\n      dup4\n      mstore\n      swap2\n      0x20\n      add\n      swap2\n      jump(tag_76)\n    tag_77:\n      dup3\n      add\n      swap2\n      swap1\n      0x00\n      mstore\n      keccak256(0x00, 0x20)\n      swap1\n    tag_78:\n      dup2\n      sload\n      dup2\n      mstore\n      swap1\n      0x01\n      add\n      swap1\n      0x20\n      add\n      dup1\n      dup4\n      gt\n      tag_78\n      jumpi\n      dup3\n      swap1\n      sub\n      0x1f\n      and\n      dup3\n      add\n      swap2\n    tag_76:\n      pop\n      pop\n      pop\n      pop\n      pop\n      dup2\n      mstore\n      0x20\n      add\n      0x01\n      dup3\n      add\n      dup1\n      sload\n      tag_79\n      swap1\n      tag_74\n      jump\t// in\n    tag_79:\n      dup1\n      0x1f\n      add\n      0x20\n      dup1\n      swap2\n      div\n      mul\n      0x20\n      add\n      mload(0x40)\n      swap1\n      dup2\n      add\n      0x40\n      mstore\n      dup1\n      swap3\n      swap2\n      swap1\n      dup2\n      dup2\n      mstore\n      0x20\n      add\n      dup3\n      dup1\n      sload\n      tag_80\n      swap1\n      tag_74\n      jump\t// in\n    tag_80:\n      dup1\n      iszero\n      tag_81\n      jumpi\n      dup1\n      0x1f\n      lt\n      tag_82\n      jumpi\n      0x0100\n      dup1\n      dup4\n      sload\n      div\n      mul\n      dup4\n      mstore\n      swap2\n      0x20\n      add\n      swap2\n      jump(tag_81)\n    tag_82:\n      dup3\n      add\n      swap2\n      swap1\n      0x00\n      mstore\n      keccak256(0x00, 0x20)\n      swap1\n    tag_83:\n      dup2\n      sload\n      dup2\n      mstore\n      swap1\n      0x01\n      add\n      swap1\n      0x20\n      add\n      dup1\n      dup4\n      gt\n      tag_83\n      jumpi\n      dup3\n      swap1\n      sub\n      0x1f\n      and\n      dup3\n      add\n      swap2\n    tag_81:\n      pop\n      pop\n      pop\n      pop\n      pop\n      dup2\n      mstore\n      0x20\n      add\n      0x02\n      dup3\n      add\n      sload\n      dup2\n      mstore\n      0x20\n      add\n      0x03\n      dup3\n      add\n      sload\n      dup2\n      mstore\n      0x20\n      add\n      0x04\n      dup3\n      add\n      0x00\n      swap1\n      sload\n      swap1\n      0x0100\n      exp\n      swap1\n      div\n      0xff\n      and\n      iszero\n      iszero\n      iszero\n      iszero\n      dup2\n      mstore\n      pop\n      pop\n      swap1\n      pop\n        /* \"BookStore.sol\":3219:3223  book */\n      dup1\n        /* \"BookStore.sol\":3219:3229  book.title */\n      0x00\n      add\n      mload\n        /* \"BookStore.sol\":3231:3235  book */\n      dup2\n        /* \"BookStore.sol\":3231:3242  book.author */\n      0x20\n      add\n      mload\n        /* \"BookStore.sol\":3244:3248  book */\n      dup3\n        /* \"BookStore.sol\":3244:3254  book.price */\n      0x40\n      add\n      mload\n        /* \"BookStore.sol\":3256:3260  book */\n      dup4\n        /* \"BookStore.sol\":3256:3266  book.stock */\n      0x60\n      add\n      mload\n        /* \"BookStore.sol\":3268:3272  book */\n      dup5\n        /* \"BookStore.sol\":3268:3284  book.isAvailable */\n      0x80\n      add\n      mload\n        /* \"BookStore.sol\":3211:3285  return (book.title, book.author, book.price, book.stock, book.isAvailable) */\n      swap6\n      pop\n      swap6\n      pop\n      swap6\n      pop\n      swap6\n      pop\n      swap6\n      pop\n      pop\n        /* \"BookStore.sol\":3048:3292  function getBooks(uint256 _bookId) public view returns (string memory, string memory, uint256, uint256, bool) {... */\n      swap2\n      swap4\n      swap6\n      swap1\n      swap3\n      swap5\n      pop\n      jump\t// out\n        /* \"BookStore.sol\":1865:1902  mapping(uint256 => Book) public books */\n    tag_37:\n      mstore(0x20, 0x01)\n      dup1\n      0x00\n      mstore\n      keccak256(0x00, 0x40)\n      0x00\n      swap2\n      pop\n      swap1\n      pop\n      dup1\n      0x00\n      add\n      dup1\n      sload\n      tag_84\n      swap1\n      tag_74\n      jump\t// in\n    tag_84:\n      dup1\n      0x1f\n      add\n      0x20\n      dup1\n      swap2\n      div\n      mul\n      0x20\n      add\n      mload(0x40)\n      swap1\n      dup2\n      add\n      0x40\n      mstore\n      dup1\n      swap3\n      swap2\n      swap1\n      dup2\n      dup2\n      mstore\n      0x20\n      add\n      dup3\n      dup1\n      sload\n      tag_85\n      swap1\n      tag_74\n      jump\t// in\n    tag_85:\n      dup1\n      iszero\n      tag_86\n      jumpi\n      dup1\n      0x1f\n      lt\n      tag_87\n      jumpi\n      0x0100\n      dup1\n      dup4\n      sload\n      div\n      mul\n      dup4\n      mstore\n      swap2\n      0x20\n      add\n      swap2\n      jump(tag_86)\n    tag_87:\n      dup3\n      add\n      swap2\n      swap1\n      0x00\n      mstore\n      keccak256(0x00, 0x20)\n      swap1\n    tag_88:\n      dup2\n      sload\n      dup2\n      mstore\n      swap1\n      0x01\n      add\n      swap1\n      0x20\n      add\n      dup1\n      dup4\n      gt\n      tag_88\n      jumpi\n      dup3\n      swap1\n      sub\n      0x1f\n      and\n      dup3\n      add\n      swap2\n    tag_86:\n      pop\n      pop\n      pop\n      pop\n      pop\n      swap1\n      dup1\n      0x01\n      add\n      dup1\n      sload\n      tag_89\n      swap1\n      tag_74\n      jump\t// in\n    tag_89:\n      dup1\n      0x1f\n      add\n      0x20\n      dup1\n      swap2\n      div\n      mul\n      0x20\n      add\n      mload(0x40)\n      swap1\n      dup2\n      add\n      0x40\n      mstore\n      dup1\n      swap3\n      swap2\n      swap1\n      dup2\n      dup2\n      mstore\n      0x20\n      add\n      dup3\n      dup1\n      sload\n      tag_90\n      swap1\n      tag_74\n      jump\t// in\n    tag_90:\n      dup1\n      iszero\n      tag_91\n      jumpi\n      dup1\n      0x1f\n      lt\n      tag_92\n      jumpi\n      0x0100\n      dup1\n      dup4\n      sload\n      div\n      mul\n      dup4\n      mstore\n      swap2\n      0x20\n      add\n      swap2\n      jump(tag_91)\n    tag_92:\n      dup3\n      add\n      swap2\n      swap1\n      0x00\n      mstore\n      keccak256(0x00, 0x20)\n      swap1\n    tag_93:\n      dup2\n      sload\n      dup2\n      mstore\n      swap1\n      0x01\n      add\n      swap1\n      0x20\n      add\n      dup1\n      dup4\n      gt\n      tag_93\n      jumpi\n      dup3\n      swap1\n      sub\n      0x1f\n      and\n      dup3\n      add\n      swap2\n    tag_91:\n      pop\n      pop\n      pop\n      pop\n      pop\n      swap1\n      dup1\n      0x02\n      add\n      sload\n      swap1\n      dup1\n      0x03\n      add\n      sload\n      swap1\n      dup1\n      0x04\n      add\n      0x00\n      swap1\n      sload\n      swap1\n      0x0100\n      exp\n      swap1\n      div\n      0xff\n      and\n      swap1\n      pop\n      dup6\n      jump\t// out\n        /* \"@openzeppelin/contracts/access/Ownable.sol\":2293:2394  function renounceOwnership() public virtual onlyOwner {... */\n    tag_41:\n        /* \"@openzeppelin/contracts/access/Ownable.sol\":1531:1544  _checkOwner() */\n      tag_95\n        /* \"@openzeppelin/contracts/access/Ownable.sol\":1531:1542  _checkOwner */\n      tag_96\n        /* \"@openzeppelin/contracts/access/Ownable.sol\":1531:1544  _checkOwner() */\n      jump\t// in\n    tag_95:\n        /* \"@openzeppelin/contracts/access/Ownable.sol\":2357:2387  _transferOwnership(address(0)) */\n      tag_98\n        /* \"@openzeppelin/contracts/access/Ownable.sol\":2384:2385  0 */\n      0x00\n        /* \"@openzeppelin/contracts/access/Ownable.sol\":2357:2375  _transferOwnership */\n      tag_99\n        /* \"@openzeppelin/contracts/access/Ownable.sol\":2357:2387  _transferOwnership(address(0)) */\n      jump\t// in\n    tag_98:\n        /* \"@openzeppelin/contracts/access/Ownable.sol\":2293:2394  function renounceOwnership() public virtual onlyOwner {... */\n      jump\t// out\n        /* \"BookStore.sol\":1991:2023  address[] public  subscriberList */\n    tag_45:\n      0x04\n      dup2\n      dup2\n      sload\n      dup2\n      lt\n      tag_100\n      jumpi\n      0x00\n      dup1\n      revert\n    tag_100:\n      swap1\n      0x00\n      mstore\n      keccak256(0x00, 0x20)\n      add\n      0x00\n      swap2\n      pop\n      sload\n      swap1\n      0x0100\n      exp\n      swap1\n      div\n      0xffffffffffffffffffffffffffffffffffffffff\n      and\n      dup2\n      jump\t// out\n        /* \"BookStore.sol\":3846:4237  function confirmPurchase(uint256 _bookId, uint256 _quantity)public onlyOwner{... */\n    tag_52:\n        /* \"@openzeppelin/contracts/access/Ownable.sol\":1531:1544  _checkOwner() */\n      tag_103\n        /* \"@openzeppelin/contracts/access/Ownable.sol\":1531:1542  _checkOwner */\n      tag_96\n        /* \"@openzeppelin/contracts/access/Ownable.sol\":1531:1544  _checkOwner() */\n      jump\t// in\n    tag_103:\n        /* \"BookStore.sol\":3932:3949  Book storage book */\n      0x00\n        /* \"BookStore.sol\":3952:3957  books */\n      0x01\n        /* \"BookStore.sol\":3952:3966  books[_bookId] */\n      0x00\n        /* \"BookStore.sol\":3958:3965  _bookId */\n      dup5\n        /* \"BookStore.sol\":3952:3966  books[_bookId] */\n      dup2\n      mstore\n      0x20\n      add\n      swap1\n      dup2\n      mstore\n      0x20\n      add\n      0x00\n      keccak256\n        /* \"BookStore.sol\":3932:3966  Book storage book = books[_bookId] */\n      swap1\n      pop\n        /* \"BookStore.sol\":3998:4007  _quantity */\n      dup2\n        /* \"BookStore.sol\":3984:3988  book */\n      dup2\n        /* \"BookStore.sol\":3984:3994  book.stock */\n      0x03\n      add\n      sload\n        /* \"BookStore.sol\":3984:4007  book.stock >= _quantity */\n      lt\n      iszero\n        /* \"BookStore.sol\":3976:4048  require(book.stock >= _quantity,\"not enought stock to confirm purchase\") */\n      tag_105\n      jumpi\n      mload(0x40)\n      0x08c379a000000000000000000000000000000000000000000000000000000000\n      dup2\n      mstore\n      0x04\n      add\n      tag_106\n      swap1\n      tag_107\n      jump\t// in\n    tag_106:\n      mload(0x40)\n      dup1\n      swap2\n      sub\n      swap1\n      revert\n    tag_105:\n        /* \"BookStore.sol\":4079:4088  _quantity */\n      dup2\n        /* \"BookStore.sol\":4066:4070  book */\n      dup2\n        /* \"BookStore.sol\":4066:4076  book.stock */\n      0x03\n      add\n      0x00\n        /* \"BookStore.sol\":4066:4088  book.stock -=_quantity */\n      dup3\n      dup3\n      sload\n      tag_108\n      swap2\n      swap1\n      tag_109\n      jump\t// in\n    tag_108:\n      swap3\n      pop\n      pop\n      dup2\n      swap1\n      sstore\n      pop\n        /* \"BookStore.sol\":4116:4117  0 */\n      0x00\n        /* \"BookStore.sol\":4102:4106  book */\n      dup2\n        /* \"BookStore.sol\":4102:4112  book.stock */\n      0x03\n      add\n      sload\n        /* \"BookStore.sol\":4102:4117  book.stock == 0 */\n      sub\n        /* \"BookStore.sol\":4098:4167  if (book.stock == 0){... */\n      tag_110\n      jumpi\n        /* \"BookStore.sol\":4151:4156  false */\n      0x00\n        /* \"BookStore.sol\":4132:4136  book */\n      dup2\n        /* \"BookStore.sol\":4132:4148  book.isAvailable */\n      0x04\n      add\n      0x00\n        /* \"BookStore.sol\":4132:4156  book.isAvailable = false */\n      0x0100\n      exp\n      dup2\n      sload\n      dup2\n      0xff\n      mul\n      not\n      and\n      swap1\n      dup4\n      iszero\n      iszero\n      mul\n      or\n      swap1\n      sstore\n      pop\n        /* \"BookStore.sol\":4098:4167  if (book.stock == 0){... */\n    tag_110:\n        /* \"BookStore.sol\":4208:4218  msg.sender */\n      caller\n        /* \"BookStore.sol\":4181:4230  PurchaseConfirmed(_bookId, msg.sender, _quantity) */\n      0xffffffffffffffffffffffffffffffffffffffff\n      and\n        /* \"BookStore.sol\":4199:4206  _bookId */\n      dup4\n        /* \"BookStore.sol\":4181:4230  PurchaseConfirmed(_bookId, msg.sender, _quantity) */\n      0x64d3c1cd49b6dedf0828bb9ccdeddcb5c406529c38385a4255e1938cdb77cbbb\n        /* \"BookStore.sol\":4220:4229  _quantity */\n      dup5\n        /* \"BookStore.sol\":4181:4230  PurchaseConfirmed(_bookId, msg.sender, _quantity) */\n      mload(0x40)\n      tag_111\n      swap2\n      swap1\n      tag_20\n      jump\t// in\n    tag_111:\n      mload(0x40)\n      dup1\n      swap2\n      sub\n      swap1\n      log3\n        /* \"BookStore.sol\":3922:4237  {... */\n      pop\n        /* \"BookStore.sol\":3846:4237  function confirmPurchase(uint256 _bookId, uint256 _quantity)public onlyOwner{... */\n      pop\n      pop\n      jump\t// out\n        /* \"@openzeppelin/contracts/access/Ownable.sol\":1638:1723  function owner() public view virtual returns (address) {... */\n    tag_55:\n        /* \"@openzeppelin/contracts/access/Ownable.sol\":1684:1691  address */\n      0x00\n        /* \"@openzeppelin/contracts/access/Ownable.sol\":1710:1716  _owner */\n      dup1\n      0x00\n      swap1\n      sload\n      swap1\n      0x0100\n      exp\n      swap1\n      div\n      0xffffffffffffffffffffffffffffffffffffffff\n      and\n        /* \"@openzeppelin/contracts/access/Ownable.sol\":1703:1716  return _owner */\n      swap1\n      pop\n        /* \"@openzeppelin/contracts/access/Ownable.sol\":1638:1723  function owner() public view virtual returns (address) {... */\n      swap1\n      jump\t// out\n        /* \"@openzeppelin/contracts/access/Ownable.sol\":2543:2758  function transferOwnership(address newOwner) public virtual onlyOwner {... */\n    tag_60:\n        /* \"@openzeppelin/contracts/access/Ownable.sol\":1531:1544  _checkOwner() */\n      tag_114\n        /* \"@openzeppelin/contracts/access/Ownable.sol\":1531:1542  _checkOwner */\n      tag_96\n        /* \"@openzeppelin/contracts/access/Ownable.sol\":1531:1544  _checkOwner() */\n      jump\t// in\n    tag_114:\n        /* \"@openzeppelin/contracts/access/Ownable.sol\":2647:2648  0 */\n      0x00\n        /* \"@openzeppelin/contracts/access/Ownable.sol\":2627:2649  newOwner == address(0) */\n      0xffffffffffffffffffffffffffffffffffffffff\n      and\n        /* \"@openzeppelin/contracts/access/Ownable.sol\":2627:2635  newOwner */\n      dup2\n        /* \"@openzeppelin/contracts/access/Ownable.sol\":2627:2649  newOwner == address(0) */\n      0xffffffffffffffffffffffffffffffffffffffff\n      and\n      sub\n        /* \"@openzeppelin/contracts/access/Ownable.sol\":2623:2714  if (newOwner == address(0)) {... */\n      tag_116\n      jumpi\n        /* \"@openzeppelin/contracts/access/Ownable.sol\":2700:2701  0 */\n      0x00\n        /* \"@openzeppelin/contracts/access/Ownable.sol\":2672:2703  OwnableInvalidOwner(address(0)) */\n      mload(0x40)\n      0x1e4fbdf700000000000000000000000000000000000000000000000000000000\n      dup2\n      mstore\n      0x04\n      add\n      tag_117\n      swap2\n      swap1\n      tag_47\n      jump\t// in\n    tag_117:\n      mload(0x40)\n      dup1\n      swap2\n      sub\n      swap1\n      revert\n        /* \"@openzeppelin/contracts/access/Ownable.sol\":2623:2714  if (newOwner == address(0)) {... */\n    tag_116:\n        /* \"@openzeppelin/contracts/access/Ownable.sol\":2723:2751  _transferOwnership(newOwner) */\n      tag_118\n        /* \"@openzeppelin/contracts/access/Ownable.sol\":2742:2750  newOwner */\n      dup2\n        /* \"@openzeppelin/contracts/access/Ownable.sol\":2723:2741  _transferOwnership */\n      tag_99\n        /* \"@openzeppelin/contracts/access/Ownable.sol\":2723:2751  _transferOwnership(newOwner) */\n      jump\t// in\n    tag_118:\n        /* \"@openzeppelin/contracts/access/Ownable.sol\":2543:2758  function transferOwnership(address newOwner) public virtual onlyOwner {... */\n      pop\n      jump\t// out\n        /* \"BookStore.sol\":3298:3841  function buyBook(uint256 _bookId, uint256 _quantity, uint256 _amount) public payable {... */\n    tag_64:\n        /* \"BookStore.sol\":3393:3410  Book storage book */\n      0x00\n        /* \"BookStore.sol\":3413:3418  books */\n      0x01\n        /* \"BookStore.sol\":3413:3427  books[_bookId] */\n      0x00\n        /* \"BookStore.sol\":3419:3426  _bookId */\n      dup6\n        /* \"BookStore.sol\":3413:3427  books[_bookId] */\n      dup2\n      mstore\n      0x20\n      add\n      swap1\n      dup2\n      mstore\n      0x20\n      add\n      0x00\n      keccak256\n        /* \"BookStore.sol\":3393:3427  Book storage book = books[_bookId] */\n      swap1\n      pop\n        /* \"BookStore.sol\":3445:3449  book */\n      dup1\n        /* \"BookStore.sol\":3445:3461  book.isAvailable */\n      0x04\n      add\n      0x00\n      swap1\n      sload\n      swap1\n      0x0100\n      exp\n      swap1\n      div\n      0xff\n      and\n        /* \"BookStore.sol\":3437:3493  require(book.isAvailable, \"This book is not available.\") */\n      tag_120\n      jumpi\n      mload(0x40)\n      0x08c379a000000000000000000000000000000000000000000000000000000000\n      dup2\n      mstore\n      0x04\n      add\n      tag_121\n      swap1\n      tag_122\n      jump\t// in\n    tag_121:\n      mload(0x40)\n      dup1\n      swap2\n      sub\n      swap1\n      revert\n    tag_120:\n        /* \"BookStore.sol\":3525:3534  _quantity */\n      dup3\n        /* \"BookStore.sol\":3511:3515  book */\n      dup2\n        /* \"BookStore.sol\":3511:3521  book.stock */\n      0x03\n      add\n      sload\n        /* \"BookStore.sol\":3511:3534  book.stock >= _quantity */\n      lt\n      iszero\n        /* \"BookStore.sol\":3503:3566  require(book.stock >= _quantity, \"Not enough stock available.\") */\n      tag_123\n      jumpi\n      mload(0x40)\n      0x08c379a000000000000000000000000000000000000000000000000000000000\n      dup2\n      mstore\n      0x04\n      add\n      tag_124\n      swap1\n      tag_125\n      jump\t// in\n    tag_124:\n      mload(0x40)\n      dup1\n      swap2\n      sub\n      swap1\n      revert\n    tag_123:\n        /* \"BookStore.sol\":3576:3591  uint totalPrice */\n      0x00\n        /* \"BookStore.sol\":3607:3616  _quantity */\n      dup4\n        /* \"BookStore.sol\":3594:3598  book */\n      dup3\n        /* \"BookStore.sol\":3594:3604  book.price */\n      0x02\n      add\n      sload\n        /* \"BookStore.sol\":3594:3616  book.price * _quantity */\n      tag_126\n      swap2\n      swap1\n      tag_127\n      jump\t// in\n    tag_126:\n        /* \"BookStore.sol\":3576:3616  uint totalPrice = book.price * _quantity */\n      swap1\n      pop\n        /* \"BookStore.sol\":3648:3658  totalPrice */\n      dup1\n        /* \"BookStore.sol\":3635:3644  msg.value */\n      callvalue\n        /* \"BookStore.sol\":3635:3658  msg.value == totalPrice */\n      eq\n        /* \"BookStore.sol\":3627:3688  require(msg.value == totalPrice, \" Incorrect payment amount\") */\n      tag_128\n      jumpi\n      mload(0x40)\n      0x08c379a000000000000000000000000000000000000000000000000000000000\n      dup2\n      mstore\n      0x04\n      add\n      tag_129\n      swap1\n      tag_130\n      jump\t// in\n    tag_129:\n      mload(0x40)\n      dup1\n      swap2\n      sub\n      swap1\n      revert\n    tag_128:\n        /* \"BookStore.sol\":3812:3822  msg.sender */\n      caller\n        /* \"BookStore.sol\":3785:3834  PurchaseInitiated(_bookId, msg.sender, _quantity) */\n      0xffffffffffffffffffffffffffffffffffffffff\n      and\n        /* \"BookStore.sol\":3803:3810  _bookId */\n      dup6\n        /* \"BookStore.sol\":3785:3834  PurchaseInitiated(_bookId, msg.sender, _quantity) */\n      0x6c8d68b838f247ed7bcb21ea277e2e9304099fc25d2a89d666fb64482971e0fc\n        /* \"BookStore.sol\":3824:3833  _quantity */\n      dup7\n        /* \"BookStore.sol\":3785:3834  PurchaseInitiated(_bookId, msg.sender, _quantity) */\n      mload(0x40)\n      tag_131\n      swap2\n      swap1\n      tag_20\n      jump\t// in\n    tag_131:\n      mload(0x40)\n      dup1\n      swap2\n      sub\n      swap1\n      log3\n        /* \"BookStore.sol\":3383:3841  {... */\n      pop\n      pop\n        /* \"BookStore.sol\":3298:3841  function buyBook(uint256 _bookId, uint256 _quantity, uint256 _amount) public payable {... */\n      pop\n      pop\n      pop\n      jump\t// out\n        /* \"BookStore.sol\":2515:3039  function addBook(uint256 _bookId, string memory _title, string memory _author, uint256 _price, uint256 _stock) public  onlyOwner{... */\n    tag_69:\n        /* \"@openzeppelin/contracts/access/Ownable.sol\":1531:1544  _checkOwner() */\n      tag_133\n        /* \"@openzeppelin/contracts/access/Ownable.sol\":1531:1542  _checkOwner */\n      tag_96\n        /* \"@openzeppelin/contracts/access/Ownable.sol\":1531:1544  _checkOwner() */\n      jump\t// in\n    tag_133:\n        /* \"BookStore.sol\":2685:2686  0 */\n      0x00\n        /* \"BookStore.sol\":2661:2666  books */\n      0x01\n        /* \"BookStore.sol\":2661:2675  books[_bookId] */\n      0x00\n        /* \"BookStore.sol\":2667:2674  _bookId */\n      dup8\n        /* \"BookStore.sol\":2661:2675  books[_bookId] */\n      dup2\n      mstore\n      0x20\n      add\n      swap1\n      dup2\n      mstore\n      0x20\n      add\n      0x00\n      keccak256\n        /* \"BookStore.sol\":2661:2681  books[_bookId].price */\n      0x02\n      add\n      sload\n        /* \"BookStore.sol\":2661:2686  books[_bookId].price == 0 */\n      eq\n        /* \"BookStore.sol\":2653:2724  require(books[_bookId].price == 0, \"Book already exists with this ID.\") */\n      tag_135\n      jumpi\n      mload(0x40)\n      0x08c379a000000000000000000000000000000000000000000000000000000000\n      dup2\n      mstore\n      0x04\n      add\n      tag_136\n      swap1\n      tag_137\n      jump\t// in\n    tag_136:\n      mload(0x40)\n      dup1\n      swap2\n      sub\n      swap1\n      revert\n    tag_135:\n        /* \"BookStore.sol\":2751:2914  Book({... */\n      mload(0x40)\n      dup1\n      0xa0\n      add\n      0x40\n      mstore\n      dup1\n        /* \"BookStore.sol\":2777:2783  _title */\n      dup6\n        /* \"BookStore.sol\":2751:2914  Book({... */\n      dup2\n      mstore\n      0x20\n      add\n        /* \"BookStore.sol\":2805:2812  _author */\n      dup5\n        /* \"BookStore.sol\":2751:2914  Book({... */\n      dup2\n      mstore\n      0x20\n      add\n        /* \"BookStore.sol\":2833:2839  _price */\n      dup4\n        /* \"BookStore.sol\":2751:2914  Book({... */\n      dup2\n      mstore\n      0x20\n      add\n        /* \"BookStore.sol\":2860:2866  _stock */\n      dup3\n        /* \"BookStore.sol\":2751:2914  Book({... */\n      dup2\n      mstore\n      0x20\n      add\n        /* \"BookStore.sol\":2902:2903  0 */\n      0x00\n        /* \"BookStore.sol\":2893:2899  _stock */\n      dup4\n        /* \"BookStore.sol\":2893:2903  _stock > 0 */\n      gt\n        /* \"BookStore.sol\":2751:2914  Book({... */\n      iszero\n      iszero\n      dup2\n      mstore\n      pop\n        /* \"BookStore.sol\":2734:2739  books */\n      0x01\n        /* \"BookStore.sol\":2734:2748  books[_bookId] */\n      0x00\n        /* \"BookStore.sol\":2740:2747  _bookId */\n      dup8\n        /* \"BookStore.sol\":2734:2748  books[_bookId] */\n      dup2\n      mstore\n      0x20\n      add\n      swap1\n      dup2\n      mstore\n      0x20\n      add\n      0x00\n      keccak256\n        /* \"BookStore.sol\":2734:2914  books[_bookId] = Book({... */\n      0x00\n      dup3\n      add\n      mload\n      dup2\n      0x00\n      add\n      swap1\n      dup2\n      tag_138\n      swap2\n      swap1\n      tag_139\n      jump\t// in\n    tag_138:\n      pop\n      0x20\n      dup3\n      add\n      mload\n      dup2\n      0x01\n      add\n      swap1\n      dup2\n      tag_140\n      swap2\n      swap1\n      tag_139\n      jump\t// in\n    tag_140:\n      pop\n      0x40\n      dup3\n      add\n      mload\n      dup2\n      0x02\n      add\n      sstore\n      0x60\n      dup3\n      add\n      mload\n      dup2\n      0x03\n      add\n      sstore\n      0x80\n      dup3\n      add\n      mload\n      dup2\n      0x04\n      add\n      exp(0x0100, 0x00)\n      dup2\n      sload\n      dup2\n      0xff\n      mul\n      not\n      and\n      swap1\n      dup4\n      iszero\n      iszero\n      mul\n      or\n      swap1\n      sstore\n      pop\n      swap1\n      pop\n      pop\n        /* \"BookStore.sol\":2924:2931  bookIds */\n      0x03\n        /* \"BookStore.sol\":2937:2944  _bookId */\n      dup6\n        /* \"BookStore.sol\":2924:2945  bookIds.push(_bookId) */\n      swap1\n      dup1\n      0x01\n      dup2\n      sload\n      add\n      dup1\n      dup3\n      sstore\n      dup1\n      swap2\n      pop\n      pop\n      0x01\n      swap1\n      sub\n      swap1\n      0x00\n      mstore\n      keccak256(0x00, 0x20)\n      add\n      0x00\n      swap1\n      swap2\n      swap1\n      swap2\n      swap1\n      swap2\n      pop\n      sstore\n        /* \"BookStore.sol\":2991:2998  _bookId */\n      dup5\n        /* \"BookStore.sol\":2981:3032  BookAdded(_bookId, _title, _author, _price, _stock) */\n      0x722c04650224f771c04ec5712c74689980b3ddb4eaa233cd8f9c72d7da7fbe29\n        /* \"BookStore.sol\":3000:3006  _title */\n      dup6\n        /* \"BookStore.sol\":3008:3015  _author */\n      dup6\n        /* \"BookStore.sol\":3017:3023  _price */\n      dup6\n        /* \"BookStore.sol\":3025:3031  _stock */\n      dup6\n        /* \"BookStore.sol\":2981:3032  BookAdded(_bookId, _title, _author, _price, _stock) */\n      mload(0x40)\n      tag_142\n      swap5\n      swap4\n      swap3\n      swap2\n      swap1\n      tag_143\n      jump\t// in\n    tag_142:\n      mload(0x40)\n      dup1\n      swap2\n      sub\n      swap1\n      log2\n        /* \"BookStore.sol\":2515:3039  function addBook(uint256 _bookId, string memory _title, string memory _author, uint256 _price, uint256 _stock) public  onlyOwner{... */\n      pop\n      pop\n      pop\n      pop\n      pop\n      jump\t// out\n        /* \"@openzeppelin/contracts/access/Ownable.sol\":1796:1958  function _checkOwner() internal view virtual {... */\n    tag_96:\n        /* \"@openzeppelin/contracts/access/Ownable.sol\":1866:1878  _msgSender() */\n      tag_145\n        /* \"@openzeppelin/contracts/access/Ownable.sol\":1866:1876  _msgSender */\n      tag_146\n        /* \"@openzeppelin/contracts/access/Ownable.sol\":1866:1878  _msgSender() */\n      jump\t// in\n    tag_145:\n        /* \"@openzeppelin/contracts/access/Ownable.sol\":1855:1878  owner() != _msgSender() */\n      0xffffffffffffffffffffffffffffffffffffffff\n      and\n        /* \"@openzeppelin/contracts/access/Ownable.sol\":1855:1862  owner() */\n      tag_147\n        /* \"@openzeppelin/contracts/access/Ownable.sol\":1855:1860  owner */\n      tag_55\n        /* \"@openzeppelin/contracts/access/Ownable.sol\":1855:1862  owner() */\n      jump\t// in\n    tag_147:\n        /* \"@openzeppelin/contracts/access/Ownable.sol\":1855:1878  owner() != _msgSender() */\n      0xffffffffffffffffffffffffffffffffffffffff\n      and\n      eq\n        /* \"@openzeppelin/contracts/access/Ownable.sol\":1851:1952  if (owner() != _msgSender()) {... */\n      tag_148\n      jumpi\n        /* \"@openzeppelin/contracts/access/Ownable.sol\":1928:1940  _msgSender() */\n      tag_149\n        /* \"@openzeppelin/contracts/access/Ownable.sol\":1928:1938  _msgSender */\n      tag_146\n        /* \"@openzeppelin/contracts/access/Ownable.sol\":1928:1940  _msgSender() */\n      jump\t// in\n    tag_149:\n        /* \"@openzeppelin/contracts/access/Ownable.sol\":1901:1941  OwnableUnauthorizedAccount(_msgSender()) */\n      mload(0x40)\n      0x118cdaa700000000000000000000000000000000000000000000000000000000\n      dup2\n      mstore\n      0x04\n      add\n      tag_150\n      swap2\n      swap1\n      tag_47\n      jump\t// in\n    tag_150:\n      mload(0x40)\n      dup1\n      swap2\n      sub\n      swap1\n      revert\n        /* \"@openzeppelin/contracts/access/Ownable.sol\":1851:1952  if (owner() != _msgSender()) {... */\n    tag_148:\n        /* \"@openzeppelin/contracts/access/Ownable.sol\":1796:1958  function _checkOwner() internal view virtual {... */\n      jump\t// out\n        /* \"@openzeppelin/contracts/access/Ownable.sol\":2912:3099  function _transferOwnership(address newOwner) internal virtual {... */\n    tag_99:\n        /* \"@openzeppelin/contracts/access/Ownable.sol\":2985:3001  address oldOwner */\n      0x00\n        /* \"@openzeppelin/contracts/access/Ownable.sol\":3004:3010  _owner */\n      dup1\n      0x00\n      swap1\n      sload\n      swap1\n      0x0100\n      exp\n      swap1\n      div\n      0xffffffffffffffffffffffffffffffffffffffff\n      and\n        /* \"@openzeppelin/contracts/access/Ownable.sol\":2985:3010  address oldOwner = _owner */\n      swap1\n      pop\n        /* \"@openzeppelin/contracts/access/Ownable.sol\":3029:3037  newOwner */\n      dup2\n        /* \"@openzeppelin/contracts/access/Ownable.sol\":3020:3026  _owner */\n      0x00\n      dup1\n        /* \"@openzeppelin/contracts/access/Ownable.sol\":3020:3037  _owner = newOwner */\n      0x0100\n      exp\n      dup2\n      sload\n      dup2\n      0xffffffffffffffffffffffffffffffffffffffff\n      mul\n      not\n      and\n      swap1\n      dup4\n      0xffffffffffffffffffffffffffffffffffffffff\n      and\n      mul\n      or\n      swap1\n      sstore\n      pop\n        /* \"@openzeppelin/contracts/access/Ownable.sol\":3083:3091  newOwner */\n      dup2\n        /* \"@openzeppelin/contracts/access/Ownable.sol\":3052:3092  OwnershipTransferred(oldOwner, newOwner) */\n      0xffffffffffffffffffffffffffffffffffffffff\n      and\n        /* \"@openzeppelin/contracts/access/Ownable.sol\":3073:3081  oldOwner */\n      dup2\n        /* \"@openzeppelin/contracts/access/Ownable.sol\":3052:3092  OwnershipTransferred(oldOwner, newOwner) */\n      0xffffffffffffffffffffffffffffffffffffffff\n      and\n      0x8be0079c531659141344cd1fd0a4f28419497f9722a3daafe3b4186f6b6457e0\n      mload(0x40)\n      mload(0x40)\n      dup1\n      swap2\n      sub\n      swap1\n      log3\n        /* \"@openzeppelin/contracts/access/Ownable.sol\":2975:3099  {... */\n      pop\n        /* \"@openzeppelin/contracts/access/Ownable.sol\":2912:3099  function _transferOwnership(address newOwner) internal virtual {... */\n      pop\n      jump\t// out\n        /* \"@openzeppelin/contracts/utils/Context.sol\":656:752  function _msgSender() internal view virtual returns (address) {... */\n    tag_146:\n        /* \"@openzeppelin/contracts/utils/Context.sol\":709:716  address */\n      0x00\n        /* \"@openzeppelin/contracts/utils/Context.sol\":735:745  msg.sender */\n      caller\n        /* \"@openzeppelin/contracts/utils/Context.sol\":728:745  return msg.sender */\n      swap1\n      pop\n        /* \"@openzeppelin/contracts/utils/Context.sol\":656:752  function _msgSender() internal view virtual returns (address) {... */\n      swap1\n      jump\t// out\n        /* \"#utility.yul\":7:82   */\n    tag_153:\n        /* \"#utility.yul\":40:46   */\n      0x00\n        /* \"#utility.yul\":73:75   */\n      0x40\n        /* \"#utility.yul\":67:76   */\n      mload\n        /* \"#utility.yul\":57:76   */\n      swap1\n      pop\n        /* \"#utility.yul\":7:82   */\n      swap1\n      jump\t// out\n        /* \"#utility.yul\":88:205   */\n    tag_154:\n        /* \"#utility.yul\":197:198   */\n      0x00\n        /* \"#utility.yul\":194:195   */\n      dup1\n        /* \"#utility.yul\":187:199   */\n      revert\n        /* \"#utility.yul\":211:328   */\n    tag_155:\n        /* \"#utility.yul\":320:321   */\n      0x00\n        /* \"#utility.yul\":317:318   */\n      dup1\n        /* \"#utility.yul\":310:322   */\n      revert\n        /* \"#utility.yul\":334:411   */\n    tag_156:\n        /* \"#utility.yul\":371:378   */\n      0x00\n        /* \"#utility.yul\":400:405   */\n      dup2\n        /* \"#utility.yul\":389:405   */\n      swap1\n      pop\n        /* \"#utility.yul\":334:411   */\n      swap2\n      swap1\n      pop\n      jump\t// out\n        /* \"#utility.yul\":417:539   */\n    tag_157:\n        /* \"#utility.yul\":490:514   */\n      tag_214\n        /* \"#utility.yul\":508:513   */\n      dup2\n        /* \"#utility.yul\":490:514   */\n      tag_156\n      jump\t// in\n    tag_214:\n        /* \"#utility.yul\":483:488   */\n      dup2\n        /* \"#utility.yul\":480:515   */\n      eq\n        /* \"#utility.yul\":470:533   */\n      tag_215\n      jumpi\n        /* \"#utility.yul\":529:530   */\n      0x00\n        /* \"#utility.yul\":526:527   */\n      dup1\n        /* \"#utility.yul\":519:531   */\n      revert\n        /* \"#utility.yul\":470:533   */\n    tag_215:\n        /* \"#utility.yul\":417:539   */\n      pop\n      jump\t// out\n        /* \"#utility.yul\":545:684   */\n    tag_158:\n        /* \"#utility.yul\":591:596   */\n      0x00\n        /* \"#utility.yul\":629:635   */\n      dup2\n        /* \"#utility.yul\":616:636   */\n      calldataload\n        /* \"#utility.yul\":607:636   */\n      swap1\n      pop\n        /* \"#utility.yul\":645:678   */\n      tag_217\n        /* \"#utility.yul\":672:677   */\n      dup2\n        /* \"#utility.yul\":645:678   */\n      tag_157\n      jump\t// in\n    tag_217:\n        /* \"#utility.yul\":545:684   */\n      swap3\n      swap2\n      pop\n      pop\n      jump\t// out\n        /* \"#utility.yul\":690:1019   */\n    tag_17:\n        /* \"#utility.yul\":749:755   */\n      0x00\n        /* \"#utility.yul\":798:800   */\n      0x20\n        /* \"#utility.yul\":786:795   */\n      dup3\n        /* \"#utility.yul\":777:784   */\n      dup5\n        /* \"#utility.yul\":773:796   */\n      sub\n        /* \"#utility.yul\":769:801   */\n      slt\n        /* \"#utility.yul\":766:885   */\n      iszero\n      tag_219\n      jumpi\n        /* \"#utility.yul\":804:883   */\n      tag_220\n      tag_154\n      jump\t// in\n    tag_220:\n        /* \"#utility.yul\":766:885   */\n    tag_219:\n        /* \"#utility.yul\":924:925   */\n      0x00\n        /* \"#utility.yul\":949:1002   */\n      tag_221\n        /* \"#utility.yul\":994:1001   */\n      dup5\n        /* \"#utility.yul\":985:991   */\n      dup3\n        /* \"#utility.yul\":974:983   */\n      dup6\n        /* \"#utility.yul\":970:992   */\n      add\n        /* \"#utility.yul\":949:1002   */\n      tag_158\n      jump\t// in\n    tag_221:\n        /* \"#utility.yul\":939:1002   */\n      swap2\n      pop\n        /* \"#utility.yul\":895:1012   */\n      pop\n        /* \"#utility.yul\":690:1019   */\n      swap3\n      swap2\n      pop\n      pop\n      jump\t// out\n        /* \"#utility.yul\":1025:1143   */\n    tag_159:\n        /* \"#utility.yul\":1112:1136   */\n      tag_223\n        /* \"#utility.yul\":1130:1135   */\n      dup2\n        /* \"#utility.yul\":1112:1136   */\n      tag_156\n      jump\t// in\n    tag_223:\n        /* \"#utility.yul\":1107:1110   */\n      dup3\n        /* \"#utility.yul\":1100:1137   */\n      mstore\n        /* \"#utility.yul\":1025:1143   */\n      pop\n      pop\n      jump\t// out\n        /* \"#utility.yul\":1149:1371   */\n    tag_20:\n        /* \"#utility.yul\":1242:1246   */\n      0x00\n        /* \"#utility.yul\":1280:1282   */\n      0x20\n        /* \"#utility.yul\":1269:1278   */\n      dup3\n        /* \"#utility.yul\":1265:1283   */\n      add\n        /* \"#utility.yul\":1257:1283   */\n      swap1\n      pop\n        /* \"#utility.yul\":1293:1364   */\n      tag_225\n        /* \"#utility.yul\":1361:1362   */\n      0x00\n        /* \"#utility.yul\":1350:1359   */\n      dup4\n        /* \"#utility.yul\":1346:1363   */\n      add\n        /* \"#utility.yul\":1337:1343   */\n      dup5\n        /* \"#utility.yul\":1293:1364   */\n      tag_159\n      jump\t// in\n    tag_225:\n        /* \"#utility.yul\":1149:1371   */\n      swap3\n      swap2\n      pop\n      pop\n      jump\t// out\n        /* \"#utility.yul\":1377:1503   */\n    tag_160:\n        /* \"#utility.yul\":1414:1421   */\n      0x00\n        /* \"#utility.yul\":1454:1496   */\n      0xffffffffffffffffffffffffffffffffffffffff\n        /* \"#utility.yul\":1447:1452   */\n      dup3\n        /* \"#utility.yul\":1443:1497   */\n      and\n        /* \"#utility.yul\":1432:1497   */\n      swap1\n      pop\n        /* \"#utility.yul\":1377:1503   */\n      swap2\n      swap1\n      pop\n      jump\t// out\n        /* \"#utility.yul\":1509:1605   */\n    tag_161:\n        /* \"#utility.yul\":1546:1553   */\n      0x00\n        /* \"#utility.yul\":1575:1599   */\n      tag_228\n        /* \"#utility.yul\":1593:1598   */\n      dup3\n        /* \"#utility.yul\":1575:1599   */\n      tag_160\n      jump\t// in\n    tag_228:\n        /* \"#utility.yul\":1564:1599   */\n      swap1\n      pop\n        /* \"#utility.yul\":1509:1605   */\n      swap2\n      swap1\n      pop\n      jump\t// out\n        /* \"#utility.yul\":1611:1733   */\n    tag_162:\n        /* \"#utility.yul\":1684:1708   */\n      tag_230\n        /* \"#utility.yul\":1702:1707   */\n      dup2\n        /* \"#utility.yul\":1684:1708   */\n      tag_161\n      jump\t// in\n    tag_230:\n        /* \"#utility.yul\":1677:1682   */\n      dup2\n        /* \"#utility.yul\":1674:1709   */\n      eq\n        /* \"#utility.yul\":1664:1727   */\n      tag_231\n      jumpi\n        /* \"#utility.yul\":1723:1724   */\n      0x00\n        /* \"#utility.yul\":1720:1721   */\n      dup1\n        /* \"#utility.yul\":1713:1725   */\n      revert\n        /* \"#utility.yul\":1664:1727   */\n    tag_231:\n        /* \"#utility.yul\":1611:1733   */\n      pop\n      jump\t// out\n        /* \"#utility.yul\":1739:1878   */\n    tag_163:\n        /* \"#utility.yul\":1785:1790   */\n      0x00\n        /* \"#utility.yul\":1823:1829   */\n      dup2\n        /* \"#utility.yul\":1810:1830   */\n      calldataload\n        /* \"#utility.yul\":1801:1830   */\n      swap1\n      pop\n        /* \"#utility.yul\":1839:1872   */\n      tag_233\n        /* \"#utility.yul\":1866:1871   */\n      dup2\n        /* \"#utility.yul\":1839:1872   */\n      tag_162\n      jump\t// in\n    tag_233:\n        /* \"#utility.yul\":1739:1878   */\n      swap3\n      swap2\n      pop\n      pop\n      jump\t// out\n        /* \"#utility.yul\":1884:2213   */\n    tag_24:\n        /* \"#utility.yul\":1943:1949   */\n      0x00\n        /* \"#utility.yul\":1992:1994   */\n      0x20\n        /* \"#utility.yul\":1980:1989   */\n      dup3\n        /* \"#utility.yul\":1971:1978   */\n      dup5\n        /* \"#utility.yul\":1967:1990   */\n      sub\n        /* \"#utility.yul\":1963:1995   */\n      slt\n        /* \"#utility.yul\":1960:2079   */\n      iszero\n      tag_235\n      jumpi\n        /* \"#utility.yul\":1998:2077   */\n      tag_236\n      tag_154\n      jump\t// in\n    tag_236:\n        /* \"#utility.yul\":1960:2079   */\n    tag_235:\n        /* \"#utility.yul\":2118:2119   */\n      0x00\n        /* \"#utility.yul\":2143:2196   */\n      tag_237\n        /* \"#utility.yul\":2188:2195   */\n      dup5\n        /* \"#utility.yul\":2179:2185   */\n      dup3\n        /* \"#utility.yul\":2168:2177   */\n      dup6\n        /* \"#utility.yul\":2164:2186   */\n      add\n        /* \"#utility.yul\":2143:2196   */\n      tag_163\n      jump\t// in\n    tag_237:\n        /* \"#utility.yul\":2133:2196   */\n      swap2\n      pop\n        /* \"#utility.yul\":2089:2206   */\n      pop\n        /* \"#utility.yul\":1884:2213   */\n      swap3\n      swap2\n      pop\n      pop\n      jump\t// out\n        /* \"#utility.yul\":2219:2309   */\n    tag_164:\n        /* \"#utility.yul\":2253:2260   */\n      0x00\n        /* \"#utility.yul\":2296:2301   */\n      dup2\n        /* \"#utility.yul\":2289:2302   */\n      iszero\n        /* \"#utility.yul\":2282:2303   */\n      iszero\n        /* \"#utility.yul\":2271:2303   */\n      swap1\n      pop\n        /* \"#utility.yul\":2219:2309   */\n      swap2\n      swap1\n      pop\n      jump\t// out\n        /* \"#utility.yul\":2315:2424   */\n    tag_165:\n        /* \"#utility.yul\":2396:2417   */\n      tag_240\n        /* \"#utility.yul\":2411:2416   */\n      dup2\n        /* \"#utility.yul\":2396:2417   */\n      tag_164\n      jump\t// in\n    tag_240:\n        /* \"#utility.yul\":2391:2394   */\n      dup3\n        /* \"#utility.yul\":2384:2418   */\n      mstore\n        /* \"#utility.yul\":2315:2424   */\n      pop\n      pop\n      jump\t// out\n        /* \"#utility.yul\":2430:2640   */\n    tag_27:\n        /* \"#utility.yul\":2517:2521   */\n      0x00\n        /* \"#utility.yul\":2555:2557   */\n      0x20\n        /* \"#utility.yul\":2544:2553   */\n      dup3\n        /* \"#utility.yul\":2540:2558   */\n      add\n        /* \"#utility.yul\":2532:2558   */\n      swap1\n      pop\n        /* \"#utility.yul\":2568:2633   */\n      tag_242\n        /* \"#utility.yul\":2630:2631   */\n      0x00\n        /* \"#utility.yul\":2619:2628   */\n      dup4\n        /* \"#utility.yul\":2615:2632   */\n      add\n        /* \"#utility.yul\":2606:2612   */\n      dup5\n        /* \"#utility.yul\":2568:2633   */\n      tag_165\n      jump\t// in\n    tag_242:\n        /* \"#utility.yul\":2430:2640   */\n      swap3\n      swap2\n      pop\n      pop\n      jump\t// out\n        /* \"#utility.yul\":2646:2745   */\n    tag_166:\n        /* \"#utility.yul\":2698:2704   */\n      0x00\n        /* \"#utility.yul\":2732:2737   */\n      dup2\n        /* \"#utility.yul\":2726:2738   */\n      mload\n        /* \"#utility.yul\":2716:2738   */\n      swap1\n      pop\n        /* \"#utility.yul\":2646:2745   */\n      swap2\n      swap1\n      pop\n      jump\t// out\n        /* \"#utility.yul\":2751:2920   */\n    tag_167:\n        /* \"#utility.yul\":2835:2846   */\n      0x00\n        /* \"#utility.yul\":2869:2875   */\n      dup3\n        /* \"#utility.yul\":2864:2867   */\n      dup3\n        /* \"#utility.yul\":2857:2876   */\n      mstore\n        /* \"#utility.yul\":2909:2913   */\n      0x20\n        /* \"#utility.yul\":2904:2907   */\n      dup3\n        /* \"#utility.yul\":2900:2914   */\n      add\n        /* \"#utility.yul\":2885:2914   */\n      swap1\n      pop\n        /* \"#utility.yul\":2751:2920   */\n      swap3\n      swap2\n      pop\n      pop\n      jump\t// out\n        /* \"#utility.yul\":2926:3065   */\n    tag_168:\n        /* \"#utility.yul\":3015:3021   */\n      dup3\n        /* \"#utility.yul\":3010:3013   */\n      dup2\n        /* \"#utility.yul\":3005:3008   */\n      dup4\n        /* \"#utility.yul\":2999:3022   */\n      mcopy\n        /* \"#utility.yul\":3056:3057   */\n      0x00\n        /* \"#utility.yul\":3047:3053   */\n      dup4\n        /* \"#utility.yul\":3042:3045   */\n      dup4\n        /* \"#utility.yul\":3038:3054   */\n      add\n        /* \"#utility.yul\":3031:3058   */\n      mstore\n        /* \"#utility.yul\":2926:3065   */\n      pop\n      pop\n      pop\n      jump\t// out\n        /* \"#utility.yul\":3071:3173   */\n    tag_169:\n        /* \"#utility.yul\":3112:3118   */\n      0x00\n        /* \"#utility.yul\":3163:3165   */\n      0x1f\n        /* \"#utility.yul\":3159:3166   */\n      not\n        /* \"#utility.yul\":3154:3156   */\n      0x1f\n        /* \"#utility.yul\":3147:3152   */\n      dup4\n        /* \"#utility.yul\":3143:3157   */\n      add\n        /* \"#utility.yul\":3139:3167   */\n      and\n        /* \"#utility.yul\":3129:3167   */\n      swap1\n      pop\n        /* \"#utility.yul\":3071:3173   */\n      swap2\n      swap1\n      pop\n      jump\t// out\n        /* \"#utility.yul\":3179:3556   */\n    tag_170:\n        /* \"#utility.yul\":3267:3270   */\n      0x00\n        /* \"#utility.yul\":3295:3334   */\n      tag_248\n        /* \"#utility.yul\":3328:3333   */\n      dup3\n        /* \"#utility.yul\":3295:3334   */\n      tag_166\n      jump\t// in\n    tag_248:\n        /* \"#utility.yul\":3350:3421   */\n      tag_249\n        /* \"#utility.yul\":3414:3420   */\n      dup2\n        /* \"#utility.yul\":3409:3412   */\n      dup6\n        /* \"#utility.yul\":3350:3421   */\n      tag_167\n      jump\t// in\n    tag_249:\n        /* \"#utility.yul\":3343:3421   */\n      swap4\n      pop\n        /* \"#utility.yul\":3430:3495   */\n      tag_250\n        /* \"#utility.yul\":3488:3494   */\n      dup2\n        /* \"#utility.yul\":3483:3486   */\n      dup6\n        /* \"#utility.yul\":3476:3480   */\n      0x20\n        /* \"#utility.yul\":3469:3474   */\n      dup7\n        /* \"#utility.yul\":3465:3481   */\n      add\n        /* \"#utility.yul\":3430:3495   */\n      tag_168\n      jump\t// in\n    tag_250:\n        /* \"#utility.yul\":3520:3549   */\n      tag_251\n        /* \"#utility.yul\":3542:3548   */\n      dup2\n        /* \"#utility.yul\":3520:3549   */\n      tag_169\n      jump\t// in\n    tag_251:\n        /* \"#utility.yul\":3515:3518   */\n      dup5\n        /* \"#utility.yul\":3511:3550   */\n      add\n        /* \"#utility.yul\":3504:3550   */\n      swap2\n      pop\n        /* \"#utility.yul\":3271:3556   */\n      pop\n        /* \"#utility.yul\":3179:3556   */\n      swap3\n      swap2\n      pop\n      pop\n      jump\t// out\n        /* \"#utility.yul\":3562:4396   */\n    tag_33:\n        /* \"#utility.yul\":3801:3805   */\n      0x00\n        /* \"#utility.yul\":3839:3842   */\n      0xa0\n        /* \"#utility.yul\":3828:3837   */\n      dup3\n        /* \"#utility.yul\":3824:3843   */\n      add\n        /* \"#utility.yul\":3816:3843   */\n      swap1\n      pop\n        /* \"#utility.yul\":3889:3898   */\n      dup2\n        /* \"#utility.yul\":3883:3887   */\n      dup2\n        /* \"#utility.yul\":3879:3899   */\n      sub\n        /* \"#utility.yul\":3875:3876   */\n      0x00\n        /* \"#utility.yul\":3864:3873   */\n      dup4\n        /* \"#utility.yul\":3860:3877   */\n      add\n        /* \"#utility.yul\":3853:3900   */\n      mstore\n        /* \"#utility.yul\":3917:3995   */\n      tag_253\n        /* \"#utility.yul\":3990:3994   */\n      dup2\n        /* \"#utility.yul\":3981:3987   */\n      dup9\n        /* \"#utility.yul\":3917:3995   */\n      tag_170\n      jump\t// in\n    tag_253:\n        /* \"#utility.yul\":3909:3995   */\n      swap1\n      pop\n        /* \"#utility.yul\":4042:4051   */\n      dup2\n        /* \"#utility.yul\":4036:4040   */\n      dup2\n        /* \"#utility.yul\":4032:4052   */\n      sub\n        /* \"#utility.yul\":4027:4029   */\n      0x20\n        /* \"#utility.yul\":4016:4025   */\n      dup4\n        /* \"#utility.yul\":4012:4030   */\n      add\n        /* \"#utility.yul\":4005:4053   */\n      mstore\n        /* \"#utility.yul\":4070:4148   */\n      tag_254\n        /* \"#utility.yul\":4143:4147   */\n      dup2\n        /* \"#utility.yul\":4134:4140   */\n      dup8\n        /* \"#utility.yul\":4070:4148   */\n      tag_170\n      jump\t// in\n    tag_254:\n        /* \"#utility.yul\":4062:4148   */\n      swap1\n      pop\n        /* \"#utility.yul\":4158:4230   */\n      tag_255\n        /* \"#utility.yul\":4226:4228   */\n      0x40\n        /* \"#utility.yul\":4215:4224   */\n      dup4\n        /* \"#utility.yul\":4211:4229   */\n      add\n        /* \"#utility.yul\":4202:4208   */\n      dup7\n        /* \"#utility.yul\":4158:4230   */\n      tag_159\n      jump\t// in\n    tag_255:\n        /* \"#utility.yul\":4240:4312   */\n      tag_256\n        /* \"#utility.yul\":4308:4310   */\n      0x60\n        /* \"#utility.yul\":4297:4306   */\n      dup4\n        /* \"#utility.yul\":4293:4311   */\n      add\n        /* \"#utility.yul\":4284:4290   */\n      dup6\n        /* \"#utility.yul\":4240:4312   */\n      tag_159\n      jump\t// in\n    tag_256:\n        /* \"#utility.yul\":4322:4389   */\n      tag_257\n        /* \"#utility.yul\":4384:4387   */\n      0x80\n        /* \"#utility.yul\":4373:4382   */\n      dup4\n        /* \"#utility.yul\":4369:4388   */\n      add\n        /* \"#utility.yul\":4360:4366   */\n      dup5\n        /* \"#utility.yul\":4322:4389   */\n      tag_165\n      jump\t// in\n    tag_257:\n        /* \"#utility.yul\":3562:4396   */\n      swap7\n      swap6\n      pop\n      pop\n      pop\n      pop\n      pop\n      pop\n      jump\t// out\n        /* \"#utility.yul\":4402:4520   */\n    tag_171:\n        /* \"#utility.yul\":4489:4513   */\n      tag_259\n        /* \"#utility.yul\":4507:4512   */\n      dup2\n        /* \"#utility.yul\":4489:4513   */\n      tag_161\n      jump\t// in\n    tag_259:\n        /* \"#utility.yul\":4484:4487   */\n      dup3\n        /* \"#utility.yul\":4477:4514   */\n      mstore\n        /* \"#utility.yul\":4402:4520   */\n      pop\n      pop\n      jump\t// out\n        /* \"#utility.yul\":4526:4748   */\n    tag_47:\n        /* \"#utility.yul\":4619:4623   */\n      0x00\n        /* \"#utility.yul\":4657:4659   */\n      0x20\n        /* \"#utility.yul\":4646:4655   */\n      dup3\n        /* \"#utility.yul\":4642:4660   */\n      add\n        /* \"#utility.yul\":4634:4660   */\n      swap1\n      pop\n        /* \"#utility.yul\":4670:4741   */\n      tag_261\n        /* \"#utility.yul\":4738:4739   */\n      0x00\n        /* \"#utility.yul\":4727:4736   */\n      dup4\n        /* \"#utility.yul\":4723:4740   */\n      add\n        /* \"#utility.yul\":4714:4720   */\n      dup5\n        /* \"#utility.yul\":4670:4741   */\n      tag_171\n      jump\t// in\n    tag_261:\n        /* \"#utility.yul\":4526:4748   */\n      swap3\n      swap2\n      pop\n      pop\n      jump\t// out\n        /* \"#utility.yul\":4754:5228   */\n    tag_51:\n        /* \"#utility.yul\":4822:4828   */\n      0x00\n        /* \"#utility.yul\":4830:4836   */\n      dup1\n        /* \"#utility.yul\":4879:4881   */\n      0x40\n        /* \"#utility.yul\":4867:4876   */\n      dup4\n        /* \"#utility.yul\":4858:4865   */\n      dup6\n        /* \"#utility.yul\":4854:4877   */\n      sub\n        /* \"#utility.yul\":4850:4882   */\n      slt\n        /* \"#utility.yul\":4847:4966   */\n      iszero\n      tag_263\n      jumpi\n        /* \"#utility.yul\":4885:4964   */\n      tag_264\n      tag_154\n      jump\t// in\n    tag_264:\n        /* \"#utility.yul\":4847:4966   */\n    tag_263:\n        /* \"#utility.yul\":5005:5006   */\n      0x00\n        /* \"#utility.yul\":5030:5083   */\n      tag_265\n        /* \"#utility.yul\":5075:5082   */\n      dup6\n        /* \"#utility.yul\":5066:5072   */\n      dup3\n        /* \"#utility.yul\":5055:5064   */\n      dup7\n        /* \"#utility.yul\":5051:5073   */\n      add\n        /* \"#utility.yul\":5030:5083   */\n      tag_158\n      jump\t// in\n    tag_265:\n        /* \"#utility.yul\":5020:5083   */\n      swap3\n      pop\n        /* \"#utility.yul\":4976:5093   */\n      pop\n        /* \"#utility.yul\":5132:5134   */\n      0x20\n        /* \"#utility.yul\":5158:5211   */\n      tag_266\n        /* \"#utility.yul\":5203:5210   */\n      dup6\n        /* \"#utility.yul\":5194:5200   */\n      dup3\n        /* \"#utility.yul\":5183:5192   */\n      dup7\n        /* \"#utility.yul\":5179:5201   */\n      add\n        /* \"#utility.yul\":5158:5211   */\n      tag_158\n      jump\t// in\n    tag_266:\n        /* \"#utility.yul\":5148:5211   */\n      swap2\n      pop\n        /* \"#utility.yul\":5103:5221   */\n      pop\n        /* \"#utility.yul\":4754:5228   */\n      swap3\n      pop\n      swap3\n      swap1\n      pop\n      jump\t// out\n        /* \"#utility.yul\":5234:5853   */\n    tag_63:\n        /* \"#utility.yul\":5311:5317   */\n      0x00\n        /* \"#utility.yul\":5319:5325   */\n      dup1\n        /* \"#utility.yul\":5327:5333   */\n      0x00\n        /* \"#utility.yul\":5376:5378   */\n      0x60\n        /* \"#utility.yul\":5364:5373   */\n      dup5\n        /* \"#utility.yul\":5355:5362   */\n      dup7\n        /* \"#utility.yul\":5351:5374   */\n      sub\n        /* \"#utility.yul\":5347:5379   */\n      slt\n        /* \"#utility.yul\":5344:5463   */\n      iszero\n      tag_268\n      jumpi\n        /* \"#utility.yul\":5382:5461   */\n      tag_269\n      tag_154\n      jump\t// in\n    tag_269:\n        /* \"#utility.yul\":5344:5463   */\n    tag_268:\n        /* \"#utility.yul\":5502:5503   */\n      0x00\n        /* \"#utility.yul\":5527:5580   */\n      tag_270\n        /* \"#utility.yul\":5572:5579   */\n      dup7\n        /* \"#utility.yul\":5563:5569   */\n      dup3\n        /* \"#utility.yul\":5552:5561   */\n      dup8\n        /* \"#utility.yul\":5548:5570   */\n      add\n        /* \"#utility.yul\":5527:5580   */\n      tag_158\n      jump\t// in\n    tag_270:\n        /* \"#utility.yul\":5517:5580   */\n      swap4\n      pop\n        /* \"#utility.yul\":5473:5590   */\n      pop\n        /* \"#utility.yul\":5629:5631   */\n      0x20\n        /* \"#utility.yul\":5655:5708   */\n      tag_271\n        /* \"#utility.yul\":5700:5707   */\n      dup7\n        /* \"#utility.yul\":5691:5697   */\n      dup3\n        /* \"#utility.yul\":5680:5689   */\n      dup8\n        /* \"#utility.yul\":5676:5698   */\n      add\n        /* \"#utility.yul\":5655:5708   */\n      tag_158\n      jump\t// in\n    tag_271:\n        /* \"#utility.yul\":5645:5708   */\n      swap3\n      pop\n        /* \"#utility.yul\":5600:5718   */\n      pop\n        /* \"#utility.yul\":5757:5759   */\n      0x40\n        /* \"#utility.yul\":5783:5836   */\n      tag_272\n        /* \"#utility.yul\":5828:5835   */\n      dup7\n        /* \"#utility.yul\":5819:5825   */\n      dup3\n        /* \"#utility.yul\":5808:5817   */\n      dup8\n        /* \"#utility.yul\":5804:5826   */\n      add\n        /* \"#utility.yul\":5783:5836   */\n      tag_158\n      jump\t// in\n    tag_272:\n        /* \"#utility.yul\":5773:5836   */\n      swap2\n      pop\n        /* \"#utility.yul\":5728:5846   */\n      pop\n        /* \"#utility.yul\":5234:5853   */\n      swap3\n      pop\n      swap3\n      pop\n      swap3\n      jump\t// out\n        /* \"#utility.yul\":5859:5976   */\n    tag_172:\n        /* \"#utility.yul\":5968:5969   */\n      0x00\n        /* \"#utility.yul\":5965:5966   */\n      dup1\n        /* \"#utility.yul\":5958:5970   */\n      revert\n        /* \"#utility.yul\":5982:6099   */\n    tag_173:\n        /* \"#utility.yul\":6091:6092   */\n      0x00\n        /* \"#utility.yul\":6088:6089   */\n      dup1\n        /* \"#utility.yul\":6081:6093   */\n      revert\n        /* \"#utility.yul\":6105:6285   */\n    tag_174:\n        /* \"#utility.yul\":6153:6230   */\n      0x4e487b7100000000000000000000000000000000000000000000000000000000\n        /* \"#utility.yul\":6150:6151   */\n      0x00\n        /* \"#utility.yul\":6143:6231   */\n      mstore\n        /* \"#utility.yul\":6250:6254   */\n      0x41\n        /* \"#utility.yul\":6247:6248   */\n      0x04\n        /* \"#utility.yul\":6240:6255   */\n      mstore\n        /* \"#utility.yul\":6274:6278   */\n      0x24\n        /* \"#utility.yul\":6271:6272   */\n      0x00\n        /* \"#utility.yul\":6264:6279   */\n      revert\n        /* \"#utility.yul\":6291:6572   */\n    tag_175:\n        /* \"#utility.yul\":6374:6401   */\n      tag_277\n        /* \"#utility.yul\":6396:6400   */\n      dup3\n        /* \"#utility.yul\":6374:6401   */\n      tag_169\n      jump\t// in\n    tag_277:\n        /* \"#utility.yul\":6366:6372   */\n      dup2\n        /* \"#utility.yul\":6362:6402   */\n      add\n        /* \"#utility.yul\":6504:6510   */\n      dup2\n        /* \"#utility.yul\":6492:6502   */\n      dup2\n        /* \"#utility.yul\":6489:6511   */\n      lt\n        /* \"#utility.yul\":6468:6486   */\n      0xffffffffffffffff\n        /* \"#utility.yul\":6456:6466   */\n      dup3\n        /* \"#utility.yul\":6453:6487   */\n      gt\n        /* \"#utility.yul\":6450:6512   */\n      or\n        /* \"#utility.yul\":6447:6535   */\n      iszero\n      tag_278\n      jumpi\n        /* \"#utility.yul\":6515:6533   */\n      tag_279\n      tag_174\n      jump\t// in\n    tag_279:\n        /* \"#utility.yul\":6447:6535   */\n    tag_278:\n        /* \"#utility.yul\":6555:6565   */\n      dup1\n        /* \"#utility.yul\":6551:6553   */\n      0x40\n        /* \"#utility.yul\":6544:6566   */\n      mstore\n        /* \"#utility.yul\":6334:6572   */\n      pop\n        /* \"#utility.yul\":6291:6572   */\n      pop\n      pop\n      jump\t// out\n        /* \"#utility.yul\":6578:6707   */\n    tag_176:\n        /* \"#utility.yul\":6612:6618   */\n      0x00\n        /* \"#utility.yul\":6639:6659   */\n      tag_281\n      tag_153\n      jump\t// in\n    tag_281:\n        /* \"#utility.yul\":6629:6659   */\n      swap1\n      pop\n        /* \"#utility.yul\":6668:6701   */\n      tag_282\n        /* \"#utility.yul\":6696:6700   */\n      dup3\n        /* \"#utility.yul\":6688:6694   */\n      dup3\n        /* \"#utility.yul\":6668:6701   */\n      tag_175\n      jump\t// in\n    tag_282:\n        /* \"#utility.yul\":6578:6707   */\n      swap2\n      swap1\n      pop\n      jump\t// out\n        /* \"#utility.yul\":6713:7021   */\n    tag_177:\n        /* \"#utility.yul\":6775:6779   */\n      0x00\n        /* \"#utility.yul\":6865:6883   */\n      0xffffffffffffffff\n        /* \"#utility.yul\":6857:6863   */\n      dup3\n        /* \"#utility.yul\":6854:6884   */\n      gt\n        /* \"#utility.yul\":6851:6907   */\n      iszero\n      tag_284\n      jumpi\n        /* \"#utility.yul\":6887:6905   */\n      tag_285\n      tag_174\n      jump\t// in\n    tag_285:\n        /* \"#utility.yul\":6851:6907   */\n    tag_284:\n        /* \"#utility.yul\":6925:6954   */\n      tag_286\n        /* \"#utility.yul\":6947:6953   */\n      dup3\n        /* \"#utility.yul\":6925:6954   */\n      tag_169\n      jump\t// in\n    tag_286:\n        /* \"#utility.yul\":6917:6954   */\n      swap1\n      pop\n        /* \"#utility.yul\":7009:7013   */\n      0x20\n        /* \"#utility.yul\":7003:7007   */\n      dup2\n        /* \"#utility.yul\":6999:7014   */\n      add\n        /* \"#utility.yul\":6991:7014   */\n      swap1\n      pop\n        /* \"#utility.yul\":6713:7021   */\n      swap2\n      swap1\n      pop\n      jump\t// out\n        /* \"#utility.yul\":7027:7175   */\n    tag_178:\n        /* \"#utility.yul\":7125:7131   */\n      dup3\n        /* \"#utility.yul\":7120:7123   */\n      dup2\n        /* \"#utility.yul\":7115:7118   */\n      dup4\n        /* \"#utility.yul\":7102:7132   */\n      calldatacopy\n        /* \"#utility.yul\":7166:7167   */\n      0x00\n        /* \"#utility.yul\":7157:7163   */\n      dup4\n        /* \"#utility.yul\":7152:7155   */\n      dup4\n        /* \"#utility.yul\":7148:7164   */\n      add\n        /* \"#utility.yul\":7141:7168   */\n      mstore\n        /* \"#utility.yul\":7027:7175   */\n      pop\n      pop\n      pop\n      jump\t// out\n        /* \"#utility.yul\":7181:7606   */\n    tag_179:\n        /* \"#utility.yul\":7259:7264   */\n      0x00\n        /* \"#utility.yul\":7284:7350   */\n      tag_289\n        /* \"#utility.yul\":7300:7349   */\n      tag_290\n        /* \"#utility.yul\":7342:7348   */\n      dup5\n        /* \"#utility.yul\":7300:7349   */\n      tag_177\n      jump\t// in\n    tag_290:\n        /* \"#utility.yul\":7284:7350   */\n      tag_176\n      jump\t// in\n    tag_289:\n        /* \"#utility.yul\":7275:7350   */\n      swap1\n      pop\n        /* \"#utility.yul\":7373:7379   */\n      dup3\n        /* \"#utility.yul\":7366:7371   */\n      dup2\n        /* \"#utility.yul\":7359:7380   */\n      mstore\n        /* \"#utility.yul\":7411:7415   */\n      0x20\n        /* \"#utility.yul\":7404:7409   */\n      dup2\n        /* \"#utility.yul\":7400:7416   */\n      add\n        /* \"#utility.yul\":7449:7452   */\n      dup5\n        /* \"#utility.yul\":7440:7446   */\n      dup5\n        /* \"#utility.yul\":7435:7438   */\n      dup5\n        /* \"#utility.yul\":7431:7447   */\n      add\n        /* \"#utility.yul\":7428:7453   */\n      gt\n        /* \"#utility.yul\":7425:7537   */\n      iszero\n      tag_291\n      jumpi\n        /* \"#utility.yul\":7456:7535   */\n      tag_292\n      tag_173\n      jump\t// in\n    tag_292:\n        /* \"#utility.yul\":7425:7537   */\n    tag_291:\n        /* \"#utility.yul\":7546:7600   */\n      tag_293\n        /* \"#utility.yul\":7593:7599   */\n      dup5\n        /* \"#utility.yul\":7588:7591   */\n      dup3\n        /* \"#utility.yul\":7583:7586   */\n      dup6\n        /* \"#utility.yul\":7546:7600   */\n      tag_178\n      jump\t// in\n    tag_293:\n        /* \"#utility.yul\":7265:7606   */\n      pop\n        /* \"#utility.yul\":7181:7606   */\n      swap4\n      swap3\n      pop\n      pop\n      pop\n      jump\t// out\n        /* \"#utility.yul\":7626:7966   */\n    tag_180:\n        /* \"#utility.yul\":7682:7687   */\n      0x00\n        /* \"#utility.yul\":7731:7734   */\n      dup3\n        /* \"#utility.yul\":7724:7728   */\n      0x1f\n        /* \"#utility.yul\":7716:7722   */\n      dup4\n        /* \"#utility.yul\":7712:7729   */\n      add\n        /* \"#utility.yul\":7708:7735   */\n      slt\n        /* \"#utility.yul\":7698:7820   */\n      tag_295\n      jumpi\n        /* \"#utility.yul\":7739:7818   */\n      tag_296\n      tag_172\n      jump\t// in\n    tag_296:\n        /* \"#utility.yul\":7698:7820   */\n    tag_295:\n        /* \"#utility.yul\":7856:7862   */\n      dup2\n        /* \"#utility.yul\":7843:7863   */\n      calldataload\n        /* \"#utility.yul\":7881:7960   */\n      tag_297\n        /* \"#utility.yul\":7956:7959   */\n      dup5\n        /* \"#utility.yul\":7948:7954   */\n      dup3\n        /* \"#utility.yul\":7941:7945   */\n      0x20\n        /* \"#utility.yul\":7933:7939   */\n      dup7\n        /* \"#utility.yul\":7929:7946   */\n      add\n        /* \"#utility.yul\":7881:7960   */\n      tag_179\n      jump\t// in\n    tag_297:\n        /* \"#utility.yul\":7872:7960   */\n      swap2\n      pop\n        /* \"#utility.yul\":7688:7966   */\n      pop\n        /* \"#utility.yul\":7626:7966   */\n      swap3\n      swap2\n      pop\n      pop\n      jump\t// out\n        /* \"#utility.yul\":7972:9243   */\n    tag_68:\n        /* \"#utility.yul\":8087:8093   */\n      0x00\n        /* \"#utility.yul\":8095:8101   */\n      dup1\n        /* \"#utility.yul\":8103:8109   */\n      0x00\n        /* \"#utility.yul\":8111:8117   */\n      dup1\n        /* \"#utility.yul\":8119:8125   */\n      0x00\n        /* \"#utility.yul\":8168:8171   */\n      0xa0\n        /* \"#utility.yul\":8156:8165   */\n      dup7\n        /* \"#utility.yul\":8147:8154   */\n      dup9\n        /* \"#utility.yul\":8143:8166   */\n      sub\n        /* \"#utility.yul\":8139:8172   */\n      slt\n        /* \"#utility.yul\":8136:8256   */\n      iszero\n      tag_299\n      jumpi\n        /* \"#utility.yul\":8175:8254   */\n      tag_300\n      tag_154\n      jump\t// in\n    tag_300:\n        /* \"#utility.yul\":8136:8256   */\n    tag_299:\n        /* \"#utility.yul\":8295:8296   */\n      0x00\n        /* \"#utility.yul\":8320:8373   */\n      tag_301\n        /* \"#utility.yul\":8365:8372   */\n      dup9\n        /* \"#utility.yul\":8356:8362   */\n      dup3\n        /* \"#utility.yul\":8345:8354   */\n      dup10\n        /* \"#utility.yul\":8341:8363   */\n      add\n        /* \"#utility.yul\":8320:8373   */\n      tag_158\n      jump\t// in\n    tag_301:\n        /* \"#utility.yul\":8310:8373   */\n      swap6\n      pop\n        /* \"#utility.yul\":8266:8383   */\n      pop\n        /* \"#utility.yul\":8450:8452   */\n      0x20\n        /* \"#utility.yul\":8439:8448   */\n      dup7\n        /* \"#utility.yul\":8435:8453   */\n      add\n        /* \"#utility.yul\":8422:8454   */\n      calldataload\n        /* \"#utility.yul\":8481:8499   */\n      0xffffffffffffffff\n        /* \"#utility.yul\":8473:8479   */\n      dup2\n        /* \"#utility.yul\":8470:8500   */\n      gt\n        /* \"#utility.yul\":8467:8584   */\n      iszero\n      tag_302\n      jumpi\n        /* \"#utility.yul\":8503:8582   */\n      tag_303\n      tag_155\n      jump\t// in\n    tag_303:\n        /* \"#utility.yul\":8467:8584   */\n    tag_302:\n        /* \"#utility.yul\":8608:8671   */\n      tag_304\n        /* \"#utility.yul\":8663:8670   */\n      dup9\n        /* \"#utility.yul\":8654:8660   */\n      dup3\n        /* \"#utility.yul\":8643:8652   */\n      dup10\n        /* \"#utility.yul\":8639:8661   */\n      add\n        /* \"#utility.yul\":8608:8671   */\n      tag_180\n      jump\t// in\n    tag_304:\n        /* \"#utility.yul\":8598:8671   */\n      swap5\n      pop\n        /* \"#utility.yul\":8393:8681   */\n      pop\n        /* \"#utility.yul\":8748:8750   */\n      0x40\n        /* \"#utility.yul\":8737:8746   */\n      dup7\n        /* \"#utility.yul\":8733:8751   */\n      add\n        /* \"#utility.yul\":8720:8752   */\n      calldataload\n        /* \"#utility.yul\":8779:8797   */\n      0xffffffffffffffff\n        /* \"#utility.yul\":8771:8777   */\n      dup2\n        /* \"#utility.yul\":8768:8798   */\n      gt\n        /* \"#utility.yul\":8765:8882   */\n      iszero\n      tag_305\n      jumpi\n        /* \"#utility.yul\":8801:8880   */\n      tag_306\n      tag_155\n      jump\t// in\n    tag_306:\n        /* \"#utility.yul\":8765:8882   */\n    tag_305:\n        /* \"#utility.yul\":8906:8969   */\n      tag_307\n        /* \"#utility.yul\":8961:8968   */\n      dup9\n        /* \"#utility.yul\":8952:8958   */\n      dup3\n        /* \"#utility.yul\":8941:8950   */\n      dup10\n        /* \"#utility.yul\":8937:8959   */\n      add\n        /* \"#utility.yul\":8906:8969   */\n      tag_180\n      jump\t// in\n    tag_307:\n        /* \"#utility.yul\":8896:8969   */\n      swap4\n      pop\n        /* \"#utility.yul\":8691:8979   */\n      pop\n        /* \"#utility.yul\":9018:9020   */\n      0x60\n        /* \"#utility.yul\":9044:9097   */\n      tag_308\n        /* \"#utility.yul\":9089:9096   */\n      dup9\n        /* \"#utility.yul\":9080:9086   */\n      dup3\n        /* \"#utility.yul\":9069:9078   */\n      dup10\n        /* \"#utility.yul\":9065:9087   */\n      add\n        /* \"#utility.yul\":9044:9097   */\n      tag_158\n      jump\t// in\n    tag_308:\n        /* \"#utility.yul\":9034:9097   */\n      swap3\n      pop\n        /* \"#utility.yul\":8989:9107   */\n      pop\n        /* \"#utility.yul\":9146:9149   */\n      0x80\n        /* \"#utility.yul\":9173:9226   */\n      tag_309\n        /* \"#utility.yul\":9218:9225   */\n      dup9\n        /* \"#utility.yul\":9209:9215   */\n      dup3\n        /* \"#utility.yul\":9198:9207   */\n      dup10\n        /* \"#utility.yul\":9194:9216   */\n      add\n        /* \"#utility.yul\":9173:9226   */\n      tag_158\n      jump\t// in\n    tag_309:\n        /* \"#utility.yul\":9163:9226   */\n      swap2\n      pop\n        /* \"#utility.yul\":9117:9236   */\n      pop\n        /* \"#utility.yul\":7972:9243   */\n      swap3\n      swap6\n      pop\n      swap3\n      swap6\n      swap1\n      swap4\n      pop\n      jump\t// out\n        /* \"#utility.yul\":9249:9429   */\n    tag_181:\n        /* \"#utility.yul\":9297:9374   */\n      0x4e487b7100000000000000000000000000000000000000000000000000000000\n        /* \"#utility.yul\":9294:9295   */\n      0x00\n        /* \"#utility.yul\":9287:9375   */\n      mstore\n        /* \"#utility.yul\":9394:9398   */\n      0x22\n        /* \"#utility.yul\":9391:9392   */\n      0x04\n        /* \"#utility.yul\":9384:9399   */\n      mstore\n        /* \"#utility.yul\":9418:9422   */\n      0x24\n        /* \"#utility.yul\":9415:9416   */\n      0x00\n        /* \"#utility.yul\":9408:9423   */\n      revert\n        /* \"#utility.yul\":9435:9755   */\n    tag_74:\n        /* \"#utility.yul\":9479:9485   */\n      0x00\n        /* \"#utility.yul\":9516:9517   */\n      0x02\n        /* \"#utility.yul\":9510:9514   */\n      dup3\n        /* \"#utility.yul\":9506:9518   */\n      div\n        /* \"#utility.yul\":9496:9518   */\n      swap1\n      pop\n        /* \"#utility.yul\":9563:9564   */\n      0x01\n        /* \"#utility.yul\":9557:9561   */\n      dup3\n        /* \"#utility.yul\":9553:9565   */\n      and\n        /* \"#utility.yul\":9584:9602   */\n      dup1\n        /* \"#utility.yul\":9574:9655   */\n      tag_312\n      jumpi\n        /* \"#utility.yul\":9640:9644   */\n      0x7f\n        /* \"#utility.yul\":9632:9638   */\n      dup3\n        /* \"#utility.yul\":9628:9645   */\n      and\n        /* \"#utility.yul\":9618:9645   */\n      swap2\n      pop\n        /* \"#utility.yul\":9574:9655   */\n    tag_312:\n        /* \"#utility.yul\":9702:9704   */\n      0x20\n        /* \"#utility.yul\":9694:9700   */\n      dup3\n        /* \"#utility.yul\":9691:9705   */\n      lt\n        /* \"#utility.yul\":9671:9689   */\n      dup2\n        /* \"#utility.yul\":9668:9706   */\n      sub\n        /* \"#utility.yul\":9665:9749   */\n      tag_313\n      jumpi\n        /* \"#utility.yul\":9721:9739   */\n      tag_314\n      tag_181\n      jump\t// in\n    tag_314:\n        /* \"#utility.yul\":9665:9749   */\n    tag_313:\n        /* \"#utility.yul\":9486:9755   */\n      pop\n        /* \"#utility.yul\":9435:9755   */\n      swap2\n      swap1\n      pop\n      jump\t// out\n        /* \"#utility.yul\":9761:9985   */\n    tag_182:\n        /* \"#utility.yul\":9901:9935   */\n      0x6e6f7420656e6f756768742073746f636b20746f20636f6e6669726d20707572\n        /* \"#utility.yul\":9897:9898   */\n      0x00\n        /* \"#utility.yul\":9889:9895   */\n      dup3\n        /* \"#utility.yul\":9885:9899   */\n      add\n        /* \"#utility.yul\":9878:9936   */\n      mstore\n        /* \"#utility.yul\":9970:9977   */\n      0x6368617365000000000000000000000000000000000000000000000000000000\n        /* \"#utility.yul\":9965:9967   */\n      0x20\n        /* \"#utility.yul\":9957:9963   */\n      dup3\n        /* \"#utility.yul\":9953:9968   */\n      add\n        /* \"#utility.yul\":9946:9978   */\n      mstore\n        /* \"#utility.yul\":9761:9985   */\n      pop\n      jump\t// out\n        /* \"#utility.yul\":9991:10357   */\n    tag_183:\n        /* \"#utility.yul\":10133:10136   */\n      0x00\n        /* \"#utility.yul\":10154:10221   */\n      tag_317\n        /* \"#utility.yul\":10218:10220   */\n      0x25\n        /* \"#utility.yul\":10213:10216   */\n      dup4\n        /* \"#utility.yul\":10154:10221   */\n      tag_167\n      jump\t// in\n    tag_317:\n        /* \"#utility.yul\":10147:10221   */\n      swap2\n      pop\n        /* \"#utility.yul\":10230:10323   */\n      tag_318\n        /* \"#utility.yul\":10319:10322   */\n      dup3\n        /* \"#utility.yul\":10230:10323   */\n      tag_182\n      jump\t// in\n    tag_318:\n        /* \"#utility.yul\":10348:10350   */\n      0x40\n        /* \"#utility.yul\":10343:10346   */\n      dup3\n        /* \"#utility.yul\":10339:10351   */\n      add\n        /* \"#utility.yul\":10332:10351   */\n      swap1\n      pop\n        /* \"#utility.yul\":9991:10357   */\n      swap2\n      swap1\n      pop\n      jump\t// out\n        /* \"#utility.yul\":10363:10782   */\n    tag_107:\n        /* \"#utility.yul\":10529:10533   */\n      0x00\n        /* \"#utility.yul\":10567:10569   */\n      0x20\n        /* \"#utility.yul\":10556:10565   */\n      dup3\n        /* \"#utility.yul\":10552:10570   */\n      add\n        /* \"#utility.yul\":10544:10570   */\n      swap1\n      pop\n        /* \"#utility.yul\":10616:10625   */\n      dup2\n        /* \"#utility.yul\":10610:10614   */\n      dup2\n        /* \"#utility.yul\":10606:10626   */\n      sub\n        /* \"#utility.yul\":10602:10603   */\n      0x00\n        /* \"#utility.yul\":10591:10600   */\n      dup4\n        /* \"#utility.yul\":10587:10604   */\n      add\n        /* \"#utility.yul\":10580:10627   */\n      mstore\n        /* \"#utility.yul\":10644:10775   */\n      tag_320\n        /* \"#utility.yul\":10770:10774   */\n      dup2\n        /* \"#utility.yul\":10644:10775   */\n      tag_183\n      jump\t// in\n    tag_320:\n        /* \"#utility.yul\":10636:10775   */\n      swap1\n      pop\n        /* \"#utility.yul\":10363:10782   */\n      swap2\n      swap1\n      pop\n      jump\t// out\n        /* \"#utility.yul\":10788:10968   */\n    tag_184:\n        /* \"#utility.yul\":10836:10913   */\n      0x4e487b7100000000000000000000000000000000000000000000000000000000\n        /* \"#utility.yul\":10833:10834   */\n      0x00\n        /* \"#utility.yul\":10826:10914   */\n      mstore\n        /* \"#utility.yul\":10933:10937   */\n      0x11\n        /* \"#utility.yul\":10930:10931   */\n      0x04\n        /* \"#utility.yul\":10923:10938   */\n      mstore\n        /* \"#utility.yul\":10957:10961   */\n      0x24\n        /* \"#utility.yul\":10954:10955   */\n      0x00\n        /* \"#utility.yul\":10947:10962   */\n      revert\n        /* \"#utility.yul\":10974:11168   */\n    tag_109:\n        /* \"#utility.yul\":11014:11018   */\n      0x00\n        /* \"#utility.yul\":11034:11054   */\n      tag_323\n        /* \"#utility.yul\":11052:11053   */\n      dup3\n        /* \"#utility.yul\":11034:11054   */\n      tag_156\n      jump\t// in\n    tag_323:\n        /* \"#utility.yul\":11029:11054   */\n      swap2\n      pop\n        /* \"#utility.yul\":11068:11088   */\n      tag_324\n        /* \"#utility.yul\":11086:11087   */\n      dup4\n        /* \"#utility.yul\":11068:11088   */\n      tag_156\n      jump\t// in\n    tag_324:\n        /* \"#utility.yul\":11063:11088   */\n      swap3\n      pop\n        /* \"#utility.yul\":11112:11113   */\n      dup3\n        /* \"#utility.yul\":11109:11110   */\n      dup3\n        /* \"#utility.yul\":11105:11114   */\n      sub\n        /* \"#utility.yul\":11097:11114   */\n      swap1\n      pop\n        /* \"#utility.yul\":11136:11137   */\n      dup2\n        /* \"#utility.yul\":11130:11134   */\n      dup2\n        /* \"#utility.yul\":11127:11138   */\n      gt\n        /* \"#utility.yul\":11124:11161   */\n      iszero\n      tag_325\n      jumpi\n        /* \"#utility.yul\":11141:11159   */\n      tag_326\n      tag_184\n      jump\t// in\n    tag_326:\n        /* \"#utility.yul\":11124:11161   */\n    tag_325:\n        /* \"#utility.yul\":10974:11168   */\n      swap3\n      swap2\n      pop\n      pop\n      jump\t// out\n        /* \"#utility.yul\":11174:11351   */\n    tag_185:\n        /* \"#utility.yul\":11314:11343   */\n      0x5468697320626f6f6b206973206e6f7420617661696c61626c652e0000000000\n        /* \"#utility.yul\":11310:11311   */\n      0x00\n        /* \"#utility.yul\":11302:11308   */\n      dup3\n        /* \"#utility.yul\":11298:11312   */\n      add\n        /* \"#utility.yul\":11291:11344   */\n      mstore\n        /* \"#utility.yul\":11174:11351   */\n      pop\n      jump\t// out\n        /* \"#utility.yul\":11357:11723   */\n    tag_186:\n        /* \"#utility.yul\":11499:11502   */\n      0x00\n        /* \"#utility.yul\":11520:11587   */\n      tag_329\n        /* \"#utility.yul\":11584:11586   */\n      0x1b\n        /* \"#utility.yul\":11579:11582   */\n      dup4\n        /* \"#utility.yul\":11520:11587   */\n      tag_167\n      jump\t// in\n    tag_329:\n        /* \"#utility.yul\":11513:11587   */\n      swap2\n      pop\n        /* \"#utility.yul\":11596:11689   */\n      tag_330\n        /* \"#utility.yul\":11685:11688   */\n      dup3\n        /* \"#utility.yul\":11596:11689   */\n      tag_185\n      jump\t// in\n    tag_330:\n        /* \"#utility.yul\":11714:11716   */\n      0x20\n        /* \"#utility.yul\":11709:11712   */\n      dup3\n        /* \"#utility.yul\":11705:11717   */\n      add\n        /* \"#utility.yul\":11698:11717   */\n      swap1\n      pop\n        /* \"#utility.yul\":11357:11723   */\n      swap2\n      swap1\n      pop\n      jump\t// out\n        /* \"#utility.yul\":11729:12148   */\n    tag_122:\n        /* \"#utility.yul\":11895:11899   */\n      0x00\n        /* \"#utility.yul\":11933:11935   */\n      0x20\n        /* \"#utility.yul\":11922:11931   */\n      dup3\n        /* \"#utility.yul\":11918:11936   */\n      add\n        /* \"#utility.yul\":11910:11936   */\n      swap1\n      pop\n        /* \"#utility.yul\":11982:11991   */\n      dup2\n        /* \"#utility.yul\":11976:11980   */\n      dup2\n        /* \"#utility.yul\":11972:11992   */\n      sub\n        /* \"#utility.yul\":11968:11969   */\n      0x00\n        /* \"#utility.yul\":11957:11966   */\n      dup4\n        /* \"#utility.yul\":11953:11970   */\n      add\n        /* \"#utility.yul\":11946:11993   */\n      mstore\n        /* \"#utility.yul\":12010:12141   */\n      tag_332\n        /* \"#utility.yul\":12136:12140   */\n      dup2\n        /* \"#utility.yul\":12010:12141   */\n      tag_186\n      jump\t// in\n    tag_332:\n        /* \"#utility.yul\":12002:12141   */\n      swap1\n      pop\n        /* \"#utility.yul\":11729:12148   */\n      swap2\n      swap1\n      pop\n      jump\t// out\n        /* \"#utility.yul\":12154:12331   */\n    tag_187:\n        /* \"#utility.yul\":12294:12323   */\n      0x4e6f7420656e6f7567682073746f636b20617661696c61626c652e0000000000\n        /* \"#utility.yul\":12290:12291   */\n      0x00\n        /* \"#utility.yul\":12282:12288   */\n      dup3\n        /* \"#utility.yul\":12278:12292   */\n      add\n        /* \"#utility.yul\":12271:12324   */\n      mstore\n        /* \"#utility.yul\":12154:12331   */\n      pop\n      jump\t// out\n        /* \"#utility.yul\":12337:12703   */\n    tag_188:\n        /* \"#utility.yul\":12479:12482   */\n      0x00\n        /* \"#utility.yul\":12500:12567   */\n      tag_335\n        /* \"#utility.yul\":12564:12566   */\n      0x1b\n        /* \"#utility.yul\":12559:12562   */\n      dup4\n        /* \"#utility.yul\":12500:12567   */\n      tag_167\n      jump\t// in\n    tag_335:\n        /* \"#utility.yul\":12493:12567   */\n      swap2\n      pop\n        /* \"#utility.yul\":12576:12669   */\n      tag_336\n        /* \"#utility.yul\":12665:12668   */\n      dup3\n        /* \"#utility.yul\":12576:12669   */\n      tag_187\n      jump\t// in\n    tag_336:\n        /* \"#utility.yul\":12694:12696   */\n      0x20\n        /* \"#utility.yul\":12689:12692   */\n      dup3\n        /* \"#utility.yul\":12685:12697   */\n      add\n        /* \"#utility.yul\":12678:12697   */\n      swap1\n      pop\n        /* \"#utility.yul\":12337:12703   */\n      swap2\n      swap1\n      pop\n      jump\t// out\n        /* \"#utility.yul\":12709:13128   */\n    tag_125:\n        /* \"#utility.yul\":12875:12879   */\n      0x00\n        /* \"#utility.yul\":12913:12915   */\n      0x20\n        /* \"#utility.yul\":12902:12911   */\n      dup3\n        /* \"#utility.yul\":12898:12916   */\n      add\n        /* \"#utility.yul\":12890:12916   */\n      swap1\n      pop\n        /* \"#utility.yul\":12962:12971   */\n      dup2\n        /* \"#utility.yul\":12956:12960   */\n      dup2\n        /* \"#utility.yul\":12952:12972   */\n      sub\n        /* \"#utility.yul\":12948:12949   */\n      0x00\n        /* \"#utility.yul\":12937:12946   */\n      dup4\n        /* \"#utility.yul\":12933:12950   */\n      add\n        /* \"#utility.yul\":12926:12973   */\n      mstore\n        /* \"#utility.yul\":12990:13121   */\n      tag_338\n        /* \"#utility.yul\":13116:13120   */\n      dup2\n        /* \"#utility.yul\":12990:13121   */\n      tag_188\n      jump\t// in\n    tag_338:\n        /* \"#utility.yul\":12982:13121   */\n      swap1\n      pop\n        /* \"#utility.yul\":12709:13128   */\n      swap2\n      swap1\n      pop\n      jump\t// out\n        /* \"#utility.yul\":13134:13544   */\n    tag_127:\n        /* \"#utility.yul\":13174:13181   */\n      0x00\n        /* \"#utility.yul\":13197:13217   */\n      tag_340\n        /* \"#utility.yul\":13215:13216   */\n      dup3\n        /* \"#utility.yul\":13197:13217   */\n      tag_156\n      jump\t// in\n    tag_340:\n        /* \"#utility.yul\":13192:13217   */\n      swap2\n      pop\n        /* \"#utility.yul\":13231:13251   */\n      tag_341\n        /* \"#utility.yul\":13249:13250   */\n      dup4\n        /* \"#utility.yul\":13231:13251   */\n      tag_156\n      jump\t// in\n    tag_341:\n        /* \"#utility.yul\":13226:13251   */\n      swap3\n      pop\n        /* \"#utility.yul\":13286:13287   */\n      dup3\n        /* \"#utility.yul\":13283:13284   */\n      dup3\n        /* \"#utility.yul\":13279:13288   */\n      mul\n        /* \"#utility.yul\":13308:13338   */\n      tag_342\n        /* \"#utility.yul\":13326:13337   */\n      dup2\n        /* \"#utility.yul\":13308:13338   */\n      tag_156\n      jump\t// in\n    tag_342:\n        /* \"#utility.yul\":13297:13338   */\n      swap2\n      pop\n        /* \"#utility.yul\":13487:13488   */\n      dup3\n        /* \"#utility.yul\":13478:13485   */\n      dup3\n        /* \"#utility.yul\":13474:13489   */\n      div\n        /* \"#utility.yul\":13471:13472   */\n      dup5\n        /* \"#utility.yul\":13468:13490   */\n      eq\n        /* \"#utility.yul\":13448:13449   */\n      dup4\n        /* \"#utility.yul\":13441:13450   */\n      iszero\n        /* \"#utility.yul\":13421:13504   */\n      or\n        /* \"#utility.yul\":13398:13537   */\n      tag_343\n      jumpi\n        /* \"#utility.yul\":13517:13535   */\n      tag_344\n      tag_184\n      jump\t// in\n    tag_344:\n        /* \"#utility.yul\":13398:13537   */\n    tag_343:\n        /* \"#utility.yul\":13182:13544   */\n      pop\n        /* \"#utility.yul\":13134:13544   */\n      swap3\n      swap2\n      pop\n      pop\n      jump\t// out\n        /* \"#utility.yul\":13550:13725   */\n    tag_189:\n        /* \"#utility.yul\":13690:13717   */\n      0x20496e636f7272656374207061796d656e7420616d6f756e7400000000000000\n        /* \"#utility.yul\":13686:13687   */\n      0x00\n        /* \"#utility.yul\":13678:13684   */\n      dup3\n        /* \"#utility.yul\":13674:13688   */\n      add\n        /* \"#utility.yul\":13667:13718   */\n      mstore\n        /* \"#utility.yul\":13550:13725   */\n      pop\n      jump\t// out\n        /* \"#utility.yul\":13731:14097   */\n    tag_190:\n        /* \"#utility.yul\":13873:13876   */\n      0x00\n        /* \"#utility.yul\":13894:13961   */\n      tag_347\n        /* \"#utility.yul\":13958:13960   */\n      0x19\n        /* \"#utility.yul\":13953:13956   */\n      dup4\n        /* \"#utility.yul\":13894:13961   */\n      tag_167\n      jump\t// in\n    tag_347:\n        /* \"#utility.yul\":13887:13961   */\n      swap2\n      pop\n        /* \"#utility.yul\":13970:14063   */\n      tag_348\n        /* \"#utility.yul\":14059:14062   */\n      dup3\n        /* \"#utility.yul\":13970:14063   */\n      tag_189\n      jump\t// in\n    tag_348:\n        /* \"#utility.yul\":14088:14090   */\n      0x20\n        /* \"#utility.yul\":14083:14086   */\n      dup3\n        /* \"#utility.yul\":14079:14091   */\n      add\n        /* \"#utility.yul\":14072:14091   */\n      swap1\n      pop\n        /* \"#utility.yul\":13731:14097   */\n      swap2\n      swap1\n      pop\n      jump\t// out\n        /* \"#utility.yul\":14103:14522   */\n    tag_130:\n        /* \"#utility.yul\":14269:14273   */\n      0x00\n        /* \"#utility.yul\":14307:14309   */\n      0x20\n        /* \"#utility.yul\":14296:14305   */\n      dup3\n        /* \"#utility.yul\":14292:14310   */\n      add\n        /* \"#utility.yul\":14284:14310   */\n      swap1\n      pop\n        /* \"#utility.yul\":14356:14365   */\n      dup2\n        /* \"#utility.yul\":14350:14354   */\n      dup2\n        /* \"#utility.yul\":14346:14366   */\n      sub\n        /* \"#utility.yul\":14342:14343   */\n      0x00\n        /* \"#utility.yul\":14331:14340   */\n      dup4\n        /* \"#utility.yul\":14327:14344   */\n      add\n        /* \"#utility.yul\":14320:14367   */\n      mstore\n        /* \"#utility.yul\":14384:14515   */\n      tag_350\n        /* \"#utility.yul\":14510:14514   */\n      dup2\n        /* \"#utility.yul\":14384:14515   */\n      tag_190\n      jump\t// in\n    tag_350:\n        /* \"#utility.yul\":14376:14515   */\n      swap1\n      pop\n        /* \"#utility.yul\":14103:14522   */\n      swap2\n      swap1\n      pop\n      jump\t// out\n        /* \"#utility.yul\":14528:14748   */\n    tag_191:\n        /* \"#utility.yul\":14668:14702   */\n      0x426f6f6b20616c72656164792065786973747320776974682074686973204944\n        /* \"#utility.yul\":14664:14665   */\n      0x00\n        /* \"#utility.yul\":14656:14662   */\n      dup3\n        /* \"#utility.yul\":14652:14666   */\n      add\n        /* \"#utility.yul\":14645:14703   */\n      mstore\n        /* \"#utility.yul\":14737:14740   */\n      0x2e00000000000000000000000000000000000000000000000000000000000000\n        /* \"#utility.yul\":14732:14734   */\n      0x20\n        /* \"#utility.yul\":14724:14730   */\n      dup3\n        /* \"#utility.yul\":14720:14735   */\n      add\n        /* \"#utility.yul\":14713:14741   */\n      mstore\n        /* \"#utility.yul\":14528:14748   */\n      pop\n      jump\t// out\n        /* \"#utility.yul\":14754:15120   */\n    tag_192:\n        /* \"#utility.yul\":14896:14899   */\n      0x00\n        /* \"#utility.yul\":14917:14984   */\n      tag_353\n        /* \"#utility.yul\":14981:14983   */\n      0x21\n        /* \"#utility.yul\":14976:14979   */\n      dup4\n        /* \"#utility.yul\":14917:14984   */\n      tag_167\n      jump\t// in\n    tag_353:\n        /* \"#utility.yul\":14910:14984   */\n      swap2\n      pop\n        /* \"#utility.yul\":14993:15086   */\n      tag_354\n        /* \"#utility.yul\":15082:15085   */\n      dup3\n        /* \"#utility.yul\":14993:15086   */\n      tag_191\n      jump\t// in\n    tag_354:\n        /* \"#utility.yul\":15111:15113   */\n      0x40\n        /* \"#utility.yul\":15106:15109   */\n      dup3\n        /* \"#utility.yul\":15102:15114   */\n      add\n        /* \"#utility.yul\":15095:15114   */\n      swap1\n      pop\n        /* \"#utility.yul\":14754:15120   */\n      swap2\n      swap1\n      pop\n      jump\t// out\n        /* \"#utility.yul\":15126:15545   */\n    tag_137:\n        /* \"#utility.yul\":15292:15296   */\n      0x00\n        /* \"#utility.yul\":15330:15332   */\n      0x20\n        /* \"#utility.yul\":15319:15328   */\n      dup3\n        /* \"#utility.yul\":15315:15333   */\n      add\n        /* \"#utility.yul\":15307:15333   */\n      swap1\n      pop\n        /* \"#utility.yul\":15379:15388   */\n      dup2\n        /* \"#utility.yul\":15373:15377   */\n      dup2\n        /* \"#utility.yul\":15369:15389   */\n      sub\n        /* \"#utility.yul\":15365:15366   */\n      0x00\n        /* \"#utility.yul\":15354:15363   */\n      dup4\n        /* \"#utility.yul\":15350:15367   */\n      add\n        /* \"#utility.yul\":15343:15390   */\n      mstore\n        /* \"#utility.yul\":15407:15538   */\n      tag_356\n        /* \"#utility.yul\":15533:15537   */\n      dup2\n        /* \"#utility.yul\":15407:15538   */\n      tag_192\n      jump\t// in\n    tag_356:\n        /* \"#utility.yul\":15399:15538   */\n      swap1\n      pop\n        /* \"#utility.yul\":15126:15545   */\n      swap2\n      swap1\n      pop\n      jump\t// out\n        /* \"#utility.yul\":15551:15692   */\n    tag_193:\n        /* \"#utility.yul\":15600:15604   */\n      0x00\n        /* \"#utility.yul\":15623:15626   */\n      dup2\n        /* \"#utility.yul\":15615:15626   */\n      swap1\n      pop\n        /* \"#utility.yul\":15646:15649   */\n      dup2\n        /* \"#utility.yul\":15643:15644   */\n      0x00\n        /* \"#utility.yul\":15636:15650   */\n      mstore\n        /* \"#utility.yul\":15680:15684   */\n      0x20\n        /* \"#utility.yul\":15677:15678   */\n      0x00\n        /* \"#utility.yul\":15667:15685   */\n      keccak256\n        /* \"#utility.yul\":15659:15685   */\n      swap1\n      pop\n        /* \"#utility.yul\":15551:15692   */\n      swap2\n      swap1\n      pop\n      jump\t// out\n        /* \"#utility.yul\":15698:15791   */\n    tag_194:\n        /* \"#utility.yul\":15735:15741   */\n      0x00\n        /* \"#utility.yul\":15782:15784   */\n      0x20\n        /* \"#utility.yul\":15777:15779   */\n      0x1f\n        /* \"#utility.yul\":15770:15775   */\n      dup4\n        /* \"#utility.yul\":15766:15780   */\n      add\n        /* \"#utility.yul\":15762:15785   */\n      div\n        /* \"#utility.yul\":15752:15785   */\n      swap1\n      pop\n        /* \"#utility.yul\":15698:15791   */\n      swap2\n      swap1\n      pop\n      jump\t// out\n        /* \"#utility.yul\":15797:15904   */\n    tag_195:\n        /* \"#utility.yul\":15841:15849   */\n      0x00\n        /* \"#utility.yul\":15891:15896   */\n      dup3\n        /* \"#utility.yul\":15885:15889   */\n      dup3\n        /* \"#utility.yul\":15881:15897   */\n      shl\n        /* \"#utility.yul\":15860:15897   */\n      swap1\n      pop\n        /* \"#utility.yul\":15797:15904   */\n      swap3\n      swap2\n      pop\n      pop\n      jump\t// out\n        /* \"#utility.yul\":15910:16303   */\n    tag_196:\n        /* \"#utility.yul\":15979:15985   */\n      0x00\n        /* \"#utility.yul\":16029:16030   */\n      0x08\n        /* \"#utility.yul\":16017:16027   */\n      dup4\n        /* \"#utility.yul\":16013:16031   */\n      mul\n        /* \"#utility.yul\":16052:16149   */\n      tag_361\n        /* \"#utility.yul\":16082:16148   */\n      0xffffffffffffffffffffffffffffffffffffffffffffffffffffffffffffffff\n        /* \"#utility.yul\":16071:16080   */\n      dup3\n        /* \"#utility.yul\":16052:16149   */\n      tag_195\n      jump\t// in\n    tag_361:\n        /* \"#utility.yul\":16170:16209   */\n      tag_362\n        /* \"#utility.yul\":16200:16208   */\n      dup7\n        /* \"#utility.yul\":16189:16198   */\n      dup4\n        /* \"#utility.yul\":16170:16209   */\n      tag_195\n      jump\t// in\n    tag_362:\n        /* \"#utility.yul\":16158:16209   */\n      swap6\n      pop\n        /* \"#utility.yul\":16242:16246   */\n      dup1\n        /* \"#utility.yul\":16238:16247   */\n      not\n        /* \"#utility.yul\":16231:16236   */\n      dup5\n        /* \"#utility.yul\":16227:16248   */\n      and\n        /* \"#utility.yul\":16218:16248   */\n      swap4\n      pop\n        /* \"#utility.yul\":16291:16295   */\n      dup1\n        /* \"#utility.yul\":16281:16289   */\n      dup7\n        /* \"#utility.yul\":16277:16296   */\n      and\n        /* \"#utility.yul\":16270:16275   */\n      dup5\n        /* \"#utility.yul\":16267:16297   */\n      or\n        /* \"#utility.yul\":16257:16297   */\n      swap3\n      pop\n        /* \"#utility.yul\":15986:16303   */\n      pop\n      pop\n        /* \"#utility.yul\":15910:16303   */\n      swap4\n      swap3\n      pop\n      pop\n      pop\n      jump\t// out\n        /* \"#utility.yul\":16309:16369   */\n    tag_197:\n        /* \"#utility.yul\":16337:16340   */\n      0x00\n        /* \"#utility.yul\":16358:16363   */\n      dup2\n        /* \"#utility.yul\":16351:16363   */\n      swap1\n      pop\n        /* \"#utility.yul\":16309:16369   */\n      swap2\n      swap1\n      pop\n      jump\t// out\n        /* \"#utility.yul\":16375:16517   */\n    tag_198:\n        /* \"#utility.yul\":16425:16434   */\n      0x00\n        /* \"#utility.yul\":16458:16511   */\n      tag_365\n        /* \"#utility.yul\":16476:16510   */\n      tag_366\n        /* \"#utility.yul\":16485:16509   */\n      tag_367\n        /* \"#utility.yul\":16503:16508   */\n      dup5\n        /* \"#utility.yul\":16485:16509   */\n      tag_156\n      jump\t// in\n    tag_367:\n        /* \"#utility.yul\":16476:16510   */\n      tag_197\n      jump\t// in\n    tag_366:\n        /* \"#utility.yul\":16458:16511   */\n      tag_156\n      jump\t// in\n    tag_365:\n        /* \"#utility.yul\":16445:16511   */\n      swap1\n      pop\n        /* \"#utility.yul\":16375:16517   */\n      swap2\n      swap1\n      pop\n      jump\t// out\n        /* \"#utility.yul\":16523:16598   */\n    tag_199:\n        /* \"#utility.yul\":16566:16569   */\n      0x00\n        /* \"#utility.yul\":16587:16592   */\n      dup2\n        /* \"#utility.yul\":16580:16592   */\n      swap1\n      pop\n        /* \"#utility.yul\":16523:16598   */\n      swap2\n      swap1\n      pop\n      jump\t// out\n        /* \"#utility.yul\":16604:16873   */\n    tag_200:\n        /* \"#utility.yul\":16714:16753   */\n      tag_370\n        /* \"#utility.yul\":16745:16752   */\n      dup4\n        /* \"#utility.yul\":16714:16753   */\n      tag_198\n      jump\t// in\n    tag_370:\n        /* \"#utility.yul\":16775:16866   */\n      tag_371\n        /* \"#utility.yul\":16824:16865   */\n      tag_372\n        /* \"#utility.yul\":16848:16864   */\n      dup3\n        /* \"#utility.yul\":16824:16865   */\n      tag_199\n      jump\t// in\n    tag_372:\n        /* \"#utility.yul\":16816:16822   */\n      dup5\n        /* \"#utility.yul\":16809:16813   */\n      dup5\n        /* \"#utility.yul\":16803:16814   */\n      sload\n        /* \"#utility.yul\":16775:16866   */\n      tag_196\n      jump\t// in\n    tag_371:\n        /* \"#utility.yul\":16769:16773   */\n      dup3\n        /* \"#utility.yul\":16762:16867   */\n      sstore\n        /* \"#utility.yul\":16680:16873   */\n      pop\n        /* \"#utility.yul\":16604:16873   */\n      pop\n      pop\n      pop\n      jump\t// out\n        /* \"#utility.yul\":16879:16952   */\n    tag_201:\n        /* \"#utility.yul\":16924:16927   */\n      0x00\n        /* \"#utility.yul\":16879:16952   */\n      swap1\n      jump\t// out\n        /* \"#utility.yul\":16958:17147   */\n    tag_202:\n        /* \"#utility.yul\":17035:17067   */\n      tag_375\n      tag_201\n      jump\t// in\n    tag_375:\n        /* \"#utility.yul\":17076:17141   */\n      tag_376\n        /* \"#utility.yul\":17134:17140   */\n      dup2\n        /* \"#utility.yul\":17126:17132   */\n      dup5\n        /* \"#utility.yul\":17120:17124   */\n      dup5\n        /* \"#utility.yul\":17076:17141   */\n      tag_200\n      jump\t// in\n    tag_376:\n        /* \"#utility.yul\":17011:17147   */\n      pop\n        /* \"#utility.yul\":16958:17147   */\n      pop\n      pop\n      jump\t// out\n        /* \"#utility.yul\":17153:17339   */\n    tag_203:\n        /* \"#utility.yul\":17213:17333   */\n    tag_378:\n        /* \"#utility.yul\":17230:17233   */\n      dup2\n        /* \"#utility.yul\":17223:17228   */\n      dup2\n        /* \"#utility.yul\":17220:17234   */\n      lt\n        /* \"#utility.yul\":17213:17333   */\n      iszero\n      tag_380\n      jumpi\n        /* \"#utility.yul\":17284:17323   */\n      tag_381\n        /* \"#utility.yul\":17321:17322   */\n      0x00\n        /* \"#utility.yul\":17314:17319   */\n      dup3\n        /* \"#utility.yul\":17284:17323   */\n      tag_202\n      jump\t// in\n    tag_381:\n        /* \"#utility.yul\":17257:17258   */\n      0x01\n        /* \"#utility.yul\":17250:17255   */\n      dup2\n        /* \"#utility.yul\":17246:17259   */\n      add\n        /* \"#utility.yul\":17237:17259   */\n      swap1\n      pop\n        /* \"#utility.yul\":17213:17333   */\n      jump(tag_378)\n    tag_380:\n        /* \"#utility.yul\":17153:17339   */\n      pop\n      pop\n      jump\t// out\n        /* \"#utility.yul\":17345:17888   */\n    tag_204:\n        /* \"#utility.yul\":17446:17448   */\n      0x1f\n        /* \"#utility.yul\":17441:17444   */\n      dup3\n        /* \"#utility.yul\":17438:17449   */\n      gt\n        /* \"#utility.yul\":17435:17881   */\n      iszero\n      tag_383\n      jumpi\n        /* \"#utility.yul\":17480:17518   */\n      tag_384\n        /* \"#utility.yul\":17512:17517   */\n      dup2\n        /* \"#utility.yul\":17480:17518   */\n      tag_193\n      jump\t// in\n    tag_384:\n        /* \"#utility.yul\":17564:17593   */\n      tag_385\n        /* \"#utility.yul\":17582:17592   */\n      dup5\n        /* \"#utility.yul\":17564:17593   */\n      tag_194\n      jump\t// in\n    tag_385:\n        /* \"#utility.yul\":17554:17562   */\n      dup2\n        /* \"#utility.yul\":17550:17594   */\n      add\n        /* \"#utility.yul\":17747:17749   */\n      0x20\n        /* \"#utility.yul\":17735:17745   */\n      dup6\n        /* \"#utility.yul\":17732:17750   */\n      lt\n        /* \"#utility.yul\":17729:17778   */\n      iszero\n      tag_386\n      jumpi\n        /* \"#utility.yul\":17768:17776   */\n      dup2\n        /* \"#utility.yul\":17753:17776   */\n      swap1\n      pop\n        /* \"#utility.yul\":17729:17778   */\n    tag_386:\n        /* \"#utility.yul\":17791:17871   */\n      tag_387\n        /* \"#utility.yul\":17847:17869   */\n      tag_388\n        /* \"#utility.yul\":17865:17868   */\n      dup6\n        /* \"#utility.yul\":17847:17869   */\n      tag_194\n      jump\t// in\n    tag_388:\n        /* \"#utility.yul\":17837:17845   */\n      dup4\n        /* \"#utility.yul\":17833:17870   */\n      add\n        /* \"#utility.yul\":17820:17831   */\n      dup3\n        /* \"#utility.yul\":17791:17871   */\n      tag_203\n      jump\t// in\n    tag_387:\n        /* \"#utility.yul\":17450:17881   */\n      pop\n      pop\n        /* \"#utility.yul\":17435:17881   */\n    tag_383:\n        /* \"#utility.yul\":17345:17888   */\n      pop\n      pop\n      pop\n      jump\t// out\n        /* \"#utility.yul\":17894:18011   */\n    tag_205:\n        /* \"#utility.yul\":17948:17956   */\n      0x00\n        /* \"#utility.yul\":17998:18003   */\n      dup3\n        /* \"#utility.yul\":17992:17996   */\n      dup3\n        /* \"#utility.yul\":17988:18004   */\n      shr\n        /* \"#utility.yul\":17967:18004   */\n      swap1\n      pop\n        /* \"#utility.yul\":17894:18011   */\n      swap3\n      swap2\n      pop\n      pop\n      jump\t// out\n        /* \"#utility.yul\":18017:18186   */\n    tag_206:\n        /* \"#utility.yul\":18061:18067   */\n      0x00\n        /* \"#utility.yul\":18094:18145   */\n      tag_391\n        /* \"#utility.yul\":18142:18143   */\n      0x00\n        /* \"#utility.yul\":18138:18144   */\n      not\n        /* \"#utility.yul\":18130:18135   */\n      dup5\n        /* \"#utility.yul\":18127:18128   */\n      0x08\n        /* \"#utility.yul\":18123:18136   */\n      mul\n        /* \"#utility.yul\":18094:18145   */\n      tag_205\n      jump\t// in\n    tag_391:\n        /* \"#utility.yul\":18090:18146   */\n      not\n        /* \"#utility.yul\":18175:18179   */\n      dup1\n        /* \"#utility.yul\":18169:18173   */\n      dup4\n        /* \"#utility.yul\":18165:18180   */\n      and\n        /* \"#utility.yul\":18155:18180   */\n      swap2\n      pop\n        /* \"#utility.yul\":18068:18186   */\n      pop\n        /* \"#utility.yul\":18017:18186   */\n      swap3\n      swap2\n      pop\n      pop\n      jump\t// out\n        /* \"#utility.yul\":18191:18486   */\n    tag_207:\n        /* \"#utility.yul\":18267:18271   */\n      0x00\n        /* \"#utility.yul\":18413:18442   */\n      tag_393\n        /* \"#utility.yul\":18438:18441   */\n      dup4\n        /* \"#utility.yul\":18432:18436   */\n      dup4\n        /* \"#utility.yul\":18413:18442   */\n      tag_206\n      jump\t// in\n    tag_393:\n        /* \"#utility.yul\":18405:18442   */\n      swap2\n      pop\n        /* \"#utility.yul\":18475:18478   */\n      dup3\n        /* \"#utility.yul\":18472:18473   */\n      0x02\n        /* \"#utility.yul\":18468:18479   */\n      mul\n        /* \"#utility.yul\":18462:18466   */\n      dup3\n        /* \"#utility.yul\":18459:18480   */\n      or\n        /* \"#utility.yul\":18451:18480   */\n      swap1\n      pop\n        /* \"#utility.yul\":18191:18486   */\n      swap3\n      swap2\n      pop\n      pop\n      jump\t// out\n        /* \"#utility.yul\":18491:19886   */\n    tag_139:\n        /* \"#utility.yul\":18608:18645   */\n      tag_395\n        /* \"#utility.yul\":18641:18644   */\n      dup3\n        /* \"#utility.yul\":18608:18645   */\n      tag_166\n      jump\t// in\n    tag_395:\n        /* \"#utility.yul\":18710:18728   */\n      0xffffffffffffffff\n        /* \"#utility.yul\":18702:18708   */\n      dup2\n        /* \"#utility.yul\":18699:18729   */\n      gt\n        /* \"#utility.yul\":18696:18752   */\n      iszero\n      tag_396\n      jumpi\n        /* \"#utility.yul\":18732:18750   */\n      tag_397\n      tag_174\n      jump\t// in\n    tag_397:\n        /* \"#utility.yul\":18696:18752   */\n    tag_396:\n        /* \"#utility.yul\":18776:18814   */\n      tag_398\n        /* \"#utility.yul\":18808:18812   */\n      dup3\n        /* \"#utility.yul\":18802:18813   */\n      sload\n        /* \"#utility.yul\":18776:18814   */\n      tag_74\n      jump\t// in\n    tag_398:\n        /* \"#utility.yul\":18861:18928   */\n      tag_399\n        /* \"#utility.yul\":18921:18927   */\n      dup3\n        /* \"#utility.yul\":18913:18919   */\n      dup3\n        /* \"#utility.yul\":18907:18911   */\n      dup6\n        /* \"#utility.yul\":18861:18928   */\n      tag_204\n      jump\t// in\n    tag_399:\n        /* \"#utility.yul\":18955:18956   */\n      0x00\n        /* \"#utility.yul\":18979:18983   */\n      0x20\n        /* \"#utility.yul\":18966:18983   */\n      swap1\n      pop\n        /* \"#utility.yul\":19011:19013   */\n      0x1f\n        /* \"#utility.yul\":19003:19009   */\n      dup4\n        /* \"#utility.yul\":19000:19014   */\n      gt\n        /* \"#utility.yul\":19028:19029   */\n      0x01\n        /* \"#utility.yul\":19023:19641   */\n      dup2\n      eq\n      tag_401\n      jumpi\n        /* \"#utility.yul\":19685:19686   */\n      0x00\n        /* \"#utility.yul\":19702:19708   */\n      dup5\n        /* \"#utility.yul\":19699:19776   */\n      iszero\n      tag_402\n      jumpi\n        /* \"#utility.yul\":19751:19760   */\n      dup3\n        /* \"#utility.yul\":19746:19749   */\n      dup8\n        /* \"#utility.yul\":19742:19761   */\n      add\n        /* \"#utility.yul\":19736:19762   */\n      mload\n        /* \"#utility.yul\":19727:19762   */\n      swap1\n      pop\n        /* \"#utility.yul\":19699:19776   */\n    tag_402:\n        /* \"#utility.yul\":19802:19869   */\n      tag_403\n        /* \"#utility.yul\":19862:19868   */\n      dup6\n        /* \"#utility.yul\":19855:19860   */\n      dup3\n        /* \"#utility.yul\":19802:19869   */\n      tag_207\n      jump\t// in\n    tag_403:\n        /* \"#utility.yul\":19796:19800   */\n      dup7\n        /* \"#utility.yul\":19789:19870   */\n      sstore\n        /* \"#utility.yul\":19658:19880   */\n      pop\n        /* \"#utility.yul\":18993:19880   */\n      jump(tag_400)\n        /* \"#utility.yul\":19023:19641   */\n    tag_401:\n        /* \"#utility.yul\":19075:19079   */\n      0x1f\n        /* \"#utility.yul\":19071:19080   */\n      not\n        /* \"#utility.yul\":19063:19069   */\n      dup5\n        /* \"#utility.yul\":19059:19081   */\n      and\n        /* \"#utility.yul\":19109:19146   */\n      tag_404\n        /* \"#utility.yul\":19141:19145   */\n      dup7\n        /* \"#utility.yul\":19109:19146   */\n      tag_193\n      jump\t// in\n    tag_404:\n        /* \"#utility.yul\":19168:19169   */\n      0x00\n        /* \"#utility.yul\":19182:19390   */\n    tag_405:\n        /* \"#utility.yul\":19196:19203   */\n      dup3\n        /* \"#utility.yul\":19193:19194   */\n      dup2\n        /* \"#utility.yul\":19190:19204   */\n      lt\n        /* \"#utility.yul\":19182:19390   */\n      iszero\n      tag_407\n      jumpi\n        /* \"#utility.yul\":19275:19284   */\n      dup5\n        /* \"#utility.yul\":19270:19273   */\n      dup10\n        /* \"#utility.yul\":19266:19285   */\n      add\n        /* \"#utility.yul\":19260:19286   */\n      mload\n        /* \"#utility.yul\":19252:19258   */\n      dup3\n        /* \"#utility.yul\":19245:19287   */\n      sstore\n        /* \"#utility.yul\":19326:19327   */\n      0x01\n        /* \"#utility.yul\":19318:19324   */\n      dup3\n        /* \"#utility.yul\":19314:19328   */\n      add\n        /* \"#utility.yul\":19304:19328   */\n      swap2\n      pop\n        /* \"#utility.yul\":19373:19375   */\n      0x20\n        /* \"#utility.yul\":19362:19371   */\n      dup6\n        /* \"#utility.yul\":19358:19376   */\n      add\n        /* \"#utility.yul\":19345:19376   */\n      swap5\n      pop\n        /* \"#utility.yul\":19219:19223   */\n      0x20\n        /* \"#utility.yul\":19216:19217   */\n      dup2\n        /* \"#utility.yul\":19212:19224   */\n      add\n        /* \"#utility.yul\":19207:19224   */\n      swap1\n      pop\n        /* \"#utility.yul\":19182:19390   */\n      jump(tag_405)\n    tag_407:\n        /* \"#utility.yul\":19418:19424   */\n      dup7\n        /* \"#utility.yul\":19409:19416   */\n      dup4\n        /* \"#utility.yul\":19406:19425   */\n      lt\n        /* \"#utility.yul\":19403:19582   */\n      iszero\n      tag_408\n      jumpi\n        /* \"#utility.yul\":19476:19485   */\n      dup5\n        /* \"#utility.yul\":19471:19474   */\n      dup10\n        /* \"#utility.yul\":19467:19486   */\n      add\n        /* \"#utility.yul\":19461:19487   */\n      mload\n        /* \"#utility.yul\":19519:19567   */\n      tag_409\n        /* \"#utility.yul\":19561:19565   */\n      0x1f\n        /* \"#utility.yul\":19553:19559   */\n      dup10\n        /* \"#utility.yul\":19549:19566   */\n      and\n        /* \"#utility.yul\":19538:19547   */\n      dup3\n        /* \"#utility.yul\":19519:19567   */\n      tag_206\n      jump\t// in\n    tag_409:\n        /* \"#utility.yul\":19511:19517   */\n      dup4\n        /* \"#utility.yul\":19504:19568   */\n      sstore\n        /* \"#utility.yul\":19426:19582   */\n      pop\n        /* \"#utility.yul\":19403:19582   */\n    tag_408:\n        /* \"#utility.yul\":19628:19629   */\n      0x01\n        /* \"#utility.yul\":19624:19625   */\n      0x02\n        /* \"#utility.yul\":19616:19622   */\n      dup9\n        /* \"#utility.yul\":19612:19626   */\n      mul\n        /* \"#utility.yul\":19608:19630   */\n      add\n        /* \"#utility.yul\":19602:19606   */\n      dup9\n        /* \"#utility.yul\":19595:19631   */\n      sstore\n        /* \"#utility.yul\":19030:19641   */\n      pop\n      pop\n      pop\n        /* \"#utility.yul\":18993:19880   */\n    tag_400:\n      pop\n        /* \"#utility.yul\":18583:19886   */\n      pop\n      pop\n      pop\n        /* \"#utility.yul\":18491:19886   */\n      pop\n      pop\n      jump\t// out\n        /* \"#utility.yul\":19892:20627   */\n    tag_143:\n        /* \"#utility.yul\":20109:20113   */\n      0x00\n        /* \"#utility.yul\":20147:20150   */\n      0x80\n        /* \"#utility.yul\":20136:20145   */\n      dup3\n        /* \"#utility.yul\":20132:20151   */\n      add\n        /* \"#utility.yul\":20124:20151   */\n      swap1\n      pop\n        /* \"#utility.yul\":20197:20206   */\n      dup2\n        /* \"#utility.yul\":20191:20195   */\n      dup2\n        /* \"#utility.yul\":20187:20207   */\n      sub\n        /* \"#utility.yul\":20183:20184   */\n      0x00\n        /* \"#utility.yul\":20172:20181   */\n      dup4\n        /* \"#utility.yul\":20168:20185   */\n      add\n        /* \"#utility.yul\":20161:20208   */\n      mstore\n        /* \"#utility.yul\":20225:20303   */\n      tag_411\n        /* \"#utility.yul\":20298:20302   */\n      dup2\n        /* \"#utility.yul\":20289:20295   */\n      dup8\n        /* \"#utility.yul\":20225:20303   */\n      tag_170\n      jump\t// in\n    tag_411:\n        /* \"#utility.yul\":20217:20303   */\n      swap1\n      pop\n        /* \"#utility.yul\":20350:20359   */\n      dup2\n        /* \"#utility.yul\":20344:20348   */\n      dup2\n        /* \"#utility.yul\":20340:20360   */\n      sub\n        /* \"#utility.yul\":20335:20337   */\n      0x20\n        /* \"#utility.yul\":20324:20333   */\n      dup4\n        /* \"#utility.yul\":20320:20338   */\n      add\n        /* \"#utility.yul\":20313:20361   */\n      mstore\n        /* \"#utility.yul\":20378:20456   */\n      tag_412\n        /* \"#utility.yul\":20451:20455   */\n      dup2\n        /* \"#utility.yul\":20442:20448   */\n      dup7\n        /* \"#utility.yul\":20378:20456   */\n      tag_170\n      jump\t// in\n    tag_412:\n        /* \"#utility.yul\":20370:20456   */\n      swap1\n      pop\n        /* \"#utility.yul\":20466:20538   */\n      tag_413\n        /* \"#utility.yul\":20534:20536   */\n      0x40\n        /* \"#utility.yul\":20523:20532   */\n      dup4\n        /* \"#utility.yul\":20519:20537   */\n      add\n        /* \"#utility.yul\":20510:20516   */\n      dup6\n        /* \"#utility.yul\":20466:20538   */\n      tag_159\n      jump\t// in\n    tag_413:\n        /* \"#utility.yul\":20548:20620   */\n      tag_414\n        /* \"#utility.yul\":20616:20618   */\n      0x60\n        /* \"#utility.yul\":20605:20614   */\n      dup4\n        /* \"#utility.yul\":20601:20619   */\n      add\n        /* \"#utility.yul\":20592:20598   */\n      dup5\n        /* \"#utility.yul\":20548:20620   */\n      tag_159\n      jump\t// in\n    tag_414:\n        /* \"#utility.yul\":19892:20627   */\n      swap6\n      swap5\n      pop\n      pop\n      pop\n      pop\n      pop\n      jump\t// out\n\n    auxdata: 0xa2646970667358221220c3905fa8242686a8c8d11cb0967775b562950d1d91b884dafe42e34b49df4c7564736f6c634300081a0033\n}\n",
				"bytecode": {
					"linkReferences": {},
					"object": "608060405234801561000f575f80fd5b506040516118f23803806118f2833981810160405281019061003191906101d7565b805f73ffffffffffffffffffffffffffffffffffffffff168173ffffffffffffffffffffffffffffffffffffffff16036100a2575f6040517f1e4fbdf70000000000000000000000000000000000000000000000000000000081526004016100999190610211565b60405180910390fd5b6100b1816100b860201b60201c565b505061022a565b5f805f9054906101000a900473ffffffffffffffffffffffffffffffffffffffff169050815f806101000a81548173ffffffffffffffffffffffffffffffffffffffff021916908373ffffffffffffffffffffffffffffffffffffffff1602179055508173ffffffffffffffffffffffffffffffffffffffff168173ffffffffffffffffffffffffffffffffffffffff167f8be0079c531659141344cd1fd0a4f28419497f9722a3daafe3b4186f6b6457e060405160405180910390a35050565b5f80fd5b5f73ffffffffffffffffffffffffffffffffffffffff82169050919050565b5f6101a68261017d565b9050919050565b6101b68161019c565b81146101c0575f80fd5b50565b5f815190506101d1816101ad565b92915050565b5f602082840312156101ec576101eb610179565b5b5f6101f9848285016101c3565b91505092915050565b61020b8161019c565b82525050565b5f6020820190506102245f830184610202565b92915050565b6116bb806102375f395ff3fe60806040526004361061009b575f3560e01c806383c2eaba1161006357806383c2eaba146101ad5780638c1af2e0146101e95780638da5cb5b14610211578063f2fde38b1461023b578063f346e2b714610263578063f733719c1461027f5761009b565b8063513073b81461009f5780635745ae28146100db5780635ac3e19e146101175780636874404614610157578063715018a614610197575b5f80fd5b3480156100aa575f80fd5b506100c560048036038101906100c09190610c0b565b6102a7565b6040516100d29190610c45565b60405180910390f35b3480156100e6575f80fd5b5061010160048036038101906100fc9190610cb8565b6102c7565b60405161010e9190610cfd565b60405180910390f35b348015610122575f80fd5b5061013d60048036038101906101389190610c0b565b6102e4565b60405161014e959493929190610d86565b60405180910390f35b348015610162575f80fd5b5061017d60048036038101906101789190610c0b565b610482565b60405161018e959493929190610d86565b60405180910390f35b3480156101a2575f80fd5b506101ab6105cc565b005b3480156101b8575f80fd5b506101d360048036038101906101ce9190610c0b565b6105df565b6040516101e09190610df4565b60405180910390f35b3480156101f4575f80fd5b5061020f600480360381019061020a9190610e0d565b61061a565b005b34801561021c575f80fd5b50610225610712565b6040516102329190610df4565b60405180910390f35b348015610246575f80fd5b50610261600480360381019061025c9190610cb8565b610739565b005b61027d60048036038101906102789190610e4b565b6107bd565b005b34801561028a575f80fd5b506102a560048036038101906102a09190610fc7565b610913565b005b600381815481106102b6575f80fd5b905f5260205f20015f915090505481565b6002602052805f5260405f205f915054906101000a900460ff1681565b6060805f805f8060015f8881526020019081526020015f206040518060a00160405290815f82018054610316906110a3565b80601f0160208091040260200160405190810160405280929190818152602001828054610342906110a3565b801561038d5780601f106103645761010080835404028352916020019161038d565b820191905f5260205f20905b81548152906001019060200180831161037057829003601f168201915b505050505081526020016001820180546103a6906110a3565b80601f01602080910402602001604051908101604052809291908181526020018280546103d2906110a3565b801561041d5780601f106103f45761010080835404028352916020019161041d565b820191905f5260205f20905b81548152906001019060200180831161040057829003601f168201915b505050505081526020016002820154815260200160038201548152602001600482015f9054906101000a900460ff1615151515815250509050805f01518160200151826040015183606001518460800151955095509550955095505091939590929450565b6001602052805f5260405f205f91509050805f0180546104a1906110a3565b80601f01602080910402602001604051908101604052809291908181526020018280546104cd906110a3565b80156105185780601f106104ef57610100808354040283529160200191610518565b820191905f5260205f20905b8154815290600101906020018083116104fb57829003601f168201915b50505050509080600101805461052d906110a3565b80601f0160208091040260200160405190810160405280929190818152602001828054610559906110a3565b80156105a45780601f1061057b576101008083540402835291602001916105a4565b820191905f5260205f20905b81548152906001019060200180831161058757829003601f168201915b505050505090806002015490806003015490806004015f9054906101000a900460ff16905085565b6105d4610a78565b6105dd5f610aff565b565b600481815481106105ee575f80fd5b905f5260205f20015f915054906101000a900473ffffffffffffffffffffffffffffffffffffffff1681565b610622610a78565b5f60015f8481526020019081526020015f209050818160030154101561067d576040517f08c379a000000000000000000000000000000000000000000000000000000000815260040161067490611143565b60405180910390fd5b81816003015f828254610690919061118e565b925050819055505f8160030154036106be575f816004015f6101000a81548160ff0219169083151502179055505b3373ffffffffffffffffffffffffffffffffffffffff16837f64d3c1cd49b6dedf0828bb9ccdeddcb5c406529c38385a4255e1938cdb77cbbb846040516107059190610c45565b60405180910390a3505050565b5f805f9054906101000a900473ffffffffffffffffffffffffffffffffffffffff16905090565b610741610a78565b5f73ffffffffffffffffffffffffffffffffffffffff168173ffffffffffffffffffffffffffffffffffffffff16036107b1575f6040517f1e4fbdf70000000000000000000000000000000000000000000000000000000081526004016107a89190610df4565b60405180910390fd5b6107ba81610aff565b50565b5f60015f8581526020019081526020015f209050806004015f9054906101000a900460ff16610821576040517f08c379a00000000000000000000000000000000000000000000000000000000081526004016108189061120b565b60405180910390fd5b8281600301541015610868576040517f08c379a000000000000000000000000000000000000000000000000000000000815260040161085f90611273565b60405180910390fd5b5f8382600201546108799190611291565b90508034146108bd576040517f08c379a00000000000000000000000000000000000000000000000000000000081526004016108b49061131c565b60405180910390fd5b3373ffffffffffffffffffffffffffffffffffffffff16857f6c8d68b838f247ed7bcb21ea277e2e9304099fc25d2a89d666fb64482971e0fc866040516109049190610c45565b60405180910390a35050505050565b61091b610a78565b5f60015f8781526020019081526020015f206002015414610971576040517f08c379a0000000000000000000000000000000000000000000000000000000008152600401610968906113aa565b60405180910390fd5b6040518060a001604052808581526020018481526020018381526020018281526020015f8311151581525060015f8781526020019081526020015f205f820151815f0190816109c09190611565565b5060208201518160010190816109d69190611565565b5060408201518160020155606082015181600301556080820151816004015f6101000a81548160ff021916908315150217905550905050600385908060018154018082558091505060019003905f5260205f20015f9091909190915055847f722c04650224f771c04ec5712c74689980b3ddb4eaa233cd8f9c72d7da7fbe2985858585604051610a699493929190611634565b60405180910390a25050505050565b610a80610bc0565b73ffffffffffffffffffffffffffffffffffffffff16610a9e610712565b73ffffffffffffffffffffffffffffffffffffffff1614610afd57610ac1610bc0565b6040517f118cdaa7000000000000000000000000000000000000000000000000000000008152600401610af49190610df4565b60405180910390fd5b565b5f805f9054906101000a900473ffffffffffffffffffffffffffffffffffffffff169050815f806101000a81548173ffffffffffffffffffffffffffffffffffffffff021916908373ffffffffffffffffffffffffffffffffffffffff1602179055508173ffffffffffffffffffffffffffffffffffffffff168173ffffffffffffffffffffffffffffffffffffffff167f8be0079c531659141344cd1fd0a4f28419497f9722a3daafe3b4186f6b6457e060405160405180910390a35050565b5f33905090565b5f604051905090565b5f80fd5b5f80fd5b5f819050919050565b610bea81610bd8565b8114610bf4575f80fd5b50565b5f81359050610c0581610be1565b92915050565b5f60208284031215610c2057610c1f610bd0565b5b5f610c2d84828501610bf7565b91505092915050565b610c3f81610bd8565b82525050565b5f602082019050610c585f830184610c36565b92915050565b5f73ffffffffffffffffffffffffffffffffffffffff82169050919050565b5f610c8782610c5e565b9050919050565b610c9781610c7d565b8114610ca1575f80fd5b50565b5f81359050610cb281610c8e565b92915050565b5f60208284031215610ccd57610ccc610bd0565b5b5f610cda84828501610ca4565b91505092915050565b5f8115159050919050565b610cf781610ce3565b82525050565b5f602082019050610d105f830184610cee565b92915050565b5f81519050919050565b5f82825260208201905092915050565b8281835e5f83830152505050565b5f601f19601f8301169050919050565b5f610d5882610d16565b610d628185610d20565b9350610d72818560208601610d30565b610d7b81610d3e565b840191505092915050565b5f60a0820190508181035f830152610d9e8188610d4e565b90508181036020830152610db28187610d4e565b9050610dc16040830186610c36565b610dce6060830185610c36565b610ddb6080830184610cee565b9695505050505050565b610dee81610c7d565b82525050565b5f602082019050610e075f830184610de5565b92915050565b5f8060408385031215610e2357610e22610bd0565b5b5f610e3085828601610bf7565b9250506020610e4185828601610bf7565b9150509250929050565b5f805f60608486031215610e6257610e61610bd0565b5b5f610e6f86828701610bf7565b9350506020610e8086828701610bf7565b9250506040610e9186828701610bf7565b9150509250925092565b5f80fd5b5f80fd5b7f4e487b71000000000000000000000000000000000000000000000000000000005f52604160045260245ffd5b610ed982610d3e565b810181811067ffffffffffffffff82111715610ef857610ef7610ea3565b5b80604052505050565b5f610f0a610bc7565b9050610f168282610ed0565b919050565b5f67ffffffffffffffff821115610f3557610f34610ea3565b5b610f3e82610d3e565b9050602081019050919050565b828183375f83830152505050565b5f610f6b610f6684610f1b565b610f01565b905082815260208101848484011115610f8757610f86610e9f565b5b610f92848285610f4b565b509392505050565b5f82601f830112610fae57610fad610e9b565b5b8135610fbe848260208601610f59565b91505092915050565b5f805f805f60a08688031215610fe057610fdf610bd0565b5b5f610fed88828901610bf7565b955050602086013567ffffffffffffffff81111561100e5761100d610bd4565b5b61101a88828901610f9a565b945050604086013567ffffffffffffffff81111561103b5761103a610bd4565b5b61104788828901610f9a565b935050606061105888828901610bf7565b925050608061106988828901610bf7565b9150509295509295909350565b7f4e487b71000000000000000000000000000000000000000000000000000000005f52602260045260245ffd5b5f60028204905060018216806110ba57607f821691505b6020821081036110cd576110cc611076565b5b50919050565b7f6e6f7420656e6f756768742073746f636b20746f20636f6e6669726d207075725f8201527f6368617365000000000000000000000000000000000000000000000000000000602082015250565b5f61112d602583610d20565b9150611138826110d3565b604082019050919050565b5f6020820190508181035f83015261115a81611121565b9050919050565b7f4e487b71000000000000000000000000000000000000000000000000000000005f52601160045260245ffd5b5f61119882610bd8565b91506111a383610bd8565b92508282039050818111156111bb576111ba611161565b5b92915050565b7f5468697320626f6f6b206973206e6f7420617661696c61626c652e00000000005f82015250565b5f6111f5601b83610d20565b9150611200826111c1565b602082019050919050565b5f6020820190508181035f830152611222816111e9565b9050919050565b7f4e6f7420656e6f7567682073746f636b20617661696c61626c652e00000000005f82015250565b5f61125d601b83610d20565b915061126882611229565b602082019050919050565b5f6020820190508181035f83015261128a81611251565b9050919050565b5f61129b82610bd8565b91506112a683610bd8565b92508282026112b481610bd8565b915082820484148315176112cb576112ca611161565b5b5092915050565b7f20496e636f7272656374207061796d656e7420616d6f756e74000000000000005f82015250565b5f611306601983610d20565b9150611311826112d2565b602082019050919050565b5f6020820190508181035f830152611333816112fa565b9050919050565b7f426f6f6b20616c726561647920657869737473207769746820746869732049445f8201527f2e00000000000000000000000000000000000000000000000000000000000000602082015250565b5f611394602183610d20565b915061139f8261133a565b604082019050919050565b5f6020820190508181035f8301526113c181611388565b9050919050565b5f819050815f5260205f209050919050565b5f6020601f8301049050919050565b5f82821b905092915050565b5f600883026114247fffffffffffffffffffffffffffffffffffffffffffffffffffffffffffffffff826113e9565b61142e86836113e9565b95508019841693508086168417925050509392505050565b5f819050919050565b5f61146961146461145f84610bd8565b611446565b610bd8565b9050919050565b5f819050919050565b6114828361144f565b61149661148e82611470565b8484546113f5565b825550505050565b5f90565b6114aa61149e565b6114b5818484611479565b505050565b5b818110156114d8576114cd5f826114a2565b6001810190506114bb565b5050565b601f82111561151d576114ee816113c8565b6114f7846113da565b81016020851015611506578190505b61151a611512856113da565b8301826114ba565b50505b505050565b5f82821c905092915050565b5f61153d5f1984600802611522565b1980831691505092915050565b5f611555838361152e565b9150826002028217905092915050565b61156e82610d16565b67ffffffffffffffff81111561158757611586610ea3565b5b61159182546110a3565b61159c8282856114dc565b5f60209050601f8311600181146115cd575f84156115bb578287015190505b6115c5858261154a565b86555061162c565b601f1984166115db866113c8565b5f5b82811015611602578489015182556001820191506020850194506020810190506115dd565b8683101561161f578489015161161b601f89168261152e565b8355505b6001600288020188555050505b505050505050565b5f6080820190508181035f83015261164c8187610d4e565b905081810360208301526116608186610d4e565b905061166f6040830185610c36565b61167c6060830184610c36565b9594505050505056fea2646970667358221220c3905fa8242686a8c8d11cb0967775b562950d1d91b884dafe42e34b49df4c7564736f6c634300081a0033",
					"opcodes": "PUSH1 0x80 PUSH1 0x40 MSTORE CALLVALUE DUP1 ISZERO PUSH2 0xF JUMPI PUSH0 DUP1 REVERT JUMPDEST POP PUSH1 0x40 MLOAD PUSH2 0x18F2 CODESIZE SUB DUP1 PUSH2 0x18F2 DUP4 CODECOPY DUP2 DUP2 ADD PUSH1 0x40 MSTORE DUP2 ADD SWAP1 PUSH2 0x31 SWAP2 SWAP1 PUSH2 0x1D7 JUMP JUMPDEST DUP1 PUSH0 PUSH20 0xFFFFFFFFFFFFFFFFFFFFFFFFFFFFFFFFFFFFFFFF AND DUP2 PUSH20 0xFFFFFFFFFFFFFFFFFFFFFFFFFFFFFFFFFFFFFFFF AND SUB PUSH2 0xA2 JUMPI PUSH0 PUSH1 0x40 MLOAD PUSH32 0x1E4FBDF700000000000000000000000000000000000000000000000000000000 DUP2 MSTORE PUSH1 0x4 ADD PUSH2 0x99 SWAP2 SWAP1 PUSH2 0x211 JUMP JUMPDEST PUSH1 0x40 MLOAD DUP1 SWAP2 SUB SWAP1 REVERT JUMPDEST PUSH2 0xB1 DUP2 PUSH2 0xB8 PUSH1 0x20 SHL PUSH1 0x20 SHR JUMP JUMPDEST POP POP PUSH2 0x22A JUMP JUMPDEST PUSH0 DUP1 PUSH0 SWAP1 SLOAD SWAP1 PUSH2 0x100 EXP SWAP1 DIV PUSH20 0xFFFFFFFFFFFFFFFFFFFFFFFFFFFFFFFFFFFFFFFF AND SWAP1 POP DUP2 PUSH0 DUP1 PUSH2 0x100 EXP DUP2 SLOAD DUP2 PUSH20 0xFFFFFFFFFFFFFFFFFFFFFFFFFFFFFFFFFFFFFFFF MUL NOT AND SWAP1 DUP4 PUSH20 0xFFFFFFFFFFFFFFFFFFFFFFFFFFFFFFFFFFFFFFFF AND MUL OR SWAP1 SSTORE POP DUP2 PUSH20 0xFFFFFFFFFFFFFFFFFFFFFFFFFFFFFFFFFFFFFFFF AND DUP2 PUSH20 0xFFFFFFFFFFFFFFFFFFFFFFFFFFFFFFFFFFFFFFFF AND PUSH32 0x8BE0079C531659141344CD1FD0A4F28419497F9722A3DAAFE3B4186F6B6457E0 PUSH1 0x40 MLOAD PUSH1 0x40 MLOAD DUP1 SWAP2 SUB SWAP1 LOG3 POP POP JUMP JUMPDEST PUSH0 DUP1 REVERT JUMPDEST PUSH0 PUSH20 0xFFFFFFFFFFFFFFFFFFFFFFFFFFFFFFFFFFFFFFFF DUP3 AND SWAP1 POP SWAP2 SWAP1 POP JUMP JUMPDEST PUSH0 PUSH2 0x1A6 DUP3 PUSH2 0x17D JUMP JUMPDEST SWAP1 POP SWAP2 SWAP1 POP JUMP JUMPDEST PUSH2 0x1B6 DUP2 PUSH2 0x19C JUMP JUMPDEST DUP2 EQ PUSH2 0x1C0 JUMPI PUSH0 DUP1 REVERT JUMPDEST POP JUMP JUMPDEST PUSH0 DUP2 MLOAD SWAP1 POP PUSH2 0x1D1 DUP2 PUSH2 0x1AD JUMP JUMPDEST SWAP3 SWAP2 POP POP JUMP JUMPDEST PUSH0 PUSH1 0x20 DUP3 DUP5 SUB SLT ISZERO PUSH2 0x1EC JUMPI PUSH2 0x1EB PUSH2 0x179 JUMP JUMPDEST JUMPDEST PUSH0 PUSH2 0x1F9 DUP5 DUP3 DUP6 ADD PUSH2 0x1C3 JUMP JUMPDEST SWAP2 POP POP SWAP3 SWAP2 POP POP JUMP JUMPDEST PUSH2 0x20B DUP2 PUSH2 0x19C JUMP JUMPDEST DUP3 MSTORE POP POP JUMP JUMPDEST PUSH0 PUSH1 0x20 DUP3 ADD SWAP1 POP PUSH2 0x224 PUSH0 DUP4 ADD DUP5 PUSH2 0x202 JUMP JUMPDEST SWAP3 SWAP2 POP POP JUMP JUMPDEST PUSH2 0x16BB DUP1 PUSH2 0x237 PUSH0 CODECOPY PUSH0 RETURN INVALID PUSH1 0x80 PUSH1 0x40 MSTORE PUSH1 0x4 CALLDATASIZE LT PUSH2 0x9B JUMPI PUSH0 CALLDATALOAD PUSH1 0xE0 SHR DUP1 PUSH4 0x83C2EABA GT PUSH2 0x63 JUMPI DUP1 PUSH4 0x83C2EABA EQ PUSH2 0x1AD JUMPI DUP1 PUSH4 0x8C1AF2E0 EQ PUSH2 0x1E9 JUMPI DUP1 PUSH4 0x8DA5CB5B EQ PUSH2 0x211 JUMPI DUP1 PUSH4 0xF2FDE38B EQ PUSH2 0x23B JUMPI DUP1 PUSH4 0xF346E2B7 EQ PUSH2 0x263 JUMPI DUP1 PUSH4 0xF733719C EQ PUSH2 0x27F JUMPI PUSH2 0x9B JUMP JUMPDEST DUP1 PUSH4 0x513073B8 EQ PUSH2 0x9F JUMPI DUP1 PUSH4 0x5745AE28 EQ PUSH2 0xDB JUMPI DUP1 PUSH4 0x5AC3E19E EQ PUSH2 0x117 JUMPI DUP1 PUSH4 0x68744046 EQ PUSH2 0x157 JUMPI DUP1 PUSH4 0x715018A6 EQ PUSH2 0x197 JUMPI JUMPDEST PUSH0 DUP1 REVERT JUMPDEST CALLVALUE DUP1 ISZERO PUSH2 0xAA JUMPI PUSH0 DUP1 REVERT JUMPDEST POP PUSH2 0xC5 PUSH1 0x4 DUP1 CALLDATASIZE SUB DUP2 ADD SWAP1 PUSH2 0xC0 SWAP2 SWAP1 PUSH2 0xC0B JUMP JUMPDEST PUSH2 0x2A7 JUMP JUMPDEST PUSH1 0x40 MLOAD PUSH2 0xD2 SWAP2 SWAP1 PUSH2 0xC45 JUMP JUMPDEST PUSH1 0x40 MLOAD DUP1 SWAP2 SUB SWAP1 RETURN JUMPDEST CALLVALUE DUP1 ISZERO PUSH2 0xE6 JUMPI PUSH0 DUP1 REVERT JUMPDEST POP PUSH2 0x101 PUSH1 0x4 DUP1 CALLDATASIZE SUB DUP2 ADD SWAP1 PUSH2 0xFC SWAP2 SWAP1 PUSH2 0xCB8 JUMP JUMPDEST PUSH2 0x2C7 JUMP JUMPDEST PUSH1 0x40 MLOAD PUSH2 0x10E SWAP2 SWAP1 PUSH2 0xCFD JUMP JUMPDEST PUSH1 0x40 MLOAD DUP1 SWAP2 SUB SWAP1 RETURN JUMPDEST CALLVALUE DUP1 ISZERO PUSH2 0x122 JUMPI PUSH0 DUP1 REVERT JUMPDEST POP PUSH2 0x13D PUSH1 0x4 DUP1 CALLDATASIZE SUB DUP2 ADD SWAP1 PUSH2 0x138 SWAP2 SWAP1 PUSH2 0xC0B JUMP JUMPDEST PUSH2 0x2E4 JUMP JUMPDEST PUSH1 0x40 MLOAD PUSH2 0x14E SWAP6 SWAP5 SWAP4 SWAP3 SWAP2 SWAP1 PUSH2 0xD86 JUMP JUMPDEST PUSH1 0x40 MLOAD DUP1 SWAP2 SUB SWAP1 RETURN JUMPDEST CALLVALUE DUP1 ISZERO PUSH2 0x162 JUMPI PUSH0 DUP1 REVERT JUMPDEST POP PUSH2 0x17D PUSH1 0x4 DUP1 CALLDATASIZE SUB DUP2 ADD SWAP1 PUSH2 0x178 SWAP2 SWAP1 PUSH2 0xC0B JUMP JUMPDEST PUSH2 0x482 JUMP JUMPDEST PUSH1 0x40 MLOAD PUSH2 0x18E SWAP6 SWAP5 SWAP4 SWAP3 SWAP2 SWAP1 PUSH2 0xD86 JUMP JUMPDEST PUSH1 0x40 MLOAD DUP1 SWAP2 SUB SWAP1 RETURN JUMPDEST CALLVALUE DUP1 ISZERO PUSH2 0x1A2 JUMPI PUSH0 DUP1 REVERT JUMPDEST POP PUSH2 0x1AB PUSH2 0x5CC JUMP JUMPDEST STOP JUMPDEST CALLVALUE DUP1 ISZERO PUSH2 0x1B8 JUMPI PUSH0 DUP1 REVERT JUMPDEST POP PUSH2 0x1D3 PUSH1 0x4 DUP1 CALLDATASIZE SUB DUP2 ADD SWAP1 PUSH2 0x1CE SWAP2 SWAP1 PUSH2 0xC0B JUMP JUMPDEST PUSH2 0x5DF JUMP JUMPDEST PUSH1 0x40 MLOAD PUSH2 0x1E0 SWAP2 SWAP1 PUSH2 0xDF4 JUMP JUMPDEST PUSH1 0x40 MLOAD DUP1 SWAP2 SUB SWAP1 RETURN JUMPDEST CALLVALUE DUP1 ISZERO PUSH2 0x1F4 JUMPI PUSH0 DUP1 REVERT JUMPDEST POP PUSH2 0x20F PUSH1 0x4 DUP1 CALLDATASIZE SUB DUP2 ADD SWAP1 PUSH2 0x20A SWAP2 SWAP1 PUSH2 0xE0D JUMP JUMPDEST PUSH2 0x61A JUMP JUMPDEST STOP JUMPDEST CALLVALUE DUP1 ISZERO PUSH2 0x21C JUMPI PUSH0 DUP1 REVERT JUMPDEST POP PUSH2 0x225 PUSH2 0x712 JUMP JUMPDEST PUSH1 0x40 MLOAD PUSH2 0x232 SWAP2 SWAP1 PUSH2 0xDF4 JUMP JUMPDEST PUSH1 0x40 MLOAD DUP1 SWAP2 SUB SWAP1 RETURN JUMPDEST CALLVALUE DUP1 ISZERO PUSH2 0x246 JUMPI PUSH0 DUP1 REVERT JUMPDEST POP PUSH2 0x261 PUSH1 0x4 DUP1 CALLDATASIZE SUB DUP2 ADD SWAP1 PUSH2 0x25C SWAP2 SWAP1 PUSH2 0xCB8 JUMP JUMPDEST PUSH2 0x739 JUMP JUMPDEST STOP JUMPDEST PUSH2 0x27D PUSH1 0x4 DUP1 CALLDATASIZE SUB DUP2 ADD SWAP1 PUSH2 0x278 SWAP2 SWAP1 PUSH2 0xE4B JUMP JUMPDEST PUSH2 0x7BD JUMP JUMPDEST STOP JUMPDEST CALLVALUE DUP1 ISZERO PUSH2 0x28A JUMPI PUSH0 DUP1 REVERT JUMPDEST POP PUSH2 0x2A5 PUSH1 0x4 DUP1 CALLDATASIZE SUB DUP2 ADD SWAP1 PUSH2 0x2A0 SWAP2 SWAP1 PUSH2 0xFC7 JUMP JUMPDEST PUSH2 0x913 JUMP JUMPDEST STOP JUMPDEST PUSH1 0x3 DUP2 DUP2 SLOAD DUP2 LT PUSH2 0x2B6 JUMPI PUSH0 DUP1 REVERT JUMPDEST SWAP1 PUSH0 MSTORE PUSH1 0x20 PUSH0 KECCAK256 ADD PUSH0 SWAP2 POP SWAP1 POP SLOAD DUP2 JUMP JUMPDEST PUSH1 0x2 PUSH1 0x20 MSTORE DUP1 PUSH0 MSTORE PUSH1 0x40 PUSH0 KECCAK256 PUSH0 SWAP2 POP SLOAD SWAP1 PUSH2 0x100 EXP SWAP1 DIV PUSH1 0xFF AND DUP2 JUMP JUMPDEST PUSH1 0x60 DUP1 PUSH0 DUP1 PUSH0 DUP1 PUSH1 0x1 PUSH0 DUP9 DUP2 MSTORE PUSH1 0x20 ADD SWAP1 DUP2 MSTORE PUSH1 0x20 ADD PUSH0 KECCAK256 PUSH1 0x40 MLOAD DUP1 PUSH1 0xA0 ADD PUSH1 0x40 MSTORE SWAP1 DUP2 PUSH0 DUP3 ADD DUP1 SLOAD PUSH2 0x316 SWAP1 PUSH2 0x10A3 JUMP JUMPDEST DUP1 PUSH1 0x1F ADD PUSH1 0x20 DUP1 SWAP2 DIV MUL PUSH1 0x20 ADD PUSH1 0x40 MLOAD SWAP1 DUP2 ADD PUSH1 0x40 MSTORE DUP1 SWAP3 SWAP2 SWAP1 DUP2 DUP2 MSTORE PUSH1 0x20 ADD DUP3 DUP1 SLOAD PUSH2 0x342 SWAP1 PUSH2 0x10A3 JUMP JUMPDEST DUP1 ISZERO PUSH2 0x38D JUMPI DUP1 PUSH1 0x1F LT PUSH2 0x364 JUMPI PUSH2 0x100 DUP1 DUP4 SLOAD DIV MUL DUP4 MSTORE SWAP2 PUSH1 0x20 ADD SWAP2 PUSH2 0x38D JUMP JUMPDEST DUP3 ADD SWAP2 SWAP1 PUSH0 MSTORE PUSH1 0x20 PUSH0 KECCAK256 SWAP1 JUMPDEST DUP2 SLOAD DUP2 MSTORE SWAP1 PUSH1 0x1 ADD SWAP1 PUSH1 0x20 ADD DUP1 DUP4 GT PUSH2 0x370 JUMPI DUP3 SWAP1 SUB PUSH1 0x1F AND DUP3 ADD SWAP2 JUMPDEST POP POP POP POP POP DUP2 MSTORE PUSH1 0x20 ADD PUSH1 0x1 DUP3 ADD DUP1 SLOAD PUSH2 0x3A6 SWAP1 PUSH2 0x10A3 JUMP JUMPDEST DUP1 PUSH1 0x1F ADD PUSH1 0x20 DUP1 SWAP2 DIV MUL PUSH1 0x20 ADD PUSH1 0x40 MLOAD SWAP1 DUP2 ADD PUSH1 0x40 MSTORE DUP1 SWAP3 SWAP2 SWAP1 DUP2 DUP2 MSTORE PUSH1 0x20 ADD DUP3 DUP1 SLOAD PUSH2 0x3D2 SWAP1 PUSH2 0x10A3 JUMP JUMPDEST DUP1 ISZERO PUSH2 0x41D JUMPI DUP1 PUSH1 0x1F LT PUSH2 0x3F4 JUMPI PUSH2 0x100 DUP1 DUP4 SLOAD DIV MUL DUP4 MSTORE SWAP2 PUSH1 0x20 ADD SWAP2 PUSH2 0x41D JUMP JUMPDEST DUP3 ADD SWAP2 SWAP1 PUSH0 MSTORE PUSH1 0x20 PUSH0 KECCAK256 SWAP1 JUMPDEST DUP2 SLOAD DUP2 MSTORE SWAP1 PUSH1 0x1 ADD SWAP1 PUSH1 0x20 ADD DUP1 DUP4 GT PUSH2 0x400 JUMPI DUP3 SWAP1 SUB PUSH1 0x1F AND DUP3 ADD SWAP2 JUMPDEST POP POP POP POP POP DUP2 MSTORE PUSH1 0x20 ADD PUSH1 0x2 DUP3 ADD SLOAD DUP2 MSTORE PUSH1 0x20 ADD PUSH1 0x3 DUP3 ADD SLOAD DUP2 MSTORE PUSH1 0x20 ADD PUSH1 0x4 DUP3 ADD PUSH0 SWAP1 SLOAD SWAP1 PUSH2 0x100 EXP SWAP1 DIV PUSH1 0xFF AND ISZERO ISZERO ISZERO ISZERO DUP2 MSTORE POP POP SWAP1 POP DUP1 PUSH0 ADD MLOAD DUP2 PUSH1 0x20 ADD MLOAD DUP3 PUSH1 0x40 ADD MLOAD DUP4 PUSH1 0x60 ADD MLOAD DUP5 PUSH1 0x80 ADD MLOAD SWAP6 POP SWAP6 POP SWAP6 POP SWAP6 POP SWAP6 POP POP SWAP2 SWAP4 SWAP6 SWAP1 SWAP3 SWAP5 POP JUMP JUMPDEST PUSH1 0x1 PUSH1 0x20 MSTORE DUP1 PUSH0 MSTORE PUSH1 0x40 PUSH0 KECCAK256 PUSH0 SWAP2 POP SWAP1 POP DUP1 PUSH0 ADD DUP1 SLOAD PUSH2 0x4A1 SWAP1 PUSH2 0x10A3 JUMP JUMPDEST DUP1 PUSH1 0x1F ADD PUSH1 0x20 DUP1 SWAP2 DIV MUL PUSH1 0x20 ADD PUSH1 0x40 MLOAD SWAP1 DUP2 ADD PUSH1 0x40 MSTORE DUP1 SWAP3 SWAP2 SWAP1 DUP2 DUP2 MSTORE PUSH1 0x20 ADD DUP3 DUP1 SLOAD PUSH2 0x4CD SWAP1 PUSH2 0x10A3 JUMP JUMPDEST DUP1 ISZERO PUSH2 0x518 JUMPI DUP1 PUSH1 0x1F LT PUSH2 0x4EF JUMPI PUSH2 0x100 DUP1 DUP4 SLOAD DIV MUL DUP4 MSTORE SWAP2 PUSH1 0x20 ADD SWAP2 PUSH2 0x518 JUMP JUMPDEST DUP3 ADD SWAP2 SWAP1 PUSH0 MSTORE PUSH1 0x20 PUSH0 KECCAK256 SWAP1 JUMPDEST DUP2 SLOAD DUP2 MSTORE SWAP1 PUSH1 0x1 ADD SWAP1 PUSH1 0x20 ADD DUP1 DUP4 GT PUSH2 0x4FB JUMPI DUP3 SWAP1 SUB PUSH1 0x1F AND DUP3 ADD SWAP2 JUMPDEST POP POP POP POP POP SWAP1 DUP1 PUSH1 0x1 ADD DUP1 SLOAD PUSH2 0x52D SWAP1 PUSH2 0x10A3 JUMP JUMPDEST DUP1 PUSH1 0x1F ADD PUSH1 0x20 DUP1 SWAP2 DIV MUL PUSH1 0x20 ADD PUSH1 0x40 MLOAD SWAP1 DUP2 ADD PUSH1 0x40 MSTORE DUP1 SWAP3 SWAP2 SWAP1 DUP2 DUP2 MSTORE PUSH1 0x20 ADD DUP3 DUP1 SLOAD PUSH2 0x559 SWAP1 PUSH2 0x10A3 JUMP JUMPDEST DUP1 ISZERO PUSH2 0x5A4 JUMPI DUP1 PUSH1 0x1F LT PUSH2 0x57B JUMPI PUSH2 0x100 DUP1 DUP4 SLOAD DIV MUL DUP4 MSTORE SWAP2 PUSH1 0x20 ADD SWAP2 PUSH2 0x5A4 JUMP JUMPDEST DUP3 ADD SWAP2 SWAP1 PUSH0 MSTORE PUSH1 0x20 PUSH0 KECCAK256 SWAP1 JUMPDEST DUP2 SLOAD DUP2 MSTORE SWAP1 PUSH1 0x1 ADD SWAP1 PUSH1 0x20 ADD DUP1 DUP4 GT PUSH2 0x587 JUMPI DUP3 SWAP1 SUB PUSH1 0x1F AND DUP3 ADD SWAP2 JUMPDEST POP POP POP POP POP SWAP1 DUP1 PUSH1 0x2 ADD SLOAD SWAP1 DUP1 PUSH1 0x3 ADD SLOAD SWAP1 DUP1 PUSH1 0x4 ADD PUSH0 SWAP1 SLOAD SWAP1 PUSH2 0x100 EXP SWAP1 DIV PUSH1 0xFF AND SWAP1 POP DUP6 JUMP JUMPDEST PUSH2 0x5D4 PUSH2 0xA78 JUMP JUMPDEST PUSH2 0x5DD PUSH0 PUSH2 0xAFF JUMP JUMPDEST JUMP JUMPDEST PUSH1 0x4 DUP2 DUP2 SLOAD DUP2 LT PUSH2 0x5EE JUMPI PUSH0 DUP1 REVERT JUMPDEST SWAP1 PUSH0 MSTORE PUSH1 0x20 PUSH0 KECCAK256 ADD PUSH0 SWAP2 POP SLOAD SWAP1 PUSH2 0x100 EXP SWAP1 DIV PUSH20 0xFFFFFFFFFFFFFFFFFFFFFFFFFFFFFFFFFFFFFFFF AND DUP2 JUMP JUMPDEST PUSH2 0x622 PUSH2 0xA78 JUMP JUMPDEST PUSH0 PUSH1 0x1 PUSH0 DUP5 DUP2 MSTORE PUSH1 0x20 ADD SWAP1 DUP2 MSTORE PUSH1 0x20 ADD PUSH0 KECCAK256 SWAP1 POP DUP2 DUP2 PUSH1 0x3 ADD SLOAD LT ISZERO PUSH2 0x67D JUMPI PUSH1 0x40 MLOAD PUSH32 0x8C379A000000000000000000000000000000000000000000000000000000000 DUP2 MSTORE PUSH1 0x4 ADD PUSH2 0x674 SWAP1 PUSH2 0x1143 JUMP JUMPDEST PUSH1 0x40 MLOAD DUP1 SWAP2 SUB SWAP1 REVERT JUMPDEST DUP2 DUP2 PUSH1 0x3 ADD PUSH0 DUP3 DUP3 SLOAD PUSH2 0x690 SWAP2 SWAP1 PUSH2 0x118E JUMP JUMPDEST SWAP3 POP POP DUP2 SWAP1 SSTORE POP PUSH0 DUP2 PUSH1 0x3 ADD SLOAD SUB PUSH2 0x6BE JUMPI PUSH0 DUP2 PUSH1 0x4 ADD PUSH0 PUSH2 0x100 EXP DUP2 SLOAD DUP2 PUSH1 0xFF MUL NOT AND SWAP1 DUP4 ISZERO ISZERO MUL OR SWAP1 SSTORE POP JUMPDEST CALLER PUSH20 0xFFFFFFFFFFFFFFFFFFFFFFFFFFFFFFFFFFFFFFFF AND DUP4 PUSH32 0x64D3C1CD49B6DEDF0828BB9CCDEDDCB5C406529C38385A4255E1938CDB77CBBB DUP5 PUSH1 0x40 MLOAD PUSH2 0x705 SWAP2 SWAP1 PUSH2 0xC45 JUMP JUMPDEST PUSH1 0x40 MLOAD DUP1 SWAP2 SUB SWAP1 LOG3 POP POP POP JUMP JUMPDEST PUSH0 DUP1 PUSH0 SWAP1 SLOAD SWAP1 PUSH2 0x100 EXP SWAP1 DIV PUSH20 0xFFFFFFFFFFFFFFFFFFFFFFFFFFFFFFFFFFFFFFFF AND SWAP1 POP SWAP1 JUMP JUMPDEST PUSH2 0x741 PUSH2 0xA78 JUMP JUMPDEST PUSH0 PUSH20 0xFFFFFFFFFFFFFFFFFFFFFFFFFFFFFFFFFFFFFFFF AND DUP2 PUSH20 0xFFFFFFFFFFFFFFFFFFFFFFFFFFFFFFFFFFFFFFFF AND SUB PUSH2 0x7B1 JUMPI PUSH0 PUSH1 0x40 MLOAD PUSH32 0x1E4FBDF700000000000000000000000000000000000000000000000000000000 DUP2 MSTORE PUSH1 0x4 ADD PUSH2 0x7A8 SWAP2 SWAP1 PUSH2 0xDF4 JUMP JUMPDEST PUSH1 0x40 MLOAD DUP1 SWAP2 SUB SWAP1 REVERT JUMPDEST PUSH2 0x7BA DUP2 PUSH2 0xAFF JUMP JUMPDEST POP JUMP JUMPDEST PUSH0 PUSH1 0x1 PUSH0 DUP6 DUP2 MSTORE PUSH1 0x20 ADD SWAP1 DUP2 MSTORE PUSH1 0x20 ADD PUSH0 KECCAK256 SWAP1 POP DUP1 PUSH1 0x4 ADD PUSH0 SWAP1 SLOAD SWAP1 PUSH2 0x100 EXP SWAP1 DIV PUSH1 0xFF AND PUSH2 0x821 JUMPI PUSH1 0x40 MLOAD PUSH32 0x8C379A000000000000000000000000000000000000000000000000000000000 DUP2 MSTORE PUSH1 0x4 ADD PUSH2 0x818 SWAP1 PUSH2 0x120B JUMP JUMPDEST PUSH1 0x40 MLOAD DUP1 SWAP2 SUB SWAP1 REVERT JUMPDEST DUP3 DUP2 PUSH1 0x3 ADD SLOAD LT ISZERO PUSH2 0x868 JUMPI PUSH1 0x40 MLOAD PUSH32 0x8C379A000000000000000000000000000000000000000000000000000000000 DUP2 MSTORE PUSH1 0x4 ADD PUSH2 0x85F SWAP1 PUSH2 0x1273 JUMP JUMPDEST PUSH1 0x40 MLOAD DUP1 SWAP2 SUB SWAP1 REVERT JUMPDEST PUSH0 DUP4 DUP3 PUSH1 0x2 ADD SLOAD PUSH2 0x879 SWAP2 SWAP1 PUSH2 0x1291 JUMP JUMPDEST SWAP1 POP DUP1 CALLVALUE EQ PUSH2 0x8BD JUMPI PUSH1 0x40 MLOAD PUSH32 0x8C379A000000000000000000000000000000000000000000000000000000000 DUP2 MSTORE PUSH1 0x4 ADD PUSH2 0x8B4 SWAP1 PUSH2 0x131C JUMP JUMPDEST PUSH1 0x40 MLOAD DUP1 SWAP2 SUB SWAP1 REVERT JUMPDEST CALLER PUSH20 0xFFFFFFFFFFFFFFFFFFFFFFFFFFFFFFFFFFFFFFFF AND DUP6 PUSH32 0x6C8D68B838F247ED7BCB21EA277E2E9304099FC25D2A89D666FB64482971E0FC DUP7 PUSH1 0x40 MLOAD PUSH2 0x904 SWAP2 SWAP1 PUSH2 0xC45 JUMP JUMPDEST PUSH1 0x40 MLOAD DUP1 SWAP2 SUB SWAP1 LOG3 POP POP POP POP POP JUMP JUMPDEST PUSH2 0x91B PUSH2 0xA78 JUMP JUMPDEST PUSH0 PUSH1 0x1 PUSH0 DUP8 DUP2 MSTORE PUSH1 0x20 ADD SWAP1 DUP2 MSTORE PUSH1 0x20 ADD PUSH0 KECCAK256 PUSH1 0x2 ADD SLOAD EQ PUSH2 0x971 JUMPI PUSH1 0x40 MLOAD PUSH32 0x8C379A000000000000000000000000000000000000000000000000000000000 DUP2 MSTORE PUSH1 0x4 ADD PUSH2 0x968 SWAP1 PUSH2 0x13AA JUMP JUMPDEST PUSH1 0x40 MLOAD DUP1 SWAP2 SUB SWAP1 REVERT JUMPDEST PUSH1 0x40 MLOAD DUP1 PUSH1 0xA0 ADD PUSH1 0x40 MSTORE DUP1 DUP6 DUP2 MSTORE PUSH1 0x20 ADD DUP5 DUP2 MSTORE PUSH1 0x20 ADD DUP4 DUP2 MSTORE PUSH1 0x20 ADD DUP3 DUP2 MSTORE PUSH1 0x20 ADD PUSH0 DUP4 GT ISZERO ISZERO DUP2 MSTORE POP PUSH1 0x1 PUSH0 DUP8 DUP2 MSTORE PUSH1 0x20 ADD SWAP1 DUP2 MSTORE PUSH1 0x20 ADD PUSH0 KECCAK256 PUSH0 DUP3 ADD MLOAD DUP2 PUSH0 ADD SWAP1 DUP2 PUSH2 0x9C0 SWAP2 SWAP1 PUSH2 0x1565 JUMP JUMPDEST POP PUSH1 0x20 DUP3 ADD MLOAD DUP2 PUSH1 0x1 ADD SWAP1 DUP2 PUSH2 0x9D6 SWAP2 SWAP1 PUSH2 0x1565 JUMP JUMPDEST POP PUSH1 0x40 DUP3 ADD MLOAD DUP2 PUSH1 0x2 ADD SSTORE PUSH1 0x60 DUP3 ADD MLOAD DUP2 PUSH1 0x3 ADD SSTORE PUSH1 0x80 DUP3 ADD MLOAD DUP2 PUSH1 0x4 ADD PUSH0 PUSH2 0x100 EXP DUP2 SLOAD DUP2 PUSH1 0xFF MUL NOT AND SWAP1 DUP4 ISZERO ISZERO MUL OR SWAP1 SSTORE POP SWAP1 POP POP PUSH1 0x3 DUP6 SWAP1 DUP1 PUSH1 0x1 DUP2 SLOAD ADD DUP1 DUP3 SSTORE DUP1 SWAP2 POP POP PUSH1 0x1 SWAP1 SUB SWAP1 PUSH0 MSTORE PUSH1 0x20 PUSH0 KECCAK256 ADD PUSH0 SWAP1 SWAP2 SWAP1 SWAP2 SWAP1 SWAP2 POP SSTORE DUP5 PUSH32 0x722C04650224F771C04EC5712C74689980B3DDB4EAA233CD8F9C72D7DA7FBE29 DUP6 DUP6 DUP6 DUP6 PUSH1 0x40 MLOAD PUSH2 0xA69 SWAP5 SWAP4 SWAP3 SWAP2 SWAP1 PUSH2 0x1634 JUMP JUMPDEST PUSH1 0x40 MLOAD DUP1 SWAP2 SUB SWAP1 LOG2 POP POP POP POP POP JUMP JUMPDEST PUSH2 0xA80 PUSH2 0xBC0 JUMP JUMPDEST PUSH20 0xFFFFFFFFFFFFFFFFFFFFFFFFFFFFFFFFFFFFFFFF AND PUSH2 0xA9E PUSH2 0x712 JUMP JUMPDEST PUSH20 0xFFFFFFFFFFFFFFFFFFFFFFFFFFFFFFFFFFFFFFFF AND EQ PUSH2 0xAFD JUMPI PUSH2 0xAC1 PUSH2 0xBC0 JUMP JUMPDEST PUSH1 0x40 MLOAD PUSH32 0x118CDAA700000000000000000000000000000000000000000000000000000000 DUP2 MSTORE PUSH1 0x4 ADD PUSH2 0xAF4 SWAP2 SWAP1 PUSH2 0xDF4 JUMP JUMPDEST PUSH1 0x40 MLOAD DUP1 SWAP2 SUB SWAP1 REVERT JUMPDEST JUMP JUMPDEST PUSH0 DUP1 PUSH0 SWAP1 SLOAD SWAP1 PUSH2 0x100 EXP SWAP1 DIV PUSH20 0xFFFFFFFFFFFFFFFFFFFFFFFFFFFFFFFFFFFFFFFF AND SWAP1 POP DUP2 PUSH0 DUP1 PUSH2 0x100 EXP DUP2 SLOAD DUP2 PUSH20 0xFFFFFFFFFFFFFFFFFFFFFFFFFFFFFFFFFFFFFFFF MUL NOT AND SWAP1 DUP4 PUSH20 0xFFFFFFFFFFFFFFFFFFFFFFFFFFFFFFFFFFFFFFFF AND MUL OR SWAP1 SSTORE POP DUP2 PUSH20 0xFFFFFFFFFFFFFFFFFFFFFFFFFFFFFFFFFFFFFFFF AND DUP2 PUSH20 0xFFFFFFFFFFFFFFFFFFFFFFFFFFFFFFFFFFFFFFFF AND PUSH32 0x8BE0079C531659141344CD1FD0A4F28419497F9722A3DAAFE3B4186F6B6457E0 PUSH1 0x40 MLOAD PUSH1 0x40 MLOAD DUP1 SWAP2 SUB SWAP1 LOG3 POP POP JUMP JUMPDEST PUSH0 CALLER SWAP1 POP SWAP1 JUMP JUMPDEST PUSH0 PUSH1 0x40 MLOAD SWAP1 POP SWAP1 JUMP JUMPDEST PUSH0 DUP1 REVERT JUMPDEST PUSH0 DUP1 REVERT JUMPDEST PUSH0 DUP2 SWAP1 POP SWAP2 SWAP1 POP JUMP JUMPDEST PUSH2 0xBEA DUP2 PUSH2 0xBD8 JUMP JUMPDEST DUP2 EQ PUSH2 0xBF4 JUMPI PUSH0 DUP1 REVERT JUMPDEST POP JUMP JUMPDEST PUSH0 DUP2 CALLDATALOAD SWAP1 POP PUSH2 0xC05 DUP2 PUSH2 0xBE1 JUMP JUMPDEST SWAP3 SWAP2 POP POP JUMP JUMPDEST PUSH0 PUSH1 0x20 DUP3 DUP5 SUB SLT ISZERO PUSH2 0xC20 JUMPI PUSH2 0xC1F PUSH2 0xBD0 JUMP JUMPDEST JUMPDEST PUSH0 PUSH2 0xC2D DUP5 DUP3 DUP6 ADD PUSH2 0xBF7 JUMP JUMPDEST SWAP2 POP POP SWAP3 SWAP2 POP POP JUMP JUMPDEST PUSH2 0xC3F DUP2 PUSH2 0xBD8 JUMP JUMPDEST DUP3 MSTORE POP POP JUMP JUMPDEST PUSH0 PUSH1 0x20 DUP3 ADD SWAP1 POP PUSH2 0xC58 PUSH0 DUP4 ADD DUP5 PUSH2 0xC36 JUMP JUMPDEST SWAP3 SWAP2 POP POP JUMP JUMPDEST PUSH0 PUSH20 0xFFFFFFFFFFFFFFFFFFFFFFFFFFFFFFFFFFFFFFFF DUP3 AND SWAP1 POP SWAP2 SWAP1 POP JUMP JUMPDEST PUSH0 PUSH2 0xC87 DUP3 PUSH2 0xC5E JUMP JUMPDEST SWAP1 POP SWAP2 SWAP1 POP JUMP JUMPDEST PUSH2 0xC97 DUP2 PUSH2 0xC7D JUMP JUMPDEST DUP2 EQ PUSH2 0xCA1 JUMPI PUSH0 DUP1 REVERT JUMPDEST POP JUMP JUMPDEST PUSH0 DUP2 CALLDATALOAD SWAP1 POP PUSH2 0xCB2 DUP2 PUSH2 0xC8E JUMP JUMPDEST SWAP3 SWAP2 POP POP JUMP JUMPDEST PUSH0 PUSH1 0x20 DUP3 DUP5 SUB SLT ISZERO PUSH2 0xCCD JUMPI PUSH2 0xCCC PUSH2 0xBD0 JUMP JUMPDEST JUMPDEST PUSH0 PUSH2 0xCDA DUP5 DUP3 DUP6 ADD PUSH2 0xCA4 JUMP JUMPDEST SWAP2 POP POP SWAP3 SWAP2 POP POP JUMP JUMPDEST PUSH0 DUP2 ISZERO ISZERO SWAP1 POP SWAP2 SWAP1 POP JUMP JUMPDEST PUSH2 0xCF7 DUP2 PUSH2 0xCE3 JUMP JUMPDEST DUP3 MSTORE POP POP JUMP JUMPDEST PUSH0 PUSH1 0x20 DUP3 ADD SWAP1 POP PUSH2 0xD10 PUSH0 DUP4 ADD DUP5 PUSH2 0xCEE JUMP JUMPDEST SWAP3 SWAP2 POP POP JUMP JUMPDEST PUSH0 DUP2 MLOAD SWAP1 POP SWAP2 SWAP1 POP JUMP JUMPDEST PUSH0 DUP3 DUP3 MSTORE PUSH1 0x20 DUP3 ADD SWAP1 POP SWAP3 SWAP2 POP POP JUMP JUMPDEST DUP3 DUP2 DUP4 MCOPY PUSH0 DUP4 DUP4 ADD MSTORE POP POP POP JUMP JUMPDEST PUSH0 PUSH1 0x1F NOT PUSH1 0x1F DUP4 ADD AND SWAP1 POP SWAP2 SWAP1 POP JUMP JUMPDEST PUSH0 PUSH2 0xD58 DUP3 PUSH2 0xD16 JUMP JUMPDEST PUSH2 0xD62 DUP2 DUP6 PUSH2 0xD20 JUMP JUMPDEST SWAP4 POP PUSH2 0xD72 DUP2 DUP6 PUSH1 0x20 DUP7 ADD PUSH2 0xD30 JUMP JUMPDEST PUSH2 0xD7B DUP2 PUSH2 0xD3E JUMP JUMPDEST DUP5 ADD SWAP2 POP POP SWAP3 SWAP2 POP POP JUMP JUMPDEST PUSH0 PUSH1 0xA0 DUP3 ADD SWAP1 POP DUP2 DUP2 SUB PUSH0 DUP4 ADD MSTORE PUSH2 0xD9E DUP2 DUP9 PUSH2 0xD4E JUMP JUMPDEST SWAP1 POP DUP2 DUP2 SUB PUSH1 0x20 DUP4 ADD MSTORE PUSH2 0xDB2 DUP2 DUP8 PUSH2 0xD4E JUMP JUMPDEST SWAP1 POP PUSH2 0xDC1 PUSH1 0x40 DUP4 ADD DUP7 PUSH2 0xC36 JUMP JUMPDEST PUSH2 0xDCE PUSH1 0x60 DUP4 ADD DUP6 PUSH2 0xC36 JUMP JUMPDEST PUSH2 0xDDB PUSH1 0x80 DUP4 ADD DUP5 PUSH2 0xCEE JUMP JUMPDEST SWAP7 SWAP6 POP POP POP POP POP POP JUMP JUMPDEST PUSH2 0xDEE DUP2 PUSH2 0xC7D JUMP JUMPDEST DUP3 MSTORE POP POP JUMP JUMPDEST PUSH0 PUSH1 0x20 DUP3 ADD SWAP1 POP PUSH2 0xE07 PUSH0 DUP4 ADD DUP5 PUSH2 0xDE5 JUMP JUMPDEST SWAP3 SWAP2 POP POP JUMP JUMPDEST PUSH0 DUP1 PUSH1 0x40 DUP4 DUP6 SUB SLT ISZERO PUSH2 0xE23 JUMPI PUSH2 0xE22 PUSH2 0xBD0 JUMP JUMPDEST JUMPDEST PUSH0 PUSH2 0xE30 DUP6 DUP3 DUP7 ADD PUSH2 0xBF7 JUMP JUMPDEST SWAP3 POP POP PUSH1 0x20 PUSH2 0xE41 DUP6 DUP3 DUP7 ADD PUSH2 0xBF7 JUMP JUMPDEST SWAP2 POP POP SWAP3 POP SWAP3 SWAP1 POP JUMP JUMPDEST PUSH0 DUP1 PUSH0 PUSH1 0x60 DUP5 DUP7 SUB SLT ISZERO PUSH2 0xE62 JUMPI PUSH2 0xE61 PUSH2 0xBD0 JUMP JUMPDEST JUMPDEST PUSH0 PUSH2 0xE6F DUP7 DUP3 DUP8 ADD PUSH2 0xBF7 JUMP JUMPDEST SWAP4 POP POP PUSH1 0x20 PUSH2 0xE80 DUP7 DUP3 DUP8 ADD PUSH2 0xBF7 JUMP JUMPDEST SWAP3 POP POP PUSH1 0x40 PUSH2 0xE91 DUP7 DUP3 DUP8 ADD PUSH2 0xBF7 JUMP JUMPDEST SWAP2 POP POP SWAP3 POP SWAP3 POP SWAP3 JUMP JUMPDEST PUSH0 DUP1 REVERT JUMPDEST PUSH0 DUP1 REVERT JUMPDEST PUSH32 0x4E487B7100000000000000000000000000000000000000000000000000000000 PUSH0 MSTORE PUSH1 0x41 PUSH1 0x4 MSTORE PUSH1 0x24 PUSH0 REVERT JUMPDEST PUSH2 0xED9 DUP3 PUSH2 0xD3E JUMP JUMPDEST DUP2 ADD DUP2 DUP2 LT PUSH8 0xFFFFFFFFFFFFFFFF DUP3 GT OR ISZERO PUSH2 0xEF8 JUMPI PUSH2 0xEF7 PUSH2 0xEA3 JUMP JUMPDEST JUMPDEST DUP1 PUSH1 0x40 MSTORE POP POP POP JUMP JUMPDEST PUSH0 PUSH2 0xF0A PUSH2 0xBC7 JUMP JUMPDEST SWAP1 POP PUSH2 0xF16 DUP3 DUP3 PUSH2 0xED0 JUMP JUMPDEST SWAP2 SWAP1 POP JUMP JUMPDEST PUSH0 PUSH8 0xFFFFFFFFFFFFFFFF DUP3 GT ISZERO PUSH2 0xF35 JUMPI PUSH2 0xF34 PUSH2 0xEA3 JUMP JUMPDEST JUMPDEST PUSH2 0xF3E DUP3 PUSH2 0xD3E JUMP JUMPDEST SWAP1 POP PUSH1 0x20 DUP2 ADD SWAP1 POP SWAP2 SWAP1 POP JUMP JUMPDEST DUP3 DUP2 DUP4 CALLDATACOPY PUSH0 DUP4 DUP4 ADD MSTORE POP POP POP JUMP JUMPDEST PUSH0 PUSH2 0xF6B PUSH2 0xF66 DUP5 PUSH2 0xF1B JUMP JUMPDEST PUSH2 0xF01 JUMP JUMPDEST SWAP1 POP DUP3 DUP2 MSTORE PUSH1 0x20 DUP2 ADD DUP5 DUP5 DUP5 ADD GT ISZERO PUSH2 0xF87 JUMPI PUSH2 0xF86 PUSH2 0xE9F JUMP JUMPDEST JUMPDEST PUSH2 0xF92 DUP5 DUP3 DUP6 PUSH2 0xF4B JUMP JUMPDEST POP SWAP4 SWAP3 POP POP POP JUMP JUMPDEST PUSH0 DUP3 PUSH1 0x1F DUP4 ADD SLT PUSH2 0xFAE JUMPI PUSH2 0xFAD PUSH2 0xE9B JUMP JUMPDEST JUMPDEST DUP2 CALLDATALOAD PUSH2 0xFBE DUP5 DUP3 PUSH1 0x20 DUP7 ADD PUSH2 0xF59 JUMP JUMPDEST SWAP2 POP POP SWAP3 SWAP2 POP POP JUMP JUMPDEST PUSH0 DUP1 PUSH0 DUP1 PUSH0 PUSH1 0xA0 DUP7 DUP9 SUB SLT ISZERO PUSH2 0xFE0 JUMPI PUSH2 0xFDF PUSH2 0xBD0 JUMP JUMPDEST JUMPDEST PUSH0 PUSH2 0xFED DUP9 DUP3 DUP10 ADD PUSH2 0xBF7 JUMP JUMPDEST SWAP6 POP POP PUSH1 0x20 DUP7 ADD CALLDATALOAD PUSH8 0xFFFFFFFFFFFFFFFF DUP2 GT ISZERO PUSH2 0x100E JUMPI PUSH2 0x100D PUSH2 0xBD4 JUMP JUMPDEST JUMPDEST PUSH2 0x101A DUP9 DUP3 DUP10 ADD PUSH2 0xF9A JUMP JUMPDEST SWAP5 POP POP PUSH1 0x40 DUP7 ADD CALLDATALOAD PUSH8 0xFFFFFFFFFFFFFFFF DUP2 GT ISZERO PUSH2 0x103B JUMPI PUSH2 0x103A PUSH2 0xBD4 JUMP JUMPDEST JUMPDEST PUSH2 0x1047 DUP9 DUP3 DUP10 ADD PUSH2 0xF9A JUMP JUMPDEST SWAP4 POP POP PUSH1 0x60 PUSH2 0x1058 DUP9 DUP3 DUP10 ADD PUSH2 0xBF7 JUMP JUMPDEST SWAP3 POP POP PUSH1 0x80 PUSH2 0x1069 DUP9 DUP3 DUP10 ADD PUSH2 0xBF7 JUMP JUMPDEST SWAP2 POP POP SWAP3 SWAP6 POP SWAP3 SWAP6 SWAP1 SWAP4 POP JUMP JUMPDEST PUSH32 0x4E487B7100000000000000000000000000000000000000000000000000000000 PUSH0 MSTORE PUSH1 0x22 PUSH1 0x4 MSTORE PUSH1 0x24 PUSH0 REVERT JUMPDEST PUSH0 PUSH1 0x2 DUP3 DIV SWAP1 POP PUSH1 0x1 DUP3 AND DUP1 PUSH2 0x10BA JUMPI PUSH1 0x7F DUP3 AND SWAP2 POP JUMPDEST PUSH1 0x20 DUP3 LT DUP2 SUB PUSH2 0x10CD JUMPI PUSH2 0x10CC PUSH2 0x1076 JUMP JUMPDEST JUMPDEST POP SWAP2 SWAP1 POP JUMP JUMPDEST PUSH32 0x6E6F7420656E6F756768742073746F636B20746F20636F6E6669726D20707572 PUSH0 DUP3 ADD MSTORE PUSH32 0x6368617365000000000000000000000000000000000000000000000000000000 PUSH1 0x20 DUP3 ADD MSTORE POP JUMP JUMPDEST PUSH0 PUSH2 0x112D PUSH1 0x25 DUP4 PUSH2 0xD20 JUMP JUMPDEST SWAP2 POP PUSH2 0x1138 DUP3 PUSH2 0x10D3 JUMP JUMPDEST PUSH1 0x40 DUP3 ADD SWAP1 POP SWAP2 SWAP1 POP JUMP JUMPDEST PUSH0 PUSH1 0x20 DUP3 ADD SWAP1 POP DUP2 DUP2 SUB PUSH0 DUP4 ADD MSTORE PUSH2 0x115A DUP2 PUSH2 0x1121 JUMP JUMPDEST SWAP1 POP SWAP2 SWAP1 POP JUMP JUMPDEST PUSH32 0x4E487B7100000000000000000000000000000000000000000000000000000000 PUSH0 MSTORE PUSH1 0x11 PUSH1 0x4 MSTORE PUSH1 0x24 PUSH0 REVERT JUMPDEST PUSH0 PUSH2 0x1198 DUP3 PUSH2 0xBD8 JUMP JUMPDEST SWAP2 POP PUSH2 0x11A3 DUP4 PUSH2 0xBD8 JUMP JUMPDEST SWAP3 POP DUP3 DUP3 SUB SWAP1 POP DUP2 DUP2 GT ISZERO PUSH2 0x11BB JUMPI PUSH2 0x11BA PUSH2 0x1161 JUMP JUMPDEST JUMPDEST SWAP3 SWAP2 POP POP JUMP JUMPDEST PUSH32 0x5468697320626F6F6B206973206E6F7420617661696C61626C652E0000000000 PUSH0 DUP3 ADD MSTORE POP JUMP JUMPDEST PUSH0 PUSH2 0x11F5 PUSH1 0x1B DUP4 PUSH2 0xD20 JUMP JUMPDEST SWAP2 POP PUSH2 0x1200 DUP3 PUSH2 0x11C1 JUMP JUMPDEST PUSH1 0x20 DUP3 ADD SWAP1 POP SWAP2 SWAP1 POP JUMP JUMPDEST PUSH0 PUSH1 0x20 DUP3 ADD SWAP1 POP DUP2 DUP2 SUB PUSH0 DUP4 ADD MSTORE PUSH2 0x1222 DUP2 PUSH2 0x11E9 JUMP JUMPDEST SWAP1 POP SWAP2 SWAP1 POP JUMP JUMPDEST PUSH32 0x4E6F7420656E6F7567682073746F636B20617661696C61626C652E0000000000 PUSH0 DUP3 ADD MSTORE POP JUMP JUMPDEST PUSH0 PUSH2 0x125D PUSH1 0x1B DUP4 PUSH2 0xD20 JUMP JUMPDEST SWAP2 POP PUSH2 0x1268 DUP3 PUSH2 0x1229 JUMP JUMPDEST PUSH1 0x20 DUP3 ADD SWAP1 POP SWAP2 SWAP1 POP JUMP JUMPDEST PUSH0 PUSH1 0x20 DUP3 ADD SWAP1 POP DUP2 DUP2 SUB PUSH0 DUP4 ADD MSTORE PUSH2 0x128A DUP2 PUSH2 0x1251 JUMP JUMPDEST SWAP1 POP SWAP2 SWAP1 POP JUMP JUMPDEST PUSH0 PUSH2 0x129B DUP3 PUSH2 0xBD8 JUMP JUMPDEST SWAP2 POP PUSH2 0x12A6 DUP4 PUSH2 0xBD8 JUMP JUMPDEST SWAP3 POP DUP3 DUP3 MUL PUSH2 0x12B4 DUP2 PUSH2 0xBD8 JUMP JUMPDEST SWAP2 POP DUP3 DUP3 DIV DUP5 EQ DUP4 ISZERO OR PUSH2 0x12CB JUMPI PUSH2 0x12CA PUSH2 0x1161 JUMP JUMPDEST JUMPDEST POP SWAP3 SWAP2 POP POP JUMP JUMPDEST PUSH32 0x20496E636F7272656374207061796D656E7420616D6F756E7400000000000000 PUSH0 DUP3 ADD MSTORE POP JUMP JUMPDEST PUSH0 PUSH2 0x1306 PUSH1 0x19 DUP4 PUSH2 0xD20 JUMP JUMPDEST SWAP2 POP PUSH2 0x1311 DUP3 PUSH2 0x12D2 JUMP JUMPDEST PUSH1 0x20 DUP3 ADD SWAP1 POP SWAP2 SWAP1 POP JUMP JUMPDEST PUSH0 PUSH1 0x20 DUP3 ADD SWAP1 POP DUP2 DUP2 SUB PUSH0 DUP4 ADD MSTORE PUSH2 0x1333 DUP2 PUSH2 0x12FA JUMP JUMPDEST SWAP1 POP SWAP2 SWAP1 POP JUMP JUMPDEST PUSH32 0x426F6F6B20616C72656164792065786973747320776974682074686973204944 PUSH0 DUP3 ADD MSTORE PUSH32 0x2E00000000000000000000000000000000000000000000000000000000000000 PUSH1 0x20 DUP3 ADD MSTORE POP JUMP JUMPDEST PUSH0 PUSH2 0x1394 PUSH1 0x21 DUP4 PUSH2 0xD20 JUMP JUMPDEST SWAP2 POP PUSH2 0x139F DUP3 PUSH2 0x133A JUMP JUMPDEST PUSH1 0x40 DUP3 ADD SWAP1 POP SWAP2 SWAP1 POP JUMP JUMPDEST PUSH0 PUSH1 0x20 DUP3 ADD SWAP1 POP DUP2 DUP2 SUB PUSH0 DUP4 ADD MSTORE PUSH2 0x13C1 DUP2 PUSH2 0x1388 JUMP JUMPDEST SWAP1 POP SWAP2 SWAP1 POP JUMP JUMPDEST PUSH0 DUP2 SWAP1 POP DUP2 PUSH0 MSTORE PUSH1 0x20 PUSH0 KECCAK256 SWAP1 POP SWAP2 SWAP1 POP JUMP JUMPDEST PUSH0 PUSH1 0x20 PUSH1 0x1F DUP4 ADD DIV SWAP1 POP SWAP2 SWAP1 POP JUMP JUMPDEST PUSH0 DUP3 DUP3 SHL SWAP1 POP SWAP3 SWAP2 POP POP JUMP JUMPDEST PUSH0 PUSH1 0x8 DUP4 MUL PUSH2 0x1424 PUSH32 0xFFFFFFFFFFFFFFFFFFFFFFFFFFFFFFFFFFFFFFFFFFFFFFFFFFFFFFFFFFFFFFFF DUP3 PUSH2 0x13E9 JUMP JUMPDEST PUSH2 0x142E DUP7 DUP4 PUSH2 0x13E9 JUMP JUMPDEST SWAP6 POP DUP1 NOT DUP5 AND SWAP4 POP DUP1 DUP7 AND DUP5 OR SWAP3 POP POP POP SWAP4 SWAP3 POP POP POP JUMP JUMPDEST PUSH0 DUP2 SWAP1 POP SWAP2 SWAP1 POP JUMP JUMPDEST PUSH0 PUSH2 0x1469 PUSH2 0x1464 PUSH2 0x145F DUP5 PUSH2 0xBD8 JUMP JUMPDEST PUSH2 0x1446 JUMP JUMPDEST PUSH2 0xBD8 JUMP JUMPDEST SWAP1 POP SWAP2 SWAP1 POP JUMP JUMPDEST PUSH0 DUP2 SWAP1 POP SWAP2 SWAP1 POP JUMP JUMPDEST PUSH2 0x1482 DUP4 PUSH2 0x144F JUMP JUMPDEST PUSH2 0x1496 PUSH2 0x148E DUP3 PUSH2 0x1470 JUMP JUMPDEST DUP5 DUP5 SLOAD PUSH2 0x13F5 JUMP JUMPDEST DUP3 SSTORE POP POP POP POP JUMP JUMPDEST PUSH0 SWAP1 JUMP JUMPDEST PUSH2 0x14AA PUSH2 0x149E JUMP JUMPDEST PUSH2 0x14B5 DUP2 DUP5 DUP5 PUSH2 0x1479 JUMP JUMPDEST POP POP POP JUMP JUMPDEST JUMPDEST DUP2 DUP2 LT ISZERO PUSH2 0x14D8 JUMPI PUSH2 0x14CD PUSH0 DUP3 PUSH2 0x14A2 JUMP JUMPDEST PUSH1 0x1 DUP2 ADD SWAP1 POP PUSH2 0x14BB JUMP JUMPDEST POP POP JUMP JUMPDEST PUSH1 0x1F DUP3 GT ISZERO PUSH2 0x151D JUMPI PUSH2 0x14EE DUP2 PUSH2 0x13C8 JUMP JUMPDEST PUSH2 0x14F7 DUP5 PUSH2 0x13DA JUMP JUMPDEST DUP2 ADD PUSH1 0x20 DUP6 LT ISZERO PUSH2 0x1506 JUMPI DUP2 SWAP1 POP JUMPDEST PUSH2 0x151A PUSH2 0x1512 DUP6 PUSH2 0x13DA JUMP JUMPDEST DUP4 ADD DUP3 PUSH2 0x14BA JUMP JUMPDEST POP POP JUMPDEST POP POP POP JUMP JUMPDEST PUSH0 DUP3 DUP3 SHR SWAP1 POP SWAP3 SWAP2 POP POP JUMP JUMPDEST PUSH0 PUSH2 0x153D PUSH0 NOT DUP5 PUSH1 0x8 MUL PUSH2 0x1522 JUMP JUMPDEST NOT DUP1 DUP4 AND SWAP2 POP POP SWAP3 SWAP2 POP POP JUMP JUMPDEST PUSH0 PUSH2 0x1555 DUP4 DUP4 PUSH2 0x152E JUMP JUMPDEST SWAP2 POP DUP3 PUSH1 0x2 MUL DUP3 OR SWAP1 POP SWAP3 SWAP2 POP POP JUMP JUMPDEST PUSH2 0x156E DUP3 PUSH2 0xD16 JUMP JUMPDEST PUSH8 0xFFFFFFFFFFFFFFFF DUP2 GT ISZERO PUSH2 0x1587 JUMPI PUSH2 0x1586 PUSH2 0xEA3 JUMP JUMPDEST JUMPDEST PUSH2 0x1591 DUP3 SLOAD PUSH2 0x10A3 JUMP JUMPDEST PUSH2 0x159C DUP3 DUP3 DUP6 PUSH2 0x14DC JUMP JUMPDEST PUSH0 PUSH1 0x20 SWAP1 POP PUSH1 0x1F DUP4 GT PUSH1 0x1 DUP2 EQ PUSH2 0x15CD JUMPI PUSH0 DUP5 ISZERO PUSH2 0x15BB JUMPI DUP3 DUP8 ADD MLOAD SWAP1 POP JUMPDEST PUSH2 0x15C5 DUP6 DUP3 PUSH2 0x154A JUMP JUMPDEST DUP7 SSTORE POP PUSH2 0x162C JUMP JUMPDEST PUSH1 0x1F NOT DUP5 AND PUSH2 0x15DB DUP7 PUSH2 0x13C8 JUMP JUMPDEST PUSH0 JUMPDEST DUP3 DUP2 LT ISZERO PUSH2 0x1602 JUMPI DUP5 DUP10 ADD MLOAD DUP3 SSTORE PUSH1 0x1 DUP3 ADD SWAP2 POP PUSH1 0x20 DUP6 ADD SWAP5 POP PUSH1 0x20 DUP2 ADD SWAP1 POP PUSH2 0x15DD JUMP JUMPDEST DUP7 DUP4 LT ISZERO PUSH2 0x161F JUMPI DUP5 DUP10 ADD MLOAD PUSH2 0x161B PUSH1 0x1F DUP10 AND DUP3 PUSH2 0x152E JUMP JUMPDEST DUP4 SSTORE POP JUMPDEST PUSH1 0x1 PUSH1 0x2 DUP9 MUL ADD DUP9 SSTORE POP POP POP JUMPDEST POP POP POP POP POP POP JUMP JUMPDEST PUSH0 PUSH1 0x80 DUP3 ADD SWAP1 POP DUP2 DUP2 SUB PUSH0 DUP4 ADD MSTORE PUSH2 0x164C DUP2 DUP8 PUSH2 0xD4E JUMP JUMPDEST SWAP1 POP DUP2 DUP2 SUB PUSH1 0x20 DUP4 ADD MSTORE PUSH2 0x1660 DUP2 DUP7 PUSH2 0xD4E JUMP JUMPDEST SWAP1 POP PUSH2 0x166F PUSH1 0x40 DUP4 ADD DUP6 PUSH2 0xC36 JUMP JUMPDEST PUSH2 0x167C PUSH1 0x60 DUP4 ADD DUP5 PUSH2 0xC36 JUMP JUMPDEST SWAP6 SWAP5 POP POP POP POP POP JUMP INVALID LOG2 PUSH5 0x6970667358 0x22 SLT KECCAK256 0xC3 SWAP1 PUSH0 0xA8 0x24 0x26 DUP7 0xA8 0xC8 0xD1 SHR 0xB0 SWAP7 PUSH24 0x75B562950D1D91B884DAFE42E34B49DF4C7564736F6C6343 STOP ADDMOD BYTE STOP CALLER "
				},
				"gasEstimates": {
					"creation": {
						"codeDepositCost": "1163800",
						"executionCost": "infinite",
						"totalCost": "infinite"
					},
					"external": {
						"addBook(uint256,string,string,uint256,uint256)": "infinite",
						"bookIds(uint256)": "infinite",
						"books(uint256)": "infinite",
						"buyBook(uint256,uint256,uint256)": "infinite",
						"confirmPurchase(uint256,uint256)": "infinite",
						"getBooks(uint256)": "infinite",
						"owner()": "2559",
						"renounceOwnership()": "infinite",
						"subscriberList(uint256)": "4944",
						"subscribers(address)": "2856",
						"transferOwnership(address)": "infinite"
					}
				},
				"methodIdentifiers": {
					"addBook(uint256,string,string,uint256,uint256)": "f733719c",
					"bookIds(uint256)": "513073b8",
					"books(uint256)": "68744046",
					"buyBook(uint256,uint256,uint256)": "f346e2b7",
					"confirmPurchase(uint256,uint256)": "8c1af2e0",
					"getBooks(uint256)": "5ac3e19e",
					"owner()": "8da5cb5b",
					"renounceOwnership()": "715018a6",
					"subscriberList(uint256)": "83c2eaba",
					"subscribers(address)": "5745ae28",
					"transferOwnership(address)": "f2fde38b"
				}
			},
			"storageLayout": {
				"storage": [
					{
						"astId": 8,
						"contract": "BookStore.sol:BookStore",
						"label": "_owner",
						"offset": 0,
						"slot": "0",
						"type": "t_address"
					},
					{
						"astId": 219,
						"contract": "BookStore.sol:BookStore",
						"label": "books",
						"offset": 0,
						"slot": "1",
						"type": "t_mapping(t_uint256,t_struct(Book)214_storage)"
					},
					{
						"astId": 223,
						"contract": "BookStore.sol:BookStore",
						"label": "subscribers",
						"offset": 0,
						"slot": "2",
						"type": "t_mapping(t_address,t_bool)"
					},
					{
						"astId": 226,
						"contract": "BookStore.sol:BookStore",
						"label": "bookIds",
						"offset": 0,
						"slot": "3",
						"type": "t_array(t_uint256)dyn_storage"
					},
					{
						"astId": 229,
						"contract": "BookStore.sol:BookStore",
						"label": "subscriberList",
						"offset": 0,
						"slot": "4",
						"type": "t_array(t_address)dyn_storage"
					}
				],
				"types": {
					"t_address": {
						"encoding": "inplace",
						"label": "address",
						"numberOfBytes": "20"
					},
					"t_array(t_address)dyn_storage": {
						"base": "t_address",
						"encoding": "dynamic_array",
						"label": "address[]",
						"numberOfBytes": "32"
					},
					"t_array(t_uint256)dyn_storage": {
						"base": "t_uint256",
						"encoding": "dynamic_array",
						"label": "uint256[]",
						"numberOfBytes": "32"
					},
					"t_bool": {
						"encoding": "inplace",
						"label": "bool",
						"numberOfBytes": "1"
					},
					"t_mapping(t_address,t_bool)": {
						"encoding": "mapping",
						"key": "t_address",
						"label": "mapping(address => bool)",
						"numberOfBytes": "32",
						"value": "t_bool"
					},
					"t_mapping(t_uint256,t_struct(Book)214_storage)": {
						"encoding": "mapping",
						"key": "t_uint256",
						"label": "mapping(uint256 => struct BookStore.Book)",
						"numberOfBytes": "32",
						"value": "t_struct(Book)214_storage"
					},
					"t_string_storage": {
						"encoding": "bytes",
						"label": "string",
						"numberOfBytes": "32"
					},
					"t_struct(Book)214_storage": {
						"encoding": "inplace",
						"label": "struct BookStore.Book",
						"members": [
							{
								"astId": 205,
								"contract": "BookStore.sol:BookStore",
								"label": "title",
								"offset": 0,
								"slot": "0",
								"type": "t_string_storage"
							},
							{
								"astId": 207,
								"contract": "BookStore.sol:BookStore",
								"label": "author",
								"offset": 0,
								"slot": "1",
								"type": "t_string_storage"
							},
							{
								"astId": 209,
								"contract": "BookStore.sol:BookStore",
								"label": "price",
								"offset": 0,
								"slot": "2",
								"type": "t_uint256"
							},
							{
								"astId": 211,
								"contract": "BookStore.sol:BookStore",
								"label": "stock",
								"offset": 0,
								"slot": "3",
								"type": "t_uint256"
							},
							{
								"astId": 213,
								"contract": "BookStore.sol:BookStore",
								"label": "isAvailable",
								"offset": 0,
								"slot": "4",
								"type": "t_bool"
							}
						],
						"numberOfBytes": "160"
					},
					"t_uint256": {
						"encoding": "inplace",
						"label": "uint256",
						"numberOfBytes": "32"
					}
				}
			},
			"userdoc": {
				"kind": "user",
				"methods": {},
				"version": 1
			}
		}
	}
}